:020000040800F2
:1000000030080020B1020008D12B0008A92A0008FE
:10001000CD2B0008611400088D2D000800000000A1
:10002000000000000000000000000000D92B0008C4
:100030007114000800000000D52B0008DD2B00081B
:10004000CB020008CB020008CB020008CB0200085C
:10005000CB020008CB020008CB020008CB0200084C
:10006000CB020008CB020008CB020008CB0200083C
:10007000CB020008CB020008CB0200086514000880
:10008000CB020008CB020008CB020008CB0200081C
:10009000CB020008CB020008CB020008CB0200080C
:1000A000CB020008CB020008CB020008CB020008FC
:1000B000CB020008CB020008CB020008CB020008EC
:1000C000CB020008CB020008CB020008CB020008DC
:1000D000CB020008752D0008812D0008CB02000816
:1000E000CB020008CB020008CB020008CB020008BC
:1000F000CB020008CB020008CB020008CB020008AC
:10010000CB020008CB020008CB020008CB0200089B
:10011000CB020008CB020008CB020008CB0200088B
:10012000CB020008CB020008CB020008CB0200087B
:1001300000F002F800F092F80AA090E8000C824467
:100140008344AAF10107DA4501D100F087F8AFF244
:10015000090EBAE80F0013F0010F18BFFB1A43F0A5
:10016000010318471437000034370000103A24BF49
:1001700078C878C1FAD8520724BF30C830C144BF0C
:1001800004680C607047000000230024002500264E
:10019000103A28BF78C1FBD8520728BF30C148BFEA
:1001A0000B6070476E2900F09381702900F0D582B2
:1001B000662903F0C982652903F0C682672903F026
:1001C000C382612903F0C28203681B0A28BF41F081
:1001D0008001692900F04081642900F03D81752982
:1001E00000F03A816F2900F06382782900F0A18243
:1001F000E92900F0FD81E42900F0FA81F52900F0F9
:10020000F781EF2900F06082F82900F0A0820368EE
:10021000DB0928BF41F08001632900F0A187732921
:1002200000F0A687E32900F0B187F32900F0B68734
:10023000002070471FB500F082F801F005F80400B7
:100240000020002103F06AFA401C606000200021B9
:1002500003F04EFAE0601FBD10B510BD00F0C6FF00
:100260001146FFF7E7FF02F093FD01F0A3F803B496
:10027000FFF7F2FF03BC01F0EDF800000B49D1F8E5
:1002800000C04A685CF8043B1068184442F8040B4C
:100290008C4528BFA1F1DC0C8A4228BFA1F1DC0209
:1002A000C1F800C04A6020F000407047EC00002018
:1002B0000948804709480047FEE7FEE7FEE7FEE7FA
:1002C000FEE7FEE7FEE7FEE7FEE7FEE70448054936
:1002D000054A064B70470000E12B00083101000879
:1002E00030020020300800203004002030040020BC
:1002F0001CB50C46064B7B4469460090204600F036
:1003000000F904460020694600F00EF920461CBDA5
:100310002F0200000B4910B5A1F17C020A4CC2E982
:100320003712372106E000EB104342F82130074B2B
:1003300000FB03400B1EA1F10101F4DC10BD012004
:10034000E8E700008C000020E119D666CD0D010021
:1003500010B5431C02E010F8011B71B18107FAD1FE
:100360004FF0013202C88C1A8C4314EAC211F9D042
:10037000C01A0A0603D0C01E10BDC01A10BD0A0460
:1003800001D0801E10BD0902FCD0401E10BD704778
:100390007047704770B5044685690068C10601D58D
:1003A000302600E02026C00707D070BDD4E9012127
:1003B00030469047206A401C20626D1EF6D570BD05
:1003C00070B5044685690078C00707D170BDD4E9CF
:1003D000012120209047206A401C20626D1EF6D526
:1003E00070BD09684A0501D540B27047C905FCD502
:1003F00000B2704709684A0501D5C0B27047C90507
:10040000FCD580B2704770B50C460546012A05D070
:100410002878800600D5EA69002302E0012305E080
:100420005B1C934202D2E05C0028F9D1A869E6186F
:10043000C01AA861286A184428622846FFF7AAFF54
:1004400004E0D5E9012114F8010B9047B442F8D338
:100450002846FFF7B5FF70BD2DE9F04106460024A0
:1004600010687529314616A510D0FFF7BAFF00288D
:1004700002DA404213A507E031688A0701D512A5C8
:1004800002E0490704D511A5012401E0FFF7B2FFFE
:1004900000210A2206F1240709E0B0FBF2FCB0FBC0
:1004A000F2F302FB1C00303078541846491C002837
:1004B000F3D123462A463046BDE8F04100F061BA48
:1004C000000000002D0000002B00000020000000B4
:1004D00011680268006A530501D508700AE0D30567
:1004E00001D5088006E0130603D5C217C1E9000252
:1004F00000E008600120704701694A1C0261087829
:10050000704700B58FB0CDE9013100210591054953
:100510007944CDE903101146684600F029F90FB07F
:1005200000BD0000E5FFFFFF0A6802F8010B0A604A
:10053000704700002DE9FF5F15468A460446DFF844
:10054000AC80F8440027D8E900103E46CDE9001001
:1005500010E03AF816106A4602A800F023FE411C8B
:1005600007D02178890603D5E269391891420DD860
:100570000744761C2078800602D5E069B84205DD84
:10058000AE42E6DB3AF816000028E2D1A069C01BB3
:10059000A0612046FFF7FEFED8E90010CDE900106B
:1005A000002017E03AF818106A4602A800F0FAFD99
:1005B000B0F1FF3F81460BD000250DF1080B05E09F
:1005C000D4E901211BF8050090476D1C4D45F7D378
:1005D00008F10100B0428046E4DB206A3844206222
:1005E0002046FFF7EDFEBDE8FF9F00000A32000045
:1005F0002DE9F0418046D21D22F007020025D2E904
:100600000002F52915A614D0011E72F1000106DAC8
:100610000023D0EB030063EB020211A608E0D8F838
:1006200000108B0701D50FA602E0490701D50EA6E1
:1006300001251146002408F1240704E000F05CF9CC
:1006400030323A55641C50EA0102F7D12B4632464B
:1006500021464046BDE8F04100F093B9000000009B
:100660002D0000002B0000002000000030B400210D
:1006700000F1240408E002F00705D208303542EA10
:100680004372DB086554491C52EA0305F3D1046840
:10069000002310A2250708D504F020040C4304D041
:1006A000C46901230CA2641EC46130BC00F069B9A6
:1006B00010B5044621461068FFF79CFE024620460E
:1006C000BDE810400023D1E7D21D22F00701D1E997
:1006D0000023CBE70000000030000000F0B40D461E
:1006E0000188090502D5214C7C4402E01F4C7C4462
:1006F0000E34002100F1240608E002F00F07120971
:10070000E75D42EA03721B097754491C52EA03076A
:10071000F3D102780023120704D5702D06D009B159
:10072000022311342246F0BC00F02BB9012310340F
:10073000F8E770B504460D4621461068FFF75AFEEB
:10074000024629462046BDE870400023C6E7D21D78
:1007500022F00703D3E90023C0E70368126843F0DF
:10076000200303600823C3610023B7E76C30000057
:100770002DE9F05F894604464FF0000ADFF874B1B6
:10078000FB44C0F820A02046E1688847002874D0C8
:10079000252806D0D4E901219047206A401C206218
:1007A000F1E700265F462046E16888472028054695
:1007B00007DB312D05D2781910F8200C08B106435B
:1007C000F1E7B00701D526F00406C4F81CA0002705
:1007D000C4F818A02A2D09D0284602F081FF38B3AA
:1007E00004EB8708303DC8F8185019E059F8041B8D
:1007F000204604EB87029161E1688847012F054696
:1008000018D1E069002820DA26F020061DE0D8F88B
:10081000180000EB800005EB40003038C8F81800E5
:100820002046E1688847054602F05AFF0028EED1CD
:10083000012F0AD02E2D08D12046E16888477F1C61
:100840000546022F46F02006C4DBA069002803DA23
:10085000404246F00106A061F00701D026F01006E4
:100860006C2D0BD0682D09D04C2D39D06A2D35D088
:10087000742D35D07A2D33D016E038E0E1682F465C
:1008800020468847B842054609D16C2F26D04FF440
:100890008060E168064320468847054604E06C2FE7
:1008A0001AD04FF4807006430DB3A5F1410019280A
:1008B00002D8203546F400664A462946204626607E
:1008C0004E46FFF76FFC80B101280BD0F61D26F0D5
:1008D000070000F1080956E74020E4E78020D8E748
:1008E0000020D6E706F104094DE7284652E7206AC2
:1008F000BDE8F09FFC2F000030B5B0F10A0271F1A5
:1009000000034FEA900E4EEA817EB0EB0E0061EBE1
:1009100091014FEA101E4EEA017E10EB0E0041EBF2
:1009200011114FEA102E4EEA016E10EB0E0041EB52
:1009300011214FEA104E4EEA014E10EB0E0041EB32
:100940001141401841F100014FEAD00040EA4170E6
:100950004FEAD1014FEA810444EA907410EB80051C
:1009600044EB01046D1944EB0404521BA3414FF006
:10097000000348BF0A3200D530BD401C41F10001E0
:1009800030BD2DE9F0470D4699469246044600F1E8
:1009900024080168880604D5E06921F0100121606F
:1009A00000E00120A84201DD471B00E00027A1690B
:1009B0007A1902EB0900081AA0612078C00602D457
:1009C0002046FFF7E7FC002608E0D4E901211AF8E9
:1009D00006009047206A401C761C20624E45F4DBDE
:1009E0002078C0060AD52046FFF7D4FC06E0D4E9FB
:1009F000012130209047206A401C2062381EA7F158
:100A00000107F4DC07E0D4E9012118F8050090475C
:100A1000206A401C2062281EA5F10105F3DC204657
:100A2000FFF7CEFC2078000602D50220BDE8F08753
:100A30000120FBE72DE9FF4F0C461E464FF0FF3724
:100A40008BB0D2E90001DDF860800A908A46C1F3DC
:100A50000A5505B93D46002108464FF00000BAF19D
:100A6000000F00F4400005DA00EB80004FF4400175
:100A700001EA50004FEA9059B9F1010F00DDB94683
:100A80000A9850EA4A000ED044F61050A5F2FF35FD
:100A900045432F14B8F1000F1ED07542291E1EDDEC
:100AA000C9F100021CE0B8F1010F4FF0000001D0C5
:100AB000302103E0F24305E02154401CB042FBDB4F
:100AC00030460022002121540B99C1F80880C1E969
:100AD00000200FB0BDE8F08FBD1B6D1CDEE74A465D
:100AE00000DA694206A800F0F3FB06AB93E80700C2
:100AF00003AB83E8070050460A9902F014FA8DE828
:100B00000700A0F500501F3800900398002D0ADD63
:100B100042F21F014A460844002303A90390684695
:100B200002F07EFC09E0A0F500504A461F38002381
:100B300003A90390684602F088FC8DE807000004D2
:100B4000000C03D04FF0FF30410800E01046B8F130
:100B5000000F03D00022009215461EE0751E05D43A
:100B6000FFF7CAFE303262556D1EF9D5B346012239
:100B7000084302D000227F1C04E02078302801D1F5
:100B800000227F1E002A099784D01DE0112D07DA6C
:100B9000FFF7B2FE303262556D1C50EA0102F5D10A
:100BA000084302D00098C8B10EE00021681E05E09D
:100BB000235C625C63542254401E491C8142F7DB73
:100BC000AB46A81B401E0990002004F80B000B98B0
:100BD000099AC0F80880C0E9002B7AE711264FF087
:100BE000000857E72DE9F04F88460446D21D22F051
:100BF000070191B0D1E90001CDE90A0102F05CFDE5
:100C000002460B98C00F01D02D2007E02068810715
:100C100001D52B2002E0202101EAC000032A09901F
:100C200001D0072A05DB03464146204600F010FBB1
:100C30000BE12078800601D5E06900E00620B8F1DC
:100C4000650F814606D0B8F1660F18D0B8F1670F6E
:100C500070D131E00020B9F1110F009001DB1123B8
:100C600001E009F101030AAA01A90CA8FFF7E2FEBD
:100C7000DDE90C70002609F10105834647E00120FB
:100C80004B4600904FF000470AAA01A90CA8FFF7B5
:100C9000D1FEDDE90DB00C995D46002610B909F1D1
:100CA00001000D18B9EB050003D4C0F1FF3609F1BE
:100CB0000105A5EB09002BE0B9F1010F01DA4FF0B6
:100CC00001090020B9F1110F0090484601DD112300
:100CD00000E003460AAA01A90CA8FFF7ABFEDDE974
:100CE0000C704D4600268346207800070AD4AB4599
:100CF00000DA5D4601A8012D04DD411911F8011C3F
:100D0000302907D04F4502DA17F1040F04DA012029
:100D100082460FE06D1EEEE7002F02DCED1B3E4425
:100D200003E0781CA84200DD7D1CB81B00F1010A1D
:100D30004FF000472078000703D4AA4501DB4FF0AD
:100D4000FF3A0021B7F1004F0DF143088DF8431031
:100D500024D002202B23002F01DA7F422D230A21E9
:100D6000021EA0F1010000DC5FB197FBF1FC97FBD4
:100D7000F1F201FB1C7C17460CF1300C08F801CD98
:100D8000EEE7A8F1010003702188090501D545218E
:100D900000E06521A0F1010800F8011C09980FA9E5
:100DA000A1EB0807FF1D00B10120411901EBEA701A
:100DB000A1693844081A401EA0612078C00602D4F8
:100DC0002046FFF7E7FA099828B1D4E901219047B6
:100DD000206A401C20622078C00622D52046FFF7FA
:100DE000D9FA1EE0002E04DBB34502DD01A8805DC8
:100DF00000E03020D4E901219047206A401C2062A5
:100E0000761CAAF101005FEA000A0AD100F01CFA80
:100E1000C0680168405CD4E901219047206A401C09
:100E20002062281EA5F10105DCDC07E0D4E90121E0
:100E300018F8010B9047206A401C2062381EA7F169
:100E40000107F3DC2046FFF7BBFA032011B041E6AF
:100E50002DE9F04F04460D46D21D22F0070089B05F
:100E6000D0E900974846394602F026FC0246F80FC2
:100E700001D02D2307E02068810701D52B2302E054
:100E8000202101EAC0038DF820300BB1012000E0E1
:100E90000020032A824601D0072A04DB2946204687
:100EA00000F0D6F93FE12078800601D40D2500E05E
:100EB000E569C7F30A560D2D49DA00214FEA175BA1
:100EC00008464FF00000002F00F4400007DA00EB66
:100ED00080004FF4400100EBD07001EA6000811502
:100EE000012901DD4FF0FF3100224FEA850CBCF1F2
:100EF000180F06D31346ACF118004FF08052C240D1
:100F000003E04FF4801323FA0CF30CF10C0CBCF14A
:100F1000200F04D3ACF1200C09FA0CF001E007FA21
:100F20000CF000294FF0004801DD18B90FE00ED198
:100F300040450CD319EB02095F4121B9404502D16C
:100F40009F4329EA0209BBEB175F00D0761C20887B
:100F5000000502D57B48784402E07A487844193885
:100F600008AA302302F80A30037C0AF10101002E9E
:100F70000AF1020A53546A4602DC4FF0300101E0E4
:100F80004FF031014FF001088DF8001002D0A6F2A9
:100F9000FF3603E059EA470100D06B4E002D02DC1A
:100FA0002178090704D54FF002082E218DF8011091
:100FB000C44600210BE0C7F303433F01C35C491C57
:100FC0006D1E02F80830052908F1010801DA002D2C
:100FD000F1DC00210CE000EB1973491C1B786D1E3D
:100FE000082902F808304FEA091908F1010801DA66
:100FF000002DF0DC21688B0602D516E0A8F101086F
:10100000E04505DD02EB080313F8013C302BF5D079
:10101000B8F1000F09DD02EB080313F8013C2E2B99
:1010200003D1090701D4A8F10108002D05DD3E21F7
:1010300002F808106D1E08F10108407C002E02F82D
:10104000080008F1010804DA2D20764202F80800B1
:1010500002E02B2002F808000A214FF47A70864241
:1010600008F101080BDB96FBF0F3303302F808308F
:1010700096FBF0F308F1010800FB136601E0642E13
:101080000CDB642096FBF0F3303302F8083096FB5B
:10109000F0F308F1010800FB136601E00A2E06DBFD
:1010A00096FBF1F0303002F8080008F1010896FBD9
:1010B000F1F001FB1060303002F80800A16908F17E
:1010C000010808EB050202EB0A00081AA06120786B
:1010D000C00602D42046FFF75DF9216A08AE01EB95
:1010E0000A00206204E0D4E9012116F8010B9047C0
:1010F000BAF1010AF7D22078C00602D52046FFF7E0
:1011000049F96E4609E016F8010B3E280FD0D4E9E4
:1011100001219047206A401C2062B8F10108F2D2F8
:101120002046FFF74DF909B00320BDE8F08F206A93
:101130002844206203E0D4E90121302090476D1E4D
:10114000EBD3F8E74A28000002FCFFFF10B5436923
:1011500013B1AFF3008001E0FFF755F9012010BD96
:10116000127800F124010A7000224A700122EDE792
:1011700011684FF0FF32E9E710B5436913B1AFF3DF
:10118000008001E0FFF7D6F9012010BD128800F1C0
:10119000240182840022C2840122EDE711684FF00D
:1011A000FF32E9E72DE9F04116460C46054600F00E
:1011B00043F8036893F80101012807D0FF2C12D8E7
:1011C000185D80B101202C70BDE8F081D3F80701D3
:1011D0003246214603F20713C7182846BC46BDE82D
:1011E000F041002360474FF0FF30EDE7754600F017
:1011F000EBF8AE4605006946534620F007008546E9
:1012000018B020B5FFF762F8BDE820404FF00006A7
:101210004FF000074FF000084FF0000BAC46ACE871
:10122000C009ACE8C009ACE8C009ACE8C00921F0CD
:1012300007018D467047000010B500F005F8001D4D
:1012400010BD00BFD92400000048704714010020E1
:101250002DE9F0411F46044603260168072A01F4E0
:10126000006004DB08B116A505E016A503E008B18F
:1012700015A500E015A521F010002060A069C01E92
:10128000A0610FB1401EA0612046FFF783F84FB167
:10129000D4E9012138469047206A401C2062C01CD6
:1012A000206206E0206AFAE7D4E9012115F8010B73
:1012B0009047761EF8D22046FFF782F8BDE8F0810D
:1012C0004E414E006E616E00494E4600696E6600EA
:1012D0002DE9F047814616468AB0354878440DC856
:1012E0008DE80D0032487844801C03AC0DC884E8BA
:1012F0000D0041F69B300844372190FBF1F290FB42
:10130000F1F5A5F1800501FB12041B3C02D56442F6
:10131000012000E00020DFF898A080460027FA4472
:10132000AAF1BE0A0EE0E0070AD03246684607EB93
:10133000470101230AEB810102F087F88DE80700DD
:1013400064107F1C002CEED1194F7F44AE3F19E092
:10135000E80715D007EB04100DF1180A90E80E000D
:101360008AE80E00C068F04201D198190890324610
:10137000012306A903A802F068F803AB83E807007D
:101380006D10641C002DE3D14FF001033246694615
:10139000B8F1000F03A802D002F042F801E002F019
:1013A00054F8C9E90001C9F808200AB0BDE8F0877F
:1013B0005425000010B50446AFF300802046BDE878
:1013C0001040FEF754BF000000487047F4000020B2
:1013D0004FF0013C50F8042B51F8043B9A4221D1C4
:1013E000A2EB0C03934313EACC1317D150F8042B50
:1013F00051F8043B9A4215D1A2EB0C03934313EA34
:10140000CC130BD150F8042B51F8043B9A4209D16C
:10141000A2EB0C03934313EACC13DBD04FF0000094
:10142000704700BFD01A01BAB1FA81F101F018017A
:1014300022FA01F0CB40DBB2C0B2C01AC1F12001E8
:101440002CFA01F3D11A914311EAC311E6D1704786
:101450007047000001491820ABBEFEE726000200DD
:10146000FEE7000040F25410C2F2000000F0C0B8E5
:1014700070470000EFF3108072B600BFFEE7000077
:10148000014690F82100022816D10868D1E90FC35F
:10149000026822F00E020260026822F0010202607D
:1014A000012000FA03F2CCF8042081F8210000208A
:1014B000002281F820207047042088630120002248
:1014C00081F820207047000080B590F82110022993
:1014D00028D1026840F2040C1368C4F2020C23F015
:1014E0000E03136013680CF17C018A4223F00101A2
:1014F00011601BD940F20841C4F202018A4249D06E
:1015000040F21C41C4F202018A4247D040F230410D
:10151000C4F202018A4245D14FF48073CCF8003402
:101520005DE000BF04218163012080BD4321C4F23E
:1015300002018A420EDD6B21C4F202018A421BDCE9
:101540004421C4F202018A423CD05821C4F2020173
:101550008A4233E00821C4F202018A4236D01C21BB
:10156000C4F202018A4237D03021C4F202018A4219
:1015700024D14FF4807230E06C21C4F202018A421F
:1015800026D08021C4F202018A4217D14FF0807226
:1015900023E000BF0123CCF8003420E01023CCF876
:1015A00000341CE00CF588614FF480338A4208BF98
:1015B0004FF48053CCF8003411E000BF4FF4803278
:1015C0000BE000BF4FF4805207E000BF012204E0AF
:1015D0004FF4801201E000BF1022CCF80020416BD4
:1015E0004FF48072028401B18847002080BD000062
:1015F00010B5D0E90FE3D0F800C0DEF80020DCF829
:101600000010DA4054072DD511F004042AD0DCF87C
:101610000010890605D4DCF8001021F00401CCF894
:1016200000100422C4F2020202F17C018C454DD963
:1016300040F20841C4F202018C4500F0AF8040F254
:101640001C41C4F202018C4500F0AC8040F23041F4
:10165000C4F202018C4540F0A9804FF48061C2F8C9
:101660000014F7E0940747D511F0020444D0DCF8E9
:101670000010890608D4DCF8001021F00A01CCF82B
:101680000010012180F821100422C4F2020202F1AC
:101690007C018C454CD940F20841C4F202018C45D2
:1016A00000F0B48040F21C41C4F202018C4500F00D
:1016B000B18040F23041C4F202018C4540F0AE806E
:1016C0004FF40071C2F80014D6E000BF4321C4F209
:1016D00002018C4542DD6B21C4F202018C454FDCD6
:1016E0004421C4F202018C4500F0A4805821C4F2C8
:1016F00002018C4566E000BF120740F1C38011F083
:10170000080108BF10BDDCF8001021F00E01CCF874
:101710000010012101FA03F2CEF804208163016B6D
:101720004FF480720029028440F09680AAE000BF46
:101730004321C4F202018C4548DD6B21C4F2020151
:101740008C4555DC4421C4F202018C4500F08880B0
:101750005821C4F202018C4576E000BF0821C4F292
:1017600002018C456AD01C21C4F202018C456FD065
:101770003021C4F202018C4524D14FF4806168E02D
:101780006C21C4F202018C455AD08021C4F20201BE
:101790008C4517D14FF080615BE000BF0421C2F897
:1017A000001457E04021C2F8001453E002F58863AA
:1017B0004FF480219C4508BF4FF48041C2F80014CB
:1017C00048E000BF4FF4802143E000BF0821C4F28D
:1017D00002018C4548D01C21C4F202018C4549D03D
:1017E0003021C4F202018C452ED14FF4007142E049
:1017F0006C21C4F202018C4538D08021C4F2020170
:101800008C4521D14FF0007135E000BF0221C2F8B4
:10181000001431E02021C2F800142DE002F58863A5
:101820004FF400319C4508BF4FF40051C2F800143A
:1018300022E000BF4FF480410BE000BF042108E02C
:101840004FF4800105E000BF4FF4003113E000BF0A
:1018500040211160C16AA9B1BDE81040084700BF2E
:101860004FF4005107E000BF022104E04FF40011E3
:1018700001E000BF20211160816A0022002980F868
:101880002020E9D110BD0000002804BF01207047CE
:101890002DE9F04140F2000CC4F2020C01684FF651
:1018A000F8320CF58163CBF6FD72994238BF02F530
:1018B00080624CF6CD430A44CCF6CC43A2FB032312
:1018C0006FF003050CF5806405EA9303D0E9012E5F
:1018D000D0F80C803CBF0024C4F20204C0E90F43DE
:1018E0000B6843F6F075AB431A43D0E9045442EA5F
:1018F0000E0242EA0802D0E906672A432243324335
:101900003A430A6000214FF4807281630284BDE88B
:10191000F041084670470000F0B590F820C0BCF1D7
:10192000010F32D090F821C04FF0010EBCF1010F31
:1019300080F820E026D14FF0020C80F821C04FF053
:10194000000CC0F838C0D0E900C4C56AC66BDCF82A
:101950000070102C27F00107CCF80070006C0EFA14
:1019600000F070600846CCF8043004BF10460A4608
:10197000CCF80800CCF80C20DCF8000045B140F0B1
:101980000E000DE0002180F820100220F0BD00BF05
:1019900020F00400CCF80000DCF8000040F00A0061
:1019A000CCF80000DCF8000040F00100CCF80000AA
:1019B0000020F0BDB0B5044600F018F9054640F22D
:1019C0000000C2F200000078611C18BF044400BF90
:1019D00000F00CF9401BA042FAD3B0BD2DE9F04F46
:1019E00083B041F60043C4F201030E680622984218
:1019F000019008BF0522002E009200F0ED800198B2
:101A000040F20C45A0F18043A3F584334FEAB3279D
:101A100040F200404FF6FF73C4F20105C4F201002A
:101A2000009A4FF0000E4FF0010CC1F210034FF07E
:101A3000000A4FF0000B4FF00F08052F38BF3A4651
:101A4000009208E00E680AF1010A36FA0AF20EF175
:101A5000040E00F0C1800CFA0AF916EA090FF1D061
:101A60004E689E4212DC122E56D8DFE806F0350B87
:101A70004549555555555555555555555555554D3A
:101A8000510000BFD1F80CB046E000BF4FF6FF7226
:101A9000C1F2210296420FDC0022C1F211029642ED
:101AA0001AD00022C1F21202964215D00022C1F2D1
:101AB0002102964210D02FE00022C1F2220296426B
:101AC0000AD00022C1F23102964205D00022C1F2B2
:101AD0003202964220D100BF8E684EB1012E019A8B
:101AE00014BFC2F81490C2F810904FF0080B13E026
:101AF0004FF0040B10E000BFCF6807F1080B0BE0BC
:101B00004FF0000B08E000BFCF6807F1040B03E0C3
:101B1000CF6807F10C0B00BF7446BAF1080F28BF5D
:101B2000203C019F28BF04373E6808FA04F226EAE9
:101B300002020BFA04F632433A60CA79D2067FF504
:101B400081AF41F21807C4F202073A684FF6084C19
:101B500042F001023A603A68CFF6FF7C02F00102DF
:101B60000292029A2AF00302024452F80C700EF01C
:101B70000C0608FA06F4A743009C04FA06F637435D
:101B800042F80C70D1F804C05FEACC32026854BF4E
:101B900022EA090642EA09065FEA8C3206604268D8
:101BA00054BF22EA090642EA09065FEACC224660EF
:101BB000826854BF22EA090642EA09065FEA8C22DB
:101BC00086604FF0010C2A6854BF22EA090642EAF7
:101BD00009062E6036E700BF03B0BDE8F08F0000B5
:101BE000002A08BF090401617047000040F22C2060
:101BF000C2F200000068704740F2000040F22C2161
:101C0000C2F20000C2F2000100780A6810440860C5
:101C10007047000080B542F20000C4F20200016883
:101C200041F010010160032000F08AF80F2000F05D
:101C300005F800F027F8002080BD000070B540F2E4
:101C40000006C2F2000640F208013278C2F200013A
:101C50004FF47A730968B3FBF2F20446B1FBF2F178
:101C6000084600F05FFB0F2C4FF0010508D838B98B
:101C70004FF0FF3021460022002500F035F8746057
:101C8000284670BD82B041F21800C4F2020001681B
:101C9000022241F001010160016801F0010101919E
:101CA0000199416841F080514160406800F08050E6
:101CB000009000980420C4F20100016862F31A61E8
:101CC000016002B070470000002848BF704700F074
:101CD0001F01012202FA01F14EF200124009CEF278
:101CE000000242F82010704710B54EF60C5CCEF2A0
:101CF000000CDCF80030C3F3022E8EF00704042C35
:101D000028BF0424BEF103034FF0FF3E0EFA04F493
:101D100038BF0023A14399400EFA03F39A431143BD
:101D200000F00F02043A624409010C3200F16043F2
:101D3000B0F1FF3FC8BF03F56442117010BD000051
:101D40004EF60C51CEF200010A684FF6FF031A401E
:101D500060F30A2242F0806040F0FD700860704736
:101D60002DE9F04381B0002800F0858042F20008A0
:101D7000C4F202080446D8F800000D4600F007003F
:101D800088420CD2D8F8000020F007002843C8F899
:101D90000000D8F8000000F00700A8426BD12068CE
:101DA00041F204098107C4F2020917D5410705D59C
:101DB000D9F8001041F4E061C9F80010010705D519
:101DC000D9F8001041F46051C9F80010D9F800109A
:101DD000A26821F0F0011143C9F80010C00741D1F9
:101DE000D8F8000000F00700A8420CD9D8F800008D
:101DF00020F007002843C8F80000D8F8000000F0E1
:101E00000700A84237D12068410707D5D9F800104C
:101E1000E26821F4E0611143C9F80010000708D519
:101E2000D9F80000216920F4605040EAC100C9F8E7
:101E30000000D9F8002002F00C00082841F2002030
:101E4000C0F27A0050D143F66603C2F38341C0F674
:101E50000003595CD2033BD440F60010C0F23D00B1
:101E6000484341E0606802280AD001282AD159F885
:101E7000041C890308D4012001B0BDE8F08300BF31
:101E800059F8041C8901F6D5D9F8001021F0030196
:101E90000843C9F80000FFF7A9FE064641F288375B
:101EA000D9F80000616800F00C00B0EB810F97D00A
:101EB000FFF79CFE801BB842F2D9032001B0BDE8B9
:101EC000F08300BF59F8041C8907D4D5DCE700BFB4
:101ED000D9F8002043F64C03C2F34042C0F6000399
:101EE0009A5C4843B0FBF2F0D9F8001043F64E027A
:101EF000C1F30311C0F60002515C40F2080220FA5F
:101F000001F140F20400C2F200000068C2F20002D7
:101F10001160FFF793FE002001B0BDE8F0830000E0
:101F200040F2080041F20401C2F20000C4F20201D2
:101F30000068096843F65E02C1F30221C0F60002A0
:101F4000515CC8407047000040F2080041F20401B3
:101F5000C2F20000C4F202010068096843F65E02A2
:101F6000C1F3C221C0F60002515CC84070470000B6
:101F70002DE9F04182B0002868D00446007841F293
:101F80000006C007C4F2020625D0706800F00C00FD
:101F900004281BD0706800F00C00082802D170687B
:101FA000C00313D46068002800F06881B0F5A02F4A
:101FB00000F07C81B0F5803F00F07C81306820F437
:101FC00080303060306820F4802076E13068800313
:101FD00001D56068D0B32078800718D5706810F0FC
:101FE0000C0F07D0706800F00C0008286ED17068E4
:101FF000C0036BD43068800702D52069012825D141
:102000003068616920F0F80040EAC1003060207853
:1020100000071FD42078400732D4E56995B1706875
:1020200000F00C00082840F08F80012D0ED0706861
:10203000216A00F480328A4208D1616A00F470108B
:10204000884203D1002002B0BDE8F081012002B037
:10205000BDE8F081A069002862D00020C4F24220CF
:102060000121C0F88014FFF7C1FD0546706A8007A2
:1020700000F18C80FFF7BAFD401B0228F6D92AE157
:10208000F06910F0805808D1F06940F08050F0619C
:10209000F06900F080500090009847F20007C4F209
:1020A00000073868C00529D4386840F4807038606B
:1020B000FFF79CFD054600BF3868C0051ED4FFF73A
:1020C00095FD401B6428F7D905E100BF2069002871
:1020D00040F20000C4F2422000F082800121016041
:1020E000FFF784FD054600BF306880073FF588AFE5
:1020F000FFF77CFD401B0228F6D9ECE0E0680028E1
:1021000000F08080052800F09780012800F098807A
:10211000306A20F001003062306A20F0040092E062
:102120000020C4F242200021C0F88014FFF75EFDB9
:10213000054600BF706A80077FF56CAFFFF756FD5C
:10214000401B0228F6D9C6E00027C4F2422700202F
:102150003866FFF74BFD022D05460BD13068800134
:1021600040F1BE80FFF742FD401B02284FF0030004
:10217000F4D968E7306880017FF564AFFFF736FD7A
:10218000401B02284FF00300F4D95CE740F208003E
:10219000C2F20000006844F6D351C1F26201A0FB14
:1021A0000101480A019000BF00BF0198411E0028AC
:1021B00001913FF42FAF00BF0198411E002801910B
:1021C0003FF428AF00BF0198411E002801913FF461
:1021D00021AF00BF0198411E00280191E4D119E709
:1021E00000210160FFF702FD054600BF306880074F
:1021F0007FF50DAFFFF7FAFC401B02284FF00300FC
:10220000F4D920E7306A20F001003062306A20F013
:1022100004003062FFF7EAFC054641F2883700BF50
:10222000306A800720D5FFF7E1FC401BB8424FF031
:102230000300F5D907E700BF306A40F004003062C0
:10224000306A40F001003062FFF7D0FC054641F2F1
:10225000883700BF306A800706D4FFF7C7FC401BF1
:10226000B842F7D937E000BFB8F1000F7FF4D5AE20
:10227000F06920F08050F061CFE600BF306820F4B4
:1022800080303060306820F480203060FFF7AEFC92
:10229000054600BF306880037FF59DAEFFF7A6FCC2
:1022A000401B64284FF00300F4D9CCE6306840F4BA
:1022B00080203060306840F480303060FFF796FC5A
:1022C000054600BF306880033FF585AEFFF78EFC02
:1022D000401B6428F6D9032002B0BDE8F08100BF9E
:1022E000206AB0F5803F05D17168A26821F4003101
:1022F000114371607168626A21F4741110430843DC
:10230000706001203866FFF771FC04463068800178
:102310003FF598AEFFF76AFC001B02284FF0030060
:10232000F4D990E6411E0020B0EB116F1CBF0120D4
:1023300070474EF21002CEF2000251604EF6235169
:10234000CEF20001F0230B700721906011607047FE
:102350007047000070470000B0B582B002680546C3
:102360001068D368546900F02F01202903F0200180
:1023700006D129B1284602B0BDE8B04000F09EBCAD
:102380005FEA007C1EBF04F0010E03F4907414EBAE
:102390000E0455D1296B012905D110F0100118BF89
:1023A00013F0100136D1010622D513F080011FD0A1
:1023B00095F83D00212841D1A868B0F5805F03D190
:1023C0002869002800F0F680286A411C29620078FC
:1023D0005060E88C01380104E8842FD1D06820F0E7
:1023E0008000D060D06840F04000D06002B0B0BD46
:1023F000400623D513F0400020D0D068202120F0E3
:102400004000D060284685F83D1002B0BDE8B040DD
:1024100000F048BB002001901068019050680190C6
:1024200001985069400613D4A88DE98DEB8D002BDF
:102430001CBF401A5FEA004140F0A48002B0B0BD6A
:10244000C40718BF13F480732CD1430730D436E08F
:10245000A86B01684B689CB2002CEFD0A98D8C4210
:10246000ECD2EB858369202B17D0D16821F48071E1
:10247000D160516921F001015161516921F04001A0
:102480005161202185F83E1000212963D16821F097
:102490001001D160FEF7F4FFA98DE88D081A81B212
:1024A000284682E02B6C43F001032B64430706D5DA
:1024B000BEF1000F03D02B6C43F002032B648307A3
:1024C00006D5BEF1000F03D02B6C43F004032B6440
:1024D000BCF1000F06D551EA0E0303D02B6C43F07C
:1024E00008032B642B6C002BA8D010F0200018BF21
:1024F000002903D0284600F0E1FB2A685069296CC6
:1025000000F0400001F0080140182DD0D06820F400
:102510009070D060506920F001005061286B012854
:1025200003D1D06820F01000D060202085F83E0054
:1025300000202863506940061ED5506920F04000F5
:102540005061A86BC0B142F6E531C0F600014163AD
:10255000FEF7BAFF00283FF471AFA86B416B02B0E1
:10256000BDE8B040084700BF2846FFF7F3FE002053
:10257000286402B0B0BD00BF284602B0BDE8B0403C
:10258000FFF7E8BED16821F49071D160516921F064
:1025900001015161202185F83E1000212963D16895
:1025A00021F0100381B22846D36002B0BDE8B040EC
:1025B000FFF7CEBE286A30F8021B6FF35F2151602F
:1025C000286206E7002804BF0120704710B50446C2
:1025D00090F83D0028B9002084F83C00204600F027
:1025E0005FF8242084F83D002068D4E90212C36813
:1025F00023F40053C360036923F440531A43026178
:10260000D4E904231143C268194341F20C639A438D
:102610001143C1604169A26921F44071114343F63D
:102620000002C4F201029042416103D0FFF778FC3E
:1026300002E000BFFFF788FC62681921484391005F
:10264000B0FBF1F048F21F51C5F2EB11A0FB0123E2
:102650005A096FF0630302FB0300322303EB0010FF
:10266000A0FB0101F02303EA5113206803EB0212DF
:10267000C1F3431111448160016921F4904101616A
:10268000416921F02A014161C16841F40051C160F2
:1026900000202021206484F83D1084F83E1010BDF5
:1026A0002DE9F04385B00446006844F20041C4F2CD
:1026B0000001002688420496CDE9026601965BD0AF
:1026C00043F60001C4F20101884240F08F8041F2DC
:1026D0001807C4F2020738680DF1040940F480407D
:1026E00038603868494600F48040009000983868A7
:1026F00040F008003860386800F00800009000984A
:1027000040200190022002900320049040F6000037
:10271000C4F2010000F580652846FFF75FF94FF02D
:102720008008002628464946CDF80480CDE9026697
:10273000FFF754F90420C4F20100016840F2541577
:1027400041F0E06141F004010160A7F57C60C2F254
:102750000005C5E900062846C5E90268C5E9046622
:10276000C5E90666FFF790F8002818BFFEF782FE5D
:10277000A5636C62252431E041F21C00C4F2020022
:10278000016840F6000441F4003101600068C4F2C1
:10279000010400F400300090009841F21800C4F2E7
:1027A0000200016801AD41F00401016000682946A2
:1027B00000F0040000900098042001900220029094
:1027C000032004902046FFF709F90820CDE901060F
:1027D000204629460396FFF701F9262420460021CA
:1027E0000022FFF781FA2046FFF76EFA05B0BDE838
:1027F000F083000070B582B0054690F83E002028B6
:102800000ED113460A4600294FF0010418BF002BD1
:1028100002D1204602B070BD95F83C00012803D1DA
:102820000224204602B070BD012085F83C0000243F
:1028300022202C63AA62AB852C6485F83E002968AF
:10284000A86B42F65D4C42F6A94E42F6F136C0F650
:10285000000CC0F6000EC0F600060431C0E90ACE36
:10286000C0E90C64FFF758F80194286801680191E9
:1028700041680191019985F83C40C16841F480713B
:10288000C160416941F001014161416941F040018C
:102890004161204602B070BD40F29811C2F20001C1
:1028A000884218BF704710B540F2202440F29810BB
:1028B000C2F20004C2F2000021460322FFF79AFF91
:1028C000214611F8010B202818BF214602A0BDE8BF
:1028D000104000F009BB00BF746865206469737420
:1028E000616E6365203D20282573290A0A000000D7
:1028F000704700002DE9F04381B0044690F83D0098
:1029000020280DD10F4600294FF0010000F09280E1
:102910001646002A00F08E8094F83C00012803D16E
:10292000022001B0BDE8F083012084F83C004FF0A4
:10293000000921201D46C4F8409084F83D00FFF7AF
:1029400055F9A684E684A1688046B1F5805F25D15B
:10295000206900281CBF38464F463E46074684F88B
:102960003C90E08C00B3681C20D0002D66D120681C
:102970000BE000BF36F8021B00276FF35F214160B8
:10298000E18C0139E184E18C81B30168090675D5D8
:10299000002FEFD017F8011BF1E700BF002684F8E5
:1029A0003C90E08C0028DED120681FE0206802E027
:1029B0000168090609D40168090606D401680906F8
:1029C0005CBF01685FEA0161F2D51FB117F8011B16
:1029D00005E000BF36F8021B00276FF35F2141605E
:1029E000E18C0139E184E18C0029E4D101684906D8
:1029F0001CD4002D42D0691C0ED10168490615D4A3
:102A0000016849065CBF01685FEA41610ED4016854
:102A10004906F2D50AE000BFFFF7E8F8A0EB08018D
:102A20002068A9422AD800684006F5D5202084F8FD
:102A30003D00002001B0BDE8F08300BF206800BF6A
:102A40000168090608D4FFF7D1F8A0EB0801206857
:102A5000A942F5D912E000BF17B117F8011B04E035
:102A600036F8021B00276FF35F214160E18C0139CA
:102A7000E184E18C0029E3D1B8E700BFC16821F40B
:102A8000D071C160416921F001014161202084F8C9
:102A90003D0084F83E00002084F83C00032001B093
:102AA000BDE8F08370470000FEE7000080B582B00B
:102AB00041F21400C4F202000168002241F0010159
:102AC00001600068002100F00100019001980F20D2
:102AD000FFF70AF90F2002B0BDE88040FFF7F4B815
:102AE00070B584B041F21800C4F20200016840F6EB
:102AF000000441F0200101600168C4F2010401F00A
:102B00002001009100990168002241F00401016058
:102B100001684FF4806501F004010091009901689B
:102B2000002641F00801016000684FF4806100F068
:102B30000800009000982046FFF752F80120CDE9E8
:102B4000010602200390694620460095FEF746FFE5
:102B500004B070BD80B540F2981043F60001C2F297
:102B60000000C4F2010100234FF00C0C4FF4E132DD
:102B700080E80E00C0E90333C0E905C3C361FFF775
:102B800021FD002808BF80BDBDE88040FEF772BC73
:102B900080B540F2DC1044F20041C2F20000C4F201
:102BA000000100234FF00C0C4FF4E13280E80E00DE
:102BB000C0E90333C0E905C3C361FFF703FD002883
:102BC00008BF80BDBDE88040FEF754BCFEE70000B2
:102BD000FEE700007047000070470000FFF70CB8E8
:102BE00070470000406A0021C185C184FFF7B2BB75
:102BF000406A01684A6990F83D30212B0BD112F0F0
:102C0000800208D00022C284CA6822F0C002CA60D2
:102C1000202280F83D204A6990F83E30222B17D1BF
:102C200012F0400214D00022C285CB6823F49073C6
:102C3000CB604B6923F001034B61036B012B03D184
:102C4000CB6823F01003CB60202180F83E10026394
:102C5000016C41F010010164FFF77CBB0168406A20
:102C60000968890618D40021C1850168CA6822F460
:102C70008072CA604A6922F001024A614A6922F000
:102C800040024A61202280F83E20026B012A03D1D3
:102C9000CA6822F01002CA60016B012918BFFFF751
:102CA000FBBD818DFFF754BB406A016B012918BF42
:102CB000FFF71EBE818D4908FFF74ABB81B090F82F
:102CC0003E10222920D18368B3F5805F08D10169C5
:102CD000002941D000F128010A6803685B680AE016
:102CE000014651F8282F13B90369002BF5D003686A
:102CF0005B6803F07F0313700A6801320A60C18DBC
:102D000001390A04C18501D001B070470168CA6861
:102D100022F02002CA60CA6822F48072CA604A693E
:102D200022F001024A61202280F83E20026B012A33
:102D30001CD100220263CB6823F01003CB600B6828
:102D4000DB0605D500920A68009249680091009957
:102D5000818D01B0FFF7FCBA0168826A49686FF3A0
:102D60005F2122F8021B8262C9E700BF01B0FFF7B2
:102D700093BD000040F29810C2F20000FFF7ECBAD9
:102D800040F2DC10C2F20000FFF7E6BAFEE70000F6
:102D900090B0FEF73FFF00240120CDE90B44CDE9C0
:102DA000094406900A904FF4E0104FF48031022558
:102DB0000F9006A8CDE90714CDE90D51FFF7D8F81B
:102DC00020B1EFF3108072B6FEE700BF0F20CDE90F
:102DD00001058020CDE9030401A802210594FEF736
:102DE000BFFF28B1EFF3108072B600BFFEE700BF4F
:102DF000FFF776FEFFF75AFEFFF7ACFEFFF7C8FEBF
:102E000040F2981040F22021C2F20000C2F200010C
:102E10000322FFF7EFFC4FF47A70FEF7CBFDFEF7CD
:102E2000E5FEFDF777FA48F21F54C5F2EB1464256E
:102E30000FF2A40A0DF1180BFDF720FA80FB041223
:102E4000511101EBD27101FB1506FDF717FA80FB5A
:102E50000412511101EBD27101FB1507FDF70EFAB7
:102E600080FB0412511101EBD27101FB1508FDF733
:102E700005FA80FB0412511101EBD27101FB150917
:102E8000F1B2FAB210A000F02FF85FFA88F15FFA01
:102E900089F2504600F028F840F29810C2F2000083
:102EA000594604224FF0FF338DF818608DF81970E1
:102EB0008DF81A808DF81B90FFF71CFD40F6B83096
:102EC000FEF778FDB8E700BF41203D202825642C9F
:102ED000202564290A00000042203D202825642C7A
:102EE000202564290A00000083B010B5B3B08446E1
:102EF00035A86C460EC035AA204661463292FDF7D1
:102F0000F7F92046FDF724FA82B240F2DC10C2F253
:102F1000000021464FF0FF33FFF7ECFC33B0BDE873
:102F2000104003B070475FEA400C08BF91F0000FFB
:102F30004FEA8C234FEAC12243EA51514FEA1C5019
:102F400018BF00F5F0404FEA300018BF41F00041D3
:102F50005FEA6C5C00F02980BCF1FF3F08BF40F0E5
:102F600080407047130C06BF12044FF0100C4FF056
:102F7000000C130E04BF12020CF1080C130F04BF57
:102F800012010CF1040C930F04BF92000CF1020C1F
:102F9000D30F04BF52000CF1010C11464FF0000298
:102FA000A0F11F00A0EB0C00704711F0004F08BF0C
:102FB000704731F000413FF4D5AF0B0C06BF090458
:102FC0004FF0100C4FF0000C0B0E04BF09020CF177
:102FD000080C0B0F04BF09010CF1040C8B0F04BF8C
:102FE00089000CF1020CCB0F04BF49000CF1010C5D
:102FF000CCF1200322FA03F341EA030102FA0CF2B6
:10300000A0EB0C0000F101007047000023F07F47A7
:1030100020F07F4C80EA030000F00040ACEB070397
:1030200003F57C5303F1FF032DE9804909B44FEA0E
:10303000144324EA03484FEA154B25EA0B4E0FF2DE
:10304000042606EB13273E7803FB0667C7F5000747
:1030500007FB06F64FEAD64606F102064FEA54375A
:1030600007FB066CCCF1005C4FEA1C472CEA074CCE
:103070000CFB06F507FB06F404EB15464FEA961623
:1030800049085FEA320234BF00204FF000404FEAA7
:10309000D13706FB07FC4FEA1C4C0CFB0BF7D21B8D
:1030A00003FB0CF761EB07010CFB0EF7B0EB0740DD
:1030B00072EB17420CFB08F734BFA2EB0742B2EBEE
:1030C000074261EB17414FEA0C444FEA910706FBB8
:1030D00007FC4FEA1C4C0CFB0BF7B0EBC74072EB44
:1030E000573203FB0CF734BFA2EBC742B2EBC74227
:1030F00061EB57310CFB0EF7B0EBC70072EB577268
:103100000CFB08F734BFA2EBC702B2EBC70261EBBE
:1031100057714FEA816141EA92114FEA826242EAB5
:1031200090124FEA806004EBCC04039F4FEAD13742
:1031300006FB07FC4FEA1C4C0CFB0BF7D21B03FBF6
:103140000CF761EB07010CFB0EF7B0EB074072EBDD
:1031500017420CFB08F734BFA2EB0742B2EB074261
:1031600061EB17414FEA8C5504EB9C244FEA910721
:1031700006FB07FC4FEA1C4C0CFB0BF7B0EBC740FF
:1031800072EB573203FB0CF734BFA2EBC742B2EB32
:10319000C74261EB57310CFB0EF7B0EBC70072EB87
:1031A00057720CFB08F734BFA2EBC702B2EBC702A1
:1031B00061EB57714FEA816141EA92114FEA8262F5
:1031C00042EA90124FEA806015EB4C2544F100046E
:1031D0004FEAD13706FB07FC4FEA1C4C0CFB0BF700
:1031E000D21B03FB0CF761EB07010CFB0EF7B0EBF6
:1031F000074072EB17420CFB08F734BFA2EB074203
:10320000B2EB074261EB17414FEA813141EA92414B
:103210004FEA823242EA90424FEA80304FEA0C761F
:1032200015EB1C1544F1000448EA03434EEA0B4831
:103230004FF0000EB2EB080C71EB030724BF62469F
:1032400039464EEB0E0E4FF0000B0018524149412B
:103250004BEB0B0BB2EB080C71EB03077BF1000B94
:1032600024BF624639464EEB0E0E4FF0000B00189D
:10327000524149414BEB0B0BB2EB080C71EB0307CE
:103280007BF1000B24BF624639464EEB0E0E51EA2D
:10329000020718BF46F0010616EB0E7655F1000244
:1032A00054F1000103D5BDE88901BDE80088BDE8FF
:1032B0008901BDE80048B619524141EB0101A3F173
:1032C0000103704780807F7E7D7C7B7A797877767A
:1032D00076757473727171706F6E6E6D6C6C6B6AF3
:1032E0006A69686867666665646463636261616091
:1032F000605F5F5E5E5D5D5C5C5B5B5A5A5959580E
:103300005857575656555555545453535252525177
:10331000515050504F4F4F4E4E4D4D4D4C4C4C4BCD
:103320004B4B4A4A4A494949484848474747474614
:103330004646454545444444444343434342424250
:10334000424141419C46002B30D477002BD04FEABC
:1033500037071CB503B44FF010004FF01001BAF15D
:10336000000F06D0BCF1000FDCBF40F0080040F0B9
:1033700008014FF000000FBCBDE810400BF1010B3D
:10338000BBF1010F08BF5FEA170722BF12F101026C
:1033900011F101014FF0004143F1000300F0004042
:1033A00043EA00007047F9D35708D0E746EA0646DB
:1033B0004FEA164613F1400F1FDD13F1200FDFBF58
:1033C00016430A46002120335B42BED0C3F12007DA
:1033D00046EA06464FEA164602FA07F746EA0706A5
:1033E00022FA03F2C3F1200701FA07F742EA0702C3
:1033F00021FA03F14FF00003A7E746EA020646EA86
:1034000006464FEA164646EA0106BCBF46EA0646AD
:10341000360C4FF000034FF000024FF0000194E72C
:103420002DE9804C70B49A46934691E8380007C85D
:1034300031EA400C48BF34EA430C03D5FFF7E6FD00
:10344000FFF780FFF0BCBDE8008C2DE9804C70B424
:103450009A46934691E8380007C810F0804F08BF9D
:1034600013F0804F03D100F005F8FFF76BFFF0BCBD
:10347000BDE8008C20F07F4723F07F4C80EA0300FA
:1034800000F0004007EB0C03A3F57C53A3F1FE030F
:1034900092F0000F00F0B38095F0000F00F07780FD
:1034A0002DE901494FEA114021EA00484FEA14464C
:1034B00024EA064700FB06FC08FB06F607FB08F8B3
:1034C00018EB06484CEB164C00FB07F718EB0748C7
:1034D0004CEB17404FEA124B22EA0B4E4FEA1546CF
:1034E00025EA06470BFB06FC0EFB06F607FB0EFE65
:1034F0001EEB064E4CEB164C0BFB07F71EEB074E74
:103500004CEB174B18EB0B0840F1000018EB0E0BBF
:1035100058EB000840F100008F1A4FF000014FF007
:1035200000063CBFC943661B14BFB5EB040C002169
:103530003CBFC943F61B4FEA174427EA04454FEA4C
:103540001C472CEA074C04FB076205FB07F70CFB42
:1035500005F616EB074642EB174204FB0CFC16EB94
:103560000C4642EB1C421BEB060658EB02024141A3
:103570004EEA8E0E46EA9E0601D5BDE80189B619CF
:10358000524141EB0101A3F10103BDE801894FEA7A
:10359000144524EA05464FEA114721EA074C05FB8A
:1035A00007F406FB07F70CFB06F111EB074144EBB0
:1035B000174405FB0CFC11EB0C4144EB1C444FEA97
:1035C000124722EA074C05FB07F206FB07F70CFB44
:1035D00006F616EB074642EB174205FB0CFC16EB12
:1035E0000C4642EB1C456A1854F1000148BF704775
:1035F000B619524141EB0101A3F10103704795F067
:10360000000F37D04FEA114221EA02464FEA144731
:1036100024EA074C02FB07F106FB07F70CFB06F454
:1036200014EB074441EB174102FB0CFC14EB0C4478
:1036300041EB1C414FEA154725EA074C02FB07F511
:1036400006FB07F70CFB06F616EB074645EB17459E
:1036500002FB0CFC16EB0C4645EB1C42121951F117
:10366000000148BF7047B619524141EB0101A3F177
:10367000010370474FEA144524EA05464FEA114713
:1036800021EA074C05FB07F106FB07F70CFB06F2E6
:1036900012EB074241EB174105FB0CFC12EB0C420D
:1036A00051EB1C414FF0000648BF7047921841EBA8
:1036B0000101A3F101037047490050EAC12018BF7E
:1036C00004204A0D18BF40F0010040F2FF72B2EB37
:1036D000515F08BF40F00200012808BF0520704775
:1036E00030380A2801D201207047002070470000BE
:1036F00010B500290AD00878002807D0054878447A
:10370000FDF766FE002801D0002010BD0248784475
:1037100010BD00009A0100009201000010B50029C0
:103720000AD00878002807D005487844FDF750FEF5
:10373000002801D0002010BD0248784410BD0000D0
:103740008A01000082010000FDF74CBAFDF780BB42
:1037500000000000000000003031323334353637CD
:1037600038394142434445464030580030313233C5
:1037700034353637383961626364656640307800C5
:10378000040000080000000000000002000100002A
:10379000103031323334353637383961626364651D
:1037A000667870003031323334353637383941423B
:1037B000434445465850000002400000000000A06D
:1037C0000000000005400000000000C800000000EC
:1037D0000C4000000000409C000000001940000068
:1037E0000020BCBE0000000034400000BFC91B8E9A
:1037F00000000004B5400000504BCFD06607E2CF78
:10380000010000006C4100003E8251AADFEEA734A7
:1038100001000000D9420000DCB5A0E23A301F9759
:10382000FFFFFFFFB4450000FD25A0C8E9A3C14F7D
:10383000FFFFFFFFFF3F00000000008000000000CE
:10384000FF3F0000000000800000000001020000B7
:103850000000000000000102030406070809000040
:1038600000000102030402030405060708090A0B0D
:103870000C0D0E0F10100000C839000800000020C9
:10388000100000006C010008D8390008100000206A
:1038900020080000880100081C0000004300000010
:1038A000F8FFFFFF0C0000000E0000000F000000FA
:1038B0002E0000001001000043000000F8FFFFFF91
:1038C0000040404040404040404041414141414033
:1038D00040404040404040404040404040404040E8
:1038E0004005020202020202020202020202020277
:1038F000022020202020202020202002020202027C
:1039000002029090909090901010101010101010D3
:1039100010101010101010101010101002020202DF
:103920000202888888888888080808080808080823
:10393000080808080808080808080808020202021F
:103940004000000000000000000000000000000037
:103950000000000000000000000000000000000067
:103960000000000000000000000000000000000057
:103970000000000000000000000000000000000047
:103980000000000000000000000000000000000037
:103990000000000000000000000000000000000027
:1039A0000000000000000000000000000000000017
:1039B0000000000000000000000000000000000007
:1039C00000000000000000000100000010000000E6
:0839D0000024F40000000000D7
:0400000508000131BD
:00000001FF
