:020000040800F2
:10000000180700209D0100081D250008A9200008F0
:10001000192500085D0700081D28000800000000E1
:10002000000000000000000000000000252500087E
:1000300061070008000000002125000829250008AC
:10004000B7010008B7010008B7010008B7010008B0
:10005000B7010008B7010008B7010008B7010008A0
:10006000B7010008B7010008B7010008B701000890
:10007000B7010008B7010008B7010008B701000880
:10008000B7010008B7010008B7010008B701000870
:10009000B7010008B7010008B7010008B701000860
:1000A000B7010008B7010008B7010008B701000850
:1000B000B7010008B7010008B7010008B701000840
:1000C000B7010008B7010008B7010008B701000830
:1000D000B7010008B7010008B7010008B701000820
:1000E000B7010008B7010008B7010008B701000810
:1000F000B7010008B7010008B7010008B701000800
:10010000B7010008B7010008B7010008B7010008EF
:10011000B7010008B7010008B7010008F125000881
:10012000B7010008B7010008B7010008B7010008CF
:10013000B7010008B7010008B7010008B7010008BF
:10014000B7010008B7010008B7010008B7010008AF
:10015000B7010008B7010008B7010008B70100089F
:10016000B7010008B7010008B7010008B70100088F
:10017000B7010008B7010008B7010008000000003F
:10018000B7010008B7010008DFF80CD000F0C2FA90
:10019000004800474128000818070020064880470B
:1001A00006480047FEE7FEE7FEE7FEE7FEE7FEE75C
:1001B000FEE7FEE7FEE7FEE7DD250008890100080F
:1001C0002DE9F05F0546002092469B46884606468C
:1001D000814640241BE0284641464746224600F01F
:1001E00054F953465A46C01A914110D31146184645
:1001F000224600F03BF92D1A67EB01084F462246D4
:100200000120002100F032F917EB00094E41201EB9
:10021000A4F10104DFDC484631462A464346BDE8E6
:10022000F09F2DE9FE4F81EA030404F0004421F021
:10023000004100944FF0000B23F0004350EA01040A
:100240005ED052EA03045BD0C3F30A54C1F30A55EB
:100250002C44A4F2F3340194A0FB0254C1F3130123
:1002600041F48011C3F3130343F4801301FB0244F0
:1002700000FB034E840A970A44EA815447EA8357F5
:10028000A4FB076802958D0A05FB07854FEA932CAE
:1002900004FB0C542705029D4FEA065847EA16371F
:1002A000B5EB08056EEB070C870E920E47EA811737
:1002B00042EA8312A7FB0201B6EB0B0164EB0004D8
:1002C0002B0D43EA0C335E1844EB1C50DA465146C2
:1002D000E7FB0201C5F313044FEA0B3343EA14535F
:1002E0004FEA0432019C43EA0603A4F10C04029491
:1002F000009CCDE900B400F0E7F803B0BDE8F08F52
:1003000000200146F9E72DE9F04D81EA030404F0ED
:10031000004B21F0004514464FF0000A23F0004145
:1003200050EA050220D054EA01021DD0C5F30A5755
:100330000246C5F31303C1F31300C1F30A5640F498
:10034000801543F48013A7EB0608101BD64608F26D
:10035000FD3873EB050002D308F1010801E09218A3
:100360005B41B8F1000F03DA00200146BDE8F08DD3
:1003700000204FF48011064684460EE0171B73EBF5
:10038000050705D3121B63EB050306434CEA010C7A
:1003900049084FEA300092185B4150EA0107EDD15D
:1003A00052EA030012D082EA040083EA05010843FE
:1003B00005D0101BAB4106D20122002306E000222B
:1003C0004FF0004302E06FF0010253101AEB0600F9
:1003D0004CEB085110EB0A0041EB0B01BDE8F04D6E
:1003E00000F063B830B5041E71F1000404DB4FF077
:1003F0000044404264EB0101141E73F1000405DB6C
:100400001C464FF00043524263EB0403101A8B4129
:1004100001D2012030BD002030BD00F0004230F09C
:1004200000400AD0C10D01F56071C0F3160042EA28
:100430000151C20840071143704700200146704730
:1004400030B50B46014600202022012409E021FAA4
:1004500002F59D4205D303FA02F5491B04FA02F5A1
:100460002844151EA2F10102F1DC30BD202A04DB74
:10047000203A00FA02F1002070479140C2F12003B7
:1004800020FA03F3194390407047202A04DB203AF6
:1004900021FA02F00021704721FA02F3D040C2F1A4
:1004A0002002914008431946704710B5141E73F19D
:1004B000000408DA401C41F1000192185B411A4324
:1004C00001D120F0010010BD2DE9F04D92469B4670
:1004D00011B1B1FA81F202E0B0FA80F22032904616
:1004E000FFF7C4FF04460F4640EA0A0041EA0B0149
:1004F00053465A46084313D0114653EA010019D017
:10050000C8F140025046FFF7C0FF05460E46504670
:1005100059464246FFF7AAFF084305D0012004E0F0
:1005200020463946BDE8F08D0020054346EAE076D6
:100530002C4337430A986305E40AA0EB0800002225
:10054000FD0A44EA47540A3002D500200146E9E793
:10055000010510196941DDE9084500196941BDE847
:10056000F04DA2E72DE9FE4F804681EA0300C00F5F
:100570000C46009021F0004123F00045B8EB02004A
:10058000A94105D24046214690461C460B460246EC
:1005900023F00040104347D0270DC7F30A00C3F3F0
:1005A0000A510290401A019040286BDAC3F31300FD
:1005B00040F4801B0098924620B10023D2EB030A3E
:1005C00063EB0B0B01985946C0F140025046FFF710
:1005D0004DFF06460D4650465946019A00F0ACF8CC
:1005E00010EB08006141002487EA115284EAE773A6
:1005F0001A4340D0009A62B3019A012A4FEA075287
:1006000015DC001B61EB02014FF0004202EA0752C9
:10061000CDE90042001C41F5801132462B46FFF720
:1006200053FF03B0BDE8F08F40462146F9E7001BB9
:1006300061EB0201001C41F5801300185B4120189A
:10064000A2F5001747EB030140EAD570B6196D41DA
:1006500011E06D084FEA360645EAC0754FEA0752C9
:10066000001B61EB0201001C41F5801149084FEAB3
:1006700030000019514132462B4603B0BDE8F04F1F
:10068000FFF713BF0098012240000023D0EB0202C5
:1006900063EBE073009821464FEAE074B8EB00008A
:1006A00061EB0401E9E783F000435BE781F000417F
:1006B00058E7C1F30A52C1F3130140F2FF3341F48A
:1006C00080119A4202DA00200146704740F233431B
:1006D0009A42A2F2334202DC5242FFF7D6BEFFF743
:1006E000C5BE000030B5041E71F1000404DB4FF0FC
:1006F0000044404264EB0101141E73F1000405DB69
:100700001C464FF00043524263EB0403994208BF7A
:10071000904230BD064C074D06E0E06840F0010312
:1007200094E8070098471034AC42F6D3FFF730FD49
:100730006033000880330008202A06DBCB17203AFC
:1007400041FA02F043EAE07306E041FA02F3D040D6
:10075000C2F120029140084319467047FEE70000AD
:1007600070470000EFF3108072B600BFFEE7000094
:10077000B0B5044600F0F4F8054640F20400C2F2B9
:1007800000000078611C18BF044400BF00F0E8F8C6
:10079000401BA042FAD3B0BD2DE9F04F82B000F16A
:1007A0003E4241F6004502F1FF77C4F202050822FD
:1007B0004FEAB726A84208BF0722072E38BF4FEAE4
:1007C000B7224FF0010A002400274FF000080092E2
:1007D00008E000BF023708F10108202F04F10404EB
:1007E00000F0B4800E680AFA08F916EA090FF1D091
:1007F000D1F804A00AF0030BABF10106012E17D8C3
:100800000322866802FA07FECA6826EA0E06BA4084
:10081000324382604268CAF3001522EA090205FAEF
:1008200008F54FEA480C6FEA0E062A4342600BE0D7
:100830000322BA40D643BBF1030FBC4604D1BC46E9
:100840004FF0030B22E000BFC2688D68324005FA0A
:100850000CF52A43BBF1020FC26017D16FF00302FF
:1008600002EA5802024404F01C030F25D2F820E0EB
:1008700005FA03FA0D692EEA0A0E05FA03F343EAB4
:100880000E031362D1F804A00AF0030B02680BFAFE
:100890000CF332401A431AF4403F4FF0010A026051
:1008A00098D0002243F644030192C4F202031A686E
:1008B00043F6004E42F480421A601A68C4F2010EF8
:1008C00002F480420192019A28F003024FF6084C8C
:1008D0007244CFF6FF7C52F80C3004F00C060F2562
:1008E000B540AB43009D05FA06F6334342F80C30A1
:1008F000DEF808204B6842EA090643F60C4CDD029C
:1009000058BF22EA0906CEF80860C4F2010CDCF8F0
:1009100000209D0242EA090658BF22EA0906CCF8E7
:100920000060DEF804209D0342EA090658BF22EA6F
:100930000906CEF80460DEF80020DB0342EA09066F
:1009400058BF22EA0906CEF8006043E702B0BDE8CE
:10095000F08F0000002A08BF090481617047000081
:1009600040F21430C2F200000068704740F2040008
:1009700040F21431C2F20000C2F2000100780A68AD
:10098000104408607047000080B543F60040C4F290
:100990000200016841F400710160016841F4806166
:1009A0000160016841F480710160032000F084F867
:1009B0000F2000F005F800F027F8002080BD0000AF
:1009C00070B540F20406C2F2000640F20C01327823
:1009D000C2F200014FF47A730968B3FBF2F20446E5
:1009E000B1FBF2F1084600F041FB0F2C4FF001057E
:1009F00008D838B94FF0FF3021460022002500F01A
:100A00002FF87460284670BD82B0002043F6400184
:100A10000190C4F202014A6842F480424A604A6886
:100A200002F480420192019A0090086840F08050E0
:100A30000860086800F080500090009802B070478D
:100A4000002848BF704700F01F01012202FA01F19F
:100A50004EF200124009CEF2000242F82010704718
:100A600010B54EF60C5CCEF2000CDCF80030C3F38F
:100A7000022E8EF00704042C28BF0424BEF10303C9
:100A80004FF0FF3E0EFA04F438BF0023A143994013
:100A90000EFA03F39A43114300F00F02043A624442
:100AA00009010C3200F16043B0F1FF3FC8BF03F50C
:100AB0006442117010BD00004EF60C51CEF20001E0
:100AC0000A684FF6FF031A4060F30A2242F0806082
:100AD00040F0FD70086070472DE9F041002800F0FB
:100AE0008B8043F60808C4F202080446D8F8F803DD
:100AF0000D4600F00700884207D288F8F853D8F86E
:100B0000F80300F00700A84276D12068810717D5C6
:100B1000410705D5D8F8001041F4E051C8F800109D
:100B2000010705D5D8F8001041F46041C8F800105D
:100B3000D8F80010A26821F0F0011143C8F80010A5
:100B4000C0073FD1D8F8F80300F00700A84207D942
:100B500088F8F853D8F8F80300F00700A8424BD102
:100B60002068410707D5D8F80010E26821F4E05169
:100B70001143C8F80010000708D5D8F80000216913
:100B800020F4604040EAC100C8F8000000F07CF8A2
:100B9000D8F8001043F24632C1F30311C0F6000248
:100BA000515C40F20C0220FA01F140F20800C2F25E
:100BB00000000068C2F200021160FFF701FF002090
:100BC000BDE8F0816068811E022907D258F8081C30
:100BD00089015CBF0120BDE8F08111E0012807D147
:100BE00058F8081C89035CBF0120BDE8F08107E0CC
:100BF00058F8081C890703D40120BDE8F08100BF24
:100C0000D8F8001021F003010843C8F80000FFF7EE
:100C1000A7FE064641F28837D8F80000616800F068
:100C20000C00B0EB810F8DD0FFF79AFE801BB8420D
:100C3000F2D90320BDE8F08140F20C0043F6080130
:100C4000C2F20000C4F202010068096843F25632A1
:100C5000C1F38221C0F60002515CC8407047000019
:100C600040F20C0043F60801C2F20000C4F2020197
:100C70000068096843F25632C1F34231C0F60002FF
:100C8000515CC8407047000010B543F60404C4F23C
:100C90000204606800F00C0142F200400829C0F232
:100CA000F40007D0042918BF10BD41F20020C0F2A3
:100CB0007A0010BD216801F03F02216823684902D3
:100CC000C3F3881106D4A1FB00010023FFF778FAD3
:100CD00007E000BF41F20020C0F27A004843B0FBB9
:100CE000F2F021680222C1F3014102EB4101B0FBA5
:100CF000F1F010BD2DE9F04182B000286AD0044621
:100D0000007843F60006C007C4F202060BD0B068B4
:100D100000F00C00042840F0A1803068800302D568
:100D20006068002856D0207880071AD5B06810F087
:100D30000C0F09D0B06800F00C00082840F0A88023
:100D40007068400200F1A4803068800702D5E06836
:100D500001283FD13068216920F0F80040EAC10045
:100D600030602078000739D4207840074ED4A56938
:100D70005DB3B06800F00C00082840F0BD80012D84
:100D800028D07068E16900F480028A4222D1216A89
:100D900000F03F028A421DD147F6C071626A0140ED
:100DA000B1EB821F16D1A26A0023CFF6FF7303EBCB
:100DB000C23200F440316FF30F0291420AD1E16A6E
:100DC00000F07060B0EB016F04D1002002B0BDE80C
:100DD000F08100BF012002B0BDE8F0816069002809
:100DE00040F20000C4F2472076D00121C0F8801EF6
:100DF000FFF7B6FD054600BF706F8007B4D4FFF75C
:100E0000AFFD401B0228F7D9DDE000BF306C10F0C9
:100E100080580AD100200190306C40F0805030643E
:100E2000306C00F080500190019847F20007C4F246
:100E300000073868C00541D4386840F480703860D5
:100E4000FFF78EFD054600BF3868C00536D4FFF7B2
:100E500087FD401B0228F7D9B5E000BFB06800F05D
:100E60000C00082803D1706840023FF556AF606857
:100E7000B0F5803F07D0B0F5A02F40F08D803068EE
:100E800040F480203060306840F4803030608DE085
:100E9000E068002852D00020C4F247200121016000
:100EA000FFF75EFD054600BF306880073FF552AF93
:100EB000FFF756FD401B0228F6D984E0A068012800
:100EC00005D005284ED1306F40F004003067306FF8
:100ED00040F0010030674FE00021C0F8801EFFF7AE
:100EE0003FFD0546706F80077FF53EAFFFF738FD89
:100EF000401B0228F6D966E00027C4F247270020ED
:100F00003866FFF72DFD022D05460BD130688001B4
:100F10005ED5FFF725FD401B02284FF00300F5D9F1
:100F200054E700BF306880017FF54FAFFFF718FD31
:100F3000401B02284FF00300F4D947E70020C4F219
:100F4000472000210160FFF70BFD05463068800750
:100F50007FF507AFFFF704FD401B02284FF00300A9
:100F6000F4D933E7316F002821F001013167316F87
:100F700021F0040131674DD0FFF7F2FC054641F244
:100F8000883700BF306F800756D4FFF7E9FC401B5D
:100F9000B842F7D917E000BF3168002821F480314A
:100FA0003160316821F4802131604FD0FFF7D8FCE7
:100FB000054600BF306880033FF5B5AEFFF7D0FCB3
:100FC000401B6428F6D9032002B0BDE8F08100BFC1
:100FD00004F11C052FCD08430021CFF6FF7140EA34
:100FE000821001EBC3316FF30F0140EA0560084343
:100FF000706001203866FFF7B3FC0446306880015A
:101000003FF5E3AEFFF7ACFC001B02284FF00300F6
:10101000F4D9DBE6FFF7A4FC054641F2883700BFB0
:10102000306F800708D5FFF79BFC401BB8424FF09C
:101030000300F5D9CAE600BFB8F1000F7FF497AE00
:10104000306C20F08050306491E600BFFFF788FCE0
:10105000054600BF306880037FF565AEFFF780FC72
:10106000401B64284FF00300F4D9AFE6411E002076
:10107000B0EB116F1CBF012070474EF21002CEF290
:10108000000251604EF62351CEF20001F0230B70A6
:1010900007219060116070477047000070470000A2
:1010A00010B590F83C20012A4FF0020251D080F890
:1010B0003D200268D2F804E0D2F808C00C682EF097
:1010C0007003234341F2FF74C4F20004A242536050
:1010D0000EDC40F2FF73C4F200039A4216DCB2F158
:1010E000804F2BD040F20043C4F2000324E000BF45
:1010F00040F2FF33C4F201039A4213DC41F60003CD
:10110000C4F200039A4219D0002313E040F6000312
:10111000C4F200039A4211D040F60043C4F2000327
:101120000AE000BF44F20003C4F201039A4205D072
:1011300040F20043C4F201039A4204D149682CF002
:101140008003194391600121002280F83D1080F84E
:101150003C20104610BD0000002804BF012070474D
:1011600010B5044690F83D0028B9002084F83C00F2
:10117000204600F01FF8022084F83D002068211D61
:1011800001F03CFA012084F8460084F83E0084F81F
:101190003F0084F8400084F8410084F8420084F85D
:1011A000430084F8440084F8450084F83D000020A2
:1011B00010BD000080B582B0006841F20041C4F269
:1011C000000188421CBF02B080BD0020019043F6A0
:1011D0004000C4F202000168002241F020010160D9
:1011E0000068002100F02000019001983720FFF7EF
:1011F00037FC372002B0BDE88040FFF721BC00007B
:1012000090F83D1001291CBF01207047022180F891
:101210003D10006841F2FF72C168C4F200029042C2
:1012200041F00101C1600DDC40F2FF71C4F2000128
:10123000884215DCB0F1804F2AD040F20041C4F260
:10124000000123E040F2FF31C4F20101884213DCC7
:1012500041F60001C4F20001884219D0002113E0D8
:1012600040F60001C4F20001884211D040F600416E
:10127000C4F200010AE000BF44F20001C4F201011F
:10128000884205D040F20041C4F20101884206D1F3
:10129000816801F00701062904BF0020704701683A
:1012A00041F001010160002070470000002804BFE8
:1012B000012070472DE9F047044690F83D000D46A7
:1012C00028B9002084F83C00204600F049F80220AC
:1012D00084F83D00206844F20702816891438160F0
:1012E000211D01F08BF920684FF6FF788168826933
:1012F000D0F820C0D5E9003ED5E9026A43EA0109E9
:10130000AB6922EA080246EA03234FF6FC46B343E0
:10131000D5E9076742EA0A0229691A4342EA062226
:1013200042EA01112CF0AA026B6942EA0E0241EA7C
:10133000073142EA0312C0F808908161026201207D
:1013400084F8460084F83E0084F83F0084F84200A8
:1013500084F8430084F83D000020BDE8F0870000D9
:10136000F0B587B0006840F2FF71C4F20001884216
:101370004FF000010691CDE90411CDE902112DDCF9
:10138000B0F1804F5ED040F20041C4F200018842CB
:1013900040F0BD80002043F630010190C4F202010C
:1013A0000A6942F002020A610A6902F0020201922D
:1013B000019A01900A6842F001020A60096801F08E
:1013C000010101910199C02102910221CDE903108F
:1013D000CDE905010020C4F2020095E040F60001CD
:1013E000C4F20001884269D00021C4F201018842A0
:1013F00040F08D80002043F630010190C4F20201DC
:101400004A6942F001024A614A6902F0010201920E
:10141000019A01900A6842F010020A60096801F01E
:101420001001019101994FF4206102910221CDE94F
:1014300003100590012006900020C4F2020000F580
:10144000805061E0002543F630000195C4F20200AF
:101450000169002441F0010101610169C4F2020443
:1014600001F001010191019901950168022641F005
:10147000010101600168012701F001010191019959
:101480000195016841F002010160006802A900F0C5
:10149000020001900198202002902046CDE90365CA
:1014A00005950697FFF778F90820CDE90206CDE902
:1014B0000455069704F5806026E000BF002043F63F
:1014C00030010190C4F202010A6942F004020A618B
:1014D0000A6902F004020192019A01900A6842F03E
:1014E00008020A60096801F00801019101994FF4AE
:1014F000405102910221CDE90310CDE90501002000
:10150000C4F2020000F5406002A9FFF745F907B0F8
:10151000F0BD000080B590F83E2090F83F3090F884
:1015200042E090F843C004290AD0B9B9012A4FF02B
:10153000010208BFBEF1010F34D0104680BD00BFCC
:10154000012B4FF0010208BFBCF1010FF5D10221C0
:1015500080F83F1080F8431000681EE0012A4FF029
:10156000010208BF012BE8D1BEF1010FE5D1BCF1AA
:10157000010FE2D1022280F83E2080F83F2080F85F
:10158000422080F8432091B10068016A21F00101F6
:101590000162016A41F00101016210216FF0100245
:1015A00009E000BF022180F83E1080F84210006878
:1015B00001216FF00102036A1A400262026A1143BC
:1015C00001620168002241F001010160104680BD06
:1015D0007047000010B5016804460869800744BFE1
:1015E000C8685FEA807039D40869400744BFC8689A
:1015F0005FEA40703ED40869000744BFC8685FEAEC
:10160000007045D40869C00644BFC8685FEAC0607E
:101610004AD40869C0071CBFC8685FEAC07051D1CE
:101620000869000644BFC8685FEA006052D40869D0
:10163000400644BFC8685FEA406053D4086980062A
:1016400046BFC8685FEA806010BD6FF02002204688
:101650000A61BDE81040FFF721BD00BF6FF0020036
:101660000861012020778869800743D02046FFF772
:10167000AFFF45E06FF00400086102202077886921
:1016800010F4407F40D02046FFF7A2FF42E000BFA9
:101690006FF00800086104202077C86980073DD0FA
:1016A0002046FFF795FF3FE06FF01000086108202B
:1016B0002077C86910F4407F3AD02046FFF788FFB2
:1016C0003CE000BF6FF001000861204600F024FA02
:1016D0002168A5E76FF0800008612046FFF7DCFC79
:1016E0002168A4E76FF040000861204600F0E0FAAE
:1016F0002168A3E7204600F025F8204600F080F995
:101700002168002020776FE7204600F01BF8204674
:1017100000F076F92168002020776CE7204600F081
:1017200011F8204600F06CF921680020207769E765
:10173000204600F007F8204600F062F921680020FA
:10174000207766E7704700002DE9F04190F83C30C3
:10175000012B04BF0220BDE8F0814FEAB202032A48
:1017600000F2FC80DFE802F0023E7EBE036840F239
:1017700000471A6A43F4806522F001021A621C6A6B
:101780001A46D3F804E052F818CF8E6824F0020409
:10179000C4F20107BD4244EA060405D1CE6824F034
:1017A0000C0426F0040634430E68BD4207D1D1E98B
:1017B00005572EF4407E45EA0E0545EA070E2CF04B
:1017C00073073743C3F804E09F614F6809695F639B
:1017D0001C629F6947F008079F619F6927F0040713
:1017E0009F61B1E0036840F200481A6A43F48065E3
:1017F00022F010021A621C6A1A46D3F804E052F86A
:1018000018CF8F6824F02004C4F20108454544EA4B
:10181000071407D1CF686FF0400624F0C00406EA31
:10182000071634430F68454507D1D1E905562EF414
:10183000406E4EEA850545EA860E2CF4E64646EAF9
:101840000727C3F804E09F614F6809699F631C6222
:101850009F6947F400679F619F6927F480679F61D4
:1018600071E000BF036840F200481A6A43F48065E3
:1018700022F480721A621C6A1A46D3F804E052F805
:101880001CCF8F6824F40074C4F20108454544EA73
:10189000072408D1CF6840F2FF463F0224F4406499
:1018A00027EA060634430F68454507D1D1E90556B6
:1018B0002EF4405E4EEA051545EA061E2CF073062E
:1018C0003743C3F804E0DF614F680969DF631C62D6
:1018D000DF6947F00807DF61DF6927F00407DF6190
:1018E00032E000BF036840F200451A6A43F48067A3
:1018F00022F480521A621A46D3F820C05C6852F86B
:101900001CEFD1F800808E68C4F20105AF4204D10B
:101910004D6924F4804444EA85142CF4005747EAC6
:1019200006372EF4E64646EA08265C60DE614E681D
:1019300009691E641F62DF6947F40067DF61DF69C0
:1019400027F48067DF6109021368194311600021E1
:10195000002280F83C200846BDE8F08101210022E9
:1019600080F83C200846BDE8F0810000002804BF54
:101970000120704710B5044690F83D0028B90020BA
:1019800084F83C00204600F01FF8022084F83D0057
:101990002068211D00F032FE012084F8460084F802
:1019A0003E0084F83F0084F8400084F8410084F849
:1019B000420084F8430084F8440084F8450084F829
:1019C0003D00002010BD000081B0006840F60041DD
:1019D000C4F20001884201D001B07047002000909D
:1019E00043F64000C4F20200016841F008010160C2
:1019F000006800F008000090009801B070470000F7
:101A00007047000041B1082910D0042914BF00F12B
:101A1000410200F13F020BE090F83E20012A1CBF7A
:101A200001207047022280F83E2013E000F14002BE
:101A30001278012A1CBF012070470222082907D012
:101A4000042914BF80F8412080F83F2002E000BF45
:101A500080F84020006801F01F010122036A02FAA9
:101A600001F123EA01020262026A114341F2FF72AC
:101A7000C4F20002904201620CDC40F2FF71C4F239
:101A80000001884214DCB0F1804F37D040F20041B1
:101A900016E000BF40F2FF31C4F20101884215DCBC
:101AA00041F60001C4F20001884227D0002115E070
:101AB00040F60001C4F2000188421FD040F6004108
:101AC000C4F20001884219D01FE000BF44F20001B7
:101AD000C4F20101884211D040F20041C4F2010178
:101AE000884212D1416C40F2004340F48062C4F25B
:101AF000010341F400419A42416406D1816801F03A
:101B00000701062904BF00207047016841F0010168
:101B100001600020704700002DE9F04381B02DEDF9
:101B2000028B40F60004C4F202040068A4F5FA3106
:101B3000884205D0BDEC028B01B0BDE8F08300BF48
:101B400040F21000C2F20000006840F25801C2F2F8
:101B50000001406A096840F2A002C2F20002496A2C
:101B6000126840F2E803C2F20003526A1B6840F2B6
:101B70008C27C2F200075B6A3E883880A0EB06081B
:101B80007E887980881BB98805B2501A00B240F26D
:101B90009426F98800EE100AC2F20006B8EEC00AD8
:101BA0003046BA80A3EB0109FB8000F0DBFE00EEBB
:101BB000105AB8EEC00A06F1200000F0D3FE0FFA6A
:101BC00088F0404200EE100AB8EEC00A06F140006C
:101BD00000F0C8FE0FFA89F8C8F1000000EE100A04
:101BE000B8EEC00A06F1600000F0BCFE20460421F9
:101BF0000022B0EE408A0025FEF7ACFE2046082108
:101C00000122FEF7A7FE40F23016C2F2000630684D
:101C10000121456320460022FEF79CFE204602215A
:101C20000122FEF797FE306840218563204601229D
:101C3000FEF790FE204680210022FEF78BFE9FEDEE
:101C4000160A3068B4EE408A0564F1EE10FAB8BFA7
:101C5000B0EE480A10EE100AFEF7DFFB9FED0C0B0A
:101C6000044655EC107B3A462B460E46FEF7BAFB6F
:101C700000281CBF2E463C4608A04146224633465B
:101C8000BDEC028B01B0BDE8F04300F0E3BE00BF45
:101C900000000000008051C000008C427370656538
:101CA000643A25642C7468743A25660A00000000C2
:101CB00070470000002804BF0120704710B504469B
:101CC00090F83D0028B9002084F83C00204600F040
:101CD00021F8242084F83D002068C16821F40051D7
:101CE000C160204600F028FD2068016921F4904180
:101CF0000161416921F02A014161C16841F400514B
:101D0000C16000202021206484F83D1084F83E103A
:101D100010BD000080B586B0006844F20042C4F2F5
:101D2000000200219042CDE90411CDE90211019198
:101D30002CD044F60001C4F20001884246D041F2A2
:101D40000001C4F2010188426CD1002043F6300149
:101D50000090C4F202014A6942F010024A614A69E5
:101D600002F010020092009A0090086840F0010012
:101D70000860086800F00100009000984FF4C0600F
:101D800001900020C4F2020041E000BF43F63000A1
:101D90000091C4F20200026942F400320261026959
:101DA00002F400320092009A0091016841F00801AB
:101DB0000160006800F00800009000986020019029
:101DC0000020C4F2020000F5406020E0002043F64D
:101DD00030010090C4F202010A6942F480220A61D3
:101DE0000A6902F480220092009A0090086840F08C
:101DF00002000860086800F00200009000984FF4AC
:101E0000406001900020C4F2020000F580600221D1
:101E1000029100210391032104910721059101A959
:101E2000FEF7BAFC06B080BD2DE9F04381B0044650
:101E300090F83D0020280DD10F4600294FF00100F9
:101E400000F0DD801646002A00F0D98094F83C00AE
:101E5000012803D1022001B0BDE8F083012084F8FD
:101E60003C004FF0000921201D46C4F8409084F842
:101E70003D00FEF775FDA684E684A1680646B1F52F
:101E8000805F07D1206900281CBF38464F46B846FE
:101E9000074601E04FF0000884F83C90E18C206890
:101EA000002900F08B8005F101090AE047B317F81B
:101EB000011B4160E18C0139E184E18C002900F0D3
:101EC0007D8001680906F1D4B9F1000F0AD0EDB1A7
:101ED000FEF746FD801BA84218D820680168090655
:101EE000F6D5E3E701680906E0D4016809065CBF9E
:101EF00001685FEA0161D9D401680906F2D5D5E726
:101F000038F8021B00276FF35F21D2E7206850E802
:101F1000030F216820F4D07041E80302BAB32068AF
:101F200050E8030F216820F4D07041E8030272B337
:101F3000206850E8030F216820F4D07041E80302C4
:101F40002AB3206850E8030F216820F4D07041E8DC
:101F50000302002ADAD11AE0206850E8050F216850
:101F600020F0010041E80502DAB1206850E8050FD1
:101F7000216820F0010041E8050292B1206850E894
:101F8000050F216820F0010041E805024AB12068F0
:101F900050E8050F216820F0010041E80502002A01
:101FA000DAD1202084F83D0084F83E00002084F837
:101FB0003C00032001B0BDE8F08300BF0168490682
:101FC00019D4FDB1691C0DD10168490613D401680B
:101FD00049065CBF01685FEA41610CD401684906AB
:101FE000F2D508E0FEF7BCFC801BA8420AD82068A6
:101FF00000684006F6D5202084F83D00002001B09E
:10200000BDE8F083206850E8030F216820F4D07009
:1020100041E80302E2B3206850E8030F216820F48E
:10202000D07041E803029AB3206850E8030F21689A
:1020300020F4D07041E8030252B3206850E8030F47
:10204000216820F4D07041E80302002ADAD11FE0B1
:10205000206850E8050F216820F0010041E80502E2
:10206000002A9ED0206850E8050F216820F001006A
:1020700041E80502002A3FF494AF206850E8050FBC
:10208000216820F0010041E80502002A3FF489AFF1
:10209000206850E8050F216820F0010041E80502A2
:1020A000002AD5D17DE70000FEE7000070B586B0BC
:1020B000002543F6300005950095C4F20200016842
:1020C00040F6000441F0800101600168C4F202049E
:1020D00001F080010091009900950168002241F013
:1020E00004010160016840F2CF3601F00401009163
:1020F00000990095016841F001010160016801F05B
:102100000101009100990095016841F01001016002
:10211000016801F01001009100990095016841F0FB
:1021200002010160016801F002010091009900952F
:10213000016841F008010160006840F2CF3100F011
:102140000800009000982046FEF704FC1120CDE91D
:10215000020501A9204601960495FEF71DFB06B075
:1021600070BD000010B58CB040F2100000210024BA
:10217000C2F20000C4F20101C0E9001401214FF6CF
:10218000FF72CDE90314CDE90514CDE9091403A9C3
:10219000CDE90044C0E90242C0E904448461CDE9CC
:1021A00007440B94FFF782F8002818BFFEF7DAFA0D
:1021B00040F21000C2F200006946CDE90044FEF78B
:1021C0006FFF002818BFFEF7CDFA0CB010BD00005D
:1021D00080B58CB040F258000021C2F200004FF0F0
:1021E00080424FF0FF33C0E900210122CDE9001108
:1021F000C0E9021301618161CDE90321CDE9052127
:10220000CDE90711CDE909210B9103A9FFF74EF89C
:10221000002818BFFEF7A6FA40F25800C2F20000EC
:102220006946FEF73DFF002818BFFEF79BFA0CB089
:1022300080BD000080B58CB040F2A00040F20042AA
:102240000021C2F20000C4F200024FF6FF73C0E9A1
:1022500000210122CDE90011C0E902130161816171
:10226000CDE90321CDE90521CDE90711CDE909210A
:102270000B9103A9FFF71AF8002818BFFEF772FAAE
:1022800040F2A000C2F200006946FEF709FF0028F4
:1022900018BFFEF767FA0CB080BD000080B58CB0A7
:1022A00040F2E80040F600020021C2F20000C4F251
:1022B00000024FF6FF73C0E900210122CDE90011B1
:1022C000C0E9021301618161CDE90321CDE9052156
:1022D000CDE90711CDE909210B9103A9FEF7E6FF2E
:1022E000002818BFFEF73EFA40F2E800C2F20000F4
:1022F0006946FEF7D5FE002818BFFEF733FA0CB08A
:1023000080BD0000B0B590B040F2301040F60045FE
:102310000021C2F200004FF4FA63C4F20005CDE9D7
:102320000811CDE90611CDE904110122C0E902131B
:1023300001618021C0E900528161FFF717FB00288D
:1023400018BFFEF70FFA40F23010C2F2000008A9E1
:10235000FEF7A6FE002818BFFEF704FA60200190E1
:102360000020CDE90200059040F23010C2F20000DA
:1023700001A90022FFF7E8F9002818BFFEF7F2F9DB
:1023800040F23010C2F2000001A90422FFF7DCF98C
:10239000002818BFFEF7E6F940F23010C2F2000044
:1023A00001A90822FFF7D0F9002818BFFEF7DAF9D3
:1023B00040F23014C2F2000401A920460C22FFF7BB
:1023C000C3F9002818BFFEF7CDF92068A84201D054
:1023D00010B0B0BD002043F630010B90C4F20201F2
:1023E0000A6842F001020A60096801F001010B91DC
:1023F0000B990F210B910221CDE90C10CDE90E01B3
:1024000005F5FA300BA9FEF7C7F910B0B0BD000012
:1024100080B582B040F278100021C2F2000041F293
:1024200000424FF0640CCDE90011C4F2000242F208
:10243000D003C0E9021C8021C0E900238161FEF7BE
:102440008BFE002818BFFEF78DF940F27810C2F21B
:1024500000006946FEF724FE002818BFFEF782F947
:1024600002B080BD80B540F2C01041F20001C2F25E
:102470000000C4F2010100234FF00C0C4FF4E132D4
:1024800080E80E00C0E90333C0E905C3C361FFF76C
:1024900011FC002808BF80BDBDE88040FEF762B98E
:1024A00080B540F2042044F20041C2F20000C4F2C0
:1024B000000100234FF00C0C4FF4E13280E80E00D5
:1024C000C0E90333C0E905C3C361FFF7F3FB00288C
:1024D00008BF80BDBDE88040FEF744B980B540F23A
:1024E000482044F60001C2F20000C4F200010023BB
:1024F0004FF00C0C4FF4E13280E80E00C0E90333DA
:10250000C0E905C3C361FFF7D5FB002808BF80BD44
:10251000BDE88040FEF726B9FEE70000FEE70000B8
:102520007047000070470000FEF720BAB0B592B0C7
:10253000002443F64000CDE90A44CDE9084405945F
:10254000CDE90344CDE901440094C4F202000168DE
:10255000022541F080510160006800F08050009039
:10256000009847F200000094C4F20000016841F4B2
:10257000804101600068A82100F48040009000982C
:10258000012006904FF4803007904FF480000D90AA
:1025900004200E90119006A80C95CDE90F15FEF7BA
:1025A000A9FB28B1EFF3108072B600BFFEE700BFB1
:1025B0000F20CDE901054FF4A05004904FF4805056
:1025C000059001A805210394FEF786FA20B1EFF3E8
:1025D000108072B6FEE700BF12B0B0BD4EF6885054
:1025E000CEF20000016841F4700101607047000004
:1025F00040F27810C2F20000FEF7ECBF10B540F6D2
:10260000FF3E0368C4F2000E40F2004C7045C4F275
:10261000010C27DCB0F1804F31D040F20042C4F20F
:10262000000290422BD040F60002C4F20002904219
:1026300025D041F6FF72C4F20002904229DC7045B9
:102640003CDCB0F1804F5FD040F20042C4F20002A7
:10265000904259D040F60002C4F20002904253D09A
:1026600056E000BF40F60042C4F20002904206D09D
:10267000604504D00022C4F201029042D9D14A68D8
:1026800023F07003134341F6FF72C4F2000290423C
:10269000D5DD43F6FF72C4F20102904222DC42F221
:1026A0000002C4F2000290422ED00022C4F20102C5
:1026B000904229D0604527D02AE000BF40F6004272
:1026C000C4F2000290421FD041F60002C4F20002A0
:1026D000904219D041F60042C4F20002904213D059
:1026E00016E000BF44F20002C4F2010290420BD097
:1026F00044F60002C4F20102904205D044F20042C6
:10270000C4F20102904203D1CA6823F44073134318
:1027100023F080024B69D1F800E08C681A43026014
:10272000C46240F48062C0F828E0624504BF0969D1
:1027300001630121416110BD10B504460068D4E970
:1027400002C22369016921F44051114301616269A8
:1027500043EA0C01E3691143C268194349F20C636F
:102760009A431143C1604169A26921F4407141F269
:102770000043114340F48062C4F201039A42416174
:1027800002D1FEF76DFA01E0FEF756FAE1696368DF
:102790001922B1F5004FA0FB02011FD15A00DB0F37
:1027A000FDF70EFD48F21F51C5F2EB11A0FB01230E
:1027B0005A096FF0630302FB0300322303EBC000EE
:1027C000A0FB01014FF4F87000EA111000EB0210B9
:1027D000C1F3421108442168886010BD9A009B0F24
:1027E000FDF7EEFC48F21F51C5F2EB11A0FB0123EF
:1027F0005A096FF0630302FB0300322303EB00105E
:10280000A0FB0101F02000EA511000EB0210C1F31F
:10281000431108442168886010BD0000FEE70000F5
:1028200080B582B0019040F2C010C2F2000001A950
:1028300001224FF0FF33FFF7F7FA019802B080BD95
:10284000FEF7A2F8FFF772FEFFF730FCFFF78AFCF5
:10285000FFF7BEFCFFF7EEFCFFF720FDFFF752FD90
:10286000FFF700FEFFF71CFEFFF738FEFFF7D0FD75
:1028700040F23014C2F20004204600210025FFF788
:10288000C1F820460421FFF7BDF820460821FFF7D4
:10289000B9F820460C21FFF7B5F840F25800C2F213
:1028A00000003C21FEF736FE40F2A000C2F200001C
:1028B0003C21FEF72FFE40F2E800C2F200003C216E
:1028C000FEF728FE40F21000C2F200003C21FEF7A5
:1028D00021FE40F27810C2F20000FEF791FC40F2B7
:1028E00094249FED1E9A9FED1EAAC2F20004B2EE40
:1028F000048A2046B0EE480AF0EE490AB0EE4A1AC1
:1029000000F09EF804F12000B0EE480AF0EE490A0B
:10291000B0EE4A1A00F094F804F14000B0EE480A14
:10292000F0EE490AB0EE4A1A00F08AF804F16000AD
:10293000B1EE040AF0EE4A0AB0EE4A1A00F080F84E
:102940004FF08140E561E0674FF47A70FDF710FFCA
:102950004FF47A70FDF70CFFF6E700BF0AD7233C6F
:102960000000000070B52DED068B86B090ED07AA33
:10297000B0EE408A90ED040A38EE4A9A39EE000A29
:10298000044680ED039A10EE100A20F00041B1F1E8
:10299000FF4F84ED040A24D9FDF73FFD054619EEEB
:1029A000100A0E46FDF739FD41EC190B18EE100A1E
:1029B000FDF733FD41EC180B1AEE100AFDF72DFD63
:1029C00041EC100B15A02A4633468DED009B8DED92
:1029D000028B8DED040B00F03DF894ED039A94ED1D
:1029E000040A94ED001A94ED012A94ED054A94ED41
:1029F000023A22EE000A21EE091A31EE000A39EEFF
:102A0000441A23EE011A31EE000A84ED059A84ED92
:102A1000060A06B0BDEC068B70BD00BF6945727238
:102A20003A256620206572723A2025662063757209
:102A30003A2025662020676F616C3A2025660A00DF
:102A40000021C0E90311C0E90511C16180EC030A4E
:102A5000704700000FB4054B10B503A9044A029853
:102A600000F0DAF810BC5DF814FB00002128000823
:102A70000000002002E008C8121F08C1002AFAD195
:102A800070477047002001E001C1121F002AFBD1EE
:102A9000704700002DE9FF5F82B00021DDE90430BE
:102AA000020DDDF840B0034318D044F61050A2F2F6
:102AB000FF3242431514119801281FD0A5EB0B00DB
:102AC000401C5FEA000A4FF000064E4FDFF83891D5
:102AD000B046504615D5CAF1000413E01198012400
:102AE0004AA3012801D16FEA0B010298119AC0E9AB
:102AF0000031C0E9024206B0BDE8F09FCBF1000012
:102B0000DFE704460021404A491842EB0450CDE972
:102B1000001012E0E00707D032463B4640464946E7
:102B2000FDF77FFB8046894632463B4610461946F4
:102B3000FDF777FB06460F466410002CEAD1DDE96D
:102B40000401DDE90023BAF1000F06DAFDF769FBA5
:102B500042464B46FDF765FB05E0FDF7D4FB4246D8
:102B60004B46FDF7D0FB04460E460022284BFDF7EE
:102B7000B9FD03D84FF0FF30014607E00022254B96
:102B800020463146FDF7EEFCFDF793FD102409E0E9
:102B9000002C0ADB0A220023FDF712FB039B3032D4
:102BA0001A55641E50EA0102F2D1641C039AC4F162
:102BB00011031444119A012A03D0012208430DD1B4
:102BC0000AE0084304D000204FF0110B119072E787
:102BD000A3EB0B056D1E0DE05B4504DD4FF000021D
:102BE00005F1010504E003DA4FF00002A5F101054B
:102BF000002AECD002981199C0E90231C0E90045E1
:102C000079E70000000014400000F03F30000000B1
:102C10000000F0430000E03F2DE9FF4F95B09B46D8
:102C20008946064600250FE2252877D1002427464D
:102C3000F84A0121059400E0044316F8013F203BC7
:102C400001FA03F01042F7D130782A2811D06FF042
:102C50002F033078A0F13002092A16D8059A44F0E3
:102C6000020402EB820203EB42021044761C059040
:102C7000EFE759F8042B0592002A03DA504244F496
:102C80000054059044F00204761C30782E2816D1AA
:102C900016F8010F44F004042A280DD06FF02F021B
:102CA0003078A0F13003092B09D807EB870302EB3A
:102CB0004303C718761CF3E759F8047B761C307879
:102CC0006C280FD006DC4C2817D068280DD06A2855
:102CD00014D104E0742810D07A280FD10DE044F408
:102CE00000140AE044F4801401E044F440147278C3
:102CF000824202D104F58014761C761C3078662856
:102D00000BD013DC582877D009DC002875D0452873
:102D1000F6D04628F4D047281AD19DE118E0632860
:102D200035D0642879D0652812D195E1702873D008
:102D300008DC6728F1D069286FD06E280DD06F2885
:102D400006D1B5E073282CD0752875D0782874D0BA
:102D50005A46179990476D1C75E1C4F3025002283A
:102D600009D003280DD0D9F8001004280DD00D602B
:102D700009F1040967E1D9F80010EA17C1E9005226
:102D8000F6E7D9F800100D80F2E70D70F0E719F8BA
:102D9000041B8DF8001000208DF80100EA46012088
:102DA00003E059F804AB4FF0FF3061074FF000012A
:102DB00002D40DE008F101018846B9420FDA8045DE
:102DC000F8DB1AF808100029F4D108E008F1010135
:102DD00088468142FADB1AF808100029F6D10598D6
:102DE0005B46A0EB080721463846179A00F094FA94
:102DF000284400EB080507E04DE029E10DE01AF852
:102E0000010B5A4617999047B8F10108F7D25B4673
:102E100021463846179A13E142E00A220092C4F391
:102E200002524FF0000A022A08D059F804CB032AB4
:102E30004FEAEC710AD00DE029E02AE009F1070120
:102E400021F00702F2E802C1914609E00FFA8CFC7A
:102E50004FEAEC71042A03D14FFA8CFC4FEAEC7173
:102E6000002907DA0A460021DCF1000C61EB0201BF
:102E70002D2202E0220504D52B228DF80420012208
:102E800003E0E20701D02022F7E7904659E00A214B
:102E900002E010220DE010214FF0000A00910BE03B
:102EA00010224FF0000A44F004040827009203E0C7
:102EB00008224FF0000A0092C4F30252022A05D001
:102EC00059F804CB0021032A08D009E009F10701D1
:102ED00021F00702F2E802C1914605E01FFA8CFCDE
:102EE000042A01D10CF0FF0C4FF00008220728D56E
:102EF000702806D0009B83F0100353EA0A0305D024
:102F00000EE040228DF80420012208E05CEA010274
:102F100006D030228DF804208DF80500022290465C
:102F2000009B83F0080353EA0A030AD15CEA01021A
:102F300001D1620705D530228DF804204FF0010839
:102F40007F1E582804D034A003900EA802900DE0F4
:102F500036A0F9E753466046009AFDF731F98446FA
:102F60000398825C0298401E029002705CEA0100A5
:102F7000F0D1029806A9081A00F1200A600702D5CC
:102F800024F4803400E00127574502DDA7EB0A0056
:102F900000E0002000EB0A01009005984144401A2F
:102FA0000590E00306D45B462146179A059800F089
:102FB000B3F90544002706E001A85A46C05D1799F9
:102FC00090476D1C7F1C4745F6DBE0030CD55B4644
:102FD0002146179A059800F09FF9054404E0302037
:102FE0005A46179990476D1C0099481E0090002979
:102FF000F5DC08E0029802995A460078491C0291D3
:10300000179990476D1CBAF10001AAF1010AF1DC91
:1030100065E100000928010030313233343536379C
:103020003839616263646566000000003031323314
:1030300034353637383941424344454600000000B4
:1030400000F058F90544761C307800287FF4ECAD88
:1030500019B02846BDE8F08F620700D4062709F1B1
:10306000070222F0070CFCE80223E14603F00048C7
:103070005FEA080C02D00FF2702C0DE05FEA045CEE
:1030800002D50FF2682C07E05FEAC47C02D00FF291
:10309000602C01E0AFF2700C4FF0FF3823F00043DA
:1030A000CDF850C065280CD006DC452809D046284C
:1030B0001DD047283DD13DE0662818D067287ED135
:1030C00038E00021112F01DB112000E0781CCDE950
:1030D000000106A90EA8FFF7DDFCDDE90F010E9A3D
:1030E00003910021009207F1010A04914DE04FF095
:1030F00000400097CDE9011006A90EA8FFF7CAFC11
:10310000DDE90F0203920E9B11990022DDF80CA05D
:103110000093049211B9791C00EB010AB7EB0A0085
:1031200004D4C0F1FF3007F1010A0490AAEB0700B4
:10313000019044E0012F00DA01270021112F01DD69
:10314000112000E03846CDE9000106A90EA8FFF7DE
:10315000A1FCDDE90F010E9A039100210491009278
:10316000BA4621070CD40399514500DA8A46BAF1D0
:10317000010F05DD009AAAF10101515C302908D048
:10318000B84202DA10F1040F06DA0121CDE901108C
:1031900015E0AAF10101E9E7002805DC04990144E2
:1031A0000491AAEB000102E0411C514500DD8A4672
:1031B0000499401A401C01904FF0004002902007F3
:1031C00004D40198504501DBCDF8048000208DF82F
:1031D0004F0002980DF14F07B0F1004F25D02B2082
:1031E0000E9002984FF0020800280CDA404202903C
:1031F0002D200E9007E00A210298FDF721F93031C9
:10320000029007F8011DB8F10001A8F10108F2DCF5
:1032100002980028EFD1791E0E980870307800F0DF
:10322000200040F0450007F8020D12A8C01B00F175
:1032300007081498007800B1012000EB0A010198FA
:1032400001EBE07105984144401A401E0590E003EF
:1032500006D45B462146179A059800F05DF80544B0
:103260001498007818B15A46179990476D1CE003DE
:1032700024D55B462146179A059800F04DF8054481
:103280001CE00498002807DBDDE90301884203DD28
:103290000098405C179901E0179930205A469047F2
:1032A000049805F10105401C04900198401E01900E
:1032B00004D12E205A46179990476D1CBAF100018F
:1032C000AAF1010ADDDC05E017F8010B5A4617994F
:1032D00090476D1CB8F10001A8F10108F4DC5B46D1
:1032E0002146179A0598ABE62D0000002B00000040
:1032F000200000002DE9F041044600251E46174637
:10330000880404D405E039462020B0476D1C641EB3
:10331000F9D52846BDE8F0812DE9F04104460025A5
:103320001E469046C80301D5302700E020278804B8
:1033300004D505E041463846B0476D1C641EF9D5FA
:103340002846BDE8F08100000000000000000102F6
:10335000030406070809000000000102030400003E
:10336000803300080000002010000000742A0008CC
:10337000903300081000002008070000842A00088D
:103380000000000001000000100000000024F40014
:040000050800018965
:00000001FF
