:020000040800F2
:10000000D85001209D010008F5560008A9480008B5
:10001000F1560008D90D00080D5E00080000000030
:10002000000000000000000000000000FD56000875
:10003000F50D000800000000F956000801570008FF
:10004000B7010008B7010008B7010008B7010008B0
:10005000B7010008B7010008B7010008B7010008A0
:10006000B7010008B7010008B7010008B701000890
:10007000DD0D0008B7010008B7010008B70100084E
:10008000E90D0008B7010008B7010008B701000832
:10009000B7010008B7010008B7010008B701000860
:1000A000B7010008B7010008B7010008B701000850
:1000B000B7010008B7010008B7010008B701000840
:1000C000B7010008B7010008B7010008B701000830
:1000D000B7010008B7010008F55D0008015E0008DF
:1000E000B7010008B7010008B7010008B701000810
:1000F000B7010008B7010008B7010008B701000800
:10010000B7010008B7010008B7010008B7010008EF
:10011000B7010008B7010008B7010008C957000877
:10012000B7010008B7010008B7010008B7010008CF
:10013000B7010008B7010008B7010008B7010008BF
:10014000B7010008B7010008B7010008B7010008AF
:10015000B7010008B7010008B7010008B70100089F
:10016000B7010008B7010008B7010008B70100088F
:10017000B7010008B7010008B7010008000000003F
:10018000B7010008B7010008DFF80CD000F01AFC36
:10019000004800477D5F0008D8500120064880478E
:1001A00006480047FEE7FEE7FEE7FEE7FEE7FEE75C
:1001B000FEE7FEE7FEE7FEE7B55700088901000805
:1001C0002DE9F05F0546002092469B46884606468C
:1001D000814640241BE0284641464746224600F01F
:1001E000BAFA53465A46C01A914110D311461846DE
:1001F000224600F0A1FA2D1A67EB01084F4622466D
:100200000120002100F098FA17EB00094E41201E52
:10021000A4F10104DFDC484631462A464346BDE8E6
:10022000F09F2DE9FE43994615468846074601ACE6
:10023000022942D3002D40D000200290A8F10100F5
:100240004FF0FF36009022E000FB057201FB0570C5
:1002500011464A469047002805DC54F826003044F1
:1002600044F8260013E060682A4600FB057154F844
:10027000040C00FB057007E00B7890F800C001F853
:1002800001CB00F8013B521E002AF5D1764254F80A
:10029000040C61688842D7DC4B462A463846FFF793
:1002A000C0FF54F8040C4B46A8EB0001401C00FBB7
:1002B00005702A46491EFFF7B4FFBDE8FE8340EAF9
:1002C00001039B0703D009E008C9121F08C0042AD4
:1002D000FAD203E011F8013B00F8013B521EF9D2BB
:1002E0007047D2B201E000F8012B491EFBD27047E3
:1002F0000022F6E710B513460A4604461946FFF7F2
:10030000F0FF204610BD421C10F8011B0029FBD154
:10031000801A70472DE9FE4F804681EA0300C00F26
:100320000C46009021F0004123F00045B8EB02009C
:10033000A94105D24046214690461C460B4602463E
:1003400023F00040104347D0270DC7F30A00C3F342
:100350000A510290401A019040286BDAC3F313004F
:1003600040F4801B0098924620B10023D2EB030A90
:1003700063EB0B0B01985946C0F14002504600F068
:10038000DBF906460D4650465946019A00F0F3F94E
:1003900010EB08006141002487EA115284EAE773F8
:1003A0001A4340D0009A62B3019A012A4FEA0752D9
:1003B00015DC001B61EB02014FF0004202EA07521C
:1003C000CDE90042001C41F5801132462B4600F079
:1003D0002AFA03B0BDE8F08F40462146F9E7001B3A
:1003E00061EB0201001C41F5801300185B412018ED
:1003F000A2F5001747EB030140EAD570B6196D412D
:1004000011E06D084FEA360645EAC0754FEA07521B
:10041000001B61EB0201001C41F5801149084FEA05
:1004200030000019514132462B4603B0BDE8F04F71
:1004300000F0EAB90098012240000023D0EB02024C
:1004400063EBE073009821464FEAE074B8EB0000DC
:1004500061EB0401E9E783F000435BE781F00041D1
:1004600058E72DE9FE4F81EA030404F0004421F02F
:10047000004100944FF0000B23F0004350EA0104C8
:100480005ED052EA03045BD0C3F30A54C1F30A55A9
:100490002C44A4F2F3340194A0FB0254C1F31301E1
:1004A00041F48011C3F3130343F4801301FB0244AE
:1004B00000FB034E840A970A44EA815447EA8357B3
:1004C000A4FB076802958D0A05FB07854FEA932C6C
:1004D00004FB0C542705029D4FEA065847EA1637DD
:1004E000B5EB08056EEB070C870E920E47EA8117F5
:1004F00042EA8312A7FB0201B6EB0B0164EB000496
:100500002B0D43EA0C335E1844EB1C50DA4651467F
:10051000E7FB0201C5F313044FEA0B3343EA14531C
:100520004FEA0432019C43EA0603A4F10C0402944E
:10053000009CCDE900B400F076F903B0BDE8F08F7F
:1005400000200146F9E72DE9F04D81EA030404F0AB
:10055000004B21F0004514464FF0000A23F0004103
:1005600050EA050220D054EA01021DD0C5F30A5713
:100570000246C5F31303C1F31300C1F30A5640F456
:10058000801543F48013A7EB0608101BD64608F22B
:10059000FD3873EB050002D308F1010801E0921861
:1005A0005B41B8F1000F03DA00200146BDE8F08D91
:1005B00000204FF48011064684460EE0171B73EBB3
:1005C000050705D3121B63EB050306434CEA010C38
:1005D00049084FEA300092185B4150EA0107EDD11B
:1005E00052EA030012D082EA040083EA05010843BC
:1005F00005D0101BAB4106D20122002306E00022E9
:100600004FF0004302E06FF0010253101AEB0600B6
:100610004CEB085110EB0A0041EB0B01BDE8F04D2B
:1006200000F0F2B830B5041E71F1000404DB4FF0A5
:100630000044404264EB0101141E73F1000405DB29
:100640001C464FF00043524263EB0403801A994169
:1006500001D3012030BD002030BD0EB5C10F80EAAE
:10066000E0700844CA07002140F233438DE80E00D1
:100670000A460B4600F0D7F803B000BDC1F30A529A
:1006800010B5C1F3130140F2FF3341F480119A42D7
:1006900001DA002010BD40F233439A42A2F2334205
:1006A00003DC524200F057F810BD904010BD00F03E
:1006B000004230F000400AD0C10D01F56071C0F376
:1006C000160042EA0151C20840071143704700205A
:1006D0000146704701F0004330B421F0004150EA78
:1006E000010206D00A0DA2F56072C1F31301002ABF
:1006F00002DC30BC00207047440F44EAC104C10052
:10070000E01830BC00EBC25000F047B830B50B46E3
:10071000014600202022012409E021FA02F59D4231
:1007200005D303FA02F5491B04FA02F52844151E05
:10073000A2F10102F1DC30BD202A04DB203A00FAEC
:1007400002F1002070479140C2F1200320FA03F328
:10075000194390407047202A04DB203A21FA02F026
:100760000021704721FA02F3D040C2F120029140EB
:10077000084319467047202A06DBCB17203A41FA76
:1007800002F043EAE07306E041FA02F3D040C2F11E
:10079000200291400843194670470029A8BF7047BE
:1007A000401C490008BF20F00100704710B4B0FAA7
:1007B00080FC00FA0CF050EA010404BF10BC704742
:1007C00049B1CCF1200421FA04F411FA0CF118BF5C
:1007D000012121430843A3EB0C01CB1D4FEA00612B
:1007E0004FEA102042BF002010BC704700EBC350FE
:1007F00010440029A4BF10BC7047401C490008BF2A
:1008000020F0010010BC704710B5141E73F10004F5
:1008100008DA401C41F1000192185B411A4301D1F2
:1008200020F0010010BD2DE9F04D92469B4611B11C
:10083000B1FA81F202E0B0FA80F220329046FFF77E
:100840007BFF04460F4640EA0A0041EA0B0153468B
:100850005A46084313D0114653EA010019D0C8F193
:1008600040025046FFF777FF05460E465046594670
:100870004246FFF761FF084305D0012004E020460F
:100880003946BDE8F08D0020054346EAE0762C436A
:1008900037430A986305E40AA0EB08000022FD0A2A
:1008A00044EA47540A3002D500200146E9E7010531
:1008B00010196941DDE9084500196941BDE8F04DAD
:1008C000A2E72DE9F04D00231A461B1A8A4103DBEB
:1008D00000200146BDE8F08DC1F30A52C1F31301B7
:1008E00041F480154FF0000BD10702D100186D4183
:1008F000521E0027044640F2FF11384601EB620AFF
:100900003E468046024600204FF48011FFF723FF49
:10091000C2197141BB1846EB0100B4EB030C75EB37
:10092000000C04D3E41A65EB000517460E462419A3
:1009300008F101006D4180463428E3DDF91946EBEA
:100940000600091BA84103D24FF0FF32134601E015
:10095000002213461BEB070046EB0A51BDE8F04DA1
:10096000FFF752BFC1F30A52C1F3130140F2FF3344
:1009700041F480119A4202DA00200146704740F2A9
:1009800033439A42A2F2334202DC5242FFF7E3BE03
:10099000FFF7D2BE30B5041E71F1000404DB4FF046
:1009A0000044404264EB0101141E73F1000405DBB6
:1009B0001C464FF00043524263EB0403994208BFC8
:1009C000904230BD064C074D06E0E06840F0010360
:1009D00094E8070098471034AC42F6D3FFF7D8FBF1
:1009E0000C7300082C7300082DE9F04F85B040F21D
:1009F0000870282126229327D626D624D8254FF002
:100A0000D813C2F20000C0F2D801C0F29302C0F2C3
:100A1000D607C0F29306C0F22604C0F26B0500F1BF
:100A2000480C8CE87000C0E91537C0E917329322F2
:100A300028236B2626244166D8216B254FF02617E4
:100A400000F1280CC0F22801C0F22602C0F26B03AC
:100A5000C0F22806C0F2D604C0F2D8058CE8B00077
:100A6000C0E90D67C0E90F32416403F01FFF05F0D4
:100A7000EFF940F2F00240F260110120C2F20002F0
:100A8000C2F20001B2F902900880B9F1020FC0F27F
:100A90000E81A9F1010043F2703E40F2DC1B4FF0E1
:100AA000000A4FF001080021CDF804900390B2F93C
:100AB0000000C2F2010EC2F2000B461E029000BFFF
:100AC00002980491022855DB44F6EA3000274FF0E3
:100AD0000009C2F20100014630F91A0001EB4A0197
:100AE000B1F90210084400EBD070441002EB47004B
:100AF000B0F94C10B0F94E00084421B200EBD075AB
:100B000045F34F0004F04AFA00B340F2601243F29A
:100B1000547308F101016810C2F20002C2F201032D
:100B2000118007EB071203EBC2021FFA88F3884615
:100B300022F83A002BF823000BEB830002EBCA02E9
:100B4000448001205480536001E000BF002043F244
:100B5000703E09F1010940F2F00207EB0711C2F201
:100B6000010E1FFA89F7C2F200027144BE4201F879
:100B70000A00BBDC0499039801311FFA81FA504541
:100B80009EDCDDF80490B9F1010F40F39080B2F8DB
:100B900000C04FF0000A00220FFA8CF004920328E4
:100BA0006FDB0020002500BF43F2547100EB0013FF
:100BB000C2F2010101EBC30232F93A108EB2002EEB
:100BC00058D002EBCA08B8F90220002A52D00130EE
:100BD00000EB001443F25470C2F2010000EBC407B2
:100BE00037F93A001FFA80FBBBF1000F42D007EB48
:100BF000CA07E146B7F902C0BCF1000F39D073440F
:100C000013F80A30ABB30EEB040313F80A3083B3C6
:100C100008440CEB020100EBD07001EBD17140F302
:100C20004F0041F34F0104F0B9F943F2703E002840
:100C3000CC46C2F2010E1DD0ABEB0602B988B8F863
:100C4000040092B205F0E4F8B8F800203B88B8F848
:100C50000410B8889A1A92B205F0DAF840F2F0005F
:100C600043F2703EC2F20000C2F2010EB0F800C0C2
:100C700000E0CC460FFA8CF10135A8B2023981426E
:100C800092DC40F2F000049AC2F20000B0F90200D7
:100C900001321FFA82FA411E51453FF77DAF1FFA1C
:100CA00080F90FFA8CF00228C0F2928006E0B2F8C8
:100CB00000C00FFA8CF00228C0F28A8043F2547C04
:100CC00000250021C2F2010C0FFA89F000910328DF
:100CD00071DB00200027049505EB05130CEBC30422
:100CE00034F9301000295FD004EBC00B5E4636F9B2
:100CF000022F1FFA82F8B8F1000F55D0451C34F9C5
:100D000035E0BEF1000F4DD004EBC50A544634F96E
:100D100002CF03941FFA8CF4F4B3CDE9014A43F2F5
:100D20007034C2F201042344185CA8B3585D98B330
:100D30000EEB01000CEB020100EBD07001EBD17166
:100D400040F34F0041F34F0104F028F943F2547C83
:100D5000049D0028C2F2010C26D0019A029CBBF827
:100D60000400A2EB0802A18892B205F051F8039B9F
:100D70003288BBF80410A0881B889A1A92B205F03A
:100D800047F840F2F00043F2547CC2F20000C2F295
:100D9000010CB0F8029007E043F2547C049DC2F2CB
:100DA000010C01E0049D00BF0FFA89F10137B8B2D0
:100DB0000239814290DC40F2F0000099C2F200005A
:100DC000B0F9000001318DB20138A8423FF77CAF85
:100DD00005B0BDE8F08F0000FEE7000042F60820F5
:100DE000C2F2010000F098BD42F6A810C2F2010064
:100DF00000F092BD704700002DE9F04F83B040F243
:100E0000601C40F6CC1682460120C2F2000CC2F2F1
:100E10000006BCF800B0A6F8800CBBF1000F00F093
:100E20007E8144F6F024012300250122C2F2010450
:100E3000E55413B25F1C5F450DDC0233E5555B459D
:100E400009DCD01CE55403B25B4504DC0432E554F4
:100E500013B25B45ECDDBBF1000F00F0608143F2A3
:100E60006055012300270122C2F2010525F8137005
:100E7000531C1BB25B4511DC901C25F8137003B2A8
:100E80005B450BDCD01C25F8137003B25B4505DC19
:100E9000043225F8137013B25B45E7DDBBF1000F98
:100EA00000F03D8140F2D87901914FF0010C4FF0F4
:100EB000000E47F2305801210123C2F2000900BFA1
:100EC0001FFA8CF2514506EB820424F8023B35D11F
:100ED00099B2012AA4F800E029F811C035D0CCF36A
:100EE0004E0506EB850232F8021F00295ED000BFD6
:100EF0001FFA8CF056F82540294656F8207046F81F
:100F0000257046F8204036F82500A5B239F815407E
:100F100039F8107029F8104088B2012829F81570A6
:100F200044D0C1F34E0512888C4606EB850030F89C
:100F3000027FBA420246DBD338E000BF98B2012AF2
:100F4000A4F8008029F810C002D14FF0020C31E063
:100F5000CCF34E0547F2315106EB850232F8020F11
:100F6000884223D31FFA8CF756F82500294656F8F5
:100F7000274046F8254046F8270080B236F825700D
:100F800039F8104039F8175029F8174029F810504F
:100F900088B201280AD0C1F34E0512888C4606EBB0
:100FA000850030F8027FBA420246DBD3B6F8800CE7
:100FB00000F1010C0133A6F880CC19B259457FF736
:100FC0007FAF39F81A10002206EB81014A801FFA20
:100FD0008CF10229C0F09C80BBF1000F00F09880DA
:100FE00041F24E68002447F230550127C2F2000852
:100FF000F088A84200F08C80ACF10100B6F804B093
:10100000A6F8800C80B256F820107268716046F81D
:10101000202092B2B08839F8123039F8101029F82F
:101020001030304629F81210012105F051F944F62C
:10103000F021C2F2010111F80B0000285BD142F649
:10104000682043F2605E013401F80B70C2F20100C7
:10105000C2F2010E30F81B0000284CD0029400BFF1
:1010600000B239F81B3000EB400138F811C006EB34
:10107000830308EB410042885B8839F81C40134425
:1010800006EB840232F8027FBB422DD2012C138082
:1010900028D065089BB206EB850232F8027F9F429A
:1010A00020D900BF56F8257056F824102B46012B86
:1010B00046F8251046F82470BFB236F8251039F8E6
:1010C000174039F8115029F8114029F8175009D064
:1010D0005D0812881C4606EB850131F8027FBA4292
:1010E0000A46DFD32EF81CB080880028B8D1029CB5
:1010F00047F230550127B6F880CCBCF1020F07D378
:1011000040F26010C2F2000000888442FFF670AF27
:1011100040F260140199C2F20004A44609E040F2D2
:10112000D8700022C2F2000030F81A0006EB8000EE
:10113000428044F6EC0201200029C2F20102ACF820
:10114000020041D00FB21046BA4538D043F2605386
:1011500001261046C2F2010333F917700180B0B2C4
:10116000711C02EB4000BDB2002D18BFBA4523D060
:1011700033F91770058088B2B11C02EB4000BDB294
:10118000002D18BFBA4517D033F91770058088B203
:10119000F11C02EB4000BDB2002D18BFBA450BD0C8
:1011A00033F91770058088B2043602EB4000B9B2FB
:1011B00019B1BA45D0D100E00E46ACF80260A0F8F3
:1011C00000A003B0BDE8F08F1046A0F800A003B067
:1011D000BDE8F08F40F2380000214FF6FF72C2F2F6
:1011E0000000016102868184418001717047000026
:1011F0002DE9F04F81B02DED028B8946804604F039
:10120000A1FE40F2601AC2F2000ABAF800100029EA
:101210005ED040F2DC1B9FED338A051406B2012438
:10122000C2F2000BA0B20BEB80013BF92000B1F938
:101230000210801B491B404301FB0100FFF70DFA20
:1012400041EC100B05F05CFB51EC100BFFF742FA80
:1012500000EE100ABAF80000B4EEC08AF1EE10FAFF
:10126000C4BFB0EE408A27460134A1B28142D9D929
:1012700078B39FED1C8A0FFA89F90FFA88F40126DA
:10128000B0B20BEB80013BF92000B1F90210001B5A
:10129000A1EB0901404301FB0100FFF7DEF941EC3E
:1012A000100B05F02DFB51EC100BFFF713FA00EEBD
:1012B000100AB4EEC08AF1EE10FAC4BFB0EE408A54
:1012C00035460136BAF80000B1B28142D8D900E003
:1012D000FFE7B8B2A9B2BDEC028B01B0BDE8F04F98
:1012E000FFF78ABDCAF24971B0B540F2D475C2F2B7
:1012F0000005296802293CDC40F21004C2F2000417
:1013000034F8210004EB8101498800F047F904F02A
:1013100019FE296804EB810234F92110B2F9022088
:10132000C2EB204200B2401A404302FB0200FFF72A
:1013300094F941EC100B05F0E3FA51EC100BFFF7B8
:10134000C9F9B3EE040A01EE100AB4EEC01AF1EEC8
:1013500010FAC8BFB0BD282000F0C4FC05F076F834
:10136000282000F0BFFC2D68E8B204F0D3FD44F85B
:101370002500B0BDF0B585B040F23804C2F20004DB
:101380002079022808D0012811D0B0B9A08CB0B1C2
:101390000120207105B0F0BD618D208D00F0FEF8B8
:1013A000E07850B90020A084207105B0F0BDE18C38
:1013B000A08C00F0F3F8E07820B305B0F0BD04F0A5
:1013C000B3FD18B36846002104F08AFD04989DE837
:1013D0004E0004F1380C8CE84E00A06440F220006E
:1013E000C2F20000B4F8441000888142E5D0022027
:1013F00004F1380604F1240C20714FCE8CE84F0024
:1014000005B0F0BD0220207105B0F0BD04F09AFDDA
:10141000B4F908000128C0F29A80411E00F0030EC2
:101420004FF6FF7C032906D200234FF6FF71BEF171
:10143000000F41D188E044F25C0140F27075A0EBEE
:101440000E000023BFEE000AC2F20101C2F2000545
:1014500001F138024FF6FF71EE5C3EB112ED0A1A4F
:10146000B4EEC01AF1EE10FAC8BF1946EE1877783C
:101470003FB112ED051AB4EEC01AF1EE10FAC8BF72
:10148000591CB7783FB192ED001AB4EEC01AF1EED4
:1014900010FAC8BF991CF6783EB192ED051AB4EE69
:1014A000C01AF1EE10FAC8BFD91C0433503298426A
:1014B000D2D1BEF1000F47D040F27070C2F20000EE
:1014C000C25C8AB144F25C0503EB8302BFEE001AF2
:1014D000C2F2010505EB820292ED040AB4EEC10AE4
:1014E000F1EE10FAC8BF1946BEF1010F2CD05A1CFC
:1014F000855C8DB144F25C0602EB8205BFEE001AFA
:10150000C2F2010606EB850595ED040AB4EEC10AA8
:10151000F1EE10FAC8BF1146BEF1020F14D09A1CAA
:10152000805C88B144F25C0302EB8200BFEE001ADB
:10153000C2F2010303EB800090ED040AB4EEC10A8D
:10154000F1EE10FAC8BF114688B2604503D1002001
:10155000A08405B0F0BD08B244F25C0200EB80014B
:10156000C2F2010202EB8103D3E90176D3E903530E
:1015700052F821100022C4E9091740F27071C4E941
:101580000B656363C2F200010A5405B0F0BD0000B0
:10159000EFF3108072B600BFFEE700002DE9F047C0
:1015A00086B040F2380604460D46C2F20006B08905
:1015B000A0420CD1F089A84209D1F078022825D0A8
:1015C000012800F08D8088B106B0BDE8F087204684
:1015D0002946FFF70DFE0020F581B481F07040F23E
:1015E0006210C2F2000000880138708140F27C1065
:1015F0000021C2F2000001610220F07040F29C1054
:10160000C2F20000016106B0BDE8F08727B204F025
:1016100099FC804629B20FFA80F9C1EB2841A9EB69
:101620000700494300FB0010FFF717F841EC100BCF
:1016300005F066F951EC100BFFF74CF871780029B2
:1016400040F0948000EE100AB1EE0C1AB4EEC10A1C
:10165000F1EE10FA80F28A80B6F90820012AC0F271
:10166000FA80B6F9300044F25C070025C2F20107A7
:1016700083B205EB850107EB81018989994200F06E
:10168000DE8045F0010109B2914280F2E48001EB75
:10169000810407EB8404A4899C4200F0CF8045F0CC
:1016A000020109B2914280F2D68001EB810407EB7E
:1016B0008404A4899C4200F0C18045F0030109B272
:1016C000914280F2C88001EB810407EB8404A48975
:1016D0009C4200F0B380291D0DB29542C9DBBAE0EF
:1016E000708900283FF482AF04F02CFC074644F6D2
:1016F000EC017089C2F201010FFA87FA31F810008B
:1017000040F2DC11C2F2000101EB800231F820400E
:10171000558820B22AB2AAEB0000C2EB2742404310
:1017200002FB0200FEF799FF41EC100B05F0E8F810
:1017300051EC100BFEF7CEFFB3EE040A01EE100AD7
:10174000B4EEC01AF1EE10FA41DA40F29C1000211A
:10175000C2F20000016140F27C10C2F2000001619F
:1017600070890138708106B0BDE8F08740F29C10A6
:1017700000EE105A01EE104A4FEA2848B8EE400A2F
:10178000C2F20000B8EE411A80ED070A40F27C1068
:10179000C2F2000080ED071A40F2F860C2F20000C9
:1017A0008068FEF784FF824670690F46FEF77FFF70
:1017B00041EC100B47F2802047EC11AB00954946F5
:1017C0008DED021B8DED040BC0F600002FE040F202
:1017D0009C1000EE105A01EE104A4FEA2748B8EE6E
:1017E000400AC2F20000B8EE411A80ED070A40F24A
:1017F0007C10C2F2000080ED071A40F2F860C2F2DD
:1018000000008068FEF753FF814670690F46FEF7BF
:101810004EFF41EC100B47F2C82047EC119B51469C
:101820000095C0F600008DED021B8DED040B4246C5
:10183000234604F06DFF06B0BDE8F0870D4640F288
:1018400070710022C2F200014A5542F6A61101222F
:10185000C2F200010A540020F07006B0BDE8F08723
:1018600070B5866D044600F03BFB054694F83500E4
:1018700002282BD12068016821F01601016041691E
:1018800021F080014161216C09B9A16C19B1016895
:1018900021F008010160016821F001010160006888
:1018A000C00705D119E000BF20680068C00714D048
:1018B00000F016FB401B0528F6D9202060650320A8
:1018C00084F83500002184F8341070BD80206065F4
:1018D0000120002184F8341070BDE06D3F2101FA31
:1018E00000F0B060012084F835000020002184F869
:1018F000341070BD90F83510022909D1052180F807
:1019000035100068016821F0010101600020704776
:101910008021416501207047F0B581B00446002068
:1019200048F2B5130821009040F20C00C1F64E3386
:10193000C2F200000268D4E9166037688140A2FB59
:10194000032539420CD0226813685B0708D5136859
:1019500023F004031360B160616D41F00101616522
:1019600001218140394208D022685269120604D50B
:10197000B160616D41F0020161650421814039422D
:1019800008D022681268920704D5B160616D41F0F9
:101990000401616510218140394217D02068026836
:1019A000120713D5B16002680168520308D4C90553
:1019B0005EBF016821F008010160216C21B905E0DA
:1019C000080344D4216C09B120468847E16D2020EA
:1019D00000FA01F23A4247D020680368DB0643D59B
:1019E000B26094F835300268052B1ED122F0160241
:1019F0000260426922F080024261226C0AB9A26C44
:101A00001AB1026822F0080202603F208840B060EC
:101A1000002084F83400012084F83500216D00296D
:101A20005AD02046884701B0F0BD0168520312D455
:101A3000C90515D4016821F010010160002084F867
:101A40003400012084F83500E16B59B90CE0A16C39
:101A50000029B9D1BAE7080302D4616C11B903E0D7
:101A6000E16B09B120468847606DA8B3606DC0077F
:101A70002ED00521A80A84F8351021680A6822F0C2
:101A800001020A60009A0132824200921AD80A6862
:101A9000D20717D0009A01328242009212D80A6807
:101AA000D2070FD0009A0132824200920AD80A6807
:101AB000D20707D0009A01328242009202D80A6807
:101AC000D207DFD1002084F83400012084F83500EB
:101AD000E16C09B12046884701B0F0BD2DE9F04125
:101AE000044600F0FDF9002C04BF0120BDE8F081A0
:101AF0000546002084F83400022084F8350021686F
:101B0000086820F0010008600868C00704D110E0F0
:101B100021680868C0070CD000F0E2F9401B0528D6
:101B2000F6D9032520230320636584F83550BDE8EA
:101B3000F08148F23F020868D4E9013504F10C084D
:101B4000CFF2100200EA020C98E8C101D4E9072E96
:101B500043EA0C032B431843636A30433843042B96
:101B600040EA080040EA020040EA0E021DD1D4E932
:101B70000BE042EA0E02BEF1000F40EA02000860EC
:101B80004869A26A20F0030040EA020040F0040C19
:101B900011D0B8F5005F34D0B8F1000F42D1022A5D
:101BA00043D0012A37D032B93FE00A60486920F0BB
:101BB000070040EA030C6FF00F0040F2FF32C1F85B
:101BC00014C00023012550FA81F091434AF6AB225C
:101BD000CAF6AA225F2888BF0431A165A0FB0202D1
:101BE000100947F27822C0F60002105C3F22E0653F
:101BF00002FA00F088600020636584F83550BDE883
:101C0000F081032AD7D8012540230120DFE802F024
:101C1000020D0203F0E7AEF1C070B0FA80F04009A7
:101C200038B9C8E7032A04D3C5D1CEF30060002831
:101C3000C1D0012540230120636584F83550BDE8FB
:101C4000F0810000B0B590F834C0BCF1010F47D06E
:101C50004FF0010CD0F858E080F834C090F835C04F
:101C6000BCF1010F39D14FF0020C80F835C04FF0B4
:101C7000000CC0F854C0D0F800C08468DCF80050F4
:101C8000402C25F48025CCF80050CCF804300B46CD
:101C900008BF1346CCF8083008BF0A46CCF80C2021
:101CA000C16D3F2202FA01F1CEF80810DCF80010F5
:101CB00041F01601CCF80010006C00281EBFDCF8C3
:101CC000000040F00800CCF80000DCF8000040F014
:101CD0000100CCF800000020B0BD002180F83410D5
:101CE0000220B0BDB0B5044600F0FAF8054640F257
:101CF0000400611CC2F20000007818BF044400BF59
:101D000000F0EEF8401BA042FAD3B0BD2DE9F04F31
:101D100082B041F6004308224FF0010A00264FF03E
:101D20000008C4F20203984200F13E4308BF0722B4
:101D300003F1FF734FEAB327072F4FF0000738BFB7
:101D40004FEAB32200920A680AFA08F912EA090F68
:101D50000FD100BF0236043708F10108202E04BF5E
:101D600002B0BDE8F08F0A680AFA08F912EA090F12
:101D7000F0D0D1F804C00CF0030AAAF10102012A44
:101D800016D803228468CD684FEA480BB2409443CA
:101D9000B5406FEA020E25438560CCF30015446818
:101DA00005FA08F524EA0904254345600EE000BF62
:101DB0000322BAF1030FB34602FA06F26FEA020EEB
:101DC00004D1B3464FF0030A21E000BFC2688C681B
:101DD000BAF1020F02EA0E0204FA0BF442EA04021C
:101DE000C26014D107F01C020F2303FA02F56FF052
:101DF000030303EA58040444236AAB430D6905FA5C
:101E000002F21A432262D1F804C00CF0030A0368FC
:101E10000AFA0BF21CF4403F4FF0010A03EA0E03EA
:101E200042EA0302026095D0002243F6004C07F01C
:101E30000C050F24019243F64402C4F2010CAC409D
:101E4000C4F202021346126842F480421A601A6811
:101E500002F48042019228F00302019B62444FF693
:101E60000843CFF6FF739E46D358A343009C04FA61
:101E700005F52B4342F80E30DCF808204D6842EAA5
:101E80000903EC0258BF22EA090343F60C42CCF8DE
:101E90000830AC02C4F201029646126842EA090315
:101EA00058BF22EA0903CEF80030AC03DCF8042066
:101EB00042EA090358BF22EA0903CCF80430ED03D3
:101EC000DCF8002042EA090358BF22EA0903CCF8F3
:101ED00000303FE7002A08BF090481617047000015
:101EE00044F6E020C2F201000068704740F20400AE
:101EF00044F6E021C2F20000C2F2010100780A6853
:101F0000104408607047000080B543F60040C4F2FA
:101F10000200016841F400710160016841F48061D0
:101F20000160016841F480710160032000F084F8D1
:101F30000F2000F005F800F025F8002080BD00001B
:101F400070B540F2040604464FF47A71C2F20006FE
:101F50003078B1FBF0F040F20C01C2F200010968E8
:101F6000B1FBF0F000F026FB01250F2C08D838B9A2
:101F70004FF0FF3021460022002500F02FF874605A
:101F8000284670BD82B043F6400100200190C4F2A3
:101F900002014A6842F480424A604A6802F4804280
:101FA0000192019A0090086840F08050086008682B
:101FB00000F080500090009802B070470028B8BF31
:101FC000704700F01F010122400902FA01F14EF2B0
:101FD0000012CEF2000242F82010704710B500F057
:101FE0000F034EF60C5E00F1604CB0F1FF3FA3F121
:101FF0000403CEF2000E734403F10C04C8BF0CF5C9
:102000006444DEF800004FF0FF3CC0F30220C31E22
:1020100080F0070038BF0023042828BF04200CFAF2
:1020200000F021EA00000CFA03F1984022EA0101D5
:1020300008430001207010BD4EF60C514FF6FF030F
:10204000CEF200010A681A4060F30A2242F0806072
:1020500040F0FD70086070472DE9F041002800F065
:10206000A88043F6080804460D46C4F20208D8F8D2
:10207000F80300F00700884208D288F8F853D8F82F
:10208000F80300F00700A84240F093802068810721
:1020900017D5410742BFD8F8001041F4E051C8F805
:1020A0000010010742BFD8F8001041F46041C8F8A1
:1020B0000010D8F80010A26821F0F0011143C8F810
:1020C0000010C00736D06068811E022907D258F878
:1020D000081C89015CBF0120BDE8F0810DE00128EA
:1020E00007D158F8081C89035CBF0120BDE8F081C6
:1020F00003E058F8081C89075BD5D8F8001021F0D8
:1021000003010843C8F80000FFF7EAFE064641F263
:10211000883707E0FFF7E4FE801BB84284BF032046
:10212000BDE8F081D8F80000616800F00C00B0EB69
:10213000810FEFD1D8F8F80300F00700A84207D9C3
:1021400088F8F853D8F8F80300F00700A84230D117
:102150002068410707D5D8F80010E26821F4E05163
:102160001143C8F80010000708D5D8F8000021690D
:1021700020F4604040EAC100C8F8000000F044F8D4
:10218000D8F8001047F26022C0F60002C1F3031134
:10219000515CC84040F20C01C2F20001086040F2FC
:1021A0000800C2F200000068FFF7CAFE0020BDE888
:1021B000F0810120BDE8F08140F20C0043F60801F7
:1021C00047F27022C2F20000C4F20201C0F600021F
:1021D00000680968C1F38221515CC8407047000063
:1021E00040F20C0043F6080147F27022C2F20000F0
:1021F000C4F20201C0F6000200680968C1F342316E
:10220000515CC8407047000010B543F60404C4F2A6
:102210000204606800F00C0142F20040C0F2F400D9
:10222000082907D0042918BF10BD41F20020C0F2D0
:102230007A0010BD2168236801F03F0221685B022B
:10224000C1F3881105D4A1FB00010023FDF7B8FFFD
:1022500006E041F20020C0F27A004843B0FBF2F001
:1022600021680222C1F3014102EB4101B0FBF1F010
:1022700010BD00002DE9F04182B0002800F051812E
:102280000446007843F60006C4F20206C00744D0B4
:10229000B06800F00C00042805D1306880033CD5FC
:1022A0006068D0BB3DE1B06800F00C00082802D1A6
:1022B00070684002F1D46768B7F5803F06D0306897
:1022C000B7F5A02F13D140F480203060306840F47F
:1022D00080303060FFF704FE054600BF30688003A1
:1022E0001BD4FFF7FDFD401B6428F7D9B6E020F4AE
:1022F00080303060306820F480203060FFF7F0FDDF
:102300000546002FEAD13068800306D5FFF7E8FDC7
:10231000411B03206429F6D949E1207880072FD595
:10232000B06810F00C0F07D0B06800F00C0008285F
:102330000AD17068400207D43068800719D5E06878
:10234000012840F0EE8014E0E068002800F08A8068
:1023500000200121C4F247200160FFF7C1FD0546BE
:102360003068800705D4FFF7BBFD401B0228F7D972
:1023700074E03068216920F0F80040EAC100306064
:102380002078000723D561690020C4F2472071B18D
:102390000121C0F8801EFFF7A3FD0546706F80077E
:1023A00015D4FFF79DFD401B0228F7D956E0002108
:1023B000C0F8801EFFF794FD054600BF706F8007D0
:1023C00005D5FFF78DFD401B0228F7D946E02078A0
:1023D000400779D5306C4FF00008C0000CD4CDF820
:1023E00004804FF00108306C40F080503064306C55
:1023F00000F080500190019847F20007C4F20007F6
:102400003868C0050FD4386840F480703860FFF732
:1024100067FD05463868C00505D4FFF761FD401B20
:102420000228F7D91AE0A768012F05D0306F052FD1
:102430002BD140F004003067306F40F0010030676E
:10244000FFF74EFD054641F2883700BF306F800729
:1024500033D4FFF745FD401BB842F7D9032002B043
:10246000BDE8F08100200021C4F247200160FFF7A1
:1024700037FD0546306880077FF582AFFFF730FDF6
:10248000411B03200229F5D991E020F001003067BB
:10249000306F20F004003067FFF722FD0546002F63
:1024A000D1D141F28837306F800706D5FFF718FD8C
:1024B000411B0320B942F6D979E0B8F1000F1EBFE5
:1024C000306C20F080503064A769002F6ED0B06867
:1024D00000F00C00082828D1012F22D07068E16993
:1024E00000F480028A421CD1216A00F03F028A4235
:1024F00017D147F6C071626A0140B1EB821F10D15B
:10250000A16A4FF6FF72C903914300F44032A1F56E
:1025100080318A4205D1E16A00F07060B0EB016F52
:1025200044D0012002B0BDE8F08140F20008002054
:10253000C4F24728C8F86000FFF7D2FC0546022F16
:102540000AD100BF3068800110D5FFF7C9FC411BDC
:1025500003200229F6D92AE03068800126D5FFF74A
:10256000BFFC411B03200229F6D920E004F11C071F
:102570008FCF0843D90340EA82104FF6FF72914390
:1025800040EA0760A1F58031084370600120C8F877
:102590006000FFF7A5FC04463068800106D4FFF711
:1025A0009FFC011B03200229F6D900E0002002B0A5
:1025B000BDE8F081411E0020B0EB116F1CBF01206F
:1025C00070474EF21002F023CEF2000251604EF638
:1025D0002351CEF200010B7007219060116070470B
:1025E000704700007047000090F83C300222012B39
:1025F0005DD010B580F83D20012280F83C200268B3
:10260000D2F804E0D2F808C00C682EF0700323431F
:10261000536041F2FF73C4F200039A42BDE81040D8
:102620000FDC40F2FF73C4F200039A421BDCB2F1EC
:10263000804F31D040F20043C4F200039A422BD0C5
:102640002FE040F2FF33C4F201039A4218DC41F656
:102650000003C4F200039A421ED00023C4F2010317
:102660009A4219D01DE040F60003C4F200039A42DA
:1026700012D040F60043C4F200039A420CD010E09E
:1026800044F20003C4F201039A4205D040F2004331
:10269000C4F201039A4204D149682CF08003194323
:1026A00091600022012180F83C2080F83D10104606
:1026B00070470000002804BF0120704710B5044691
:1026C00090F83D0028B9002084F83C00204600F036
:1026D0001FF80220211D84F83D00206803F07AF8DD
:1026E000012084F8460084F83E0084F83F0084F816
:1026F000400084F8410084F8420084F8430084F8E4
:10270000440084F8450084F83D00002010BD00001E
:1027100041F200410068C4F20001884218BF7047CE
:1027200080B582B000200022019043F64000C4F240
:102730000200016841F0200101600021006800F002
:102740002000019001983720FFF748FC372002B0A5
:10275000BDE88040FFF732BC90F83D1001291CBF56
:1027600001207047022180F83D100068C16841F0E7
:102770000101C16041F2FF71C4F2000188420FDC27
:1027800040F2FF71C4F2000188421BDCB0F1804FBF
:1027900031D040F20041C4F2000188422BD031E038
:1027A00040F2FF31C4F20101884218DC41F6000119
:1027B000C4F2000188421ED00021C4F20101884207
:1027C00019D01FE040F60001C4F20001884212D087
:1027D00040F60041C4F2000188420CD012E044F2FD
:1027E0000001C4F20101884205D040F20041C4F268
:1027F0000101884206D1816801F00701062904BF62
:1028000000207047016841F001010160002070471D
:10281000002804BF012070472DE9F04F81B0044625
:1028200090F83D000D4628B9002084F83C00204671
:1028300000F048F8022044F2070284F83D002068C6
:10284000816891438160211D02F0C4FF2068816886
:10285000D0F818A0D0F820C0D5E9003ED5E902B7DD
:10286000D5E90489D5E9062619432B6A4BEA0222E9
:102870004FF6FC4581604FF6FF71AA432AEA010139
:102880003943114341EA062141EA081141EA033183
:1028900081612CF0AA0141EA0E0141EA09110162AD
:1028A000012084F8460084F83E0084F83F0084F854
:1028B000420084F8430084F83D00002001B0BDE8E8
:1028C000F08F00002DE9F04186B000210591CDE99F
:1028D0000311CDE9011140F2FF710068C4F200015B
:1028E00088423FDD40F60001C4F2000188426CD00E
:1028F00040F20041C4F20101884200F092800021C0
:10290000C4F20101884240F0B58043F63001002056
:102910000090C4F202014A6942F001024A614A6928
:1029200002F001020092009A00900A6842F0100240
:102930000A60096801F010010091009901210591D8
:10294000CDE90300022002904FF4206001900020A6
:10295000C4F2020000F5805001A9FFF7D7F906B0D4
:10296000BDE8F081B0F1804F00F0878040F2004177
:10297000C4F2000188427DD143F63001002000906E
:10298000C4F202010A6942F002020A610A6902F015
:1029900002020092009A00900A6842F001020A6066
:1029A000096801F00101009100990221CDE90401BB
:1029B000CDE90210C02001900020C4F2020001A95C
:1029C000FFF7A4F906B0BDE8F08143F6300100201E
:1029D0000090C4F202010A6942F004020A610A6925
:1029E00002F004020092009A00900A6842F0080285
:1029F0000A60096801F00801009100990221CDE9FF
:102A00000401CDE902104FF4405001900020C4F2BF
:102A1000020000F5406001A9FFF778F906B0BDE8B3
:102A2000F08143F6300100200090C4F202014A69AF
:102A300042F002024A614A6902F002020092009AE0
:102A400000900A6842F004020A60096801F004017B
:102A50000091009903210591CDE90300022001A90D
:102A60000290C02001900020C4F2020000F5006036
:102A7000FFF74CF906B0BDE8F08143F630000026C0
:102A800000244FF00108022701AD0096C4F20200B5
:102A9000C4F20204016941F001010161016901F020
:102AA0000101009100990096016841F00101016067
:102AB000016801F00101009100990096016841F060
:102AC000020101602946006800F0020000900098B1
:102AD000CDF81480CDE903660297202001902046AE
:102AE000FFF714F90820CDE90468CDE902762946FC
:102AF000019004F58060FFF709F906B0BDE8F081A8
:102B000010B590F83E4090F83F3090F842E090F8D1
:102B100043C0012204290BD0B1B9012C08BFBEF17A
:102B2000010F42D1022180F83E1080F842102DE0C2
:102B3000012B08BFBCF1010F37D1022180F83F10F3
:102B400080F8431000681DE0012C08BF012B2CD138
:102B5000BEF1010F29D1BCF1010F26D102220029BB
:102B600080F83E2080F83F2080F8422080F8432003
:102B70000CD00068016A21F001010162016A41F094
:102B80000101016210216FF0100203E000680121D1
:102B90006FF00102036A1A400262026A11430022C6
:102BA0000162016841F001010160104610BD0000A2
:102BB0007047000010B5044600680169890744BFEA
:102BC000C1685FEA81713BD40169490744BFC168AC
:102BD0005FEA417150D40169090744BFC1685FEAE7
:102BE000017166D40169C90644BFC1685FEAC16169
:102BF0007CD40169C9071CBFC1685FEAC17140F09C
:102C000093800169090644BFC1685FEA016100F170
:102C10009A800169490644BFC1685FEA416100F1D9
:102C2000A1800169890646BFC1685FEA816110BD64
:102C30006FF0200101612046BDE81040FFF7D2BCD3
:102C40006FF002010161012121778069800703D0C3
:102C50002046FFF7ADFF05E0204600F08BF8204648
:102C600000F0E4F90020207720680169490744BF9B
:102C7000C1685FEA4171AED56FF0040101610221C4
:102C80002177806910F4407F03D02046FFF790FF42
:102C900005E0204600F06EF8204600F0C7F900205D
:102CA000207720680169090744BFC1685FEA0171A4
:102CB00098D56FF00801016104212177C069800770
:102CC00003D02046FFF774FF05E0204600F052F8DD
:102CD000204600F0ABF90020207720680169C90682
:102CE00044BFC1685FEAC1617FF583AF6FF0100137
:102CF000016108212177C06910F4407F03D020468C
:102D0000FFF756FF05E0204600F034F8204600F0BB
:102D10008DF90020207720680169C9071CBFC168B0
:102D20005FEAC1713FF46DAF6FF0010101612046B0
:102D300000F01EFA20680169090644BFC1685FEA15
:102D400001617FF566AF6FF0800101612046FFF7FA
:102D500047FC20680169490644BFC1685FEA4161D8
:102D60007FF55FAF6FF040010161204600F0B6FCD7
:102D7000206856E77047000090F83C30012B02BFF6
:102D80000223184670474FEAB2020123032A80F853
:102D90003C3000F2FE802DE9F041DFE802F0024015
:102DA0007FBF03681A6A22F001021A621A46D3F83A
:102DB00020E0D3F804C052F8187F8C680E682EF01B
:102DC000020544EA050E27F0730443F4806544EAE3
:102DD000060840F20046C4F20106B5420DD1CD68A6
:102DE000D1E905672CF44074264346EA070C2EF01F
:102DF0000C0725F0040646EA070EC3F804C0C3F822
:102E000018804F685F63C3F820E09F6947F00807A8
:102E10009F619F6927F004079F610969B3E0036818
:102E20001A6A22F010021A621A461F6AD3F804C006
:102E300052F8184F8E680D6827F0200724F4E644F6
:102E400047EA061E40F2004644EA052843F480653E
:102E5000C4F20106B54210D1CD68D1E905672CF462
:102E6000406444EA86066FF0400446EA870C04EAB0
:102E700005142EF0C00744EA070EC3F804C0C3F8D7
:102E800018804F689F63C3F820E09F6947F400678C
:102E90009F619F6927F480679F6172E003681A6AE7
:102EA00022F480721A621A461F6AD3F804C052F8DC
:102EB0001C4F8E680D6827F4007724F0730447EAEE
:102EC000062E40F2004644EA050843F48065C4F249
:102ED0000106B54210D1CD68D1E905672CF4405404
:102EE00044EA06162C0240F2FF4546EA071CAC43B2
:102EF0002EF4406744EA070EC3F804C0C3F81C80F0
:102F00004F68DF63C3F820E0DF6947F00807DF613F
:102F1000DF6927F00407DF61096934E003681A6A92
:102F200022F480521A621A46D3F820C0D3F80480E3
:102F300052F81C6F8F680D682CF4005444EA073C6B
:102F400026F4E64743F4806447EA052E40F2004544
:102F5000C4F20105AC4202BF4C6928F4804545EA41
:102F60008418C3F80480C3F81CE04F681F64C3F8DA
:102F700020C0DF6947F40067DF61DF6927F48067FD
:102F8000DF61096909021368194300231160BDE874
:102F9000F041002180F83C1018467047002804BF1B
:102FA0000120704710B5044690F83D0028B9002074
:102FB00084F83C00204600F01FF80220211D84F810
:102FC0003D00206802F006FC012084F8460084F8E9
:102FD0003E0084F83F0084F8400084F8410084F803
:102FE000420084F8430084F8440084F8450084F8E3
:102FF0003D00002010BD000040F600410068C4F212
:103000000001884218BF704781B00020009043F64D
:103010004000C4F20200016841F00801016000684C
:1030200000F008000090009801B070477047000061
:1030300041B1082909D0042914BF00F1410200F16F
:103040003F0204E000F13E0201E000F1400212788C
:10305000012A1CBF01207047022241B1082909D072
:10306000042914BF80F8412080F83F2004E080F854
:103070003E2001E080F84020006801F01F0101229D
:1030800002FA01F1026A8A430262026A1143016292
:1030900041F2FF71C4F2000188420FDC40F2FF717F
:1030A000C4F2000188421BDCB0F1804F51D040F2E5
:1030B0000041C4F2000188424BD051E040F2FF329F
:1030C000C4F20102904218DC41F60003C4F200038E
:1030D00098423ED00023C4F20103984219D03FE049
:1030E00040F60001C4F20001884232D040F60041AF
:1030F000C4F2000188422CD032E044F20003C4F252
:103100000103984225D040F20043C4F201039842E3
:1031100026D1436C884243F400434364BEDD9042B1
:103120000BDC41F60001C4F20001884211D00021FD
:10313000C4F2010188420CD012E044F20001C4F252
:103140000101884205D040F20041C4F201018842E9
:1031500006D1816801F00701062904BF00207047ED
:10316000016841F00101016000207047000000008B
:1031700041F200410068C4F20001884218BF704764
:103180002DE9F04F81B02DED0C8B86B002F0DAFE08
:10319000044640F2641521B2C2F2000500EE101A96
:1031A00005F11800B8EEC00A03F04CF82014B0EE98
:1031B000408A00EE100A05F13800B8EEC00A03F0AC
:1031C00041F840F23C0040F23901C2F20000C2F284
:1031D000000100780978084324D09FED391A9FED4B
:1031E000399AB4EEC18AB0EE49AAF1EE10FA0ADBC0
:1031F0009FED342AB4EEC28AF1EE10FACCBFB0EEE5
:1032000041AAB1EE48AAB4EEC90AF1EE10FA24DCE4
:103210009FED2B9AB4EEC90AF1EE10FAA8BFB0EEFA
:10322000409A1AE0288848F21F529FED27AABAEE6A
:10323000049AB2EE040AC5F2EB12013081B2A1FB8E
:103240000223642988BF00205A09642302FB13115A
:10325000322938BFB0EE409A288040F2F8609FEDE6
:103260001B1A9FED1B2A9FED1B3AC2F2000090ED46
:10327000020A0020B4EEC20A30EE011AF1EE10FA92
:10328000C8BFB0EE410A9FED141A686705F15800F7
:1032900030EE032AB4EEC10AF1EE10FAB8BFB0EE78
:1032A000420A02F0CFFFB0EE408A9FED0C0AB4EE66
:1032B000C08AF1EE10FA17DD9FED090B23E000BF85
:1032C000000070C200007042000000000000B4C3A3
:1032D000000034430000B443000034C30000204227
:1032E000000000000000444018EE100AFDF7DFF96E
:1032F0009FEDF70AB4EEC08AF1EE10FAB4BF9FED6D
:10330000EC0B41EC100B9FEDEC1B56EC107B3A469E
:10331000334651EC110BCDE90401FDF79CF8CDE9E2
:1033200000101AEE100AFDF7C2F93A463346044679
:103330000D46FDF790F8804619EE100A8946FDF714
:10334000B6F982468B464046494652465B46FCF7F4
:10335000E1FFCDE9021022462B46DDE90010FDF722
:103360007AF852465B46FCF7D5FFCDE900103846A7
:10337000314622462B46FCF7CDFF52465B46FCF712
:10338000C9FF804689463846314622462B46FDF71E
:1033900062F852465B46FCF7BDFFFDF79BF944F629
:1033A0002C064946C2F20106F0674046FDF792F945
:1033B000F065DDE90210FDF78DF9F061DDE900103F
:1033C000FDF788F9F06343F25C2040F21C0240F202
:1033D0006414B7EE002AC2F20100C2F20002C2F287
:1033E00000040068416A92ED000A94ED021AB1F5FA
:1033F000004FA8BFA1F5803103EE101AB8EEC11A34
:1034000032EE402AB8EEC33A43F2F40122EE011A3A
:1034100020EE033AC2F2010133EE011ABDEEC13AC9
:10342000096884ED023A4A6A94ED033AB2F5004F16
:10343000A8BFA2F5803204EE102AB8EEC33AB8EE67
:10344000C44A43F23C1222EE033A20EE044AC2F28E
:10345000010233EE043ABDEEC34A126884ED034A1A
:10346000536A94ED044AB3F5004FA8BFA3F5803327
:1034700005EE103AB8EEC44AB8EEC55A43F28413CA
:1034800022EE044A20EE055AC2F2010334EE054A48
:10349000BDEEC45A1B6884ED045A5F6A94ED055A68
:1034A000B7F5004FA8BFA7F5803706EE107AB8EE43
:1034B000C55AB8EEC66A22EE052A20EE060A32EE9A
:1034C000000ABDEEC02ABDEEC15ABDEEC33ABDEE44
:1034D000C41ABDEEC00A15EE107A84ED052A13EE6B
:1034E000105AB7F5004FA4BFA7F58037A760B5F510
:1034F000004FA4BFA5F58035E56011EE107A10EEFF
:10350000105AB7F5004FDDE90489A4BFA7F580374D
:10351000276100EE107AB5F5004FA4BFA5F5803500
:103520006561002545624D625562B8EEC00A3046BD
:103530005D62B1EE400A02F085FEB0EE40BA94ED55
:10354000030A06F12000B8EEC00AB1EE400A02F00C
:1035500079FE10EE100AB0EE40AAFDF7A8F894ED3F
:10356000020A834606F140000F46B8EEC00A02F098
:1035700069FE10EE100AB0EE409AFDF798F894ED4F
:10358000050A054606F160008A46B8EEC00A02F058
:1035900059FE10EE100AB0EE408AFDF788F89FED54
:1035A00048CB9FED4CDA04460E46B4EECDBAB0EEF1
:1035B0004C0AF1EE10FAF0EE6C0A0EDC1BEE100A6B
:1035C000FDF775F89FED440AB4EEC0BAF1EE10FABB
:1035D000B4BF9FED3D0B41EC100B53EC102B40465C
:1035E0004946FCF738FF41EC100B012002F040FF88
:1035F000B4EECDAAB0EE4C0AF1EE10FAF0EE6C0A81
:103600000ADC9FED350AB4EEC0AAF1EE10FAB4BFA1
:103610009FED2D0B47EC10BB53EC102B4046494659
:10362000FCF719FF41EC100B022002F021FFB4EE71
:10363000CD9AB0EE4C0AF1EE10FAF0EE6C0A0ADC0C
:103640009FED250AB4EEC09AF1EE10FAB4BF9FEDDB
:103650001E0B4AEC105B53EC102B40464946FCF71E
:10366000FAFE41EC100B032002F002FFB4EECD8A0B
:10367000F1EE10FA0ADC9FED180AB4EEC08AF1EE02
:1036800010FAB4BF9FED10CB46EC1C4B53EC1C2B37
:1036900040464946FCF7DFFE41EC100B042006B023
:1036A000BDEC0C8B01B0BDE8F04F02F0E1BE00BFF5
:1036B00000000000000044C0000000000000008086
:1036C000000000000080514000000000008051C058
:1036D000000020C200008C4200008CC27047000035
:1036E000B0B582B0044690F83E0020280DD11346B4
:1036F00000290A464FF0010018BF002B01D102B08B
:10370000B0BD94F83C00012802D1022002B0B0BD47
:103710000120002545F6211145F6014C2063256462
:1037200084F83C002220A385A262C0F60001C0F606
:10373000000C84F83E00A06BC0E9131545F6A521E6
:10374000C0F60001C0E90F1C21680431FEF77AFAC7
:10375000019520680168019141680191019984F8FF
:103760003C50216909B925E0206850E8030F216821
:1037700040F4807041E80302E2B1206850E8030F92
:10378000216840F4807041E803029AB1206850E853
:10379000030F216840F4807041E8030252B12068B1
:1037A00050E8030F216840F4807041E80302002ACA
:1037B000DAD100BF206850E8050F216840F0010011
:1037C00041E80502E2B1206850E8050F216840F0A9
:1037D000010041E805029AB1206850E8050F216810
:1037E00040F0010041E8050252B1206850E8050FA1
:1037F000216840F0010041E80502002ADAD100BF4B
:10380000206850E8050F216840F0400041E80502BB
:10381000DAB1206850E8050F216840F0400041E827
:10382000050292B1206850E8050F216840F0400081
:1038300041E805024AB1206850E8050F216840F0D0
:10384000400041E80502002ADAD1206B01281EBFA2
:10385000012002B0B0BD0020009021680A680092EB
:103860004A680092009A51E8031F226841F0100153
:1038700042E80313002B3FF442AF00BF206850E83A
:10388000030F216840F0100041E8030202B32068F2
:1038900050E8030F216840F0100041E80302A2B194
:1038A000206850E8030F216840F0100041E803024F
:1038B0005AB1206850E8030F216840F0100041E839
:1038C00003020020002AD9D119E7002002B0B0BDC0
:1038D000002002B0B0BD00002DE9F04F81B02DED09
:1038E000108B8AB0099144F200410068C4F20001D3
:1038F000884200F0658244F60001C4F2000188426B
:1039000040F058820998002800F0548243F2914513
:103910009FEDA58B9FEDA69B9FEDA7BA9FED98CB42
:103920009FED99DADFED99AA9FED99FB9FED9AEB58
:10393000DFED9BBA4FF0000BB3EE00AAC2F2010517
:1039400015F80B00D9460BF1010B5528F8D105EB02
:10395000090415F80B20A078E17894F8048094F815
:1039600005A094F806C094F807E083180B4443447C
:10397000534463440EEB0306237A9F19667AA47AB4
:1039800037445537FFB2A74240F00882513A052A22
:1039900000F2FE81DFE812F006008E001201FC0149
:1039A000FC01C50140EA012000EE100AB8EEC00A91
:1039B000CDE907EC10EE100AFCF779FE53EC187B0A
:1039C0003A460593FCF74DFD064640F224000D46AD
:1039D000C2F20000D0ED00DA1DEE900AFCF767FE9F
:1039E00004460B462946304622461D46FCF739FD63
:1039F00053EC19BB5A460493FCF733FDFCF76AFEFF
:103A0000069048EA0A2000EE100AB8EEC00A10EE4E
:103A1000100AFCF74CFE059E3A463346FCF721FDA2
:103A200022462B46FCF71DFDDDF810A05A465346F2
:103A3000FCF717FDFCF74EFE8046DDE9071040EA73
:103A4000012000EE100AB8EEC00A10EE100AFCF7D2
:103A50002EFE3A463346FCF704FD22462B46FCF781
:103A600000FD5A465346FCF7FCFCFCF733FE069A71
:103A70002DEE8A0A40F2EC6101EE108AC2F20001DA
:103A800002EE102AC1E900288860B4EEC20AF1EE05
:103A900010FA40F35281B4EEC10A02EE100AF1EEC0
:103AA00010FA40F35C81B4EEC20AF1EE10FA40F372
:103AB00065816DE140EA012000EE100AB8EEC00A0F
:103AC000CDE907EC10EE100AFCF7F1FD5BEC1C4BA6
:103AD00022465B46FCF7C5FC56EC195B2A4633468A
:103AE000FCF7BFFCCDE9051048EA0A2000EE100AF9
:103AF000B8EEC00A10EE100AFCF7D9FD22465B466C
:103B0000FCF7AFFC2A463346FCF7ABFC80460F4679
:103B1000DDE9071040EA012000EE100AB8EEC00A05
:103B200010EE100AFCF7C3FD22465B46FCF799FC39
:103B30002A463346FCF795FCFCF7CCFD44F6E4211D
:103B40000DEE900AC2F2010188600C4640463946EB
:103B5000FCF7C0FD6060DDE90510FCF7BBFDF4EE8D
:103B6000CDDA2060F1EE10FA40F3128144F6E42041
:103B70003DEEAA0AC2F2010008E100BF00BF00BF8B
:103B80000000000000409F400000FA4400007AC599
:103B9000000000000080664000000000008076C049
:103BA0000000344300BF00BF0000000000003040B0
:103BB000000000000000003F000000C240EA0120B9
:103BC000774600EE100AB8EEC00ACDF820C010EE1D
:103BD000100AFCF76CFD5BEC1F6B32465B46FCF792
:103BE00040FC55EC194B22462B46FCF73AFCCDE93C
:103BF000041048EA0A2000EE100AB8EEC00A10EEDF
:103C0000100AFCF754FD32465B46FCF72AFC2246BC
:103C10002B46FCF726FCCDE90601089840EA072070
:103C200000EE100AB8EEC00A10EE100AFCF73FFDD5
:103C300032465B46FCF715FC22462B46FCF711FC8E
:103C400004460E46DDE90410FCF744FD0890FCF73D
:103C50002EFD8A460746039020463146FCF73AFD82
:103C60000446FCF724FD58EC1EBB05460E465A469A
:103C70004346FCF74FFB00EE104A5A464346B4EE6B
:103C8000EB0AF1EE10FAD8BF31460591D8BF2846AD
:103C90000490564638465146FCF73CFBCDE90110EE
:103CA000DDE90601FCF716FD0546FCF700FD0246BE
:103CB0000790089843468A460DEE900A10465A46E9
:103CC000FCF728FB00EE105AF4EEEBDA019D0746F4
:103CD0000C46F1EE10FAD8BF3546DDE90260B4EECD
:103CE000EB0AD8BF0646F1EE10FAD8BF5446079843
:103CF000D8BF0746DDE90401FCF7ECFC40F2F861AF
:103D0000C2F200018860884638462146FCF7E2FC92
:103D1000C8F8040030462946FCF7DCFCC8F800006F
:103D200036E0180443F2A80140EA0660C2F201013D
:103D300040EA0E20604408602AE040F2EC612DEE7B
:103D40008B3A32EE032AC2F2000181ED002AB4EE72
:103D5000C10A02EE100AF1EE10FA3FF7A4AE40F2EB
:103D6000EC602DEE8B3A31EE031AC2F2000080EDCA
:103D7000011AB4EEC20AF1EE10FA09DC2DEE8B0A3C
:103D800040F2EC6032EE000AC2F2000080ED020A5E
:103D900043F2914509F10B0BC2F2010543F22C30BD
:103DA0002946C822C2F20100FFF79AFC0998834510
:103DB000FFF6C6AD0AB0BDEC108B01B0BDE8F08FC8
:103DC00040F284000121C2F2000001700AB0BDEC93
:103DD000108B01B0BDE8F08F44F200410068C4F2DE
:103DE0000001884218BF704740F284010022C2F2ED
:103DF0000001486880F83C200A7044F61041C8224F
:103E0000C2F20101FFF76CBC10B582B0D0F800E03F
:103E10000446DEF80010DEF80C20DEF814305FEA0D
:103E2000017C00F0C38002F4907003F00103C0181D
:103E300000F0FF80C8071FBF12F48070206C40F0B4
:103E400001002064480705D5002B1EBF206C40F000
:103E500002002064880705D5002B1EBF206C40F0AF
:103E600004002064BCF1000F07D502F02000C01848
:103E70001EBF206C40F008002064206C002800F079
:103E8000748202EA0100800604D5204601F0C2FED9
:103E9000D4F800E0DEF81400216C00F0400001F0DE
:103EA0000801401800F0A5815EE8030F03E000BFA1
:103EB000206850E8030F216820F4907041E8030265
:103EC000E2B1206850E8030F216820F4907041E8C7
:103ED00003029AB1206850E8030F216820F4907023
:103EE00041E8030252B1206850E8030F216820F432
:103EF000907041E80302002ADAD100BF206850E840
:103F0000050F216820F0010041E80502DAB12068C0
:103F100050E8050F216820F0010041E8050292B148
:103F2000206850E8050F216820F0010041E80502F3
:103F30004AB1206850E8050F216820F0010041E8EF
:103F40000502002ADAD1206B012824D1206850E82C
:103F5000030F216820F0100041E80302DAB1206865
:103F600050E8030F216820F0100041E8030292B1ED
:103F7000206850E8030F216820F0100041E8030298
:103F80004AB1206850E8030F216820F0100041E892
:103F90000302002ADAD1202084F83E0000202063AA
:103FA00020684169490640F11E810AE011408A06F5
:103FB00040D5204602B0BDE8104001F02BBE00BF46
:103FC000206850E8050F216820F0400041E8050214
:103FD000DAB1206850E8050F216820F0400041E880
:103FE000050292B1206850E8050F216820F04000DA
:103FF00041E805024AB1206850E8050F216820F029
:10400000400041E80502002ADAD1A06B002800F048
:10401000EA8045F61511C0F600010165FDF76AFC5E
:10402000002800F0A281A06B016D02B0BDE8104035
:1040300008471140226BC8061CD5012A1AD100205E
:104040000190DEF800000190DEF804000190019874
:10405000DEF81400400600F19D80E18DA28DE08D18
:1040600000281CBF511A5FEA014000F07E815EE823
:10407000030F17E0080600F1A280480640F17581A1
:10408000DEF80C0020F04000CEF80C00202084F870
:104090003D00204602B0BDE8104000F003BC20689F
:1040A00050E8030F226820F4907042E80303DBB16C
:1040B000206850E8030F226820F4907042E8030360
:1040C00093B1206850E8030F226820F4907042E812
:1040D00003034BB1206850E8030F226820F490706E
:1040E00042E80303002BDAD1206850E8050F22686C
:1040F00020F0010042E80503DBB1206850E8050F1D
:10410000226820F0010042E8050393B1206850E8DE
:10411000050F226820F0010042E805034BB120683A
:1041200050E8050F226820F0010042E80503002B4B
:10413000DAD1202084F83E0000202063206850E877
:10414000030F226820F0100042E80303DBB120686F
:1041500050E8030F226820F0100042E8030393B1F7
:10416000206850E8030F226820F0100042E80303A3
:104170004BB1206850E8030F226820F0100042E89D
:104180000303002BDAD189B2204602B0BDE810400B
:10419000FFF7A2BBA26B1068436899B2002900F038
:1041A000E480B4F82CC0614580F0DF80E385D069FD
:1041B000B0F5807F00F0C2805EE8030F23E094F842
:1041C0003D00212840F0D180A068B0F5805F03D188
:1041D0002069002800F0BC80206A411C2162007820
:1041E000CEF80400BCE0204602B0BDE81040FFF766
:1041F000F3BD2046FFF7F0FD0020206402B010BDA3
:10420000206850E8030F216820F4807041E8030221
:10421000DAB1206850E8030F216820F4807041E88B
:10422000030292B1206850E8030F216820F48070E7
:1042300041E803024AB1206850E8030F216820F4E6
:10424000807041E80302002ADAD1206850E8050FA7
:10425000216820F0010041E80502DAB1206850E849
:10426000050F216820F0010041E8050292B12068A5
:1042700050E8050F216820F0010041E805024AB12D
:10428000206850E8050F216820F0010041E8050290
:10429000002ADAD1206850E8050F216820F040009C
:1042A00041E80502DAB1206850E8050F216820F0E6
:1042B000400041E8050292B1206850E8050F2168EE
:1042C00020F0400041E805024AB1206850E8050F9F
:1042D000216820F0400041E80502002ADAD12020C0
:1042E00084F83E0000202063206850E8030F216816
:1042F00020F0100041E80302DAB1206850E8030F13
:10430000216820F0100041E8030292B1206850E8D3
:10431000030F216820F0100041E803024AB1206831
:1043200050E8030F216820F0100041E80302002A42
:10433000DAD1A06BFDF794FAB4F82CC0E08DACEBA9
:10434000000081B2204602B0BDE81040FFF7C4BAB9
:10435000206A30F8021B6FF35F21CEF80410206250
:10436000E08C0138E084000401D002B010BDDEF81A
:104370000C0020F08000CEF80C00DEF80C0040F0BD
:104380004000CEF80C0002B010BD0000002804BFB1
:104390000120704710B5044690F83D0028B9002070
:1043A00084F83C00204600F021F8242084F83D00E9
:1043B0002068C16821F40051C160204601F0A6FCCC
:1043C0002068016921F490410161416921F02A01CD
:1043D0004161C16841F40051C16000202021206486
:1043E00084F83D1084F83E1010BD000070B586B012
:1043F000002644F2004104460596CDE90366CDE966
:104400000166C4F200010068884238D044F6000119
:10441000C4F20001884200F0858041F20001C4F23C
:104420000101884240F0D08043F630010020009026
:10443000C4F202014A6942F010024A614A6902F07C
:1044400010020092009A00900A6842F001020A608D
:10445000096801F0010100910099072105910321EC
:10446000CDE90301022001A902904FF4C060019040
:104470000020C4F20200FDF749FC06B070BD43F60F
:1044800030000096C4F20200016941F4003101617C
:10449000016901F40031009100990096016841F032
:1044A0000801016001A9006800F008000090009870
:1044B000072005900320CDE90360022002906020D0
:1044C00001900020C4F2020000F54060FDF71EFCE0
:1044D00046F2280242F6A8154FF480604FF00061C2
:1044E000C4F20202C2F201056032C5E90866C5E9FC
:1044F0000021C5E90266C5E904062846C5E9066645
:10450000FDF7ECFA002818BFFDF742F8262000213D
:104510000022A563AC63FDF761FD2620FDF74EFD8B
:1045200006B070BD43F6300000260096C4F20200CB
:10453000016941F480210161016901F48021009148
:1045400000990096016841F00201016001A900682C
:1045500000F0020000900098072005900320CDE9AC
:104560000360022002904FF4406001900020C4F2EA
:10457000020000F58060FDF7C9FB42F6082546F20F
:1045800028024FF480604FF00061C2F20105C4F2CE
:104590000202C5E90866C5E90021C5E90266C5E968
:1045A00004062846C5E90666FDF798FA002818BFF4
:1045B000FCF7EEFF272000210022A563AC63FDF786
:1045C0000DFD2720FDF7FAFC06B070BD7047000016
:1045D000704700002DE9F047044690F83D00202880
:1045E0000DD10F460120002900F05A811646002AFD
:1045F00008BFBDE8F08794F83C00012802D10220F2
:10460000BDE8F0874FF0000A01201D46C4F840A025
:1046100084F83C00212084F83D00FDF761FCE6842D
:10462000A6848046A068B0F5805F07D126694FF068
:104630000009002E0CBFB9463E4602E03E464FF050
:10464000000984F83CA0E28C20680168BAB36A1CB7
:1046500017D0002D4ED100BF090667D516B116F848
:10466000011B04E039F8021B00266FF35F21416053
:10467000E18C0139E184E28C0168002AECD11EE072
:10468000016809065FBF01685FEA016101685FEACE
:10469000016103D401680906F2D500BF16B116F80E
:1046A000011B04E039F8021B00266FF35F21416013
:1046B000E18C0139E184E28C0168002AE1D14906EC
:1046C00000F19480002D00F09780691C40F08480F8
:1046D000016849065CBF01685FEA416100F18680BC
:1046E0000168490600F1828001684906F0D57DE045
:1046F00020680168090606D4FDF7F2FBA0EB08006C
:10470000A842F5D912E016B116F8011B04E039F8F9
:10471000021B00266FF35F214160E18C0139E184C7
:10472000E28C0168002AE5D1C9E700BF206850E8A3
:10473000030F216820F4D07041E80302E2B1206841
:1047400050E8030F216820F4D07041E803029AB1C9
:10475000206850E8030F216820F4D07041E803027C
:1047600052B1206850E8030F216820F4D07041E86E
:104770000302002ADAD100BF206850E8050F216843
:1047800020F0010041E80502DAB1206850E8050F89
:10479000216820F0010041E8050292B1206850E84C
:1047A000050F216820F0010041E805024AB12068A8
:1047B00050E8050F216820F0010041E80502002AB9
:1047C000DAD12020002184F83D0084F83C1084F8E0
:1047D0003E000320BDE8F087FDF782FBA0EB080058
:1047E000A84209D8206800684006F5D5202084F842
:1047F0003D000020BDE8F087206850E8030F2168E5
:1048000020F4D07041E80302E2B1206850E8030FC1
:10481000216820F4D07041E803029AB1206850E882
:10482000030F216820F4D07041E8030252B12068E0
:1048300050E8030F216820F4D07041E80302002AF9
:10484000DAD100BF206850E8050F216820F0010090
:1048500041E80502DAB1206850E8050F216820F030
:10486000010041E8050292B1206850E8050F216877
:1048700020F0010041E805024AB1206850E8050F28
:10488000216820F0010041E80502002ADAD1202049
:10489000002184F83D0084F83C1084F83E00032099
:1048A000BDE8F08770470000FEE7000070B582B0F9
:1048B0006C460021204601F0FBFA40F20875DDE964
:1048C0000001C2F20005C5E900012046012101F006
:1048D000EFFADDE90001C5E902012046022101F0FD
:1048E000E7FADDE90001C5E904012046032101F0F2
:1048F000DFFADDE90001C5E906012046042101F0E7
:10490000D7FA40F2F0060122DDE9000140F2D60CB0
:104910006B23C2F20006C0F22602C0F2D80CC0F22D
:1049200093033446C5E9080144F8042FFE22A4F895
:1049300046202622C4F842C0C4F83E30C0F2280205
:10494000C4F82620FE22C0F20102C4F82220282248
:10495000C4F81EC0C4F81A30A2802A88E280AA884F
:1049600022812A896281AA89A281AA8B2183E0827D
:10497000090C000CA2822A8AE281AA8A22822A8B4E
:1049800062826A886285EA88A2856A89E285EA8904
:1049900022866A8A6286EA8AA2866A8BE286EA8B25
:1049A00045F67165A187608720461221C0F6000593
:1049B000228702222B46FBF734FC04F1240012214B
:1049C00002222B46FBF72DFC218839B1B6F90000F5
:1049D00006EB40020130A2F84C103080308D48B117
:1049E00044F6EA33B6F90220C2F2010323F81200BA
:1049F00001327280F288002A18BF8A4240F0CE80CD
:104A00003389002B18BF934240F0D680718900296A
:104A100018BF994240F0DE80B289002A18BF8A424E
:104A200040F0E680F189002918BF914240F0EE8005
:104A3000328A002A18BF8A4240F0F680718A002923
:104A400018BF914240F0FE80B28A002A18BF8A4205
:104A500040F00681F18A002918BF914240F00E8192
:104A6000328B002A18BF8A4240F01681718B0029D0
:104A700018BF914240F01E81B28B002A18BF8A42B3
:104A800040F02681F18B002918BF914240F02E8121
:104A9000328C002A18BF8A4240F03681718C00297E
:104AA00018BF914240F03E81B28C002A18BF8A4262
:104AB00040F04681F18C002918BF914240F04E81B0
:104AC000718D002918BF814240F05681B08D0028B9
:104AD00018BF884240F06081F18D002918BF8142E3
:104AE00040F06A81308E002818BF884240F07481FF
:104AF000718E002918BF814240F07E81B08E00285F
:104B000018BF884240F08881F18E002918BF814289
:104B100040F09281308F002818BF884240F09C817D
:104B2000718F002918BF814240F0A681B08F002804
:104B300018BF884240F0B081F18F002918BF814230
:104B400040F0BA81B6F84000002818BF884240F013
:104B5000C481B6F84210002918BF814240F0CE81CE
:104B6000B6F84400002818BF884240F0D881B6F853
:104B70004610002918BF814240F0E281B6F8480093
:104B8000002818BF884240F0EC81B6F84A1000298E
:104B900018BF814240F0F68102B070BDB6F9001036
:104BA00006EB41030131A3F84C2031803389002BFF
:104BB00018BF93423FF42AAFB6F9001006EB41024A
:104BC0000131A2F84C3031807189002918BF994217
:104BD0003FF422AFB6F9002006EB42030132A3F8FE
:104BE0004C103280B289002A18BF8A423FF41AAFB3
:104BF000B6F9001006EB41030131A3F84C203180D7
:104C0000F189002918BF91423FF412AFB6F9002094
:104C100006EB42030132A3F84C103280328A002A9C
:104C200018BF8A423FF40AAFB6F9001006EB410301
:104C30000131A3F84C203180718A002918BF9142BC
:104C40003FF402AFB6F9002006EB42030132A3F8AD
:104C50004C103280B28A002A18BF8A423FF4FAAE62
:104C6000B6F9001006EB41030131A3F84C20318066
:104C7000F18A002918BF91423FF4F2AEB6F9002044
:104C800006EB42030132A3F84C103280328B002A2B
:104C900018BF8A423FF4EAAEB6F9001006EB4103B2
:104CA0000131A3F84C203180718B002918BF91424B
:104CB0003FF4E2AEB6F9002006EB42030132A3F85E
:104CC0004C103280B28B002A18BF8A423FF4DAAE11
:104CD000B6F9001006EB41030131A3F84C203180F6
:104CE000F18B002918BF91423FF4D2AEB6F90020F3
:104CF00006EB42030132A3F84C103280328C002ABA
:104D000018BF8A423FF4CAAEB6F9001006EB410361
:104D10000131A3F84C203180718C002918BF9142D9
:104D20003FF4C2AEB6F9002006EB42030132A3F80D
:104D30004C103280B28C002A18BF8A423FF4BAAEBF
:104D4000B6F9001006EB41030131A3F84C20318085
:104D5000F18C002918BF91423FF4B2AEB6F90020A1
:104D600006EB4203A3F84C10511C3180718D0029D1
:104D700018BF81423FF4AAAE44F6EA32B6F9020007
:104D8000C2F2010222F8101001307080B08D0028AC
:104D900018BF88423FF4A0AE44F6EA32B6F90210DA
:104DA000C2F2010222F8110001317180F18D002957
:104DB00018BF81423FF496AE44F6EA32B6F90200DB
:104DC000C2F2010222F8101001307080308E0028EB
:104DD00018BF88423FF48CAE44F6EA32B6F90210AE
:104DE000C2F2010222F8110001317180718E002996
:104DF00018BF81423FF482AE44F6EA32B6F90200AF
:104E0000C2F2010222F8101001307080B08E00282A
:104E100018BF88423FF478AE44F6EA32B6F9021081
:104E2000C2F2010222F8110001317180F18E0029D5
:104E300018BF81423FF46EAE44F6EA32B6F9020082
:104E4000C2F2010222F8101001307080308F002869
:104E500018BF88423FF464AE44F6EA32B6F9021055
:104E6000C2F2010222F8110001317180718F002914
:104E700018BF81423FF45AAE44F6EA32B6F9020056
:104E8000C2F2010222F8101001307080B08F0028A9
:104E900018BF88423FF450AE44F6EA32B6F9021029
:104EA000C2F2010222F8110001317180F18F002954
:104EB00018BF81423FF446AE44F6EA32B6F902002A
:104EC000C2F2010222F8101001307080B6F84000E2
:104ED000002818BF88423FF43CAE44F6EA32B6F9E7
:104EE0000210C2F2010222F8110001317180B6F8FD
:104EF0004210002918BF81423FF432AE44F6EA3234
:104F0000B6F90200C2F2010222F8101001307080DE
:104F1000B6F84400002818BF88423FF428AE44F693
:104F2000EA32B6F90210C2F2010222F81100013190
:104F30007180B6F84610002918BF81423FF41EAEBA
:104F400044F6EA32B6F90200C2F2010222F8101069
:104F500001307080B6F84800002818BF88423FF43E
:104F600014AE44F6EA32B6F90210C2F2010222F897
:104F7000110001317180B6F84A10002918BF814232
:104F80003FF40AAE44F6EA32B6F90200C2F2010278
:104F900022F810100130708002B070BD40F208722B
:104FA000C2F20002B2F9003083420CDAB2F90430E6
:104FB000834208DDB2F902308B4204DAB2F90630DE
:104FC0008B4200F3B380B2F9083083420CDAB2F9B5
:104FD0000C30834208DDB2F90A308B4204DAB2F9B0
:104FE0000E308B4200F3A280B2F9103083420CDA0B
:104FF000B2F91430834208DDB2F912308B4204DA80
:10500000B2F916308B4200F39180B2F91830834226
:105010000CDAB2F91C30834208DDB2F91A308B4247
:1050200004DAB2F91E308B4200F38080B2F92030EE
:1050300083420BDAB2F92430834207DDB2F9223021
:105040008B4203DAB2F926308B426FDCB2F928309A
:1050500083420BDAB2F92C30834207DDB2F92A30F1
:105060008B4203DAB2F92E308B425FDCB2F930307A
:1050700083420BDAB2F93430834207DDB2F93230C1
:105080008B4203DAB2F936308B424FDCB2F938305A
:1050900083420BDAB2F93C30834207DDB2F93A3091
:1050A0008B4203DAB2F93E308B423FDCB2F940303A
:1050B00083420BDAB2F94430834207DDB2F9423061
:1050C0008B4203DAB2F946308B422FDCB2F948301A
:1050D00083420BDAB2F94C30834207DDB2F94A3031
:1050E0008B4203DAB2F94E308B421FDCB2F95030FA
:1050F00083420BDAB2F95430834207DDB2F9523001
:105100008B4203DAB2F956308B420FDCB2F95830D9
:1051100083420DDAB2F95C30834209DDB2F95A30CC
:105120008B4205DAB2F95E308B4201DD0020704718
:1051300010B5B2F96430B2F960E0B2F962C0B2F908
:105140006620002483424FF00003D8BF0123864528
:105150004FF00000A8BF01208C4540EA03004FF04B
:105160000003A8BF012318438A42D8BF012420436B
:1051700010BD000080B582B000200022019043F6EF
:105180003000C4F20200016841F400110160002106
:10519000006800F40010019001980C20FCF71EFF3D
:1051A0000C20FCF70BFF102000210022FCF716FF5B
:1051B000102002B0BDE88040FCF700BF2DE9F043AD
:1051C00087B043F63000002740F20009002240F289
:1051D0000F3606970197C4F20200C4F20209016873
:1051E00009F5006541F080010160016801F080016E
:1051F000019101990197016841F004010160016882
:1052000001F00401019101990197016841F0010148
:105210000160016801F001010191019901970168A4
:1052200041F010010160016801F010010191019944
:105230000197016841F002010160016801F002017B
:10524000019101990197016841F00801016040F264
:105250000F31006800F00800019001982846FCF723
:1052600039FE48464FF4C05100224FF4C058FCF7B5
:1052700031FE0124CDE904772846CDE9026402AE6F
:105280003146FCF743FD48463146CDE90477CDE988
:105290000284FCF73BFD07B0BDE8F08310B58CB08D
:1052A00043F2AC00002200244FF6FF71C2F201006D
:1052B000C4F20102C0E90024C0E902410121C0E9B1
:1052C00004448461CDE90044CDE90A44CDE90841B4
:1052D000CDE90644CDE904410321039103A9FDF77B
:1052E00097FA002818BFFCF753F943F2AC0069465F
:1052F000CDE90044C2F20100FDF776F9002818BF9D
:10530000FCF746F90CB010BD10B58CB043F2F400B8
:1053100000244FF6FF714FF08042C2F20100846119
:10532000C0E90024C0E9024101210461CDE9004443
:10533000CDE90A44CDE90841CDE90644CDE904416F
:105340000321039103A9FDF763FA002818BFFCF7B6
:105350001FF943F2F4006946CDE90044C2F20100AE
:10536000FDF742F9002818BFFCF712F90CB010BD88
:1053700010B58CB043F23C1040F2004200244FF6CE
:10538000FF71C2F20100C4F200028461C0E900248E
:10539000C0E9024101210461CDE90044CDE90A449C
:1053A000CDE90841CDE90644CDE90441032103914B
:1053B00003A9FDF72DFA002818BFFCF7E9F843F21E
:1053C0003C106946CDE90044C2F20100FDF70CF93A
:1053D000002818BFFCF7DCF80CB010BD10B58CB07D
:1053E00043F2841040F6000200244FF6FF71C2F22F
:1053F0000100C4F200028461C0E90024C0E9024156
:1054000001210461CDE90044CDE90A44CDE9084118
:10541000CDE90644CDE904410321039103A9FDF739
:10542000F7F9002818BFFCF7B3F843F28410694677
:10543000CDE90044C2F20100FDF7D6F8002818BFFC
:10544000FCF7A6F80CB010BDB0B590B043F2CC108C
:1054500040F60045002480210122C2F20100CDE97E
:105460000844C4F2000581614FF4FA61C0E90052BA
:10547000C0E9024104610794CDE90544CDE9034444
:10548000CDE90144FDF78AFD002818BFFCF780F83C
:1054900043F2CC1008A9CDE90844C2F20100FDF79F
:1054A000A3F8002818BFFCF773F8002001A9002218
:1054B0000590CDE902006020019043F2CC10C2F2C9
:1054C0000100FDF759FC002818BFFCF761F843F212
:1054D000CC1001A90422C2F20100FDF74DFC002806
:1054E00018BFFCF755F843F2CC1001A90822C2F20C
:1054F0000100FDF741FC002818BFFCF749F843F212
:10550000CC1401A90C22C2F201042046FDF734FCA0
:10551000002818BFFCF73CF800200F90CDE90D00E3
:10552000CDE90B002168A94201D010B0B0BD43F60F
:1055300030010A90C4F202010A6842F001020A60D6
:10554000096801F001010A910A990221CDE90E01D1
:10555000CDE90C100F200BA90B9005F5FA30FCF7E4
:10556000D5FB10B0B0BD000010B582B043F21420DE
:1055700041F200438021002442F2D002C2F2010035
:10558000C4F200038161C821C0E90032C0E90241D0
:10559000CDE90044FDF78EF8002818BFFBF7F8FFAF
:1055A00043F214206946CDE90044C2F20100FDF740
:1055B0001BF8002818BFFBF7EBFF02B010BD00007E
:1055C00010B58CB043F25C2040F2004200244FF64C
:1055D000FF71C2F20100C4F20102C0E90024C0E977
:1055E00002410121C0E904448461CDE90044CDE9D0
:1055F0000A44CDE90841CDE90644CDE9044103213F
:10560000039103A9FDF704F9002818BFFBF7C0FFB9
:1056100043F25C206946CDE90044C2F20100FCF788
:10562000E3FF002818BFFBF7B3FF0CB010BD00006C
:1056300080B543F2A42041F2000200214FF00C0C8F
:105640004FF4E133C2F20100C4F20102C0E90023C9
:10565000C0E90211C0E9041CC0E90611FEF796FE7C
:10566000002814BFBDE8804080BDFBF791BF00005B
:1056700080B543F2E82044F2004200214FF00C0CC8
:105680004FF4E133C2F20100C4F20002C0E900238A
:10569000C0E90211C0E9041CC0E90611FEF776FE5C
:1056A000002814BFBDE8804080BDFBF771BF00003B
:1056B00080B543F22C3044F6000200214FF00C0C70
:1056C0004FF4E133C2F20100C4F20002C0E900234A
:1056D000C0E90211C0E9041CC0E90611FEF756FE3C
:1056E000002814BFBDE8804080BDFBF751BF00001B
:1056F000FEE70000FEE70000704700007047000072
:10570000FCF7F4BBB0B592B043F64000002402258C
:10571000CDE90A44CDE908440594CDE90344CDE937
:1057200001440094C4F20200016841F0805101601C
:10573000006800F0805000900098009447F200004C
:10574000C4F20000016841F480410160A8210068B2
:1057500000F4804000900098042011901095CDE94D
:105760000E014FF48000CDE90C504FF480300790CB
:105770000120069006A8FCF77DFD20B1EFF3108014
:1057800072B600BFFEE74FF48050052105904FF43C
:10579000A05004900F20CDE90254019001A8FCF71D
:1057A0005BFC002804BF12B0B0BDEFF3108072B6EE
:1057B000FEE700004EF68850CEF20000016841F48A
:1057C000700101607047000043F21420C2F2010032
:1057D000FDF7F0B940F6FF3C0268C4F2000C6045EA
:1057E00026DCB0F1804F34D040F20043C4F2000315
:1057F00098422ED040F60003C4F20003984228D00D
:1058000041F6FF73C4F2000398422CDC604542DC91
:10581000B0F1804F64D040F20043C4F200039842DC
:105820005ED040F60003C4F20003984258D05BE01B
:1058300040F60043C4F2000398420AD040F200430D
:10584000C4F20103984204D00023C4F20103984239
:10585000D6D14B6822F070021A4341F6FF73C4F2AE
:1058600000039842D2DD43F6FF73C4F2010398426D
:1058700024DC42F20003C4F20003984230D000233B
:10588000C4F2010398422BD040F20043C4F201035A
:10589000984225D028E040F60043C4F20003984225
:1058A0001ED041F60003C4F20003984218D041F61E
:1058B0000043C4F20003984212D015E044F2000302
:1058C000C4F2010398420BD044F60003C4F2010372
:1058D000984205D044F20043C4F20103984203D138
:1058E000CB6822F440721A434B6922F080021A43BB
:1058F00040F200430260C4F201038A68C2620A688F
:10590000826240F480629A4204BF09690163012106
:1059100041617047806B0021C185C184FEF75CBA8C
:10592000806B01684A6990F83D30212B2FD112F02D
:1059300080022CD00022C28401E000BF016851E83F
:10594000031F026821F0C00142E80313DBB10168C4
:1059500051E8031F026821F0C00142E8031393B12C
:10596000016851E8031F026821F0C00142E80313F7
:105970004BB1016851E8031F026821F0C00142E801
:105980000313002BDAD1202180F83D1001684A6909
:1059900090F83E30222B40F07F8012F040027BD006
:1059A0000022C28501E000BF016851E8031F0268C0
:1059B00021F4907142E80313E3B1016851E8031F39
:1059C000026821F4907142E803139BB1016851E829
:1059D000031F026821F4907142E8031353B1016878
:1059E00051E8031F026821F4907142E80313002B71
:1059F000DAD100BF016851E8051F026821F00101FA
:105A000042E80513DBB1016851E8051F026821F087
:105A1000010142E8051393B1016851E8051F0268CE
:105A200021F0010142E805134BB1016851E8051F5F
:105A3000026821F0010142E80513002BDAD1016B65
:105A4000012924D1016851E8031F026821F01001E7
:105A500042E80313DBB1016851E8031F026821F03B
:105A6000100142E8031393B1016851E8031F026873
:105A700021F0100142E803134BB1016851E8031F04
:105A8000026821F0100142E80313002BDAD1202133
:105A900080F83E1000210163016C41F010010164A7
:105AA000FEF79AB90168806B0968C90500F19F800B
:105AB0000021C185016851E8031F026821F480714B
:105AC00042E80313E3B1016851E8031F026821F4BF
:105AD000807142E803139BB1016851E8031F02681B
