:020000040800F2
:10000000F808002029020008711900086919000881
:100010006D190008D5030008651C000800000000E9
:100020000000000000000000000000007919000836
:10003000D903000800000000751900087D190008A8
:10004000430200084302000843020008430200087C
:10005000430200084302000843020008430200086C
:10006000430200084302000843020008430200085C
:10007000430200084302000843020008430200084C
:10008000430200084302000843020008430200083C
:10009000430200084302000843020008430200082C
:1000A000430200084302000843020008430200081C
:1000B000430200084302000843020008430200080C
:1000C00043020008430200084302000843020008FC
:1000D00043020008430200084302000843020008EC
:1000E00043020008430200084302000843020008DC
:1000F00043020008430200084302000843020008CC
:1001000043020008430200084302000843020008BB
:1001100043020008430200084302000843020008AB
:10012000430200084302000843020008430200089B
:10013000430200084302000843020008430200088B
:10014000430200084302000843020008430200087B
:10015000430200084302000843020008430200086B
:10016000430200084302000843020008430200085B
:100170004302000843020008430200080000000098
:10018000430200084302000800F002F800F03CF8C7
:100190000AA090E8000C82448344AAF10107DA45E2
:1001A00001D100F031F8AFF2090EBAE80F0013F0F8
:1001B000010F18BFFB1A43F001031847801F00000E
:1001C000A01F0000103A24BF78C878C1FAD852079F
:1001D00024BF30C830C144BF04680C6070470000C1
:1001E0000023002400250026103A28BF78C1FBD840
:1001F000520728BF30C148BF0B6070471FB501F0E0
:1002000083FF1FBD10B510BD00F0A9F81146FFF720
:10021000F5FF01F029FD00F0C7F803B4FFF7F2FF86
:1002200003BC00F0CFF800000948804709480047A8
:10023000FEE7FEE7FEE7FEE7FEE7FEE7FEE7FEE796
:10024000FEE7FEE704480549054A064B70470000F3
:10025000311A000889010008F8020020F80800207F
:10026000F8040020F804002053EA020C00F0698032
:100270002DE9F04B4FF00006002B1FBFB3FA83F5BA
:1002800003FA05F424FA05F65E4012BF1643B2FAEB
:1002900082F502FA05F4C5F120051EBF22FA05FC1D
:1002A00044EA0C04203556EA044C4FEA144418BFC3
:1002B000641C4FF000084FF00009904271EB030CF2
:1002C00039D3002919BFB1FA81F701FA07F6B0FA5C
:1002D00080F700FA07F6C7F120071EBF20FA07FCD7
:1002E00046EA0C062037B6FBF4FCA7EB0507103FE7
:1002F00007F01F0BCBF120062CFA06F60CFA0BFBCD
:1003000044BFB3460026202FA4BF5E464FF0000B2B
:100310005BEA060C08BF4FF0010B19EB0B0948EB29
:100320000608ABFB027C06FB02CC0BFB03CCC01B1C
:1003300071EB0C01C1E70B46024641464846BDE859
:10034000F08B13B5084318BF4FF0FF300146AFF3F1
:100350000080BDE81C407047704770477047754685
:1003600000F02CF8AE4605006946534620F0070021
:10037000854618B020B5FFF765FFBDE820404FF077
:1003800000064FF000074FF000084FF0000BAC469E
:10039000ACE8C009ACE8C009ACE8C009ACE8C009E9
:1003A00021F007018D46704710B50446AFF3008079
:1003B0002046BDE81040FFF730BF000000487047FE
:1003C0001000002001491820ABBEFEE72600020005
:1003D00070470000FEE7000070470000B0B504461B
:1003E00000F0F4F8054640F20000C2F20000007888
:1003F000611C18BF044400BF00F0E8F8401BA04295
:10040000FAD3B0BD2DE9F04F82B000F13E4241F683
:10041000004502F1FF77C4F2020508224FEAB72631
:10042000A84208BF0722072E38BF4FEAB7224FF075
:10043000010A002400274FF00008009208E000BFE6
:10044000023708F10108202F04F1040400F0B48001
:100450000E680AFA08F916EA090FF1D0D1F804A0DB
:100460000AF0030BABF10106012E17D803228668B0
:1004700002FA07FECA6826EA0E06BA4032438260D4
:100480004268CAF3001522EA090205FA08F54FEAA4
:10049000480C6FEA0E062A4342600BE00322BA4082
:1004A000D643BBF1030FBC4604D1BC464FF0030B4F
:1004B00022E000BFC2688D68324005FA0CF52A437D
:1004C000BBF1020FC26017D16FF0030202EA5802BB
:1004D000024404F01C030F25D2F820E005FA03FAC9
:1004E0000D692EEA0A0E05FA03F343EA0E031362BE
:1004F000D1F804A00AF0030B02680BFA0CF33240A7
:100500001A431AF4403F4FF0010A026098D00022CB
:1005100043F644030192C4F202031A6843F6004E04
:1005200042F480421A601A68C4F2010E02F480425A
:100530000192019A28F003024FF6084C7244CFF65C
:10054000FF7C52F80C3004F00C060F25B540AB438D
:10055000009D05FA06F6334342F80C30DEF8082019
:100560004B6842EA090643F60C4CDD0258BF22EA0A
:100570000906CEF80860C4F2010CDCF800209D02E8
:1005800042EA090658BF22EA0906CCF80060DEF804
:1005900004209D0342EA090658BF22EA0906CEF864
:1005A0000460DEF80020DB0342EA090658BF22EAB5
:1005B0000906CEF8006043E702B0BDE8F08F000006
:1005C000002A08BF090481617047000040F2F4204E
:1005D000C2F200000068704740F2000040F2F421CF
:1005E000C2F20000C2F2000100780A6810440860FC
:1005F0007047000080B543F60040C4F20200016875
:1006000041F400710160016841F48061016001689A
:1006100041F480710160032000F074F80F2000F0B5
:1006200005F800F027F8002080BD000070B540F20A
:100630000006C2F2000640F208013278C2F2000160
:100640004FF47A730968B3FBF2F20446B1FBF2F19E
:10065000084600F031FB0F2C4FF0010508D838B9DF
:100660004FF0FF3021460022002500F01FF8746093
:10067000284670BD82B0002043F640010190C4F2CC
:1006800002014A6842F480424A604A6802F48042A9
:100690000192019A0090086840F080500860086854
:1006A00000F080500090009802B0704710B54EF6F0
:1006B0000C5CCEF2000CDCF80030C3F3022E8EF09E
:1006C0000704042C28BF0424BEF103034FF0FF3EAF
:1006D0000EFA04F438BF0023A14399400EFA03F345
:1006E0009A43114300F00F02043A624409010C32AC
:1006F00000F16043B0F1FF3FC8BF03F564421170E1
:1007000010BD00004EF60C51CEF200010A684FF603
:10071000FF031A4060F30A2242F0806040F0FD704F
:10072000086070472DE9F041002800F08B8043F607
:100730000808C4F202080446D8F8F8030D4600F091
:100740000700884207D288F8F853D8F8F80300F079
:100750000700A84276D12068810717D5410705D543
:10076000D8F8001041F4E051C8F80010010705D591
:10077000D8F8001041F46041C8F80010D8F8001013
:10078000A26821F0F0011143C8F80010C0073FD162
:10079000D8F8F80300F00700A84207D988F8F85302
:1007A000D8F8F80300F00700A8424BD120684107B1
:1007B00007D5D8F80010E26821F4E0511143C8F8D9
:1007C0000010000708D5D8F80000216920F4604027
:1007D00040EAC100C8F8000000F07CF8D8F800102A
:1007E00042F22212C1F30311C0F60002515C40F242
:1007F000080220FA01F140F20400C2F20000006891
:10080000C2F200021160FFF711FF0020BDE8F08185
:100810006068811E022907D258F8081C89015CBF54
:100820000120BDE8F08111E0012807D158F8081C2B
:1008300089035CBF0120BDE8F08107E058F8081C7F
:10084000890703D40120BDE8F08100BFD8F800106B
:1008500021F003010843C8F80000FFF7B7FE064681
:1008600041F28837D8F80000616800F00C00B0EB66
:10087000810F8DD0FFF7AAFE801BB842F2D903206A
:10088000BDE8F08140F2080043F60801C2F2000022
:10089000C4F202010068096842F23212C1F38221F7
:1008A000C0F60002515CC8407047000040F20800EA
:1008B00043F60801C2F20000C4F2020100680968B0
:1008C00042F23212C1F34231C0F60002515CC8401C
:1008D0007047000010B543F60404C4F202046068D7
:1008E00000F00C0142F200400829C0F2F40007D0E9
:1008F000042918BF10BD41F20020C0F27A0010BDDB
:10090000216801F03F02216823684902C3F388117E
:1009100006D4A1FB00010023FFF7A6FC07E000BFFF
:1009200041F20020C0F27A004843B0FBF2F02168A7
:100930000222C1F3014102EB4101B0FBF1F010BD15
:100940002DE9F04182B000286AD00446007843F6D1
:100950000006C007C4F202060BD0B06800F00C001D
:10096000042840F0A1803068800302D56068002828
:1009700056D0207880071AD5B06810F00C0F09D037
:10098000B06800F00C00082840F0A88070684002B1
:1009900000F1A4803068800702D5E06801283FD1CB
:1009A0003068216920F0F80040EAC100306020780A
:1009B000000739D4207840074ED4A5695DB3B068EC
:1009C00000F00C00082840F0BD80012D28D0706890
:1009D000E16900F480028A4222D1216A00F03F02DC
:1009E0008A421DD147F6C071626A0140B1EB821F95
:1009F00016D1A26A0023CFF6FF7303EBC23200F4D4
:100A000040316FF30F0291420AD1E16A00F0706049
:100A1000B0EB016F04D1002002B0BDE8F08100BF4F
:100A2000012002B0BDE8F0816069002840F20000BA
:100A3000C4F2472076D00121C0F8801EFFF7C6FD22
:100A4000054600BF706F8007B4D4FFF7BFFD401BA1
:100A50000228F7D9DDE000BF306C10F080580AD1D1
:100A600000200190306C40F080503064306C00F019
:100A700080500190019847F20007C4F200073868DF
:100A8000C00541D4386840F480703860FFF79EFD9F
:100A9000054600BF3868C00536D4FFF797FD401BF8
:100AA0000228F7D9B5E000BFB06800F00C000828B4
:100AB00003D1706840023FF556AF6068B0F5803FE3
:100AC00007D0B0F5A02F40F08D80306840F4802032
:100AD0003060306840F4803030608DE0E06800289D
:100AE00052D00020C4F2472001210160FFF76EFDC3
:100AF000054600BF306880073FF552AFFFF766FD3F
:100B0000401B0228F6D984E0A068012805D00528FA
:100B10004ED1306F40F004003067306F40F001007C
:100B200030674FE00021C0F8801EFFF74FFD0546FB
:100B3000706F80077FF53EAFFFF748FD401B02282E
:100B4000F6D966E00027C4F2472700203866FFF791
:100B50003DFD022D05460BD1306880015ED5FFF7C3
:100B600035FD401B02284FF00300F5D954E700BFC4
:100B7000306880017FF54FAFFFF728FD401B02284A
:100B80004FF00300F4D947E70020C4F247200021CA
:100B90000160FFF71BFD0546306880077FF507AF52
:100BA000FFF714FD401B02284FF00300F4D933E790
:100BB000316F002821F001013167316F21F004010C
:100BC00031674DD0FFF702FD054641F2883700BF7F
:100BD000306F800756D4FFF7F9FC401BB842F7D9B5
:100BE00017E000BF3168002821F48031316031689E
:100BF00021F4802131604FD0FFF7E8FC054600BFAB
:100C0000306880033FF5B5AEFFF7E0FC401B642879
:100C1000F6D9032002B0BDE8F08100BF04F11C0545
:100C20002FCD08430021CFF6FF7140EA821001EB7F
:100C3000C3316FF30F0140EA056008437060012083
:100C40003866FFF7C3FC0446306880013FF5E3AE29
:100C5000FFF7BCFC001B02284FF00300F4D9DBE6D1
:100C6000FFF7B4FC054641F2883700BF306F8007BC
:100C700008D5FFF7ABFC401BB8424FF00300F5D995
:100C8000CAE600BFB8F1000F7FF497AE306C20F0D9
:100C90008050306491E600BFFFF798FC054600BF26
:100CA000306880037FF565AEFFF790FC401B642839
:100CB0004FF00300F4D9AFE6411E0020B0EB116FF6
:100CC0001CBF012070474EF21002CEF200025160AC
:100CD0004EF62351CEF20001F0230B7007219060F5
:100CE0001160704710B590F83C20012A4FF00202C5
:100CF00051D080F83D200268D2F804E0D2F808C054
:100D00000C682EF07003234341F2FF74C4F2000418
:100D1000A24253600EDC40F2FF73C4F200039A4219
:100D200016DCB2F1804F2BD040F20043C4F2000336
:100D300024E000BF40F2FF33C4F201039A4213DC07
:100D400041F60003C4F200039A4219D0002313E0D5
:100D500040F60003C4F200039A4211D040F600436B
:100D6000C4F200030AE000BF44F20003C4F201032E
:100D70009A4205D040F20043C4F201039A4204D1E2
:100D800049682CF08003194391600121002280F80A
:100D90003D1080F83C20104610BD0000002804BF24
:100DA0000120704710B5044690F83D0028B9002096
:100DB00084F83C00204600F01FF8022084F83D0033
:100DC0002068211D00F03EFE012084F8460084F8D2
:100DD0003E0084F83F0084F8400084F8410084F825
:100DE000420084F8430084F8440084F8450084F805
:100DF0003D00002010BD000081B0006841F20001FC
:100E0000C4F20001884201D001B070470020009078
:100E100043F64000C4F20200016841F01001016095
:100E2000006800F010000090009801B070470000CA
:100E3000002804BF012070472DE9F047044690F8D0
:100E40003D000D4628B9002084F83C00204600F003
:100E500049F8022084F83D00206844F207028168C6
:100E600091438160211D00F0EDFD20684FF6FF7871
:100E700081688269D0F820C0D5E9003ED5E9026AD0
:100E800043EA0109AB6922EA080246EA03234FF666
:100E9000FC46B343D5E9076742EA0A0229691A43C7
:100EA00042EA062242EA01112CF0AA026B6942EAE8
:100EB0000E0241EA073142EA0312C0F8089081614C
:100EC0000262012084F8460084F83E0084F83F0066
:100ED00084F8420084F8430084F83D000020BDE817
:100EE000F0870000F0B587B0006840F2FF71C4F2EF
:100EF000000188424FF000010691CDE90411CDE9CF
:100F000002112DDCB0F1804F5ED040F20041C4F2FE
:100F10000001884240F0BD80002043F6300101907E
:100F2000C4F202010A6942F002020A610A6902F08F
:100F300002020192019A01900A6842F001020A60DD
:100F4000096801F0010101910199C021029102217A
:100F5000CDE90310CDE905010020C4F2020095E0BF
:100F600040F60001C4F20001884269D00021C4F2B9
:100F70000101884240F08D80002043F6300101904D
:100F8000C4F202014A6942F001024A614A6902F070
:100F900001020192019A01900A6842F010020A606F
:100FA000096801F01001019101994FF4206102914B
:100FB0000221CDE903100590012006900020C4F223
:100FC000020000F5805061E0002543F630000195F5
:100FD000C4F202000169002441F0010101610169CC
:100FE000C4F2020401F00101019101990195016827
:100FF000022641F0010101600168012701F00101B1
:10100000019101990195016841F0020101600068B8
:1010100002A900F0020001900198202002902046D1
:10102000CDE9036505950697FFF7ECF90820CDE9B2
:101030000206CDE90455069704F5806026E000BF5E
:10104000002043F630010190C4F202010A6942F027
:1010500004020A610A6902F004020192019A0190F5
:101060000A6842F008020A60096801F0080101916B
:1010700001994FF4405102910221CDE90310CDE9CD
:1010800005010020C4F2020000F5406002A9FFF74C
:10109000B9F907B0F0BD000080B590F83E2090F897
:1010A0003F3090F842E090F843C004290AD0B9B923
:1010B000012A4FF0010208BFBEF1010F34D01046E3
:1010C00080BD00BF012B4FF0010208BFBCF1010F32
:1010D000F5D1022180F83F1080F8431000681EE02F
:1010E000012A4FF0010208BF012BE8D1BEF1010F28
:1010F000E5D1BCF1010FE2D1022280F83E2080F858
:101100003F2080F8422080F8432091B10068016AB6
:1011100021F001010162016A41F001010162102127
:101120006FF0100209E000BF022180F83E1080F845
:101130004210006801216FF00102036A1A40026246
:10114000026A114301620168002241F0010101605D
:10115000104680BD80B586B0016840F60040C4F2FC
:101160000000814202D006B080BD00BF002143F6DE
:1011700030020191C4F20202136800F5FA3043F024
:1011800001031360126802F001020192019A0F221A
:1011900001920222CDE90221CDE9041201A9FFF753
:1011A00031F906B080BD00002DE9F04190F83C30E7
:1011B000012B04BF0220BDE8F0814FEAB202032AEE
:1011C00000F2FC80DFE802F0023E7EBE036840F2DF
:1011D00000471A6A43F4806522F001021A621C6A11
:1011E0001A46D3F804E052F818CF8E6824F00204AF
:1011F000C4F20107BD4244EA060405D1CE6824F0DA
:101200000C0426F0040634430E68BD4207D1D1E930
:1012100005572EF4407E45EA0E0545EA070E2CF0F0
:1012200073073743C3F804E09F614F6809695F6340
:101230001C629F6947F008079F619F6927F00407B8
:101240009F61B1E0036840F200481A6A43F4806588
:1012500022F010021A621C6A1A46D3F804E052F80F
:1012600018CF8F6824F02004C4F20108454544EAF1
:10127000071407D1CF686FF0400624F0C00406EAD7
:10128000071634430F68454507D1D1E905562EF4BA
:10129000406E4EEA850545EA860E2CF4E64646EA9F
:1012A0000727C3F804E09F614F6809699F631C62C8
:1012B0009F6947F400679F619F6927F480679F617A
:1012C00071E000BF036840F200481A6A43F4806589
:1012D00022F480721A621C6A1A46D3F804E052F8AB
:1012E0001CCF8F6824F40074C4F20108454544EA19
:1012F000072408D1CF6840F2FF463F0224F440643F
:1013000027EA060634430F68454507D1D1E905565B
:101310002EF4405E4EEA051545EA061E2CF07306D3
:101320003743C3F804E0DF614F680969DF631C627B
:10133000DF6947F00807DF61DF6927F00407DF6135
:1013400032E000BF036840F200451A6A43F4806748
:1013500022F480521A621A46D3F820C05C6852F810
:101360001CEFD1F800808E68C4F20105AF4204D1B1
:101370004D6924F4804444EA85142CF4005747EA6C
:1013800006372EF4E64646EA08265C60DE614E68C3
:1013900009691E641F62DF6947F40067DF61DF6966
:1013A00027F48067DF610902136819431160002187
:1013B000002280F83C200846BDE8F081012100228F
:1013C00080F83C200846BDE8F0810000002804BFFA
:1013D0000120704710B5044690F83D0028B9002060
:1013E00084F83C00204600F01FF8022084F83D00FD
:1013F0002068211D00F026FB012084F8460084F8B7
:101400003E0084F83F0084F8400084F8410084F8EE
:10141000420084F8430084F8440084F8450084F8CE
:101420003D00002010BD000081B0006840F6004182
:10143000C4F20001884201D001B070470020009042
:1014400043F64000C4F20200016841F00801016067
:10145000006800F008000090009801B0704700009C
:1014600041B1082910D0042914BF00F1410200F154
:101470003F020BE090F83E20012A1CBF012070477C
:10148000022280F83E2013E000F140021278012A87
:101490001CBF012070470222082907D0042914BF6D
:1014A00080F8412080F83F2002E000BF80F8402013
:1014B000006801F01F010122036A02FA01F123EA28
:1014C00001020262026A114341F2FF72C4F2000299
:1014D000904201620CDC40F2FF71C4F200018842CC
:1014E00014DCB0F1804F37D040F2004116E000BF6D
:1014F00040F2FF31C4F20101884215DC41F60001DF
:10150000C4F20001884227D0002115E040F6000116
:10151000C4F2000188421FD040F60041C4F200012D
:10152000884219D01FE000BF44F20001C4F201015B
:10153000884211D040F20041C4F20101884212D128
:10154000416C40F2004340F48062C4F2010341F474
:1015500000419A42416406D1816801F007010629E1
:1015600004BF00207047016841F0010101600020C4
:1015700070470000002804BF0120704710B50446E2
:1015800090F83D0028B9002084F83C00204600F087
:1015900021F8242084F83D002068C16821F400511E
:1015A000C160204600F0ECFA2068016921F4904106
:1015B0000161416921F02A014161C16841F4005192
:1015C000C16000202021206484F83D1084F83E1082
:1015D00010BD000080B586B0006844F20042C4F23D
:1015E000000200219042CDE90411CDE902110191E0
:1015F0002CD044F60001C4F20001884246D041F2EA
:101600000001C4F2010188426CD1002043F6300190
:101610000090C4F202014A6942F010024A614A692C
:1016200002F010020092009A0090086840F0010059
:101630000860086800F00100009000984FF4C06056
:1016400001900020C4F2020041E000BF43F63000E8
:101650000091C4F20200026942F4003202610269A0
:1016600002F400320092009A0091016841F00801F2
:101670000160006800F00800009000986020019070
:101680000020C4F2020000F5406020E0002043F694
:1016900030010090C4F202010A6942F480220A611A
:1016A0000A6902F480220092009A0090086840F0D3
:1016B00002000860086800F00200009000984FF4F3
:1016C000406001900020C4F2020000F58060022119
:1016D000029100210391032104910721059101A9A1
:1016E000FEF790FE06B080BD2DE9F04381B00446C0
:1016F00090F83D0020280DD10F4600294FF0010041
:1017000000F0DD801646002A00F0D98094F83C00F5
:10171000012803D1022001B0BDE8F083012084F844
:101720003C004FF0000921201D46C4F8409084F889
:101730003D00FEF74BFFA684E684A1680646B1F59E
:10174000805F07D1206900281CBF38464F46B84645
:10175000074601E04FF0000884F83C90E18C2068D7
:10176000002900F08B8005F101090AE047B317F862
:10177000011B4160E18C0139E184E18C002900F01A
:101780007D8001680906F1D4B9F1000F0AD0EDB1EE
:10179000FEF71CFF801BA84218D8206801680906C4
:1017A000F6D5E3E701680906E0D4016809065CBFE5
:1017B00001685FEA0161D9D401680906F2D5D5E76D
:1017C00038F8021B00276FF35F21D2E7206850E84A
:1017D000030F216820F4D07041E80302BAB32068F7
:1017E00050E8030F216820F4D07041E8030272B37F
:1017F000206850E8030F216820F4D07041E803020C
:101800002AB3206850E8030F216820F4D07041E823
:101810000302002ADAD11AE0206850E8050F216897
:1018200020F0010041E80502DAB1206850E8050F18
:10183000216820F0010041E8050292B1206850E8DB
:10184000050F216820F0010041E805024AB1206837
:1018500050E8050F216820F0010041E80502002A48
:10186000DAD1202084F83D0084F83E00002084F87E
:101870003C00032001B0BDE8F08300BF01684906C9
:1018800019D4FDB1691C0DD10168490613D4016852
:1018900049065CBF01685FEA41610CD401684906F2
:1018A000F2D508E0FEF792FE801BA8420AD8206815
:1018B00000684006F6D5202084F83D00002001B0E5
:1018C000BDE8F083206850E8030F216820F4D07051
:1018D00041E80302E2B3206850E8030F216820F4D6
:1018E000D07041E803029AB3206850E8030F2168E2
:1018F00020F4D07041E8030252B3206850E8030F8F
:10190000216820F4D07041E80302002ADAD11FE0F8
:10191000206850E8050F216820F0010041E8050229
:10192000002A9ED0206850E8050F216820F00100B1
:1019300041E80502002A3FF494AF206850E8050F03
:10194000216820F0010041E80502002A3FF489AF38
:10195000206850E8050F216820F0010041E80502E9
:10196000002AD5D17DE70000FEE70000FEE7000079
:10197000FEE700007047000070470000FEF72CBE35
:10198000B0B592B0002443F64000CDE90A44CDE959
:1019900008440594CDE90344CDE901440094C4F220
:1019A00002000168022541F080510160006800F0EA
:1019B00080500090009847F200000094C4F20000AC
:1019C000016841F4804101600068A82100F4804072
:1019D00000900098012006904FF4803007904FF45B
:1019E00080000D9004200E90119006A80C95CDE972
:1019F0000F15FEF7A5FF28B1EFF3108072B600BFF8
:101A0000FEE700BF0F20CDE901054FF4A050049080
:101A10004FF48050059001A805210394FEF782FE43
:101A200020B1EFF3108072B6FEE700BF12B0B0BD78
:101A30004EF68850CEF20000016841F4700101605A
:101A40007047000010B540F6FF3E0368C4F2000E78
:101A500040F2004C7045C4F2010C27DCB0F1804F1D
:101A600031D040F20042C4F2000290422BD040F646
:101A70000002C4F20002904225D041F6FF72C4F287
:101A80000002904229DC70453CDCB0F1804F5FD011
:101A900040F20042C4F20002904259D040F60002E7
:101AA000C4F20002904253D056E000BF40F600421C
:101AB000C4F20002904206D0604504D00022C4F275
:101AC00001029042D9D14A6823F07003134341F6D2
:101AD000FF72C4F200029042D5DD43F6FF72C4F2F9
:101AE0000102904222DC42F20002C4F20002904263
:101AF0002ED00022C4F20102904229D0604527D0A6
:101B00002AE000BF40F60042C4F2000290421FD01B
:101B100041F60002C4F20002904219D041F60042A0
:101B2000C4F20002904213D016E000BF44F200025B
:101B3000C4F2010290420BD044F60002C4F201024A
:101B4000904205D044F20042C4F20102904203D117
:101B5000CA6823F44073134323F080024B69D1F821
:101B600000E08C681A430260C46240F48062C0F8EE
:101B700028E0624504BF096901630121416110BD8C
:101B800010B504460068D4E902C22369016921F452
:101B9000405111430161626943EA0C01E369114359
:101BA000C268194349F20C639A431143C160416909
:101BB000A26921F4407141F20043114340F4806274
:101BC000C4F201039A42416102D1FEF76FFE01E0C7
:101BD000FEF758FEE16963681922B1F5004FA0FBDA
:101BE00002011FD15A00DB0FFEF73EFB48F21F51E6
:101BF000C5F2EB11A0FB01235A096FF0630302FB4E
:101C00000300322303EBC000A0FB01014FF4F87086
:101C100000EA111000EB0210C1F3421108442168E0
:101C2000886010BD9A009B0FFEF71EFB48F21F5103
:101C3000C5F2EB11A0FB01235A096FF0630302FB0D
:101C40000300322303EB0010A0FB0101F02000EAA7
:101C5000511000EB0210C1F3431108442168886061
:101C600010BD0000FEE700008CB040F60004C4F296
:101C70000204FEF7BFFCFFF783FE002543F63000A9
:101C800004950A95C4F202000168002241F0800127
:101C90000160016840F2CF3601F080010A910A9993
:101CA0000A95016841F004010160016801F0040136
:101CB0000A910A990A95016841F0010101600168E1
:101CC00001F001010A910A990A95016841F0100199
:101CD0000160016801F010010A910A990A950168F2
:101CE00041F002010160016801F002010A910A99C4
:101CF0000A95016841F008010160006840F2CF31A7
:101D000000F008000A900A982046FEF759FC1120BE
:101D1000CDE901056946204600960395FEF772FB62
:101D200040F2BC00A4F58431C2F20000C0E9001505
:101D300001214FF6FF72CDE90015CDE90215CDE97D
:101D400006156946CDE90A55C0E90252C0E90455B5
:101D50008561CDE904550895FFF76AF820B1EFF3E6
:101D6000108072B6FEE700BF40F2BC00C2F2000075
:101D70000AA9CDE90A55FEF7B5FF28B1EFF31080A7
:101D800072B600BFFEE700BF40F204100021C2F2AD
:101D900000004FF080424FF0FF33C0E900210122E4
:101DA000CDE90A11C0E9021301618161CDE9002189
:101DB000CDE90221CDE90411CDE90621089169465A
:101DC000FFF736F820B1EFF3108072B6FEE700BFE0
:101DD00040F20415C2F200050AA92846FEF782FF68
:101DE00020B1EFF3108072B6FEE700BF40F24C1056
:101DF0000021A4F50132C2F200004FF6FF73C0E9E2
:101E000000210122CDE90A11C0E9021301618161BB
:101E1000CDE90021CDE90221CDE90411CDE906216A
:101E200008916946FFF704F820B1EFF3108072B60D
:101E3000FEE700BF40F24C16C2F200060AA9304687
:101E4000FEF750FF20B1EFF3108072B6FEE700BF3F
:101E500040F294100021A4F50032C2F200004FF6C7
:101E6000FF73C0E900210122CDE90A11C0E9021384
:101E700001618161CDE90021CDE90221CDE90411A3
:101E8000CDE9062108916946FEF7D2FF20B1EFF3B4
:101E9000108072B6FEE700BF40F2941AC2F2000A48
:101EA0000AA95046FEF71EFF20B1EFF3108072B66C
:101EB000FEE700BF40F2DC100021C2F200004FF448
:101EC000FA67CDE90A11CDE90511CDE90311A4F5B1
:101ED000FE320123C0E9021701618021C0E900231D
:101EE0008161FFF773FA28B1EFF3108072B600BF7B
:101EF000FEE700BF40F2DC10C2F200000AA9FEF7C4
:101F0000F1FE28B1EFF3108072B600BFFEE700BF0C
:101F1000602000900020CDE90100049040F2DC1028
:101F2000C2F2000069460022FFF73EF920B1EFF34C
:101F3000108072B6FEE700BF40F2DC10C2F2000073
:101F400069460422FFF730F920B1EFF3108072B632
:101F5000FEE700BF40F2DC10C2F200006946082232
:101F6000FFF722F920B1EFF3108072B6FEE700BF51
:101F700040F2DC10C2F2000069460C22FFF714F9AF
:101F800020B1EFF3108072B6FEE700BF40F2DC1024
:101F9000C2F20000FFF7DEF840F224200021A4F591
:101FA000FC32C2F200004FF6FF73CDE90011C0E928
:101FB0000021C0E902138161FEF7F0FE20B1EFF3CA
:101FC000108072B6FEE700BF40F22420C2F200008B
:101FD0006946FEF787FE18B1EFF3108072B6FEE790
:101FE00040F26C20A4F57841C2F200004FF4E13BCE
:101FF0004FF000080C27C0E9001BC0E90288C0E9C7
:102000000487C0E90688FFF7B5FA18B1EFF310802E
:1020100072B6FEE740F27009C2F20009A4F5E2319F
:10202000484640F8081FC0E901B8C0E90388C0E984
:102030000578C0F81C80FFF79DFA18B1EFF3108007
:1020400072B6FEE740F2B020A4F5E031C2F2000023
:1020500000230C274FF4E13280E80E00C0E903337F
:10206000C0E90573C361FFF785FA18B1EFF310807B
:1020700072B6FEE740F2DC14C2F2000420460021F2
:10208000FFF7EEF920460421FFF7EAF92046082180
:10209000FFF7E6F920460C21FFF7E2F928463C213C
:1020A000FEF7FAFF30463C21FEF7F6FF50463C2192
:1020B000FEF7F2FF40F2BC00C2F200003C21FEF746
:1020C000EBFF09F108040FF2340828680B22406A7C
:1020D0003168A9F80000486ADAF80010A9F802008F
:1020E000486A4146A9F8040020464FF0FF33FFF745
:1020F000FBFA4FF47A70FEF771F9E6E768656C6CED
:102100006F2C776F726C6400F1EE100A4FF6FF715E
:10211000C0F2C03120EA010040F04070E1EE100A48
:1021200070470000000000000000010203040607E1
:1021300008090000000001020304000060210008FB
:102140000000002010000000C401000870210008F9
:1021500010000020E8080000E00100080000000076
:1021600001000000100000000024F4000000000046
:040000050800018965
:00000001FF
