:020000040800F2
:10000000200A00209D010008B13A000805360008CA
:10001000AD3A0008DD070008C141000800000000FB
:10002000000000000000000000000000B93A0008D5
:10003000ED07000800000000B53A0008BD3A0008CE
:10004000B7010008B7010008B7010008B7010008B0
:10005000B7010008B7010008B7010008B7010008A0
:10006000B7010008B7010008B7010008B701000890
:10007000E1070008B7010008B7010008B701000850
:10008000B7010008B7010008B7010008B701000870
:10009000B7010008B7010008B7010008B701000860
:1000A000B7010008B7010008B7010008B701000850
:1000B000B7010008B7010008B7010008B701000840
:1000C000B7010008B7010008B7010008B701000830
:1000D000B7010008B7010008A9410008B5410008B0
:1000E000B7010008B7010008B7010008B701000810
:1000F000B7010008B7010008B7010008B701000800
:10010000B7010008B7010008B7010008B7010008EF
:10011000B7010008B7010008B7010008853B0008D7
:10012000B7010008B7010008B7010008B7010008CF
:10013000B7010008B7010008B7010008B7010008BF
:10014000B7010008B7010008B7010008B7010008AF
:10015000B7010008B7010008B7010008B70100089F
:10016000B7010008B7010008B7010008B70100088F
:10017000B7010008B7010008B7010008000000003F
:10018000B7010008B7010008DFF80CD000F014FB3D
:1001900000480047ED410008200A0020064880473B
:1001A00006480047FEE7FEE7FEE7FEE7FEE7FEE75C
:1001B000FEE7FEE7FEE7FEE7713B00088901000865
:1001C0002DE9F05F0546002092469B46884606468C
:1001D000814640241BE0284641464746224600F01F
:1001E00035FA53465A46C01A914110D31146184663
:1001F000224600F01CFA2D1A67EB01084F462246F2
:100200000120002100F013FA17EB00094E41201ED7
:10021000A4F10104DFDC484631462A464346BDE8E6
:10022000F09F2DE9FE4F804681EA0300C00F0C4687
:10023000009021F0004123F00045B8EB0200A941F5
:1002400005D24046214690461C460B46024623F006
:100250000040104347D0270DC7F30A00C3F30A51EB
:100260000290401A019040286BDAC3F3130040F467
:10027000801B0098924620B10023D2EB030A63EB67
:100280000B0B01985946C0F14002504600F0CFF9DF
:1002900006460D4650465946019A00F0E7F910EB24
:1002A00008006141002487EA115284EAE7731A4387
:1002B00040D0009A62B3019A012A4FEA075215DC36
:1002C000001B61EB02014FF0004202EA0752CDE948
:1002D0000042001C41F5801132462B4600F01EFA08
:1002E00003B0BDE8F08F40462146F9E7001B61EB03
:1002F0000201001C41F5801300185B412018A2F593
:10030000001747EB030140EAD570B6196D4111E0C3
:100310006D084FEA360645EAC0754FEA0752001BE2
:1003200061EB0201001C41F5801149084FEA3000E1
:100330000019514132462B4603B0BDE8F04F00F0A2
:10034000DEB90098012240000023D0EB020263EBEB
:10035000E073009821464FEAE074B8EB000061EBCF
:100360000401E9E783F000435BE781F0004158E7CF
:100370002DE9FE4F81EA030404F0004421F000411E
:1003800000944FF0000B23F0004350EA01045ED0CC
:1003900052EA03045BD0C3F30A54C1F30A552C4458
:1003A000A4F2F3340194A0FB0254C1F3130141F40D
:1003B0008011C3F3130343F4801301FB024400FBD9
:1003C000034E840A970A44EA815447EA8357A4FB00
:1003D000076802958D0A05FB07854FEA932C04FBFD
:1003E0000C542705029D4FEA065847EA1637B5EB2D
:1003F00008056EEB070C870E920E47EA811742EA5A
:100400008312A7FB0201B6EB0B0164EB00042B0D7A
:1004100043EA0C335E1844EB1C50DA465146E7FBC6
:100420000201C5F313044FEA0B3343EA14534FEAB6
:100430000432019C43EA0603A4F10C040294009CDC
:10044000CDE900B400F06AF903B0BDE8F08F0020F8
:100450000146F9E72DE9F04D81EA030404F0004B71
:1004600021F0004514464FF0000A23F0004150EA05
:10047000050220D054EA01021DD0C5F30A570246F6
:10048000C5F31303C1F31300C1F30A5640F48015FA
:1004900043F48013A7EB0608101BD64608F2FD387C
:1004A00073EB050002D308F1010801E092185B41EB
:1004B000B8F1000F03DA00200146BDE8F08D0020FE
:1004C0004FF48011064684460EE0171B73EB0507B8
:1004D00005D3121B63EB050306434CEA010C4908E4
:1004E0004FEA300092185B4150EA0107EDD152EA21
:1004F000030012D082EA040083EA0501084305D014
:10050000101BAB4106D20122002306E000224FF06F
:10051000004302E06FF0010253101AEB06004CEBAF
:10052000085110EB0A0041EB0B01BDE8F04D00F063
:10053000E6B830B5041E71F1000404DB4FF000444E
:10054000404264EB0101141E73F1000405DB1C46FC
:100550004FF00043524263EB0403101A8B4101D267
:10056000012030BD002030BD30B5041E71F1000403
:1005700004DB4FF00044404264EB0101141E73F1B0
:10058000000405DB1C464FF00043524263EB0403BA
:10059000101A8B4101D3012030BD002030BDC1F3C2
:1005A0000A5210B5C1F3130140F2FF3341F4801138
:1005B0009A4201DA002010BD40F233439A42A2F27F
:1005C000334203DC524200F041F810BD904010BDB0
:1005D00000F0004230F000400AD0C10D01F560711A
:1005E000C0F3160042EA0151C208400711437047A8
:1005F00000200146704701F0004330B421F0004173
:1006000050EA010206D00A0DA2F56072C1F313018F
:10061000002A02DC30BC00207047440F44EAC104C9
:10062000C100E01830BC00EBC25000F031B8202A05
:1006300004DB203A00FA02F1002070479140C2F139
:10064000200320FA03F3194390407047202A04DB6B
:10065000203A21FA02F00021704721FA02F3D0403B
:10066000C2F120029140084319467047202A06DB58
:10067000CB17203A41FA02F043EAE07306E041FA70
:1006800002F3D040C2F1200291400843194670475E
:100690000029A8BF7047401C490008BF20F0010096
:1006A000704710B4B0FA80FC00FA0CF050EA010474
:1006B00004BF10BC704749B1CCF1200421FA04F406
:1006C00011FA0CF118BF012121430843A3EB0C01DF
:1006D000CB1D4FEA00614FEA102042BF002010BC42
:1006E000704700EBC35010440029A4BF10BC7047F2
:1006F000401C490008BF20F0010010BC704710B535
:10070000141E73F1000408DA401C41F10001921834
:100710005B411A4301D120F0010010BD2DE9F04DDD
:1007200092469B4611B1B1FA81F202E0B0FA80F232
:1007300020329046FFF77BFF04460F4640EA0A004E
:1007400041EA0B0153465A46084313D0114653EA77
:10075000010019D0C8F140025046FFF777FF054667
:100760000E46504659464246FFF761FF084305D002
:10077000012004E020463946BDE8F08D0020054305
:1007800046EAE0762C4337430A986305E40AA0EB77
:1007900008000022FD0A44EA47540A3002D500202E
:1007A0000146E9E7010510196941DDE9084500192D
:1007B0006941BDE8F04DA2E7064C074D06E0E06850
:1007C00040F0010394E8070098471034AC42F6D398
:1007D000FFF7DEFC2C4400084C440008FEE7000054
:1007E00040F2B800C2F2000000F064B870470000A8
:1007F000EFF3108072B600BFFEE7000070B5866DA3
:10080000044600F031FB94F8351002292ED105463C
:100810002068216C026822F016020260426922F010
:100820008002426109B9A16C19B1016821F0080187
:100830000160016821F0010101600068C00708D073
:1008400000F012FB401B052818D820680068C0077C
:10085000F6D1E06D3F2101FA00F0B060012084F88C
:1008600035000020002184F8341070BD80206065C0
:100870000120002184F8341070BD00BF2020606585
:10088000032084F83500002184F8341070BD000086
:1008900090F83510022909D1052180F8351000683B
:1008A000016821F00101016000207047802141654D
:1008B00001207047F0B581B004460020009040F25E
:1008C0000800C2F200000268D4E9166048F2B513CD
:1008D00037680821C1F64E3381403942A2FB032517
:1008E0000CD0226813685B0708D5136823F0040353
:1008F0001360B160616D41F00101616501218140CA
:10090000394208D022685269120604D5B160616D7F
:1009100041F00201616504218140394208D022681A
:100920001268920704D5B160616D41F00401616500
:1009300010218140394217D020680268120713D570
:10094000B16002680168520308D4C90508D401687F
:1009500021F008010160216C21B905E008033FD4B2
:10096000216C09B120468847E16D202000FA01F290
:100970003A4241D020680368DB063DD5B26094F866
:1009800035300268052B1BD122F016020260426945
:1009900022F080024261226C0AB9A26C1AB102688C
:1009A00022F0080202603F208840B060012084F8F5
:1009B0003500216D0020002984F8340052D157E021
:1009C0000168520310D4C90512D4016821F0100146
:1009D0000160012084F83500002084F8340007E02D
:1009E000A16C0029BED1BFE7080301D4616C00E00F
:1009F000E16B09B120468847606DC8B3606DC007E0
:100A00002ED0052084F835002068A90A026822F05B
:100A100001020260009A01328A4200921AD80268EA
:100A2000D20717D0009A01328A42009212D8026887
:100A3000D2070FD0009A01328A4200920AD8026887
:100A4000D20707D0009A01328A42009202D8026887
:100A5000D207DFD1012084F83500002084F834006B
:100A6000E16C29B1204601B0BDE8F040084700BF65
:100A700001B0F0BD2DE9F041044600F0F5F9002C7D
:100A80004ED00546022084F835000020216884F805
:100A90003400086820F0010008600868C00708D02A
:100AA00000F0E2F9401B05286CD821680868C007EF
:100AB000F6D1086848F23F02CFF21002D4E90135BE
:100AC000024004F10C0E9EE8C1511A432A43104320
:100AD0003043384340EA0800626A40EA0C00042AC6
:100AE00040EA0E0320D1D4E90A5E206B4EEA0302ED
:100AF000104308604869BEF1000F20F0030040EA8F
:100B0000050040F0040C15D0B8F5005F42D0B8F1F4
:100B1000000F51D1022D52D0012D47D055B94EE0D2
:100B20000120BDE8F08100BF0B60486920F007009C
:100B300040EA020C6FF00F004AF6AB2250FA81F047
:100B4000CAF6AA22A0FB02231A0944F22443C0F6E3
:100B500000039A5C40F2FF335F284FF03F00C1F87A
:100B600014C021EA030100FA02F088BF0431C4E98D
:100B700016128860002301220020636584F8352066
:100B8000BDE8F081032220230320636584F835202B
:100B9000BDE8F081032DCDD8012240230120DFE8FC
:100BA00005F0030E030500BFE7E700BFAEF1C0701C
:100BB000B0FA80F0400904E0032D04D3BAD1CEF39B
:100BC00000600028B6D0012240230120636584F82C
:100BD0003520BDE8F081000070B590F834C0BCF15C
:100BE000010F46D04FF0010C80F834C0D0F858E027
:100BF00090F835C0BCF1010F38D14FF0020C80F8ED
:100C000035C04FF0000CC0F854C0D0F800C0846864
:100C1000056CC06DDCF80060402C26F48026CCF812
:100C20000060CCF804300B4604BF13460A463F214F
:100C300001FA00F0CCF80830CCF80C20CEF808000F
:100C4000DCF8000040F01600CCF800002DB1DCF814
:100C5000000040F00800CCF80000DCF8000040F094
:100C60000100CCF80000002070BD00BF002180F81A
:100C70003410022070BD0000B0B5044600F0F4F856
:100C8000054640F20000C2F200000078611C18BF67
:100C9000044400BF00F0E8F8401BA042FAD3B0BD06
:100CA0002DE9F04F82B000F13E4241F6004502F1DD
:100CB000FF77C4F2020508224FEAB726A84208BF10
:100CC0000722072E38BF4FEAB7224FF0010A00244F
:100CD00000274FF00008009208E000BF023708F13B
:100CE0000108202F04F1040400F0B4800E680AFA11
:100CF00008F916EA090FF1D0D1F804A00AF0030BA5
:100D0000ABF10106012E17D80322866802FA07FE0E
:100D1000CA6826EA0E06BA40324382604268CAF3C5
:100D2000001522EA090205FA08F54FEA480C6FEAB5
:100D30000E062A4342600BE00322BA40D643BBF1C1
:100D4000030FBC4604D1BC464FF0030B22E000BFAA
:100D5000C2688D68324005FA0CF52A43BBF1020FD8
:100D6000C26017D16FF0030202EA5802024404F095
:100D70001C030F25D2F820E005FA03FA0D692EEACC
:100D80000A0E05FA03F343EA0E031362D1F804A036
:100D90000AF0030B02680BFA0CF332401A431AF400
:100DA000403F4FF0010A026098D0002243F644030E
:100DB0000192C4F202031A6843F6004E42F48042E4
:100DC0001A601A68C4F2010E02F480420192019A7C
:100DD00028F003024FF6084C7244CFF6FF7C52F81D
:100DE0000C3004F00C060F25B540AB43009D05FA0E
:100DF00006F6334342F80C30DEF808204B6842EA2E
:100E0000090643F60C4CDD0258BF22EA0906CEF86B
:100E10000860C4F2010CDCF800209D0242EA0906D9
:100E200058BF22EA0906CCF80060DEF804209D03D2
:100E300042EA090658BF22EA0906CEF80460DEF845
:100E40000020DB0342EA090658BF22EA0906CEF871
:100E5000006043E702B0BDE8F08F0000002A08BF41
:100E6000090481617047000040F22450C2F2000082
:100E70000068704740F2000040F22451C2F20000C6
:100E8000C2F2000100780A68104408607047000050
:100E900080B543F60040C4F20200016841F40071DD
:100EA0000160016841F480610160016841F4807172
:100EB0000160032000F084F80F2000F005F800F036
:100EC00027F8002080BD000070B540F20006C2F295
:100ED000000640F208013278C2F200014FF47A7342
:100EE0000968B3FBF2F20446B1FBF2F1084600F0E8
:100EF00041FB0F2C4FF0010508D838B94FF0FF30F7
:100F000021460022002500F02FF87460284670BDAD
:100F100082B0002043F640010190C4F202014A6809
:100F200042F480424A604A6802F480420192019A87
:100F30000090086840F080500860086800F0805019
:100F40000090009802B07047002848BF704700F03A
:100F50001F01012202FA01F14EF200124009CEF205
:100F6000000242F82010704710B54EF60C5CCEF22D
:100F7000000CDCF80030C3F3022E8EF00704042CC2
:100F800028BF0424BEF103034FF0FF3E0EFA04F421
:100F900038BF0023A14399400EFA03F39A4311434B
:100FA00000F00F02043A624409010C3200F1604380
:100FB000B0F1FF3FC8BF03F56442117010BD0000DF
:100FC0004EF60C51CEF200010A684FF6FF031A40AC
:100FD00060F30A2242F0806040F0FD7008607047C4
:100FE0002DE9F041002800F08B8043F60808C4F298
:100FF00002080446D8F8F8030D4600F007008842BE
:1010000007D288F8F853D8F8F80300F00700A84290
:1010100076D12068810717D5410705D5D8F800108B
:1010200041F4E051C8F80010010705D5D8F80010C8
:1010300041F46041C8F80010D8F80010A26821F00F
:10104000F0011143C8F80010C0073FD1D8F8F803E9
:1010500000F00700A84207D988F8F853D8F8F80339
:1010600000F00700A8424BD12068410707D5D8F807
:101070000010E26821F4E0511143C8F800100007A5
:1010800008D5D8F80000216920F4604040EAC1008A
:10109000C8F8000000F07CF8D8F8001044F20C42C8
:1010A000C1F30311C0F60002515C40F2080220FABD
:1010B00001F140F20400C2F200000068C2F2000236
:1010C0001160FFF701FF0020BDE8F0816068811E1C
:1010D000022907D258F8081C89015CBF0120BDE82D
:1010E000F08111E0012807D158F8081C89035CBF82
:1010F0000120BDE8F08107E058F8081C890703D4F7
:101100000120BDE8F08100BFD8F8001021F00301F4
:101110000843C8F80000FFF7A7FE064641F28837EB
:10112000D8F80000616800F00C00B0EB810F8DD0A2
:10113000FFF79AFE801BB842F2D90320BDE8F08188
:1011400040F2080043F60801C2F20000C4F20201B6
:101150000068096844F21C42C1F38221C0F6000213
:10116000515CC8407047000040F2080043F6080197
:10117000C2F20000C4F202010068096844F21C4295
:10118000C1F34231C0F60002515CC8407047000014
:1011900010B543F60404C4F20204606800F00C01C8
:1011A00042F200400829C0F2F40007D0042918BF19
:1011B00010BD41F20020C0F27A0010BD216801F09C
:1011C0003F02216823684902C3F3881106D4A1FBBA
:1011D00000010023FEF7F4FF07E000BF41F200200A
:1011E000C0F27A004843B0FBF2F021680222C1F35A
:1011F000014102EB4101B0FBF1F010BD2DE9F041DE
:1012000082B000286AD00446007843F60006C00782
:10121000C4F202060BD0B06800F00C00042840F0C5
:10122000A1803068800302D56068002856D02078FD
:1012300080071AD5B06810F00C0F09D0B06800F024
:101240000C00082840F0A8807068400200F1A480DB
:101250003068800702D5E06801283FD130682169F5
:1012600020F0F80040EAC10030602078000739D44F
:10127000207840074ED4A5695DB3B06800F00C003B
:10128000082840F0BD80012D28D07068E16900F485
:1012900080028A4222D1216A00F03F028A421DD197
:1012A00047F6C071626A0140B1EB821F16D1A26A93
:1012B0000023CFF6FF7303EBC23200F440316FF32B
:1012C0000F0291420AD1E16A00F07060B0EB016F49
:1012D00004D1002002B0BDE8F08100BF012002B0BF
:1012E000BDE8F0816069002840F20000C4F24720A8
:1012F00076D00121C0F8801EFFF7B6FD054600BF7D
:10130000706F8007B4D4FFF7AFFD401B0228F7D9F8
:10131000DDE000BF306C10F080580AD10020019051
:10132000306C40F080503064306C00F080500190A0
:10133000019847F20007C4F200073868C00541D49D
:10134000386840F480703860FFF78EFD054600BFB6
:101350003868C00536D4FFF787FD401B0228F7D94F
:10136000B5E000BFB06800F00C00082803D1706839
:1013700040023FF556AF6068B0F5803F07D0B0F54A
:10138000A02F40F08D80306840F4802030603068BD
:1013900040F4803030608DE0E068002852D00020BA
:1013A000C4F2472001210160FFF75EFD054600BF42
:1013B000306880073FF552AFFFF756FD401B02280B
:1013C000F6D984E0A068012805D005284ED1306FF9
:1013D00040F004003067306F40F0010030674FE0AC
:1013E0000021C0F8801EFFF73FFD0546706F8007A3
:1013F0007FF53EAFFFF738FD401B0228F6D966E0C7
:101400000027C4F2472700203866FFF72DFD022D84
:1014100005460BD1306880015ED5FFF725FD401BE6
:1014200002284FF00300F5D954E700BF306880016F
:101430007FF54FAFFFF718FD401B02284FF0030068
:10144000F4D947E70020C4F2472000210160FFF7EC
:101450000BFD0546306880077FF507AFFFF704FDF9
:10146000401B02284FF00300F4D933E7316F002806
:1014700021F001013167316F21F0040131674DD056
:10148000FFF7F2FC054641F2883700BF306F800756
:1014900056D4FFF7E9FC401BB842F7D917E000BF6C
:1014A0003168002821F480313160316821F48021D5
:1014B00031604FD0FFF7D8FC054600BF306880038D
:1014C0003FF5B5AEFFF7D0FC401B6428F6D90320EA
:1014D00002B0BDE8F08100BF04F11C052FCD084328
:1014E0000021CFF6FF7140EA821001EBC3316FF3A8
:1014F0000F0140EA05600843706001203866FFF77D
:10150000B3FC0446306880013FF5E3AEFFF7ACFC66
:10151000001B02284FF00300F4D9DBE6FFF7A4FC20
:10152000054641F2883700BF306F800708D5FFF7C6
:101530009BFC401BB8424FF00300F5D9CAE600BF40
:10154000B8F1000F7FF497AE306C20F0805030641B
:1015500091E600BFFFF788FC054600BF30688003B6
:101560007FF565AEFFF780FC401B64284FF0030059
:10157000F4D9AFE6411E0020B0EB116F1CBF012073
:1015800070474EF21002CEF2000251604EF6235127
:10159000CEF20001F0230B700721906011607047BC
:1015A000704700007047000010B590F83C20012AF9
:1015B0004FF0020251D080F83D200268D2F804E0DA
:1015C000D2F808C00C682EF07003234341F2FF7478
:1015D000C4F20004A24253600EDC40F2FF73C4F276
:1015E00000039A4216DCB2F1804F2BD040F2004348
:1015F000C4F2000324E000BF40F2FF33C4F2010351
:101600009A4213DC41F60003C4F200039A4219D057
:10161000002313E040F60003C4F200039A4211D005
:1016200040F60043C4F200030AE000BF44F20003A6
:10163000C4F201039A4205D040F20043C4F2010310
:101640009A4204D149682CF080031943916001212A
:10165000002280F83D1080F83C20104610BD0000AC
:10166000002804BF0120704710B5044690F83D00E3
:1016700028B9002084F83C00204600F01FF8022022
:1016800084F83D002068211D02F082FA012084F8D0
:10169000460084F83E0084F83F0084F8400084F857
:1016A000410084F8420084F8430084F8440084F840
:1016B000450084F83D00002010BD000080B582B0D8
:1016C000006841F20041C4F2000188421CBF02B030
:1016D00080BD0020019043F64000C4F20200016882
:1016E000002241F0200101600068002100F020008C
:1016F000019001983720FFF737FC372002B0BDE892
:101700008040FFF721BC000090F83D1001291CBF6C
:1017100001207047022180F83D10006841F2FF72FD
:10172000C168C4F20002904241F00101C1600DDCC9
:1017300040F2FF71C4F20001884215DCB0F1804F25
:101740002AD040F20041C4F2000123E040F2FF3110
:10175000C4F20101884213DC41F60001C4F2000129
:10176000884219D0002113E040F60001C4F20001C4
:10177000884211D040F60041C4F200010AE000BFE7
:1017800044F20001C4F20101884205D040F2004158
:10179000C4F20101884206D1816801F007010629DF
:1017A00004BF00207047016841F001010160002082
:1017B00070470000002804BF012070472DE9F04762
:1017C000044690F83D000D4628B9002084F83C00FE
:1017D000204600F049F8022084F83D00206844F2D9
:1017E0000702816891438160211D02F0D1F92068D0
:1017F0004FF6FF7881688269D0F820C0D5E9003EB5
:10180000D5E9026A43EA0109AB6922EA080246EA1D
:1018100003234FF6FC46B343D5E9076742EA0A02C1
:1018200029691A4342EA062242EA01112CF0AA026F
:101830006B6942EA0E0241EA073142EA0312C0F83C
:10184000089081610262012084F8460084F83E001D
:1018500084F83F0084F8420084F8430084F83D0097
:101860000020BDE8F0870000F0B587B0006840F2C6
:10187000FF71C4F2000188424FF000010691CDE9EA
:101880000411CDE902112DDCB0F1804F5ED040F2A1
:101890000041C4F20001884240F0BD80002043F6C0
:1018A00030010190C4F202010A6942F002020A61A9
:1018B0000A6902F002020192019A01900A6842F05C
:1018C00001020A60096801F0010101910199C0213A
:1018D00002910221CDE90310CDE905010020C4F2F7
:1018E000020095E040F60001C4F20001884269D090
:1018F0000021C4F20101884240F08D80002043F6AF
:1019000030010190C4F202014A6942F001024A61C9
:101910004A6902F001020192019A01900A6842F0BC
:1019200010020A60096801F01001019101994FF459
:10193000206102910221CDE903100590012006905B
:101940000020C4F2020000F5805061E0002543F65B
:1019500030000195C4F202000169002441F0010148
:1019600001610169C4F2020401F0010101910199D0
:1019700001950168022641F001010160016801271B
:1019800001F00101019101990195016841F0020105
:101990000160006802A900F0020001900198202077
:1019A00002902046CDE9036505950697FFF778F983
:1019B0000820CDE90206CDE90455069704F58060BC
:1019C00026E000BF002043F630010190C4F202017E
:1019D0000A6942F004020A610A6902F004020192F3
:1019E000019A01900A6842F008020A60096801F051
:1019F0000801019101994FF4405102910221CDE972
:101A00000310CDE905010020C4F2020000F540609A
:101A100002A9FFF745F907B0F0BD000080B590F8C6
:101A20003E2090F83F3090F842E090F843C00429FF
:101A30000AD0B9B9012A4FF0010208BFBEF1010F67
:101A400034D0104680BD00BF012B4FF0010208BF0B
:101A5000BCF1010FF5D1022180F83F1080F843104E
:101A600000681EE0012A4FF0010208BF012BE8D1F7
:101A7000BEF1010FE5D1BCF1010FE2D1022280F8E5
:101A80003E2080F83F2080F8422080F8432091B12A
:101A90000068016A21F001010162016A41F001015F
:101AA000016210216FF0100209E000BF022180F8EE
:101AB0003E1080F84210006801216FF00102036AB5
:101AC0001A400262026A114301620168002241F079
:101AD00001010160104680BD7047000010B501682B
:101AE00004460869800744BFC8685FEA807039D43B
:101AF0000869400744BFC8685FEA40703ED408697F
:101B0000000744BFC8685FEA007045D40869C00692
:101B100044BFC8685FEAC0604AD40869C0071CBFF8
:101B2000C8685FEAC07051D10869000644BFC86840
:101B30005FEA006052D40869400644BFC8685FEAA3
:101B4000406053D40869800646BFC8685FEA806079
:101B500010BD6FF0200220460A61BDE81040FFF77B
:101B600021BD00BF6FF00200086101202077886965
:101B7000800743D02046FFF7AFFF45E06FF0040039
:101B8000086102202077886910F4407F40D0204609
:101B9000FFF7A2FF42E000BF6FF0080008610420D9
:101BA0002077C86980073DD02046FFF795FF3FE0CA
:101BB0006FF01000086108202077C86910F4407F9A
:101BC0003AD02046FFF788FF3CE000BF6FF00100ED
:101BD0000861204600F024FA2168A5E76FF0800034
:101BE00008612046FFF7DCFC2168A4E76FF04000A5
:101BF0000861204600F0D6FC2168A3E7204600F0EB
:101C000025F8204600F080F92168002020776FE752
:101C1000204600F01BF8204600F076F921680020ED
:101C200020776CE7204600F011F8204600F06CF9B0
:101C300021680020207769E7204600F007F8204659
:101C400000F062F921680020207766E77047000005
:101C50002DE9F04190F83C30012B04BF0220BDE893
:101C6000F0814FEAB202032A00F2FC80DFE802F0C2
:101C7000023E7EBE036840F200471A6A43F4806564
:101C800022F001021A621C6A1A46D3F804E052F8E4
:101C900018CF8E6824F00204C4F20107BD4244EA62
:101CA000060405D1CE6824F00C0426F00406344363
:101CB0000E68BD4207D1D1E905572EF4407E45EAB2
:101CC0000E0545EA070E2CF073073743C3F804E00E
:101CD0009F614F6809695F631C629F6947F008074D
:101CE0009F619F6927F004079F61B1E0036840F29C
:101CF00000481A6A43F4806522F010021A621C6AD6
:101D00001A46D3F804E052F818CF8F6824F0200464
:101D1000C4F20108454544EA071407D1CF686FF0C3
:101D2000400624F0C00406EA071634430F68454510
:101D300007D1D1E905562EF4406E4EEA850545EAF5
:101D4000860E2CF4E64646EA0727C3F804E09F61B6
:101D50004F6809699F631C629F6947F400679F6130
:101D60009F6927F480679F6171E000BF036840F2BC
:101D700000481A6A43F4806522F480721A621C6A71
:101D80001A46D3F804E052F81CCF8F6824F400748C
:101D9000C4F20108454544EA072408D1CF6840F25F
:101DA000FF463F0224F4406427EA060634430F68E6
:101DB000454507D1D1E905562EF4405E4EEA05159A
:101DC00045EA061E2CF073063743C3F804E0DF61D2
:101DD0004F680969DF631C62DF6947F00807DF614C
:101DE000DF6927F00407DF6132E000BF036840F2DB
:101DF00000451A6A43F4806722F480521A621A4638
:101E0000D3F820C05C6852F81CEFD1F800808E68CF
:101E1000C4F20105AF4204D14D6924F4804444EA80
:101E200085142CF4005747EA06372EF4E64646EAB6
:101E300008265C60DE614E6809691E641F62DF6906
:101E400047F40067DF61DF6927F48067DF6109021B
:101E50001368194311600021002280F83C200846D5
:101E6000BDE8F0810121002280F83C200846BDE851
:101E7000F0810000002804BF0120704710B504461F
:101E800090F83D0028B9002084F83C00204600F07E
:101E90001FF8022084F83D002068211D01F078FE23
:101EA000012084F8460084F83E0084F83F0084F85E
:101EB000400084F8410084F8420084F8430084F82C
:101EC000440084F8450084F83D00002010BD000067
:101ED00081B0006840F60041C4F20001884201D0A0
:101EE00001B070470020009043F64000C4F20200A9
:101EF000016841F008010160006800F008000090EE
:101F0000009801B0704700007047000041B10829F7
:101F100010D0042914BF00F1410200F13F020BE090
:101F200090F83E20012A1CBF01207047022280F851
:101F30003E2013E000F140021278012A1CBF01206C
:101F400070470222082907D0042914BF80F84120D5
:101F500080F83F2002E000BF80F84020006801F0D8
:101F60001F010122036A02FA01F123EA010202625F
:101F7000026A114341F2FF72C4F200029042016210
:101F80000CDC40F2FF71C4F20001884214DCB0F1B5
:101F9000804F37D040F2004116E000BF40F2FF31E1
:101FA000C4F20101884215DC41F60001C4F20001CF
:101FB000884227D0002115E040F60001C4F200015C
:101FC00088421FD040F60041C4F20001884219D077
:101FD0001FE000BF44F20001C4F20101884211D0A9
:101FE00040F20041C4F20101884212D1416C40F23A
:101FF000004340F48062C4F2010341F400419A427C
:10200000416406D1816801F00701062904BF002060
:102010007047016841F00101016000207047000035
:102020002DE9F04F81B02DED0A8B8EB040F6000106
:10203000C4F202010068A1F5FA3188420CD00EB05A
:10204000BDEC0A8B01B0BDE8F08F00BF00BF00BF40
:10205000000000000000F03F40F28805C2F20005D9
:1020600095ED000B1FED061B51EC100B53EC112BE3
:10207000FEF7D7F841EC100B40F21C1040F264441C
:102080000021C2F20000C2F20004C4F2A001D0F8A4
:1020900000C085ED000BE161E163E165E167DCF81B
:1020A000241040F20C02C2F20002B1F5004FA8BFAA
:1020B000A1F5803192ED001A95ED023A00EE101A6A
:1020C000B7EE002AB8EEC00A32EE412AB8EEC33AA3
:1020D00022EE033A21EE000A40F2641130EE030AC8
:1020E000C2F20001BDEEC00A096885ED020A4A6A23
:1020F00010EE107AB2F5004FA8BFA2F5803295ED30
:10210000034A03EE102AB8EEC33AB8EEC44A22EEF0
:10211000044A21EE033A40F2AC1233EE043AC2F222
:102120000002BDEEC33A126885ED033A536A13EE1E
:10213000106AB3F5004FA8BFA3F5803395ED044AAC
:1021400000EE103AB8EEC00AB8EEC44A22EE044AD5
:1021500021EE000A40F2F41330EE040AC2F200034A
:10216000BDEEC00A1B6885ED040A586AB0F5004F41
:10217000A8BFA0F5803095ED054A03EE100AB8EE31
:10218000C33AB8EEC44A22EE042A21EE031A31EE15
:10219000021ABDEEC11AB7F5004F85ED051AA4BFAE
:1021A000A7F58030A860B6F5004F10EE107AA4BFF6
:1021B000A6F58030E860B7F5004F11EE106AA4BFB5
:1021C000A7F580372F61B6F5004FA4BFA6F5803084
:1021D000686100EE107A0020B8EEC00ACCF8240046
:1021E000486250625862B1EE400A204602F0BAF8E6
:1021F00095ED031AB0EE40BAB8EEC10A04F1200022
:1022000002F0B0F895ED051AB0EE40AAB8EEC10A9A
:1022100004F1400002F0A6F895ED021AB0EE409AE3
:10222000B8EEC10AB1EE400A04F1600002F09AF87B
:102230009FEDDBCAB0EE408AB4EE4CBAB0EE4C0A69
:10224000F1EE10FAB8BFB0EE4B0A10EE100AFEF72E
:10225000BFF99FEDCB0B044655EC106B32462B4675
:102260000F46CDE90065FEF764F99FEDC70B002826
:102270005BEC108B1CBF2F46344620463946424645
:102280005B4647EC1B4BFEF754F9054620463946A2
:1022900042465B46FEF768F90646002818BF01264D
:1022A0008DED06BB9DF81F00394680F080008DF84B
:1022B0001F00DDE906A9204642465B46002D18BFF7
:1022C0000125FEF736F9002804BFA246B94640F6BC
:1022D0000004C4F20204204604212A46FEF7BEFD93
:1022E000204608213246FEF7B9FD9FEDA90B504666
:1022F00053EC102B4946CDE90423FEF739F89FED46
:10230000A60B53EC102BCDE90223FEF7A3F8FEF742
:1023100046F940F23C21C2F200010968B4EE4CAA31
:10232000B0EE4C0A4863F1EE10FAB8BFB0EE4A0ABC
:1023300010EE100AFEF74CF9009E019D32462B4626
:1023400004460F46FEF7F5F800281CBF2F4634461A
:102350002046394642465B4647EC1A4BFEF7E9F801
:1023600005462046394642465B46FEF7FDF80646DE
:10237000002818BF01268DED08AB9DF827003946CF
:1023800080F080008DF82700DDE908A9204642464C
:102390005B46002D18BF0125FEF7CBF8002804BFCF
:1023A000A246B94640F60004C4F2020420460121C8
:1023B0002A46FEF753FD204602213246FEF74EFD27
:1023C000DDE9042350464946FDF7D2FFDDE902234B
:1023D000FEF740F8FEF7E3F840F23C21C2F20001BC
:1023E0000968B4EE4C9AB0EE4C0A8863F1EE10FA2C
:1023F000B8BFB0EE490A10EE100AFEF7E9F8009DEA
:10240000019E2A46334604460F46FEF792F80028FE
:102410001CBF37462C462046394642465B4647ECB1
:10242000194BFEF7A1F805462046394642465B4661
:10243000FEF77FF80646002818BF01268DED0A9B9F
:102440009DF82F00394680F080008DF82F00DDE9DF
:102450000AA9204642465B46002D18BF0125FEF71B
:1024600068F8002804BFA246B94640F60004C4F24A
:10247000020420464FF480712A46FEF7EFFC204606
:102480004FF400713246FEF7E9FCDDE904235046C3
:102490004946FDF76DFFDDE90223FDF7DBFFFEF79F
:1024A0007EF840F23C21C2F200010968B4EE4C8A89
:1024B000C863F1EE10FAB8BFB0EE48CA1CEE100ABD
:1024C000FEF786F8009D019E2A46334604460F46D5
:1024D000FEF72FF800281CBF37462C462046394609
:1024E00042465B4647EC184BFEF73EF80546204651
:1024F000394642465B46FEF71CF80646002818BFE0
:1025000001268DED0C8B9DF83700394680F0800058
:102510008DF83700DDE90CA9204642465B46002DC8
:1025200018BF0125FEF705F8002804BFA246B946EA
:1025300040F60004C4F2020420464FF400612A462B
:10254000FEF78CFC20464FF480513246FEF786FCA5
:10255000DDE9042350464946FDF70AFFDDE9022381
:10256000FDF778FFFEF71BF840F23C21C2F20001B4
:10257000096808640EB0BDEC0A8B01B0BDE8F08FAD
:1025800000000000008051C00000000000000000BA
:102590000000000000409F40000000000000594083
:1025A00000008C427047000070B582B0044690F87D
:1025B0003E0020280ED113460A4600294FF00100A4
:1025C00018BF002B02D102B070BD00BF94F83C00D0
:1025D000012803D1022002B070BD00BF012084F8A1
:1025E0003C00206300262220A262A385266484F892
:1025F0003E002168A06B43F6556C43F6B17E43F66E
:10260000D945C0F6000CC0F6000EC0F60005043136
:10261000C0E90FCEC0E91356FEF7DEFA0196206836
:1026200001680191416801910199216984F83C6038
:1026300031B300BF50E8030F216840F4807041E8D7
:102640000302EAB1206850E8030F216840F480706B
:1026500041E80302A2B1206850E8030F216840F46A
:10266000807041E803025AB1206850E8030F2168E6
:1026700040F4807041E8030212B12068DAE700BF3D
:10268000206850E8050F216840F0010041E805028C
:10269000E2B1206850E8050F216840F0010041E8F0
:1026A00005029AB1206850E8050F216840F001004A
:1026B00041E8050252B1206850E8050F216840F05A
:1026C000010041E80502002ADAD100BF206850E885
:1026D000050F216840F0400041E80502DAB12068AA
:1026E00050E8050F216840F0400041E8050292B132
:1026F000206850E8050F216840F0400041E80502DD
:102700004AB1206850E8050F216840F0400041E8D8
:102710000502002ADAD1206B012839D1002000906F
:1027200021680A6800924A680092009A51E8031FE3
:10273000226841F0100142E80313002B3FF443AF3D
:10274000206850E8030F216840F0100041E80302C0
:1027500012B3206850E8030F216840F0100041E8F0
:102760000302CAB1206850E8030F216840F010004E
:1027700041E8030282B1206850E8030F216840F06D
:10278000100041E80302002A4FF00000D8D11AE7F8
:10279000012002B070BD00BF002002B070BD00007B
:1027A0002DE9F04F81B02DED108B86B00029084641
:1027B000059100F0158240F298399FED358B9FED21
:1027C000369B9FED37BA9FED38CB9FED39DA9FED01
:1027D00039EA9FED39FBDFED3AAADFED3ABA002482
:1027E000C2F20009B3EE00AA0CE000BF40F2543080
:1027F000C2F200004946C822FFF7D6FE059884427F
:1028000080F2EE8119F80400A346552804F1010472
:10281000F8D10BEB090519F80420A878E97895F8A8
:102820000480131895F805A00B44434495F806C09E
:10283000534495F807E0634403EB0E072B7A6E7A56
:102840001F4437445537AD7AFFB2AF42CED1513A2B
:10285000052A13D8DFE812F03800C800240112005E
:1028600012000600180440EA066040EA0E2040F21A
:1028700018116044C2F20001086000BF40F29839AC
:102880000BF10B04C2F20009B0E700BF00BF00BFAC
:102890000000000000003040000000000000003F89
:1028A000000000C200BF00BF0000000000409F40C9
:1028B0000000FA4400007AC5000000000080664075
:1028C0000000B4C30000344340EA012000EE100AC7
:1028D000B8EEC00A10EE100ACDE903ECFDF778FE61
:1028E00059EC182B4B460292FDF742FD064640F28A
:1028F0001000C2F20000D0ED00DA0C461DEE900A86
:10290000FDF766FE0F460246304621463B4614461A
:10291000FDF72EFD56EC192B33460192FDF728FDED
:10292000FDF769FE40F2A005C2F200050EEE900A26
:10293000286048EA0A2000EE100AB8EEC00A10EE3D
:10294000100AFDF745FE029D4B462A46FDF710FD95
:1029500022463B46FDF70CFDDDF804803346424637
:10296000FDF706FDFDF747FE824640F2A000C2F2E9
:102970000000C0F804A0DDE9031040EA012000EEE9
:10298000100AB8EEC00A10EE100AFDF721FE2A4622
:102990004B46FDF7EDFC22463B46FDF7E9FC42467F
:1029A0003346FDF7E5FCFDF726FE2DEE8A0AB4EE70
:1029B0006E0A40F2A001F1EE10FAC2F20001886046
:1029C00040F3DE8001EE10AAB4EE410AF1EE10FAF7
:1029D00040F3E88001EE100AB4EE410AF1EE10FA7D
:1029E0003FF74CAFF0E000BF40EA012000EE100AD4
:1029F000B8EEC00A10EE100ACDE903ECFDF7E8FDD1
:102A000059EC1C6B32464B46FDF7B2FC57EC194BA8
:102A100022463B46FDF7ACFCFDF7EDFD40F22855A4
:102A2000C2F20005286048EA0A2000EE100AB8EE5B
:102A3000C00A10EE100AFDF7CBFD32464B46FDF7FB
:102A400097FC22463B46FDF793FCFDF7D4FD6860FA
:102A5000DDE9031040EA012000EE100AB8EEC00ADA
:102A600010EE100AFDF7B4FD32464B46FDF780FC30
:102A700022463B46FDF77CFCFDF7BDFD00EE100A4B
:102A8000B4EE4D0AF1EE10FAA8607FF7F7AE40F20F
:102A9000285030EE0E0AC2F2000080ED020AEDE688
:102AA00040EA012000EE100AB8EEC00A10EE100A4B
:102AB000CDF810C07746FDF78BFD55EC1F6B324605
:102AC0002B46FDF755FC59EC194B22464B46FDF7BA
:102AD0004FFCFDF790FD0DEE900A48EA0A2000EE4B
:102AE000100AB8EEC00A10EE100AFDF771FD32466A
:102AF0002B46FDF73DFC22464B46FDF739FCFDF722
:102B00007AFD0EEE900A049840EA072000EE100AC3
:102B1000B8EEC00A10EE100AFDF75AFD32462B46F9
:102B2000FDF726FC22464B46FDF722FCFDF763FD30
:102B3000F4EE6BDA00EE100A3DEEAA1AF1EE10FA8E
:102B4000F4EE6BEA40F2AC00C8BFF0EE41DA3EEEC4
:102B5000AA1AF1EE10FAB4EE6B0AC2F20000C8BF76
:102B6000F0EE41EA30EE2A1AF1EE10FAC8BFB0EEEC
:102B7000410AC0ED00DAC0ED01EA80ED020A7DE60F
:102B80002DEE8B1A40F2A00131EE2E1AC2F2000196
:102B900081ED001A01EE10AAB4EE410AF1EE10FA2E
:102BA0003FF718AF2DEE8B2A40F2A00132EE011A4A
:102BB000C2F2000181ED011A01EE100AB4EE410AE1
:102BC000F1EE10FA3FF75AAE2DEE8B0A40F2A0005C
:102BD00030EE010AC2F2000080ED020A4EE600BFAC
:102BE00006B0BDEC108B01B0BDE8F08F006844F278
:102BF0000041C4F20001884218BF704740F2180C2F
:102C0000C2F2000CDCF8040040F254510023C2F27E
:102C10000001C82280F83C308CF80030FFF7C4BCBB
:102C2000B0B582B0044600680168C368426901F02B
:102C30002F05202D03F0200506D12DB1204602B02E
:102C4000BDE8B04001F0BEB95FEA017C1EBF02F0F2
:102C5000010E03F4907212EB0E0255D1226B012A81
:102C600005D111F0100218BF13F0100236D10A0678
:102C700022D513F080021FD094F83D10212941D1B4
:102C8000A168B1F5805F03D12169002900F06C8251
:102C9000216A4A1C226209784160E18C01390A04E8
:102CA000E1842FD1C16821F08001C160C16841F089
:102CB0004001C16002B0B0BD490623D513F0400108
:102CC00020D0C16821F04001C1602021204684F855
:102CD0003D1002B0BDE8B04000F092BC002101916F
:102CE000016801914168019101994169490600F12A
:102CF0008B80A18DE28DE38D002B1CBF891A5FEACA
:102D000001420CD102B0B0BDCA0718BF13F48072E3
:102D100040F032814A0700F135813AE1206850E8FD
:102D2000030F226820F4907042E80303DBB12068AF
:102D300050E8030F226820F4907042E8030393B137
:102D4000206850E8030F226820F4907042E80303E3
:102D50004BB1206850E8030F226820F4907042E8DD
:102D60000303002BDAD1206850E8050F226820F019
:102D7000010042E80503DBB1206850E8050F226836
:102D800020F0010042E8050393B1206850E8050FE8
:102D9000226820F0010042E805034BB1206850E8AA
:102DA000050F226820F0010042E80503002BDAD16C
:102DB000202084F83E0000202063206850E8030FA4
:102DC000226820F0100042E80303DBB1206850E8DD
:102DD000030F226820F0100042E8030393B120683B
:102DE00050E8030F226820F0100042E803034BB1C3
:102DF000206850E8030F226820F0100042E8030327
:102E0000002BDAD189B2B0E0A26B11684B689DB299
:102E1000002D3FF477AFA18D8D42BFF473AFE385F2
:102E2000D269B2F5807F00F09D8050E8030F2168E1
:102E300020F4807041E80302E2B1206850E8030FFB
:102E4000216820F4807041E803029AB1206850E8BC
:102E5000030F216820F4807041E8030252B120681A
:102E600050E8030F216820F4807041E803020AB1A2
:102E70002068DAE7206850E8050F216820F001009B
:102E800041E80502DAB1206850E8050F216820F01A
:102E9000010041E8050292B1206850E8050F216861
:102EA00020F0010041E805024AB1206850E8050F12
:102EB000216820F0010041E80502002ADAD12068EB
:102EC00050E8050F216820F0400041E80502DAB122
:102ED000206850E8050F216820F0400041E8050215
:102EE00092B1206850E8050F216820F0400041E8C9
:102EF00005024AB1206850E8050F216820F0400023
:102F000041E80502002ADAD1202084F83E000020A2
:102F10002063206850E8030F216820F0100041E88A
:102F20000302DAB1206850E8030F216820F0100096
:102F300041E8030292B1206850E8030F216820F0B5
:102F4000100041E803024AB1206850E8030F2168ED
:102F500020F0100041E80302002ADAD1A06BFDF74F
:102F60004DFCA18DE08D081A81B2204602B0BDE86B
:102F7000B040FFF715BC00BF226C42F00102226492
:102F80004A0706D5BEF1000F03D0226C42F00202C0
:102F900022648A0706D5BEF1000F03D0226C42F0EE
:102FA00004022264BCF1000F06D555EA0E0203D0DC
:102FB000226C42F008022264226C002A3FF4A2AE86
:102FC00011F0200118BF002D03D0204600F0FAFFB9
:102FD00020684169226C01F0400102F00802891862
:102FE00000F0A28050E8030F216820F4907041E8BF
:102FF0000302C2B3206850E8030F216820F49070E8
:1030000041E803027AB3206850E8030F216820F4F6
:10301000907041E8030232B3206850E8030F216842
:1030200020F4907041E80302EAB12068DAE700BFBB
:10303000206850E8050F216820F0010041E80502F2
:10304000DAB1206850E8050F216820F0010041E85E
:10305000050292B1206850E8050F216820F00100B8
:1030600041E805024AB1206850E8050F216820F0C8
:10307000010041E80502002ADAD1206B012824D1A1
:10308000206850E8030F216820F0100041E8030297
:10309000DAB1206850E8030F216820F0100041E801
:1030A000030292B1206850E8030F216820F010005D
:1030B00041E803024AB1206850E8030F216820F07C
:1030C000100041E80302002ADAD1202084F83E00F3
:1030D000002020632068416949063FD550E8050F6C
:1030E000216820F0400041E805022AB3206850E83A
:1030F000050F216820F0400041E80502E2B1206898
:1031000050E8050F216820F0400041E805029AB11F
:10311000206850E8050F216820F0400041E80502D2
:1031200052B12068DAE700BF2046FFF75FFD0020BC
:10313000206402B0B0BD00BFA06B78B143F6CD41B2
:10314000C0F600010165FDF7A3FB00283FF4DAADEE
:10315000A06B016D02B0BDE8B0400847204602B048
:10316000BDE8B040FFF742BD216A31F8022B6FF392
:103170005F224260216290E5002804BF0120704771
:1031800010B5044690F83D0028B9002084F83C00B2
:10319000204600F021F8242084F83D002068C16812
:1031A00021F40051C160204600F08CFF20680169C5
:1031B00021F490410161416921F02A014161C16816
:1031C00041F40051C16000202021206484F83D10AA
:1031D00084F83E1010BD000070B586B0044621682A
:1031E00044F20042C4F2000200209142CDE9040002
:1031F000CDE90200019037D044F60000C4F200008F
:10320000814265D041F20000C4F20100814240F0E9
:10321000B080002043F630010090C4F202014A69F8
:1032200042F010024A614A6902F010020092009ACC
:1032300000900A6842F001020A60096801F0010189
:10324000009100994FF4C06101910221CDE9021073
:1032500003200490072005900020C4F2020001A979
:10326000FDF71EFD06B070BD43F630010090C4F2BC
:1032700002010A6942F400320A610A6902F400326A
:103280000092009A00900A6842F008020A600968F9
:1032900001F0080100910099602101910221CDE91E
:1032A000021003200490072005900020C4F20200C1
:1032B00000F5406001A9FDF7F3FC26200021002263
:1032C000FDF752FE2620FDF73FFE06B070BD00BFA1
:1032D000002643F630000096C4F20200016941F472
:1032E00080210161016901F480210091009900961B
:1032F000016841F002010160006801A900F00200CC
:10330000009000984FF4406001900220CDE9020641
:1033100003200490072005900020C4F2020000F56D
:103320008060FDF7BDFC40F2B80546F22800C2F20D
:103330000005C4F202004FF000614FF4806285E89E
:1033400043002846C5E90362C5E90566C5E9076685
:103350006E62FDF78FFB002818BFFDF749FA2720A2
:1033600000210022A563AC63FDF7FEFD2720FDF7D9
:10337000EBFD06B070BD0000704700007047000014
:103380002DE9F04381B0044690F83D0020280DD18E
:103390000F4600294FF0010000F0DD801646002A9C
:1033A00000F0D98094F83C00012803D1022001B03C
:1033B000BDE8F083012084F83C004FF00009212093
:1033C0001D46C4F8409084F83D00FDF74DFDA684ED
:1033D000E684A1680646B1F5805F07D12069002820
:1033E0001CBF38464F46B846074601E04FF000087C
:1033F00084F83C90E18C2068002900F08B8005F176
:1034000001090AE047B317F8011B4160E18C01395B
:10341000E184E18C002900F07D8001680906F1D487
:10342000B9F1000F0AD0EDB1FDF71EFD801BA842D7
:1034300018D8206801680906F6D5E3E7016809068F
:10344000E0D4016809065CBF01685FEA0161D9D474
:1034500001680906F2D5D5E738F8021B00276FF39B
:103460005F21D2E7206850E8030F216820F4D07074
:1034700041E80302BAB3206850E8030F216820F442
:10348000D07041E8030272B3206850E8030F21684E
:1034900020F4D07041E803022AB3206850E8030FFB
:1034A000216820F4D07041E80302002ADAD11AE042
:1034B000206850E8050F216820F0010041E805026E
:1034C000DAB1206850E8050F216820F0010041E8DA
:1034D000050292B1206850E8050F216820F0010034
:1034E00041E805024AB1206850E8050F216820F044
:1034F000010041E80502002ADAD1202084F83D00CD
:1035000084F83E00002084F83C00032001B0BDE8B0
:10351000F08300BF0168490619D4FDB1691C0DD1C3
:103520000168490613D4016849065CBF01685FEA77
:1035300041610CD401684906F2D508E0FDF794FC1E
:10354000801BA8420AD8206800684006F6D52020D3
:1035500084F83D00002001B0BDE8F083206850E809
:10356000030F216820F4D07041E80302E2B3206821
:1035700050E8030F216820F4D07041E803029AB3A9
:10358000206850E8030F216820F4D07041E803025E
:1035900052B3206850E8030F216820F4D07041E84E
:1035A0000302002ADAD11FE0206850E8050F2168E5
:1035B00020F0010041E80502002A9ED0206850E872
:1035C000050F216820F0010041E80502002A3FF4C0
:1035D00094AF206850E8050F216820F0010041E811
:1035E0000502002A3FF489AF206850E8050F2168E2
:1035F00020F0010041E80502002AD5D17DE7000056
:1036000070470000FEE7000080B582B00020019006
:1036100043F63000C4F202000168002241F40011B8
:1036200001600068002100F40010019001980C2056
:10363000FDF79AFC0C2002B0BDE88040FDF784BC89
:1036400070B586B0002543F6300005950095C4F2AC
:103650000200016840F6000441F080010160016849
:10366000C4F2020401F08001009100990095016804
:10367000002241F004010160016841F60F3601F0BB
:103680000401009100990095016841F00101016079
:10369000016801F00101009100990095016841F075
:1036A00010010160016801F010010091009900957E
:1036B000016841F002010160016801F0020100911E
:1036C00000990095016841F008010160006841F629
:1036D0000F3100F00800009000982046FDF7BEFB77
:1036E0001120CDE9020501A9204601960495FDF7B8
:1036F000D7FA06B070BD000010B58CB040F21C10B7
:1037000000210024C2F20000C4F20101C0E900144B
:103710000321CDE9031401214FF6FF72CDE9051411
:10372000CDE9091403A9CDE90044C0E90242C0E98A
:1037300004448461CDE907440B94FEF73BF800286C
:1037400018BFFDF755F840F21C10C2F200006946A0
:10375000CDE90044FDF728FF002818BFFDF748F821
:103760000CB010BD80B58CB040F264100021C2F2E4
:1037700000004FF08042C0E9002103224FF6FF73A2
:10378000CDE903210122CDE90011C0E90213016155
:103790008161CDE90521CDE90711CDE909210B9121
:1037A00003A9FEF707F8002818BFFDF721F840F23B
:1037B0006410C2F200006946FDF7F6FE002818BF4B
:1037C000FDF716F80CB080BD80B58CB040F2AC109F
:1037D00040F200420021C2F20000C4F20002C0E93F
:1037E000002103224FF6FF73CDE903210122CDE929
:1037F0000011C0E9021301618161CDE90521CDE924
:103800000711CDE909210B9103A9FDF7D3FF00288A
:1038100018BFFCF7EDFF40F2AC10C2F200006946A1
:10382000FDF7C2FE002818BFFCF7E2FF0CB080BD18
:1038300080B58CB040F2F41040F600020021C2F2D4
:103840000000C4F20002C0E9002103224FF6FF731A
:10385000CDE903210122CDE90011C0E90213016184
:103860008161CDE90521CDE90711CDE909210B9150
:1038700003A9FDF79FFF002818BFFCF7B9FF40F22E
:10388000F410C2F200006946FDF78EFE002818BF52
:10389000FCF7AEFF0CB080BDB0B590B040F23C205C
:1038A00040F600450021C2F200004FF4FA63C4F272
:1038B0000005CDE90811CDE90611CDE90411012279
:1038C000C0E9021301618021C0E900528161FEF765
:1038D000D1FA002818BFFCF78BFF40F23C20C2F25F
:1038E000000008A9FDF760FE002818BFFCF780FF64
:1038F000602001900020CDE90200059040F23C20BC
:10390000C2F2000001A90022FEF7A2F9002818BFA8
:10391000FCF76EFF40F23C20C2F2000001A9042235
:10392000FEF796F9002818BFFCF762FF40F23C2032
:10393000C2F2000001A90822FEF78AF9002818BF88
:10394000FCF756FF40F23C24C2F2000401A92046D5
:103950000C22FEF77DF9002818BFFCF749FF20680C
:10396000A84201D010B0B0BD002043F630010B904A
:10397000C4F202010A6842F001020A60096801F01B
:1039800001010B910B990F210B910221CDE90C1034
:10399000CDE90E0105F5FA300BA9FDF781F910B05C
:1039A000B0BD000080B582B040F284200021C2F298
:1039B000000041F200424FF0C80CCDE90011C4F202
:1039C000000242F2D003C0E9021C8021C0E90023BA
:1039D0008161FDF745FE002818BFFCF709FF40F2A2
:1039E0008420C2F200006946FDF7DEFD002818BF02
:1039F000FCF7FEFE02B080BD80B540F2CC2041F263
:103A00000001C2F20000C4F2010100234FF00C0CCF
:103A10004FF4E13280E80E00C0E90333C0E905C38A
:103A2000C361FFF7A9FB002808BF80BDBDE8804047
:103A3000FCF7DEBE80B540F2103044F20041C2F225
:103A40000000C4F2000100234FF00C0C4FF4E132EF
:103A500080E80E00C0E90333C0E905C3C361FFF786
:103A60008BFB002808BF80BDBDE88040FCF7C0BECE
:103A700080B540F2543044F60001C2F20000C4F2B6
:103A8000000100234FF00C0C4FF4E13280E80E00EF
:103A9000C0E90333C0E905C3C361FFF76DFB00282C
:103AA00008BF80BDBDE88040FCF7A2BEFEE7000075
:103AB000FEE700007047000070470000FDF7DAB92C
:103AC000B0B592B0002443F64000CDE90A44CDE9F8
:103AD00008440594CDE90344CDE901440094C4F2BF
:103AE00002000168022541F080510160006800F089
:103AF00080500090009847F200000094C4F200004B
:103B0000016841F4804101600068A82100F4804010
:103B100000900098012006904FF4803007904FF4F9
:103B200080000D9004200E90119006A80C95CDE910
:103B30000F15FDF763FB28B1EFF3108072B600BFDD
:103B4000FEE700BF0F20CDE901054FF4A05004901F
:103B50004FF48050059001A805210394FDF740FA29
:103B600020B1EFF3108072B6FEE700BF12B0B0BD17
:103B70004EF68850CEF20000016841F470010160F9
:103B80007047000040F28420C2F20000FDF7A6BF9B
:103B900010B540F6FF3E0368C4F2000E40F2004C40
:103BA0007045C4F2010C27DCB0F1804F31D040F2F7
:103BB0000042C4F2000290422BD040F60002C4F250
:103BC0000002904225D041F6FF72C4F200029042FA
:103BD00029DC70453CDCB0F1804F5FD040F2004200
:103BE000C4F20002904259D040F60002C4F2000232
:103BF000904253D056E000BF40F60042C4F20002AB
:103C0000904206D0604504D00022C4F201029042E6
:103C1000D9D14A6823F07003134341F6FF72C4F20E
:103C200000029042D5DD43F6FF72C4F201029042D9
:103C300022DC42F20002C4F2000290422ED00022A6
:103C4000C4F20102904229D0604527D02AE000BF8B
:103C500040F60042C4F2000290421FD041F600023A
:103C6000C4F20002904219D041F60042C4F20002B0
:103C7000904213D016E000BF44F20002C4F20102E9
:103C800090420BD044F60002C4F20102904205D0EB
:103C900044F20042C4F20102904203D1CA6823F404
:103CA0004073134323F080024B69D1F800E08C6825
:103CB0001A430260C46240F48062C0F828E06245A2
:103CC00004BF096901630121416110BD806B0021BE
:103CD000C185C184FEF78ABF806B01684A6990F88C
:103CE0003D30212B2ED112F080022BD00022C28435
:103CF00051E8031F026821F0C00142E80313EBB151
:103D0000016851E8031F026821F0C00142E8031373
:103D1000A3B1016851E8031F026821F0C00142E825
:103D200003135BB1016851E8031F026821F0C00171
:103D300042E8031313B10168DAE700BF202180F8DD
:103D40003D1001684A6990F83E30222B7CD112F078
:103D5000400279D00022C28551E8031F026821F495
:103D6000907142E80313C3B3016851E8031F02686E
:103D700021F4907142E803137BB3016851E8031FFB
:103D8000026821F4907142E8031333B3016851E8EB
:103D9000031F026821F4907142E80313EBB101683C
:103DA000DAE700BF016851E8051F026821F0010150
:103DB00042E80513DBB1016851E8051F026821F0F4
:103DC000010142E8051393B1016851E8051F02683B
:103DD00021F0010142E805134BB1016851E8051FCC
:103DE000026821F0010142E80513002BDAD1016BD2
:103DF000012924D1016851E8031F026821F0100154
:103E000042E80313DBB1016851E8031F026821F0A7
:103E1000100142E8031393B1016851E8031F0268DF
:103E200021F0100142E803134BB1016851E8031F70
:103E3000026821F0100142E80313002BDAD120219F
:103E400080F83E1000210163016C41F01001016413
:103E5000FEF7CCBE0168806B0968C90500F19F8040
:103E60000021C185016851E8031F026821F48071B7
:103E700042E80313E3B1016851E8031F026821F42B
:103E8000807142E803139BB1016851E8031F026887
:103E900021F4807142E8031353B1016851E8031F14
:103EA000026821F4807142E80313002BDAD100BFCD
:103EB000016851E8051F026821F0010142E805137D
:103EC000BBB3016851E8051F026821F0010142E817
:103ED000051373B3016851E8051F026821F0010161
:103EE00042E805132BB3016851E8051F026821F071
:103EF000010142E80513002BDAD11AE0016851E80C
:103F0000051F026821F0400142E80513DBB101689A
:103F100051E8051F026821F0400142E8051393B102
:103F2000016851E8051F026821F0400142E80513CD
:103F30004BB1016851E8051F026821F0400142E8D9
:103F40000513002BDAD1202180F83E10016B0129E6
:103F500025D100BF016851E8031F026821F010015C
:103F600042E80313DBB1016851E8031F026821F046
:103F7000100142E8031393B1016851E8031F02687E
:103F800021F0100142E803134BB1016851E8031F0F
:103F9000026821F0100142E80313002BDAD1016B13
:103FA000012918BFFFF7E8B9818DFEF7F9BB0000C2
:103FB000806B016B012918BFFFF7E0B9818D4908BB
:103FC000FEF7EEBB81B090F83E10222920D1836825
:103FD000B3F5805F08D10169002965D000F128019F
:103FE0000A6803685B680AE0014651F8282F13B994
:103FF0000369002BF5D003685B6803F07F0313703F
:104000000A6801320A60C18D01390A04C18501D0F4
:1040100001B070470168CA6822F02002CA60CA680D
:1040200022F48072CA604A6922F001024A612022A9
:1040300080F83E20026B012A40D10022026300BFBB
:1040400051E8031F026821F0100142E803130168E0
:10405000DBB151E8031F026821F0100142E80313AD
:10406000016893B151E8031F026821F0100142E892
:10407000031301684BB151E8031F026821F01001DE
:1040800042E803130168002BDAD10A68D20606D58C
:10409000002200920A680092496800910099818D7F
:1040A00001B0FEF77DBB00BF0168826A49686FF30B
:1040B0005F2122F8021B8262A5E700BF01B0FFF773
:1040C0005BB9000010B504460068D4E902C2236958
:1040D000016921F4405111430161626943EA0C0115
:1040E000E3691143C268194349F20C639A431143CF
:1040F000C1604169A26921F4407141F2004311435A
:1041000040F48062C4F201039A42416102D1FDF79A
:104110002BF801E0FDF714F8E16963681922B1F5A5
:10412000004FA0FB02011FD15A00DB0FFCF748F83B
:1041300048F21F51C5F2EB11A0FB01235A096FF0A1
:10414000630302FB0300322303EBC000A0FB010169
:104150004FF4F87000EA111000EB0210C1F34211A5
:1041600008442168886010BD9A009B0FFCF728F86E
:1041700048F21F51C5F2EB11A0FB01235A096FF061
:10418000630302FB0300322303EB0010A0FB0101D9
:10419000F02000EA511000EB0210C1F34311084473
:1041A0002168886010BD000040F21030C2F20000AB
:1041B000FEF736BD40F25430C2F20000FEF730BDCB
:1041C000FEE7000040F26040C2F20000006840F2EA
:1041D0001401C2F2000103224FF0FF33FFF7D0B801
:1041E00040F26041C2F2000108607047FCF750FEE7
:1041F000FFF766FCFFF724FAFFF706FAFFF77CFAF1
:10420000FFF7B0FAFFF7E0FAFFF712FBFFF744FB06
:10421000FFF7F2FBFFF70EFCFFF72AFCFFF7C2FBEC
:1042200040F23C24C2F20004204600210025FDF7A4
:104230006DFE20460421FDF769FE20460821FDF7AA
:1042400065FE20460C21FDF761FE40F26410C2F2CB
:1042500000003C21FDF7E2FB40F2AC10C2F200008E
:104260003C21FDF7DBFB40F2F410C2F200003C21E0
:10427000FDF7D4FB40F21C10C2F200003C21FDF718
:10428000CDFB40F28420C2F20000FDF73DFA40F27F
:104290005434C2F2000440F29831C2F200012046C8
:1042A000C822FEF781F940F21706C2F2000601208B
:1042B00030702046FFF794FF4FF4FA70FCF7DCFCF7
:1042C000FFF780FF4FF4FA70FCF7D6FC40F264442D
:1042D0009FED209A9FED20AAC2F20004B7EE008A5B
:1042E0002046B0EE480AF0EE490AB0EE4A1A3570A0
:1042F00000F074F804F12000B0EE480AF0EE490A2C
:10430000B0EE4A1A00F06AF804F14000B0EE480A34
:10431000F0EE490AB0EE4A1A00F060F804F16000CD
:10432000B0EE480AF0EE490AB0EE4A1A00F056F82C
:1043300040F23454C2F20004DFED080A9FED081A7F
:104340002046B0EE480A00F049F8E5610A20FCF783
:1043500093FCFBE7CDCC4C3D000000000AD7A33D09
:104360000AD7233C90ED071A90ED043A30EE411A3B
:104370009FED184A31EE033AB4EE443A80ED031A49
:1043800090ED000A90ED012AF1EE10FAC8BFB0EEF0
:10439000443A9FED114A90ED025AB4EE443AF1EEE0
:1043A00010FAB8BFB0EE443A80ED043A22EE032A88
:1043B00090ED053A20EE010A30EE020A31EE432A72
:1043C00025EE022A32EE000A80ED060A80ED051A7B
:1043D000704700BF00007A4400007AC40021C0E9A1
:1043E0000311C0E90511C16180EC030A704702E0C6
:1043F00008C8121F08C1002AFAD170477047002070
:1044000001E001C1121F002AFBD17047000000002B
:104410000000000001020304060708090000000074
:10442000010203040006101600061016504400088E
:104430000000002018000000EE4300086844000857
:1044400018000020080A0000FE43000800000000D9
:1044500001000000100000000024F400CDCCCC3E90
:08446000CDCC1C41FFAA520261
:040000050800018965
:00000001FF
