:020000040800F2
:10000000B83C00209D010008A14F000849440008A9
:100010009D4F00080D0E0008115800080000000058
:10002000000000000000000000000000095100086E
:10003000290E000800000000A54F00080D5100081F
:10004000B7010008B7010008B7010008B7010008B0
:10005000B7010008B7010008B7010008B7010008A0
:10006000B7010008B7010008B7010008B701000890
:10007000110E0008B7010008B7010008B701000819
:100080001D0E0008B7010008B7010008B7010008FD
:10009000B7010008B7010008B7010008B701000860
:1000A000B7010008B7010008B7010008B701000850
:1000B000B7010008B7010008B7010008B701000840
:1000C000B7010008B7010008B7010008B701000830
:1000D000B7010008B7010008F957000805580008E3
:1000E000B7010008B7010008B7010008B701000810
:1000F000B7010008B7010008B7010008B701000800
:10010000B7010008B7010008B7010008B7010008EF
:10011000B7010008B7010008B7010008D551000871
:10012000B7010008B7010008B7010008B7010008CF
:10013000B7010008B7010008B7010008B7010008BF
:10014000B7010008B7010008B7010008B7010008AF
:10015000B7010008B7010008B7010008B70100089F
:10016000B7010008B7010008B7010008B70100088F
:10017000B7010008B7010008B7010008000000003F
:10018000B7010008B7010008DFF80CD000F036FC1A
:1001900000480047A9590008B83C0020064880479D
:1001A00006480047FEE7FEE7FEE7FEE7FEE7FEE75C
:1001B000FEE7FEE7FEE7FEE7C151000889010008FF
:1001C0002DE9F05F0546002092469B46884606468C
:1001D000814640241BE0284641464746224600F01F
:1001E000D5FA53465A46C01A914110D311461846C3
:1001F000224600F0BCFA2D1A67EB01084F46224652
:100200000120002100F0B3FA17EB00094E41201E37
:10021000A4F10104DFDC484631462A464346BDE8E6
:10022000F09F2DE9FE43994615468846074601ACE6
:10023000022942D3002D40D000200290A8F10100F5
:100240004FF0FF36009022E000FB057201FB0570C5
:1002500011464A469047002805DC54F826003044F1
:1002600044F8260013E060682A4600FB057154F844
:10027000040C00FB057007E00B7890F800C001F853
:1002800001CB00F8013B521E002AF5D1764254F80A
:10029000040C61688842D7DC4B462A463846FFF793
:1002A000C0FF54F8040C4B46A8EB0001401C00FBB7
:1002B00005702A46491EFFF7B4FFBDE8FE8340EAF9
:1002C00001039B0703D009E008C9121F08C0042AD4
:1002D000FAD203E011F8013B00F8013B521EF9D2BB
:1002E0007047D2B201E000F8012B491EFBD27047E3
:1002F0000022F6E710B513460A4604461946FFF7F2
:10030000F0FF204610BD421C10F8011B0029FBD154
:10031000801A70472DE9FE4F804681EA0300C00F26
:100320000C46009021F0004123F00045B8EB02009C
:10033000A94105D24046214690461C460B4602463E
:1003400023F00040104347D0270DC7F30A00C3F342
:100350000A510290401A019040286BDAC3F313004F
:1003600040F4801B0098924620B10023D2EB030A90
:1003700063EB0B0B01985946C0F14002504600F068
:10038000F6F906460D4650465946019A00F00EFA17
:1003900010EB08006141002487EA115284EAE773F8
:1003A0001A4340D0009A62B3019A012A4FEA0752D9
:1003B00015DC001B61EB02014FF0004202EA07521C
:1003C000CDE90042001C41F5801132462B4600F079
:1003D00045FA03B0BDE8F08F40462146F9E7001B1F
:1003E00061EB0201001C41F5801300185B412018ED
:1003F000A2F5001747EB030140EAD570B6196D412D
:1004000011E06D084FEA360645EAC0754FEA07521B
:10041000001B61EB0201001C41F5801149084FEA05
:1004200030000019514132462B4603B0BDE8F04F71
:1004300000F005BA0098012240000023D0EB020230
:1004400063EBE073009821464FEAE074B8EB0000DC
:1004500061EB0401E9E783F000435BE781F00041D1
:1004600058E72DE9FE4F81EA030404F0004421F02F
:10047000004100944FF0000B23F0004350EA0104C8
:100480005ED052EA03045BD0C3F30A54C1F30A55A9
:100490002C44A4F2F3340194A0FB0254C1F31301E1
:1004A00041F48011C3F3130343F4801301FB0244AE
:1004B00000FB034E840A970A44EA815447EA8357B3
:1004C000A4FB076802958D0A05FB07854FEA932C6C
:1004D00004FB0C542705029D4FEA065847EA1637DD
:1004E000B5EB08056EEB070C870E920E47EA8117F5
:1004F00042EA8312A7FB0201B6EB0B0164EB000496
:100500002B0D43EA0C335E1844EB1C50DA4651467F
:10051000E7FB0201C5F313044FEA0B3343EA14531C
:100520004FEA0432019C43EA0603A4F10C0402944E
:10053000009CCDE900B400F091F903B0BDE8F08F64
:1005400000200146F9E72DE9F04D81EA030404F0AB
:10055000004B21F0004514464FF0000A23F0004103
:1005600050EA050220D054EA01021DD0C5F30A5713
:100570000246C5F31303C1F31300C1F30A5640F456
:10058000801543F48013A7EB0608101BD64608F22B
:10059000FD3873EB050002D308F1010801E0921861
:1005A0005B41B8F1000F03DA00200146BDE8F08D91
:1005B00000204FF48011064684460EE0171B73EBB3
:1005C000050705D3121B63EB050306434CEA010C38
:1005D00049084FEA300092185B4150EA0107EDD11B
:1005E00052EA030012D082EA040083EA05010843BC
:1005F00005D0101BAB4106D20122002306E00022E9
:100600004FF0004302E06FF0010253101AEB0600B6
:100610004CEB085110EB0A0041EB0B01BDE8F04D2B
:1006200000F00DB930B5041E71F1000404DB4FF089
:100630000044404264EB0101141E73F1000405DB29
:100640001C464FF00043524263EB0403101A8B41E7
:1006500001D2012030BD002030BD30B5041E71F143
:10066000000404DB4FF00044404264EB0101141E1F
:1006700073F1000405DB1C464FF00043524263EB6C
:100680000403101A8B4101D3012030BD002030BD7E
:100690000EB5C10F80EAE0700844CA07002140F29D
:1006A00033438DE80E000A460B4600F0D7F803B03E
:1006B00000BDC1F30A5210B5C1F3130140F2FF337C
:1006C00041F480119A4201DA002010BD40F2334318
:1006D0009A42A2F2334203DC524200F057F810BDB6
:1006E000904010BD00F0004230F000400AD0C10D33
:1006F00001F56071C0F3160042EA0151C2084007DB
:100700001143704700200146704701F0004330B4A8
:1007100021F0004150EA010206D00A0DA2F56072F4
:10072000C1F31301002A02DC30BC00207047440FE3
:1007300044EAC104C100E01830BC00EBC25000F034
:1007400047B830B50B46014600202022012409E0BD
:1007500021FA02F59D4205D303FA02F5491B04FA7A
:1007600002F52844151EA2F10102F1DC30BD202A59
:1007700004DB203A00FA02F1002070479140C2F1F8
:10078000200320FA03F3194390407047202A04DB2A
:10079000203A21FA02F00021704721FA02F3D040FA
:1007A000C2F120029140084319467047202A06DB17
:1007B000CB17203A41FA02F043EAE07306E041FA2F
:1007C00002F3D040C2F1200291400843194670471D
:1007D0000029A8BF7047401C490008BF20F0010055
:1007E000704710B4B0FA80FC00FA0CF050EA010433
:1007F00004BF10BC704749B1CCF1200421FA04F4C5
:1008000011FA0CF118BF012121430843A3EB0C019D
:10081000CB1D4FEA00614FEA102042BF002010BC00
:10082000704700EBC35010440029A4BF10BC7047B0
:10083000401C490008BF20F0010010BC704710B5F3
:10084000141E73F1000408DA401C41F100019218F3
:100850005B411A4301D120F0010010BD2DE9F04D9C
:1008600092469B4611B1B1FA81F202E0B0FA80F2F1
:1008700020329046FFF77BFF04460F4640EA0A000D
:1008800041EA0B0153465A46084313D0114653EA36
:10089000010019D0C8F140025046FFF777FF054626
:1008A0000E46504659464246FFF761FF084305D0C1
:1008B000012004E020463946BDE8F08D00200543C4
:1008C00046EAE0762C4337430A986305E40AA0EB36
:1008D00008000022FD0A44EA47540A3002D50020ED
:1008E0000146E9E7010510196941DDE908450019EC
:1008F0006941BDE8F04DA2E72DE9F04D00231A460D
:100900001B1A8A4103DB00200146BDE8F08DC1F3CC
:100910000A52C1F3130141F480154FF0000BD107C7
:1009200002D100186D41521E0027044640F2FF110B
:10093000384601EB620A3E468046024600204FF4EC
:100940008011FFF723FFC2197141BB1846EB01006C
:10095000B4EB030C75EB000C04D3E41A65EB000553
:1009600017460E46241908F101006D4180463428CF
:10097000E3DDF91946EB0600091BA84103D24FF04D
:10098000FF32134601E0002213461BEB070046EB43
:100990000A51BDE8F04DFFF752BFC1F30A52C1F34F
:1009A000130140F2FF3341F480119A4202DA002031
:1009B0000146704740F233439A42A2F2334202DCCE
:1009C0005242FFF7E3BEFFF7D2BE000030B5041E6F
:1009D00071F1000404DB4FF00044404264EB01017C
:1009E000141E73F1000405DB1C464FF00043524215
:1009F00063EB0403994208BF904230BD064C074D9B
:100A000006E0E06840F0010394E8070098471034DE
:100A1000AC42F6D3FFF7BCFBAC680008CC6800081A
:100A20002DE9F04F8BB040F2D060C2F200002621D9
:100A300028269325D824C0F2D6016B224FF0261326
:100A40006B27C0F26B06C0F22605C0F2280400F145
:100A5000280CC0F2D802C0F228078CE88E00C0E94A
:100A60000E36C0E91054D621932626252824C0F23C
:100A70002601D822D6234FF0D817C0F2D606C0F2EE
:100A80009305C0F2D80400F1480CC0F26B02C0F22A
:100A900093038CE88E00C0E91667C0E9185403F090
:100AA000D5FC04F0D7FE40F2C401C2F20001B1F956
:100AB000024040F23412B1F900B0C2F2000201204B
:100AC000022C1080C0F20881BBF1020FC0F28280BC
:100AD000601E0590ABF10100049043F2C870C2F2B1
:100AE0000000018842F6F050C2F20000871C40F27C
:100AF000C400C2F20000B0F84C2042F60045039258
:100B000000224FF0010AC2F200054E300A94CDF8DF
:100B100004B002900AE000BF069D0598079A099F5D
:100B200008990135824207F108074DD043F2C87099
:100B30000132C2F2000030F91200DDF808B000FA0C
:100B400081F180B2089001EBD1704FEA6009049CFA
:100B5000039807920997069526E000BF40F23412E9
:100B600040F2A8134FEA68001FFA8AF10AF1010A5D
:100B7000C2F20002C2F20003A2F800A0C7F80210FD
:100B800003EB810223F82100012127F8020CA7F8CA
:100B90000090A2F80290B0B205F8111B013C0BF1D5
:100BA000020B07F18807B7D0BBF900600FFA89F193
:100BB00006FA80F000EBD07848F34F0003F070FEA7
:100BC0000028CBD10021E6E70A9CDDF804B0022C16
:100BD000C0F2828042F6F05E4FF0000AC2F2000ED0
:100BE00000210CE040F2C400C2F2000044880999E0
:100BF000013120B21FFA81FA013850456CDD0FFA3D
:100C00008BF00328F4DB09910021002607E000BFE8
:100C100001360FFA8BF0B1B202388842E2DD01EB07
:100C200001130EEBC30232F93A0087B2002FEFD066
:100C300002EBCA08B8F90220002AE9D0013101EB21
:100C400001140EEBC40535F93A101FFA81F9B9F118
:100C5000000FDDD005EBCA05B5F902C0BCF1000FED
:100C6000D6D00A9542F60045C2F200052B4413F88F
:100C70000A30002BCCD02B1913F80A30002BC7D028
:100C800008440CEB020100EBD07001EBD17140F392
:100C90004F0041F34F01744603F002FEA6460028C0
:100CA000B6D00A9DB8F80400A988A9EB070292B251
:100CB00004F0B0FD2A88B8F80030A888B8F804100D
:100CC000D21A92B204F0A6FD40F2C400C2F20000B3
:100CD000B0F800B0A6469BE70FFA8BF00228C0F2EE
:100CE000918042F6F05C0026C2F2000C00210DE07B
:100CF00040F2C400C2F20000B0F800B00599013122
:100D00000FFA8BF08EB20138B0427BDD20B203289F
:100D1000F5DB002000250591099607E0DDE909646F
:100D2000013521B2A8B202398142E1DD06EB06139A
:100D30000CEBC30737F930100029F1D007EBC008DE
:100D4000C3463BF9022F1FFA82F9B9F1000FE7D031
:100D5000461C37F936E00A94BEF1000FDED007EBEF
:100D6000C6073C4634F902CF1FFA8CFABAF1000FDD
:100D70000794CDF820A03DD0069742F60047C2F276
:100D800000073B44185CA8B3985D98B30EEB0100D4
:100D90000CEB020100EBD07001EBD17140F34F007E
:100DA00041F34F0103F07CFD0A9C42F6F05C099E82
:100DB0000028C2F2000CB3D0069F089AB8F80400CD
:100DC000B988A2EB090292B204F024FD0799BBF89E
:100DD00000300A88B888B8F80410D21A92B204F029
:100DE00019FD40F2C400C2F2000042F6F05C4488F3
:100DF00004E000BF0A9C42F6F05C099EC2F2000CBF
:100E00008EE700BF0BB0BDE8F08F0000FEE70000EA
:100E100042F29820C2F2000000F02ABB42F23820D1
:100E2000C2F2000000F024BB704700002DE9F0433F
:100E300081B02DED028B86B004F028FD012800F072
:100E4000BB8004F01DFD40F230080228C2F2000809
:100E500010D0012840F0B08004F022FD4EF6602151
:100E600000228842C8BF012288F8012000F004FA5D
:100E70000CE000BF04F014FD4AF68011C0F203013B
:100E800000228842C8BF012288F8012001A804F08E
:100E90000FFDBDF804000B38E8283DD8BDF8080068
:100EA0000B38E82838D898F80010D9B140F23873D8
:100EB000C1EBC102C2F2000303EB8201BDF81000D6
:100EC00031F8107CB84227D0DDE90176DDE9035422
:100ED00043F82270059AC1E90165C1E90342002285
:100EE0000A750DE001AF40F238718DCFC2F20001FA
:100EF000059E81E88D0000200875BDF810000E6188
:100F000001B246F65C00C0F6000004F0EBFE98F873
:100F10000000013088F8000004F014FD98F8041077
:100F200042B28A4205DDB8F80830511A1944A8F8CF
:100F3000081088F8040004F00BFDC8B304F010FD9D
:100F4000C72835DC04F004FD814604F011FD9FED57
:100F50001D8A06B207140024E0B204F0E9FC01B2D5
:100F6000C7EB2040891B404301FB0100FFF790FBCA
:100F700041EC100B04F0B2FF51EC100BFFF7C5FB76
:100F800000EE100AB4EE408AF1EE10FAC4BF254616
:100F9000B0EE408A0134E0B24845DDD3032088F842
:100FA0000200E8B204F0C4FCC8F80C0002E000BF84
:100FB00000F00AF803F0F8FF06B0BDEC028B01B0B8
:100FC000BDE8F083EC78AD602DE9F0472DED028BA4
:100FD00086B040F23008C2F2000898F8020028B14A
:100FE00006B0BDEC028BBDE8F08700BF04F0AAFCA0
:100FF000B8F9081098F80020824638B198F8060031
:10100000914208BF002807D10AE000BF9142E7D013
:1010100098F80600012815D098F80110012905D18B
:1010200046F69200C0F60000012110E0BAF1000F70
:1010300008BF012806D0BAF1040F0CD30028EFD066
:1010400009E000BF46F67C00C0F60000002188F8E9
:10105000061004F047FE98F8060000285AD004F065
:1010600087FCBAF1000F4DD09FED5F8A06B20514E0
:1010700000270DF104090024E1B2484604F040FCC9
:10108000BDF90800BDF90A10801B4043491B01FB54
:101090000100FFF7FDFA41EC100B04F01FFF51ECCB
:1010A000100BFFF732FB00EE100AB4EE408AF1EEAF
:1010B00010FAC4BFB0EE408A2746013420B2504532
:1010C000DADB18EE100AFFF70DFB9FED450B53EC32
:1010D000102BFFF7C2FAA8B9F9B201A804F010FC6E
:1010E000029A0220BDF9103088F80200C8F80C20DE
:1010F00011B212143DA004F0F5FD06B0BDEC028B58
:10110000BDE8F08741A004F0EDFD06B0BDEC028B18
:10111000BDE8F08798F8000040F23874C2F200048D
:1011200080B39FED318A0021002503E0013529B20B
:10113000814229DAC1EBC10604EB8607397D00291B
:10114000F4D104F015FC34F92610B7F9022003B2EB
:10115000C91A4943A2EB204000FB0010FFF798FAA0
:1011600041EC100B04F0BAFE51EC100BFFF7CDFA76
:1011700000EE100AB4EE480AF1EE10FA2CDB98F8F3
:101180000000D3E79FED188A002518EE100AFFF73C
:10119000A9FA9FED130B53EC102BFFF75EFA002812
:1011A0007FF41EAF012088F8020028B2C0EBC00017
:1011B00054F8202004EB8000B0F90C30C8F80C2063
:1011C00011B2121419A0A8F80A5006B0BDEC028B97
:1011D000BDE8F04704F086BDB0EE408AD5E700BF19
:1011E000003D9160E458E143EC78AD604465705F88
:1011F000746F5F4465733A202825642C2025642988
:101200002C206F726465722025640A006572726F0B
:10121000723A206E6F206F7264657220666F722062
:101220004465705F746F5F4465730A00546F5F4478
:1012300065703A202825642C202564292C206F72A3
:101240006465722025640A0040F23000C2F200009A
:101250000021C160A0F801108021C0F23C01C0F85B
:101260001A104FF08011C0F81E108021C0F2B40196
:10127000C0F82210704700002DE9F0472DED028BD9
:1012800040F23008C2F2000898F8020020B1BDEC2C
:10129000028BBDE8F08700BF98F8030002280BD846
:1012A000F0B104F00FFD46F66B00C0F6000004F04C
:1012B00019FD98F8030014E00328E8D104F002FDBA
:1012C00046F66B00C0F6000004F00CFD98F8030031
:1012D000013088F80300BDEC028BBDE8F08700BF49
:1012E000002040F23419C2F20009B9F8001040F2AF
:1012F000A81AC2F2000A99B308EB8000B0F91A707C
:10130000B0F91C409FED208A012500BFA8B20AEB6E
:1013100080013AF92000B1F90210C01B4043091BBB
:1013200001FB0100FFF7B4F941EC100B04F0D6FD0E
:1013300051EC100BFFF7E9F900EE100AB4EE408A09
:10134000F1EE10FAC4BF2E46B0EE408A0135B9F86E
:101350000000A9B28142D9D998F80300B1B200E0E7
:1013600000215AF821200121431CC8F80C2088F8DC
:10137000021011B2121405A088F80330BDEC028BE4
:10138000BDE8F04704F0AEBCEC78AD60676F202894
:1013900025642C25642920746F207365742063688C
:1013A000617267652070696C650A0000EFF3108058
:1013B00072B600BFFEE7000070B5866D044600F00F
:1013C00031FB94F8351002292ED105462068216C96
:1013D000026822F016020260426922F08002426135
:1013E00009B9A16C19B1016821F008010160016817
:1013F00021F0010101600068C00708D000F012FB75
:10140000401B052818D820680068C007F6D1E06D99
:101410003F2101FA00F0B060012084F8350000207F
:10142000002184F8341070BD802060650120002107
:1014300084F8341070BD00BF20206065032084F85C
:101440003500002184F8341070BD000090F835108C
:10145000022909D1052180F835100068016821F0C2
:101460000101016000207047802141650120704723
:10147000F0B581B004460020009040F20C00C2F2AA
:1014800000000268D4E9166048F2B51337680821F5
:10149000C1F64E3381403942A2FB03250CD02268AD
:1014A00013685B0708D5136823F004031360B16069
:1014B000616D41F00101616501218140394208D02F
:1014C00022685269120604D5B160616D41F00201D3
:1014D000616504218140394208D022681268920770
:1014E00004D5B160616D41F0040161651021814056
:1014F000394217D020680268120713D5B16002681C
:101500000168520308D4C90508D4016821F0080114
:101510000160216C21B905E008033FD4216C09B1B9
:1015200020468847E16D202000FA01F23A4241D07E
:1015300020680368DB063DD5B26094F83530026858
:10154000052B1BD122F016020260426922F08002B4
:101550004261226C0AB9A26C1AB1026822F0080238
:1015600002603F208840B060012084F83500216D82
:101570000020002984F8340052D157E0016852035A
:1015800010D4C90512D4016821F0100101600120B6
:1015900084F83500002084F8340007E0A16C0029AD
:1015A000BED1BFE7080301D4616C00E0E16B09B173
:1015B00020468847606DC8B3606DC0072ED00520F7
:1015C00084F835002068A90A026822F0010202604E
:1015D000009A01328A4200921AD80268D20717D0C4
:1015E000009A01328A42009212D80268D2070FD0C4
:1015F000009A01328A4200920AD80268D20707D0C4
:10160000009A01328A42009202D80268D207DFD1E2
:10161000012084F83500002084F83400E16C29B101
:10162000204601B0BDE8F040084700BF01B0F0BD62
:101630002DE9F041044600F0F5F9002C4ED00546A6
:10164000022084F835000020216884F834000868FE
:1016500020F0010008600868C00708D000F0E2F937
:10166000401B05286CD821680868C007F6D10868B7
:1016700048F23F02CFF21002D4E90135024004F1F2
:101680000C0E9EE8C1511A432A431043304338439D
:1016900040EA0800626A40EA0C00042A40EA0E03AD
:1016A00020D1D4E90A5E206B4EEA030210430860A1
:1016B0004869BEF1000F20F0030040EA050040F049
:1016C000040C15D0B8F5005F42D0B8F1000F51D12D
:1016D000022D52D0012D47D055B94EE00120BDE872
:1016E000F08100BF0B60486920F0070040EA020C5F
:1016F0006FF00F004AF6AB2250FA81F0CAF6AA2228
:10170000A0FB02231A0946F65403C0F600039A5CB4
:1017100040F2FF335F284FF03F00C1F814C021EAC8
:10172000030100FA02F088BF0431C4E91612886090
:10173000002301220020636584F83520BDE8F08194
:10174000032220230320636584F83520BDE8F0815F
:10175000032DCDD8012240230120DFE805F0030E40
:10176000030500BFE7E700BFAEF1C070B0FA80F03C
:10177000400904E0032D04D3BAD1CEF30060002861
:10178000B6D0012240230120636584F83520BDE8EE
:10179000F081000070B590F834C0BCF1010F46D064
:1017A0004FF0010C80F834C0D0F858E090F835C004
:1017B000BCF1010F38D14FF0020C80F835C04FF06A
:1017C000000CC0F854C0D0F800C08468056CC06D2F
:1017D000DCF80060402C26F48026CCF80060CCF8C1
:1017E00004300B4604BF13460A463F2101FA00F0BD
:1017F000CCF80830CCF80C20CEF80800DCF800005B
:1018000040F01600CCF800002DB1DCF8000040F0EC
:101810000800CCF80000DCF8000040F00100CCF833
:101820000000002070BD00BF002180F834100220AD
:1018300070BD0000B0B5044600F0F4F8054640F273
:101840000400C2F200000078611C18BF044400BF0D
:1018500000F0E8F8401BA042FAD3B0BD2DE9F04FEC
:1018600082B000F13E4241F6004502F1FF77C4F23A
:10187000020508224FEAB726A84208BF0722072E12
:1018800038BF4FEAB7224FF0010A002400274FF07B
:101890000008009208E000BF023708F10108202F7D
:1018A00004F1040400F0B4800E680AFA08F916EA9C
:1018B000090FF1D0D1F804A00AF0030BABF1010637
:1018C000012E17D80322866802FA07FECA6826EAA4
:1018D0000E06BA40324382604268CAF3001522EA1B
:1018E000090205FA08F54FEA480C6FEA0E062A438A
:1018F00042600BE00322BA40D643BBF1030FBC4663
:1019000004D1BC464FF0030B22E000BFC2688D68D3
:10191000324005FA0CF52A43BBF1020FC26017D121
:101920006FF0030202EA5802024404F01C030F2580
:10193000D2F820E005FA03FA0D692EEA0A0E05FA3C
:1019400003F343EA0E031362D1F804A00AF0030B79
:1019500002680BFA0CF332401A431AF4403F4FF07E
:10196000010A026098D0002243F644030192C4F2B7
:1019700002031A6843F6004E42F480421A601A6865
:10198000C4F2010E02F480420192019A28F003028F
:101990004FF6084C7244CFF6FF7C52F80C3004F03E
:1019A0000C060F25B540AB43009D05FA06F6334300
:1019B00042F80C30DEF808204B6842EA090643F68C
:1019C0000C4CDD0258BF22EA0906CEF80860C4F2CA
:1019D000010CDCF800209D0242EA090658BF22EA09
:1019E0000906CCF80060DEF804209D0342EA0906EF
:1019F00058BF22EA0906CEF80460DEF80020DB03B7
:101A000042EA090658BF22EA0906CEF8006043E719
:101A100002B0BDE8F08F0000002A08BF0904816110
:101A20007047000043F2B870C2F2000000687047CF
:101A300040F2040043F2B871C2F20000C2F20001A9
:101A400000780A68104408607047000080B543F6CB
:101A50000040C4F20200016841F4007101600168B5
:101A600041F480610160016841F4807101600320EC
:101A700000F084F80F2000F005F800F027F80020AF
:101A800080BD000070B540F20406C2F2000640F2CC
:101A90000C013278C2F200014FF47A730968B3FB8B
:101AA000F2F20446B1FBF2F1084600F041FB0F2CC4
:101AB0004FF0010508D838B94FF0FF302146002219
:101AC000002500F02FF87460284670BD82B0002019
:101AD00043F640010190C4F202014A6842F4804298
:101AE0004A604A6802F480420192019A00900868B4
:101AF00040F080500860086800F080500090009826
:101B000002B07047002848BF704700F01F01012253
:101B100002FA01F14EF200124009CEF2000242F840
:101B20002010704710B54EF60C5CCEF2000CDCF8BD
:101B30000030C3F3022E8EF00704042C28BF0424C7
:101B4000BEF103034FF0FF3E0EFA04F438BF00234A
:101B5000A14399400EFA03F39A43114300F00F0298
:101B6000043A624409010C3200F16043B0F1FF3FD6
:101B7000C8BF03F56442117010BD00004EF60C5151
:101B8000CEF200010A684FF6FF031A4060F30A2202
:101B900042F0806040F0FD70086070472DE9F04130
:101BA000002800F08B8043F60808C4F202080446BF
:101BB000D8F8F8030D4600F00700884207D288F8ED
:101BC000F853D8F8F80300F00700A84276D120684F
:101BD000810717D5410705D5D8F8001041F4E05129
:101BE000C8F80010010705D5D8F8001041F460418D
:101BF000C8F80010D8F80010A26821F0F0011143D5
:101C0000C8F80010C0073FD1D8F8F80300F007006B
:101C1000A84207D988F8F853D8F8F80300F007006D
:101C2000A8424BD12068410707D5D8F80010E268D8
:101C300021F4E0511143C8F80010000708D5D8F886
:101C40000000216920F4604040EAC100C8F80000AB
:101C500000F07CF8D8F8001046F63C02C1F30311FE
:101C6000C0F60002515C40F20C0220FA01F140F291
:101C70000800C2F200000068C2F200021160FFF723
:101C800001FF0020BDE8F0816068811E022907D2B3
:101C900058F8081C89015CBF0120BDE8F08111E003
:101CA000012807D158F8081C89035CBF0120BDE852
:101CB000F08107E058F8081C890703D40120BDE82B
:101CC000F08100BFD8F8001021F003010843C8F8E4
:101CD0000000FFF7A7FE064641F28837D8F800005B
:101CE000616800F00C00B0EB810F8DD0FFF79AFE19
:101CF000801BB842F2D90320BDE8F08140F20C000D
:101D000043F60801C2F20000C4F20201006809684B
:101D100046F64C02C1F38221C0F60002515CC84075
:101D20007047000040F20C0043F60801C2F20000C8
:101D3000C4F202010068096846F64C02C1F3423160
:101D4000C0F60002515CC8407047000010B543F671
:101D50000404C4F20204606800F00C0142F2004086
:101D60000829C0F2F40007D0042918BF10BD41F2C1
:101D70000020C0F27A0010BD216801F03F02216806
:101D800023684902C3F3881106D4A1FB0001002394
:101D9000FEF716FA07E000BF41F20020C0F27A0019
:101DA0004843B0FBF2F021680222C1F3014102EB8B
:101DB0004101B0FBF1F010BD2DE9F04182B00028E7
:101DC0006AD00446007843F60006C007C4F2020653
:101DD0000BD0B06800F00C00042840F0A1803068FF
:101DE000800302D56068002856D0207880071AD575
:101DF000B06810F00C0F09D0B06800F00C00082893
:101E000040F0A8807068400200F1A480306880072C
:101E100002D5E06801283FD13068216920F0F80040
:101E200040EAC10030602078000739D420784007AC
:101E30004ED4A5695DB3B06800F00C00082840F0EE
:101E4000BD80012D28D07068E16900F480028A42CB
:101E500022D1216A00F03F028A421DD147F6C071AB
:101E6000626A0140B1EB821F16D1A26A0023CFF64D
:101E7000FF7303EBC23200F440316FF30F02914263
:101E80000AD1E16A00F07060B0EB016F04D100206C
:101E900002B0BDE8F08100BF012002B0BDE8F081D2
:101EA0006069002840F20000C4F2472076D001218A
:101EB000C0F8801EFFF7B6FD054600BF706F8007B3
:101EC000B4D4FFF7AFFD401B0228F7D9DDE000BF17
:101ED000306C10F080580AD100200190306C40F036
:101EE00080503064306C00F080500190019847F2CF
:101EF0000007C4F200073868C00541D4386840F4D0
:101F000080703860FFF78EFD054600BF3868C00559
:101F100036D4FFF787FD401B0228F7D9B5E000BF94
:101F2000B06800F00C00082803D1706840023FF54B
:101F300056AF6068B0F5803F07D0B0F5A02F40F0F5
:101F40008D80306840F480203060306840F480300C
:101F500030608DE0E068002852D00020C4F24720B5
:101F600001210160FFF75EFD054600BF3068800774
:101F70003FF552AFFFF756FD401B0228F6D984E02B
:101F8000A068012805D005284ED1306F40F004002C
:101F90003067306F40F0010030674FE00021C0F83B
:101FA000801EFFF73FFD0546706F80077FF53EAF4F
:101FB000FFF738FD401B0228F6D966E00027C4F27F
:101FC000472700203866FFF72DFD022D05460BD16F
:101FD000306880015ED5FFF725FD401B02284FF0D9
:101FE0000300F5D954E700BF306880017FF54FAF9B
:101FF000FFF718FD401B02284FF00300F4D947E714
:102000000020C4F2472000210160FFF70BFD0546C8
:10201000306880077FF507AFFFF704FD401B0228FB
:102020004FF00300F4D933E7316F002821F00101AC
:102030003167316F21F0040131674DD0FFF7F2FCB9
:10204000054641F2883700BF306F800756D4FFF74E
:10205000E9FC401BB842F7D917E000BF31680028FF
:1020600021F480313160316821F4802131604FD01A
:10207000FFF7D8FC054600BF306880033FF5B5AEDA
:10208000FFF7D0FC401B6428F6D9032002B0BDE85E
:10209000F08100BF04F11C052FCD08430021CFF6CD
:1020A000FF7140EA821001EBC3316FF30F0140EA88
:1020B00005600843706001203866FFF7B3FC0446F2
:1020C000306880013FF5E3AEFFF7ACFC001B02284F
:1020D0004FF00300F4D9DBE6FFF7A4FC054641F21C
:1020E000883700BF306F800708D5FFF79BFC401B87
:1020F000B8424FF00300F5D9CAE600BFB8F1000FAF
:102100007FF497AE306C20F08050306491E600BFD1
:10211000FFF788FC054600BF306880037FF565AE99
:10212000FFF780FC401B64284FF00300F4D9AFE6B2
:10213000411E0020B0EB116F1CBF012070474EF212
:102140001002CEF2000251604EF62351CEF2000191
:10215000F0230B70072190601160704770470000FA
:102160007047000010B590F83C20012A4FF00202A1
:1021700051D080F83D200268D2F804E0D2F808C0BF
:102180000C682EF07003234341F2FF74C4F2000484
:10219000A24253600EDC40F2FF73C4F200039A4285
:1021A00016DCB2F1804F2BD040F20043C4F20003A2
:1021B00024E000BF40F2FF33C4F201039A4213DC73
:1021C00041F60003C4F200039A4219D0002313E041
:1021D00040F60003C4F200039A4211D040F60043D7
:1021E000C4F200030AE000BF44F20003C4F201039A
:1021F0009A4205D040F20043C4F201039A4204D14E
:1022000049682CF08003194391600121002280F875
:102210003D1080F83C20104610BD0000002804BF8F
:102220000120704710B5044690F83D0028B9002001
:1022300084F83C00204600F01FF8022084F83D009E
:102240002068211D02F0CCFF012084F8460084F8AC
:102250003E0084F83F0084F8400084F8410084F890
:10226000420084F8430084F8440084F8450084F870
:102270003D00002010BD000080B582B0006841F232
:102280000041C4F2000188421CBF02B080BD0020A2
:10229000019043F64000C4F202000168002241F0C0
:1022A000200101600068002100F0200001900198E9
:1022B0003720FFF737FC372002B0BDE88040FFF73A
:1022C00021BC000090F83D1001291CBF012070477F
:1022D000022180F83D10006841F2FF72C168C4F22B
:1022E0000002904241F00101C1600DDC40F2FF713B
:1022F000C4F20001884215DCB0F1804F2AD040F2D0
:102300000041C4F2000123E040F2FF31C4F20101B8
:10231000884213DC41F60001C4F20001884219D062
:10232000002113E040F60001C4F20001884211D000
:1023300040F60041C4F200010AE000BF44F200018F
:10234000C4F20101884205D040F20041C4F201010B
:10235000884206D1816801F00701062904BF0020E8
:102360007047016841F001010160002070470000E2
:10237000002804BF012070472DE9F047044690F87B
:102380003D000D4628B9002084F83C00204600F0AE
:1023900049F8022084F83D00206844F20702816871
:1023A00091438160211D02F01BFF20684FF6FF78EA
:1023B00081688269D0F820C0D5E9003ED5E9026A7B
:1023C00043EA0109AB6922EA080246EA03234FF611
:1023D000FC46B343D5E9076742EA0A0229691A4372
:1023E00042EA062242EA01112CF0AA026B6942EA93
:1023F0000E0241EA073142EA0312C0F808908161F7
:102400000262012084F8460084F83E0084F83F0010
:1024100084F8420084F8430084F83D000020BDE8C1
:10242000F0870000F0B587B0006840F2FF71C4F299
:10243000000188424FF000010691CDE90411CDE979
:1024400002113BDD40F60001C4F20001884263D076
:1024500040F20041C4F20101884200F08580002171
:10246000C4F20101884240F0E480002043F63001CC
:102470000190C4F202014A6942F001024A614A69CC
:1024800002F001020192019A01900A6842F01002E2
:102490000A60096801F01001019101994FF420616F
:1024A00002910221CDE90310059001200690002041
:1024B000C4F2020000F58050B8E000BFB0F1804FD8
:1024C0007AD040F20041C4F20001884240F0B1806D
:1024D000002043F630010190C4F202010A6942F083
:1024E00002020A610A6902F002020192019A019055
:1024F0000A6842F001020A60096801F001010191D5
:102500000199C02102910221CDE90310CDE9050115
:102510000020C4F2020089E0002043F6300101905F
:10252000C4F202010A6942F004020A610A6902F077
:1025300004020192019A01900A6842F008020A60BE
:10254000096801F00801019101994FF4405102918D
:102550000221CDE90310CDE905010020C4F20200FB
:1025600000F5406062E000BF002043F630010190BA
:10257000C4F202014A6942F002024A614A6902F069
:1025800002020192019A01900A6842F004020A6074
:10259000096801F0040101910199C0210291022111
:1025A000CDE903100590032006900020C4F202003C
:1025B00000F500603AE000BF002543F630000195C9
:1025C000C4F202000169002441F0010101610169C6
:1025D000C4F2020401F00101019101990195016821
:1025E000022641F0010101600168012701F00101AB
:1025F000019101990195016841F0020101600068B3
:1026000002A900F0020001900198202002902046CB
:10261000CDE9036505950697FFF720F90820CDE978
:102620000206CDE90455069704F5806002A9FFF77C
:1026300015F907B0F0BD000080B590F83E2090F885
:102640003F3090F842E090F843C004290AD0B9B96D
:10265000012A4FF0010208BFBEF1010F34D010462D
:1026600080BD00BF012B4FF0010208BFBCF1010F7C
:10267000F5D1022180F83F1080F8431000681EE079
:10268000012A4FF0010208BF012BE8D1BEF1010F72
:10269000E5D1BCF1010FE2D1022280F83E2080F8A2
:1026A0003F2080F8422080F8432091B10068016A01
:1026B00021F001010162016A41F001010162102172
:1026C0006FF0100209E000BF022180F83E1080F890
:1026D0004210006801216FF00102036A1A40026291
:1026E000026A114301620168002241F001010160A8
:1026F000104680BD7047000010B5016804460869A7
:10270000800744BFC8685FEA807039D40869400711
:1027100044BFC8685FEA40703ED40869000744BF00
:10272000C8685FEA007045D40869C00644BFC8683D
:102730005FEAC0604AD40869C0071CBFC8685FEA86
:10274000C07051D10869000644BFC8685FEA0060E4
:1027500052D40869400644BFC8685FEA406053D459
:102760000869800646BFC8685FEA806010BD6FF0E8
:10277000200220460A61BDE81040FFF7F1BC00BF0F
:102780006FF002000861012020778869800743D03C
:102790002046FFF7AFFF45E06FF00400086102201C
:1027A0002077886910F4407F40D02046FFF7A2FFD1
:1027B00042E000BF6FF00800086104202077C8697C
:1027C00080073DD02046FFF795FF3FE06FF01000F7
:1027D000086108202077C86910F4407F3AD020466D
:1027E000FFF788FF3CE000BF6FF001000861204662
:1027F00000F026FA2168A5E76FF080000861204606
:10280000FFF7ACFC2168A4E76FF0400008612046A8
:1028100000F0B8FD2168A3E7204600F025F8204627
:1028200000F080F92168002020776FE7204600F053
:102830001BF8204600F076F92168002020776CE72D
:10284000204600F011F8204600F06CF921680020C5
:10285000207769E7204600F007F8204600F062F98B
:1028600021680020207766E7704700002DE9F041DD
:1028700090F83C30012B04BF0220BDE8F0814FEA04
:10288000B202032A00F2FC80DFE802F0023E7EBEC4
:10289000036840F200471A6A43F4806522F001029F
:1028A0001A621C6A1A46D3F804E052F818CF8E68F0
:1028B00024F00204C4F20107BD4244EA060405D133
:1028C000CE6824F00C0426F0040634430E68BD42A2
:1028D00007D1D1E905572EF4407E45EA0E0545EAB9
:1028E000070E2CF073073743C3F804E09F614F686D
:1028F00009695F631C629F6947F008079F619F69D0
:1029000027F004079F61B1E0036840F200481A6AAB
:1029100043F4806522F010021A621C6A1A46D3F84A
:1029200004E052F818CF8F6824F02004C4F20108A4
:10293000454544EA071407D1CF686FF0400624F0FC
:10294000C00406EA071634430F68454507D1D1E9AC
:1029500005562EF4406E4EEA850545EA860E2CF4A7
:10296000E64646EA0727C3F804E09F614F68096915
:102970009F631C629F6947F400679F619F6927F40A
:1029800080679F6171E000BF036840F200481A6AE7
:1029900043F4806522F480721A621C6A1A46D3F8E6
:1029A00004E052F81CCF8F6824F40074C4F20108CC
:1029B000454544EA072408D1CF6840F2FF463F026C
:1029C00024F4406427EA060634430F68454507D1DE
:1029D000D1E905562EF4405E4EEA051545EA061E7D
:1029E0002CF073063743C3F804E0DF614F680969D0
:1029F000DF631C62DF6947F00807DF61DF6927F0EA
:102A00000407DF6132E000BF036840F200451A6A44
:102A100043F4806722F480521A621A46D3F820C029
:102A20005C6852F81CEFD1F800808E68C4F2010592
:102A3000AF4204D14D6924F4804444EA85142CF457
:102A4000005747EA06372EF4E64646EA08265C6059
:102A5000DE614E6809691E641F62DF6947F4006722
:102A6000DF61DF6927F48067DF61090213681943BA
:102A700011600021002280F83C200846BDE8F0816A
:102A80000121002280F83C200846BDE8F0810000CA
:102A9000002804BF0120704710B5044690F83D009F
:102AA00028B9002084F83C00204600F01FF80220DE
:102AB00084F83D002068211D02F092FB012084F87B
:102AC000460084F83E0084F83F0084F8400084F813
:102AD000410084F8420084F8430084F8440084F8FC
:102AE000450084F83D00002010BD000081B0006862
:102AF00040F60041C4F20001884201D001B07047A5
:102B00000020009043F64000C4F20200016841F04A
:102B100008010160006800F008000090009801B012
:102B2000704700007047000041B1082910D0042907
:102B300014BF00F1410200F13F020BE090F83E208B
:102B4000012A1CBF01207047022280F83E2013E0BA
:102B500000F140021278012A1CBF012070470222B6
:102B6000082907D0042914BF80F8412080F83F20AD
:102B700002E000BF80F84020006801F01F01012240
:102B8000036A02FA01F123EA01020262026A1143B6
:102B900041F2FF72C4F20002904201620CDC40F28A
:102BA000FF71C4F20001884214DCB0F1804F37D0CD
:102BB00040F2004116E000BF40F2FF31C4F20101D3
:102BC000884215DC41F60001C4F20001884227D09A
:102BD000002115E040F60001C4F2000188421FD038
:102BE00040F60041C4F20001884219D01FE000BF46
:102BF00044F20001C4F20101884211D040F20041C8
:102C0000C4F20101884212D1416C40F2004340F409
:102C10008062C4F2010341F400419A42416406D14A
:102C2000816801F00701062904BF00207047016890
:102C300041F0010101600020704700000000000029
:102C40002DE9F04F81B02DED0A8B8EB040F60001DA
:102C5000C4F202010068A1F5FA3188421CD00EB01E
:102C6000BDEC0A8B01B0BDE8F08F00BF000070C260
:102C700000007042000000000000B4C300003443B4
:102C8000000034C30000B4430000204200BF00BF76
:102C900000000000000044C002F06AFE01B240F2F1
:102CA000381500EE101AC2F200050414B8EEC00A7E
:102CB00005F1100002F0B2FFB1EE409A00EE104AAA
:102CC000B8EEC00A05F1300002F0A8FF95ED0B1A2E
:102CD00095ED132AB5EE401AF1EE10FA4FF000010F
:102CE000B5EE402A1FED1F2A08BF0121F1EE10FAB0
:102CF0004FF000021FED228AB1EE400A08BF012208
:102D00001FED241A114018BFB0EE419AB4EE429A5A
:102D100018BFB0EE410AF1EE10FAB8BFB0EE429A19
:102D2000B4EE489AF1EE10FAB0EE48AAB4EE420AB8
:102D300040F2C461B8BFB0EE49AAF1EE10FAB8BFD4
:102D4000B0EE420AB4EE480AC2F20001F1EE10FA07
:102D5000B8BFB0EE408A91ED020A1FED391A1FED9F
:102D6000392A002030EE011AB4EE420A1FED3C2A47
:102D7000E866F1EE10FAC8BFB0EE410A1FED3F1A47
:102D800005F15000B4EE420A30EE011AF1EE10FAED
:102D9000B8BFB0EE410A02F041FF1FED451AB4EE94
:102DA000410AF1EE10FAB8BFB0EE401A11EE100A67
:102DB000FDF798FC1FED4A0B064657EC104B2246D8
:102DC0003B460D46FDF72EFC00281AEE100A1CBFEC
:102DD0003D462646FDF786FC32462B46824689460E
:102DE000FDF739FB044618EE100A0F46FDF77AFC92
:102DF00083468846204639465A464346FDF72BFB14
:102E0000FDF783FC43F2F861C2F20001C86130466D
:102E1000294652464B46FDF77DFA5A464346074639
:102E20000C46FDF777FAFDF770FC43F2F86180F08D
:102E30000040C2F20001C8633846214640F238140F
:102E40005A464346C2F20004FDF705FBFDF75DFC60
:102E500043F2F867C2F20007F86530462946524649
:102E60004B46FDF7F8FA5A464346B846FDF7F3FAE3
:102E7000FDF74BFC42F6EC21C2F200010968F8674D
:102E8000486A40F21002C2F20002B0F5004FA8BF3B
:102E9000A0F5803092ED001A94ED003A00EE100A91
:102EA000B7EE002AB8EEC00A32EE412AB8EEC33AB5
:102EB00022EE033A21EE000A42F6841030EE030AB5
:102EC000C2F20000BDEEC00A006884ED000A94ED75
:102ED000014A94ED025A426AB8EEC44AB2F5004F74
:102EE000A8BFA2F5803203EE102AB8EEC33A22EE54
:102EF000044A21EE033A42F6CC1233EE043AC2F20F
:102F00000002BDEEC33A126884ED013A536A10EE36
:102F1000107AB3F5004FA8BFA3F5803300EE103A46
:102F2000B8EEC00AB8EEC54A22EE044A21EE000A05
:102F300042F63C1330EE040AC2F20003BDEEC00AB2
:102F40001B6884ED020A5D6A13EE106AB5F5004F46
:102F5000A8BFA5F5803594ED034A03EE105AB8EEEC
:102F6000C33AB8EEC44A22EE042A21EE031A31EE27
:102F7000021ABDEEC11AB7F5004F84ED031AA4BFC3
:102F8000A7F580372760B6F5004F10EE107AA4BF82
:102F9000A6F580366660B7F5004F11EE106AA4BF43
:102FA000A7F58037A760B6F5004FA4BFA6F5803619
:102FB000E66000EE107A0026B8EEC00A4E62466265
:102FC000B1EE400A404656625E6202F027FE94ED82
:102FD000011AB0EE40BAB8EEC10A08F1200002F0C2
:102FE0001DFE94ED031AB0EE40AAB8EEC10A08F136
:102FF000400002F013FE94ED001AB0EE409AB8EED5
:10300000C10AB1EE400A08F1600002F007FE9FED30
:10301000DCCAB0EE408AB4EE4CBAB0EE4C0AF1EE27
:1030200010FAB8BFB0EE4B0A10EE100AFDF75AFBCB
:103030009FEDCB0B044655EC106B32462B460F46EA
:10304000CDE90065FDF7EEFA9FEDC70B00285BECBC
:10305000108B1CBF2F4634462046394642465B46FD
:1030600047EC1B4BFDF7DEFA054620463946424643
:103070005B46FDF7F2FA0646002818BF01268DEDE3
:1030800006BB9DF81F00394680F080008DF81F00B8
:10309000DDE906A9204642465B46002D18BF012502
:1030A000FDF7C0FA002804BFA246B94640F6000466
:1030B000C4F20204204604212A46FEF7ADFC204655
:1030C00008213246FEF7A8FC9FEDA90B504653ECB1
:1030D000102B4946CDE90423FDF7C3F99FEDA60B5C
:1030E00053EC102BCDE90223FDF72DFAFDF7E1FAA1
:1030F00042F65C21C2F200010968B4EE4CAAB0EEBF
:103100004C0A4863F1EE10FAB8BFB0EE4A0A10EE6E
:10311000100AFDF7E7FA009E019D32462B46044651
:103120000F46FDF77FFA00281CBF2F463446204685
:10313000394642465B4647EC1A4BFDF78EFA054688
:103140002046394642465B46FDF76CFA06460028A3
:1031500018BF01268DED08AB9DF82700394680F099
:1031600080008DF82700DDE908A9204642465B462D
:10317000002D18BF0125FDF755FA002804BFA2460F
:10318000B94640F60004C4F20204204601212A4652
:10319000FEF742FC204602213246FEF73DFCDDE907
:1031A000042350464946FDF75CF9DDE90223FDF7AB
:1031B000CAF9FDF77EFA42F65C21C2F20001096805
:1031C000B4EE4C9AB0EE4C0A8863F1EE10FAB8BF38
:1031D000B0EE490A10EE100AFDF784FA009D019E38
:1031E0002A46334604460F46FDF71CFA00281CBF4A
:1031F00037462C462046394642465B4647EC194B3B
:10320000FDF72BFA05462046394642465B46FDF758
:1032100009FA0646002818BF01268DED0A9B9DF885
:103220002F00394680F080008DF82F00DDE90AA9D3
:10323000204642465B46002D18BF0125FDF7F2F9F6
:10324000002804BFA246B94640F60004C4F20204B6
:1032500020464FF480712A46FEF7DEFB20464FF4ED
:1032600000713246FEF7D8FBDDE90423504649469B
:10327000FDF7F7F8DDE90223FDF765F9FDF719FA27
:1032800042F65C21C2F200010968B4EE4C8AC863C0
:10329000F1EE10FAB8BFB0EE48CA1CEE100AFDF706
:1032A00021FA009D019E2A46334604460F46FDF74B
:1032B000B9F900281CBF37462C46204639464246FD
:1032C0005B4647EC184BFDF7ADF9054620463946FD
:1032D00042465B46FDF7C1F90646002818BF0126A5
:1032E0008DED0C8B9DF83700394680F080008DF80D
:1032F0003700DDE90CA9204642465B46002D18BF89
:103300000125FDF78FF9002804BFA246B94640F613
:103310000004C4F2020420464FF400612A46FEF77E
:103320007BFB20464FF480513246FEF775FBDDE90A
:10333000042350464946FDF794F8DDE90223FDF7E2
:1033400002F9FDF7B6F942F65C21C2F20001096804
:1033500008640EB0BDEC0A8B01B0BDE8F08F00BF71
:1033600000000000008051C00000000000000000CC
:103370000000000000409F40000000000000594095
:1033800000008C427047000070B582B0044690F88F
:103390003E0020280ED113460A4600294FF00100B6
:1033A00018BF002B02D102B070BD00BF94F83C00E2
:1033B000012803D1022002B070BD00BF012084F8B3
:1033C0003C00206300262220A262A385266484F8A4
:1033D0003E002168A06B45F2A54C45F2016E45F216
:1033E0002935C0F6000CC0F6000EC0F60005043109
:1033F000C0E90FCEC0E91356FEF7CCF9019620685C
:1034000001680191416801910199216984F83C604A
:1034100031B300BF50E8030F216840F4807041E8E9
:103420000302EAB1206850E8030F216840F480707D
:1034300041E80302A2B1206850E8030F216840F47C
:10344000807041E803025AB1206850E8030F2168F8
:1034500040F4807041E8030212B12068DAE700BF4F
:10346000206850E8050F216840F0010041E805029E
:10347000E2B1206850E8050F216840F0010041E802
:1034800005029AB1206850E8050F216840F001005C
:1034900041E8050252B1206850E8050F216840F06C
:1034A000010041E80502002ADAD100BF206850E897
:1034B000050F216840F0400041E80502DAB12068BC
:1034C00050E8050F216840F0400041E8050292B144
:1034D000206850E8050F216840F0400041E80502EF
:1034E0004AB1206850E8050F216840F0400041E8EB
:1034F0000502002ADAD1206B012839D10020009082
:1035000021680A6800924A680092009A51E8031FF5
:10351000226841F0100142E80313002B3FF443AF4F
:10352000206850E8030F216840F0100041E80302D2
:1035300012B3206850E8030F216840F0100041E802
:103540000302CAB1206850E8030F216840F0100060
:1035500041E8030282B1206850E8030F216840F07F
:10356000100041E80302002A4FF00000D8D11AE70A
:10357000012002B070BD00BF002002B070BD00008D
:103580002DE9F04F81B02DED108B86B0006844F22C
:103590000042C4F200029042059100F01D8244F600
:1035A0000001C4F20001884240F01C820598002806
:1035B00000F0188242F621599FEDE18B9FEDE29BCE
:1035C0009FEDE3BA9FEDE4CB9FEDE5DA9FEDE5EAF1
:1035D0009FEDE5FBDFEDE6AADFEDE6BA0024C2F2DF
:1035E0000009B3EE00AA0BE042F6BC30C2F20000C4
:1035F0004946C822FFF7C8FE0598844280F2F2814E
:1036000019F80400A346552804F10104F8D10BEB86
:10361000090519F80420A878E97895F804801318AA
:1036200095F805A00B44434495F806C0534495F81B
:1036300007E0634403EB0E072B7A6E7A1F4437448E
:103640005537AD7AFFB2AF42CED1513A052A13D8E1
:10365000DFE812F01A00AA000601120012000600AC
:10366000180440EA066040EA0E2042F63811604431
:10367000C2F20001086000BF42F621590BF10B04B1
:10368000C2F20009B0E700BF40EA012000EE100AD4
:10369000B8EEC00A10EE100ACDE903ECFDF722F8EF
:1036A00059EC182B4B460292FCF7DBFE064640F223
:1036B0001800C2F20000D0ED00DA0C461DEE900AB0
:1036C000FDF710F80F460246304621463B461446A9
:1036D000FCF7C7FE56EC192B33460192FCF7C1FEEE
:1036E000FDF713F840F2B865C2F200050EEE900A3D
:1036F000286048EA0A2000EE100AB8EEC00A10EE70
:10370000100AFCF7EFFF029D4B462A46FCF7A9FE84
:1037100022463B46FCF7A5FEDDF8048033464246D0
:10372000FCF79FFEFCF7F1FF824640F2B860C2F260
:103730000000C0F804A0DDE9031040EA012000EE1B
:10374000100AB8EEC00A10EE100AFCF7CBFF2A46AA
:103750004B46FCF786FE22463B46FCF782FE42467D
:103760003346FCF77EFEFCF7D0FF2DEE8A0AB4EE5E
:103770006E0A40F2B861F1EE10FAC2F20001886000
:1037800040F3FA8001EE10AAB4EE410AF1EE10FA0D
:1037900040F3048101EE100AB4EE410AF1EE10FA92
:1037A0003FF76AAF0CE100BF40EA012000EE100ACB
:1037B000B8EEC00A10EE100ACDE903ECFCF792FF58
:1037C00059EC1C6B32464B46FCF74BFE57EC194B41
:1037D00022463B46FCF745FEFCF797FF43F2BC75DB
:1037E000C2F20005286048EA0A2000EE100AB8EE8E
:1037F000C00A10EE100AFCF775FF32464B46FCF784
:1038000030FE22463B46FCF72CFEFCF77EFF68604C
:10381000DDE9031040EA012000EE100AB8EEC00A0C
:1038200010EE100AFCF75EFF32464B46FCF719FE1D
:1038300022463B46FCF715FEFCF767FF00EE100A38
:10384000B4EE4D0AF1EE10FAA8607FF715AF43F21F
:10385000BC7030EE0E0AC2F2000080ED020A0BE7E7
:1038600040EA012000EE100AB8EEC00A10EE100A7D
:10387000CDF810C07746FCF735FF55EC1F6B32468C
:103880002B46FCF7EEFD59EC194B22464B46FCF754
:10389000E8FDFCF73AFF0DEE900A48EA0A2000EE38
:1038A000100AB8EEC00A10EE100AFCF71BFF3246F1
:1038B0002B46FCF7D6FD22464B46FCF7D2FDFCF723
:1038C00024FF0EEE900A049840EA072000EE100A4A
:1038D000B8EEC00A10EE100AFCF704FF32462B4681
:1038E000FCF7BFFD22464B46FCF7BBFDFCF70DFF86
:1038F000F4EE6BDA00EE100A3DEEAA1AF1EE10FAC1
:10390000F4EE6BEA40F2C460C8BFF0EE41DA3EEE7E
:10391000AA1AF1EE10FAB4EE6B0AC2F20000C8BFA8
:10392000F0EE41EA30EE2A1AF1EE10FAC8BFB0EE1E
:10393000410AC0ED00DAC0ED01EA80ED020A9BE623
:103940000000000000003040000000000000003FC8
:10395000000000C200BF00BF0000000000409F4008
:103960000000FA4400007AC50000000000806640B4
:103970000000B4C3000034432DEE8B1A40F2B8614E
:1039800031EE2E1AC2F2000181ED001A01EE10AAEA
:10399000B4EE410AF1EE10FA3FF7FCAE2DEE8B2AA1
:1039A00040F2B86132EE011AC2F2000181ED011A53
:1039B00001EE100AB4EE410AF1EE10FA3FF75CAEE8
:1039C0002DEE8B0A40F2B86030EE010AC2F2000020
:1039D00080ED020A50E600BF40F25800C2F200003B
:1039E0000121017006B0BDEC108B01B0BDE8F08F75
:1039F000006844F20041C4F20001884218BF7047D9
:103A000040F2580CC2F2000CDCF8040043F2EC71F6
:103A10000023C2F20001C82280F83C308CF800304C
:103A2000FFF7B2BCB0B582B0044600680168C36855
:103A3000426901F02F05202D03F0200506D12DB19C
:103A4000204602B0BDE8B04001F0E4BD5FEA017C71
:103A50001EBF02F0010E03F4907212EB0E0255D15C
:103A6000226B012A05D111F0100218BF13F01002C9
:103A700036D10A0622D513F080021FD094F83D10EB
:103A8000212941D1A168B1F5805F03D121690029C5
:103A900000F06C82216A4A1C226209784160E18C44
:103AA00001390A04E1842FD1C16821F08001C1608D
:103AB000C16841F04001C16002B0B0BD490623D5E4
:103AC00013F0400120D0C16821F04001C1602021E5
:103AD000204684F83D1002B0BDE8B04000F0B2BC12
:103AE00000210191016801914168019101994169A9
:103AF000490600F18B80A18DE28DE38D002B1CBF68
:103B0000891A5FEA01420CD102B0B0BDCA0718BFE2
:103B100013F4807240F032814A0700F135813AE1B6
:103B2000206850E8030F226820F4907042E80303F5
:103B3000DBB1206850E8030F226820F4907042E85F
:103B4000030393B1206850E8030F226820F49070BB
:103B500042E803034BB1206850E8030F226820F4C9
:103B6000907042E80303002BDAD1206850E8050F7B
:103B7000226820F0010042E80503DBB1206850E82C
:103B8000050F226820F0010042E8050393B1206888
:103B900050E8050F226820F0010042E805034BB110
:103BA000206850E8050F226820F0010042E8050374
:103BB000002BDAD1202084F83E000020206320680A
:103BC00050E8030F226820F0100042E80303DBB145
:103BD000206850E8030F226820F0100042E8030339
:103BE00093B1206850E8030F226820F0100042E8EB
:103BF00003034BB1206850E8030F226820F0100047
:103C000042E80303002BDAD189B2B0E0A26B11685D
:103C10004B689DB2002D3FF477AFA18D8D42BFF46C
:103C200073AFE385D269B2F5807F00F09D8050E8E4
:103C3000030F216820F4807041E80302E2B120689C
:103C400050E8030F216820F4807041E803029AB124
:103C5000206850E8030F216820F4807041E80302D7
:103C600052B1206850E8030F216820F4807041E8C9
:103C700003020AB12068DAE7206850E8050F2168DE
:103C800020F0010041E80502DAB1206850E8050F94
:103C9000216820F0010041E8050292B1206850E857
:103CA000050F216820F0010041E805024AB12068B3
:103CB00050E8050F216820F0010041E80502002AC4
:103CC000DAD1206850E8050F216820F0400041E873
:103CD0000502DAB1206850E8050F216820F04000A5
:103CE00041E8050292B1206850E8050F216820F0F4
:103CF000400041E805024AB1206850E8050F2168FC
:103D000020F0400041E80502002ADAD1202084F8A2
:103D10003E0000202063206850E8030F216820F057
:103D2000100041E80302DAB1206850E8030F21686F
:103D300020F0100041E8030292B1206850E8030F20
:103D4000216820F0100041E803024AB1206850E8E1
:103D5000030F216820F0100041E80302002ADAD1A5
:103D6000A06BFDF729FBA18DE08D081A81B22046DA
:103D700002B0BDE8B040FFF703BC00BF226C42F0C8
:103D8000010222644A0706D5BEF1000F03D0226C5F
:103D900042F0020222648A0706D5BEF1000F03D06A
:103DA000226C42F004022264BCF1000F06D555EAF1
:103DB0000E0203D0226C42F008022264226C002A18
:103DC0003FF4A2AE11F0200118BF002D03D0204611
:103DD00001F020FC20684169226C01F0400102F0F2
:103DE0000802891800F0A28050E8030F216820F42F
:103DF000907041E80302C2B3206850E8030F2168C5
:103E000020F4907041E803027AB3206850E8030F71
:103E1000216820F4907041E8030232B3206850E832
:103E2000030F216820F4907041E80302EAB1206892
:103E3000DAE700BF206850E8050F216820F0010094
:103E400041E80502DAB1206850E8050F216820F04A
:103E5000010041E8050292B1206850E8050F216891
:103E600020F0010041E805024AB1206850E8050F42
:103E7000216820F0010041E80502002ADAD1206B18
:103E8000012824D1206850E8030F216820F0100099
:103E900041E80302DAB1206850E8030F216820F0FE
:103EA000100041E8030292B1206850E8030F216836
:103EB00020F0100041E803024AB1206850E8030FE7
:103EC000216820F0100041E80302002ADAD1202006
:103ED00084F83E00002020632068416949063FD5F0
:103EE00050E8050F216820F0400041E805022AB3A0
:103EF000206850E8050F216820F0400041E80502E5
:103F0000E2B1206850E8050F216820F0400041E848
:103F100005029AB1206850E8050F216820F04000A2
:103F200041E8050252B12068DAE700BF2046FFF7FA
:103F30005FFD0020206402B0B0BD00BFA06B78B16F
:103F400045F21D31C0F600010165FDF77FFA00283A
:103F50003FF4DAADA06B016D02B0BDE8B040084798
:103F6000204602B0BDE8B040FFF742BD216A31F8FB
:103F7000022B6FF35F224260216290E5002804BFAC
:103F80000120704710B5044690F83D0028B9002084
:103F900084F83C00204600F021F8242084F83D00FD
:103FA0002068C16821F40051C160204601F0B2FBD5
:103FB0002068016921F490410161416921F02A01E1
:103FC0004161C16841F40051C1600020202120649A
:103FD00084F83D1084F83E1010BD000070B586B026
:103FE0000446006844F20041C4F200010026884201
:103FF000CDE90466CDE90266019639D044F60001A8
:10400000C4F20001884200F0858041F20001C4F250
:104010000101884240F0CF80002043F6300100903B
:10402000C4F202014A6942F010024A614A6902F090
:1040300010020092009A00900A6842F001020A60A1
:10404000096801F00101009100994FF4C0610191EC
:104050000221CDE9021003200490072005900020E2
:10406000C4F2020001A9FDF7F9FB06B070BD00BF64
:1040700043F630000096C4F20200016941F40031B9
:104080000161016901F40031009100990096016815
:1040900041F008010160006801A900F008000090EB
:1040A0000098602001900220CDE9020603200490D0
:1040B000072005900020C4F2020000F54060FDF7E3
:1040C000CDFB46F22800C4F2020042F238256030EF
:1040D000C2F200054FF000614FF4806285E84300B2
:1040E0002846C5E90362C5E90566C5E907666E624B
:1040F000FDF79EFA002818BFFDF758F92620002189
:104100000022A563AC63FDF70DFD2620FDF7FAFC48
:1041100006B070BD002643F630000096C4F20200DF
:10412000016941F480210161016901F4802100915C
:1041300000990096016841F002010160006801A940
:1041400000F00200009000984FF4406001900220BF
:10415000CDE9020603200490072005900020C4F258
:10416000020000F58060FDF779FB42F2982546F2E7
:104170002800C2F20005C4F202004FF000614FF4C3
:10418000806285E843002846C5E90362C5E9056603
:10419000C5E907666E62FDF74BFA002818BFFDF708
:1041A00005F9272000210022A563AC63FDF7BAFCC6
:1041B0002720FDF7A7FC06B070BD00007047000087
:1041C000704700002DE9F04381B0044690F83D00AF
:1041D00020280DD10F4600294FF0010000F0DD80AE
:1041E0001646002A00F0D98094F83C00012803D13B
:1041F000022001B0BDE8F083012084F83C004FF0BC
:10420000000921201D46C4F8409084F83D00FDF7C8
:1042100009FCA684E684A1680646B1F5805F07D153
:10422000206900281CBF38464F46B846074601E0C3
:104230004FF0000884F83C90E18C2068002900F0E1
:104240008B8005F101090AE047B317F8011B4160B3
:10425000E18C0139E184E18C002900F07D80016866
:104260000906F1D4B9F1000F0AD0EDB1FDF7DAFB80
:10427000801BA84218D8206801680906F6D5E3E734
:1042800001680906E0D4016809065CBF01685FEABD
:104290000161D9D401680906F2D5D5E738F8021BC7
:1042A00000276FF35F21D2E7206850E8030F2168F1
:1042B00020F4D07041E80302BAB3206850E8030F3D
:1042C000216820F4D07041E8030272B3206850E8FE
:1042D000030F216820F4D07041E803022AB320685C
:1042E00050E8030F216820F4D07041E80302002A4F
:1042F000DAD11AE0206850E8050F216820F00100AB
:1043000041E80502DAB1206850E8050F216820F085
:10431000010041E8050292B1206850E8050F2168CC
:1043200020F0010041E805024AB1206850E8050F7D
:10433000216820F0010041E80502002ADAD120209E
:1043400084F83D0084F83E00002084F83C000320FF
:1043500001B0BDE8F08300BF0168490619D4FDB182
:10436000691C0DD10168490613D4016849065CBF78
:1043700001685FEA41610CD401684906F2D508E0A2
:10438000FDF750FB801BA8420AD820680068400651
:10439000F6D5202084F83D00002001B0BDE8F08370
:1043A000206850E8030F216820F4D07041E8030230
:1043B000E2B3206850E8030F216820F4D07041E890
:1043C00003029AB3206850E8030F216820F4D070EC
:1043D00041E8030252B3206850E8030F216820F43B
:1043E000D07041E80302002ADAD11FE0206850E8CB
:1043F000050F216820F0010041E80502002A9ED047
:10440000206850E8050F216820F0010041E805020E
:10441000002A3FF494AF206850E8050F216820F08F
:10442000010041E80502002A3FF489AF206850E806
:10443000050F216820F0010041E80502002AD5D1CE
:104440007DE7000070470000FEE700002DE9F04125
:1044500082B06C462046002101F044FADDE90001FB
:1044600040F2D066C2F20006C6E9000120460121F2
:1044700001F038FADDE90001C6E902012046022117
:1044800001F030FADDE90001C6E90401204603210C
:1044900001F028FADDE90001C6E906012046042101
:1044A00001F020FA40F2C407C2F200070122C0F274
:1044B00026023C4644F8042F2822A2806B22C0F238
:1044C0009302D623C4F81A20C0F2D803C4F83E20C1
:1044D000FE22C4F81E30C4F84230A4F846203288C8
:1044E000B388E28023813289B3896281A381328AD1
:1044F000B38AE2812382328BB38B6282A382728879
:10450000F3886285A3857289F389DDE90001E2857C
:104510002386728AF38AFE25C6E90801C0F20105E6
:104520006286A386728BF38B45F67506C4F822501B
:104530002625E0822183090C000CC0F60006C0F29B
:104540002805E28623876087A18720461221022260
:10455000334604F12408C4F82650FBF762FE4046B7
:10456000122102223346FBF75CFE23883BB1B7F9E8
:10457000000007EB40010130A1F84C303880398D44
:1045800043F2C870C2F2000029B1B7F9022020F846
:10459000121001327A80FE88B7F90050002EAAB2BC
:1045A00018BF9E4205D007EB45030132A3F84C60CB
:1045B0003A803B89002B18BFB34206D016B207EBF6
:1045C00046060132A6F84C303A807E89002E18BF8C
:1045D0009E4206D013B207EB43030132A3F84C60AE
:1045E0003A80BB89002B18BFB34206D016B207EB46
:1045F00046060132A6F84C303A80FE89002E18BFDC
:104600009E4206D013B207EB43030132A3F84C607D
:104610003A803B8A002B18BFB34206D016B207EB94
:1046200046060132A6F84C303A807E8A002E18BF2A
:104630009E4206D013B207EB43030132A3F84C604D
:104640003A80BB8A002B18BFB34206D016B207EBE4
:1046500046060132A6F84C303A80FE8A002E18BF7A
:104660009E4206D013B207EB43030132A3F84C601D
:104670003A803B8B002B18BFB34206D016B207EB33
:1046800046060132A6F84C303A807E8B002E18BFC9
:104690009E4206D013B207EB43030132A3F84C60ED
:1046A0003A80BB8B002B18BFB34206D016B207EB83
:1046B00046060132A6F84C303A80FE8B002E18BF19
:1046C0009E4206D013B207EB43030132A3F84C60BD
:1046D0003A803B8C002B18BFB34206D016B207EBD2
:1046E00046060132A6F84C303A807E8C002E18BF68
:1046F0009E4206D013B207EB43030132A3F84C608D
:104700003A80BB8C002B18BFB34206D016B207EB21
:1047100046060132A6F84C303A80FE8C002E18BFB7
:104720009E4206D013B207EB43030132A3F84C605C
:104730003A807B8DB7F90260002BB2B21FBF8B426B
:1047400020F8163001327A80B98D002918BF9942BD
:1047500004D013B2013220F813107A80FB8D002BA5
:1047600018BF8B4204D011B2013220F811307A8088
:10477000398E002918BF994204D013B2013220F8B3
:1047800013107A807B8E002B18BF8B4204D011B29D
:10479000013220F811307A80B98E002918BF994271
:1047A00004D013B2013220F813107A80FB8E002B54
:1047B00018BF8B4204D011B2013220F811307A8038
:1047C000398F002918BF994204D013B2013220F862
:1047D00013107A807B8F002B18BF8B4204D011B24C
:1047E000013220F811307A80B98F002918BF994220
:1047F00004D013B2013220F813107A80FB8F002B03
:1048000018BF8B4204D011B2013220F811307A80E7
:10481000B7F84010002918BF994204D013B20132F2
:1048200020F813107A80B7F84230002B18BF8B4263
:1048300004D011B2013220F811307A80B7F8441058
:10484000002918BF994204D013B2013220F8131086
:104850007A80B7F84630002B18BF8B4204D011B2D3
:10486000013220F811307A80B7F84810002918BFBB
:10487000994204D013B2013220F813107A80B7F8AD
:104880004A30002B18BF8B4202D102B0BDE8F08144
:1048900011B220F81130501C788002B0BDE8F081D0
:1048A00010B540F2D06CC2F2000CBCF9002082427C
:1048B0000CDABCF90420824208DDBCF902208A42ED
:1048C00004DABCF906208A4200F3A280BCF9082071
:1048D00082420CDABCF90C20824208DDBCF90A20C5
:1048E0008A4204DABCF90E208A4200F39180BCF9B6
:1048F000102082420CDABCF91420824208DDBCF997
:1049000012208A4204DABCF916208A4200F3808021
:10491000BCF9182082420BDABCF91C20824207DD68
:10492000BCF91A208A4203DABCF91E208A426FDCE5
:10493000BCF9202082420BDABCF92420824207DD38
:10494000BCF922208A4203DABCF926208A425FDCC5
:10495000BCF9282082420BDABCF92C20824207DD08
:10496000BCF92A208A4203DABCF92E208A424FDCA5
:10497000BCF9302082420BDABCF93420824207DDD8
:10498000BCF932208A4203DABCF936208A423FDC85
:10499000BCF9382082420BDABCF93C20824207DDA8
:1049A000BCF93A208A4203DABCF93E208A422FDC65
:1049B000BCF9402082420BDABCF94420824207DD78
:1049C000BCF942208A4203DABCF946208A421FDC45
:1049D000BCF9482082420BDABCF94C20824207DD48
:1049E000BCF94A208A4203DABCF94E208A420FDC25
:1049F000BCF9502082420DDABCF95420824209DD14
:104A0000BCF952208A4205DABCF956208A4201DDFF
:104A1000002010BDBCF9582082424FF000020BDA92
:104A2000BCF95C30834207DDBCF95A308B4203DAB3
:104A3000BCF95E308B421CDCBCF96030BCF96440D0
:104A400083424FF00003BCF962E0BCF966C0A8BF26
:104A5000012384424FF00000D8BF012018438E4547
:104A60004FF00003A8BF012318438C45D8BF012293
:104A70000243104610BD000080B582B000200190B6
:104A800043F63000C4F202000168002241F4001134
:104A900001600068002100F40010019001980C20D2
:104AA000FDF740F80C20FDF72DF810200021002222
:104AB000FDF738F8102002B0BDE88040FDF722B8BD
:104AC00070B586B0002543F6300005950095C4F218
:104AD0000200016840F6000441F0800101600168B5
:104AE000C4F2020401F08001009100990095016870
:104AF000002241F004010160016841F60F3601F027
:104B00000401009100990095016841F001010160E4
:104B1000016801F00101009100990095016841F0E0
:104B200010010160016801F01001009100990095E9
:104B3000016841F002010160016801F00201009189
:104B400000990095016841F008010160006841F694
:104B50000F3100F00800009000982046FCF75CFF41
:104B60000120CDE9020501A9204601960495FCF734
:104B700075FE06B070BD000010B58CB042F63C105A
:104B800000210024C2F20000C4F20101C0E90014B7
:104B90000321CDE9031401214FF6FF72CDE905147D
:104BA000CDE9091403A9CDE90044C0E90242C0E9F6
:104BB00004448461CDE907440B94FDF7D9FB002838
:104BC00018BFFCF7F3FB42F63C10C2F20000694646
:104BD000CDE90044FDF7C6FA002818BFFCF7E6FB54
:104BE0000CB010BD80B58CB042F684100021C2F22A
:104BF00000004FF08042C0E9002103224FF6FF730E
:104C0000CDE903210122CDE90011C0E902130161C0
:104C10008161CDE90521CDE90711CDE909210B918C
:104C200003A9FDF7A5FB002818BFFCF7BFFB42F660
:104C30008410C2F200006946FDF794FA002818BFFC
:104C4000FCF7B4FB0CB080BD80B58CB042F6CC1044
:104C500040F200420021C2F20000C4F20002C0E9AA
:104C6000002103224FF6FF73CDE903210122CDE994
:104C70000011C0E9021301618161CDE90521CDE98F
:104C80000711CDE909210B9103A9FDF771FB00285C
:104C900018BFFCF78BFB42F6CC10C2F2000069464D
:104CA000FDF760FA002818BFFCF780FB0CB080BD50
:104CB00080B58CB042F6142040F600020021C2F20A
:104CC0000000C4F20002C0E9002103224FF6FF7386
:104CD000CDE903210122CDE90011C0E902130161F0
:104CE0008161CDE90521CDE90711CDE909210B91BC
:104CF00003A9FDF73DFB002818BFFCF757FB42F660
:104D00001420C2F200006946FDF72CFA002818BFF3
:104D1000FCF74CFB0CB080BDB0B590B042F65C2007
:104D200040F600450021C2F200004FF4FA63C4F2DD
:104D30000005CDE90811CDE90611CDE904110122E4
:104D4000C0E9021301618021C0E900528161FDF7D1
:104D50009FFE002818BFFCF729FB42F65C20C2F238
:104D6000000008A9FDF7FEF9002818BFFCF71EFB9C
:104D7000602001900020CDE90200059042F65C2001
:104D8000C2F2000001A90022FDF770FD002818BF43
:104D9000FCF70CFB42F65C20C2F2000001A90422E1
:104DA000FDF764FD002818BFFCF700FB42F65C200D
:104DB000C2F2000001A90822FDF758FD002818BF23
:104DC000FCF7F4FA42F65C24C2F2000401A9204682
:104DD0000C22FDF74BFD002818BFFCF7E7FA20680E
:104DE000A84201D010B0B0BD002043F630010B90B6
:104DF000C4F202010A6842F001020A60096801F087
:104E000001010B910B990F210B910221CDE90C109F
:104E1000CDE90E0105F5FA300BA9FCF71FFD10B026
:104E2000B0BD000080B582B042F6A4200021C2F2DD
:104E3000000041F200424FF0C80CCDE90011C4F26D
:104E4000000242F2D003C0E9021C8021C0E9002325
:104E50008161FDF7E3F9002818BFFCF7A7FA42F6D5
:104E6000A420C2F200006946FDF77CF9002818BFB3
:104E7000FCF79CFA02B080BD10B58CB042F6EC2075
:104E800040F200410024C2F20000C4F20101C0E976
:104E900000140321CDE9031401214FF6FF72CDE97F
:104EA0000514CDE9091403A9CDE90044C0E9024283
:104EB000C0E904448461CDE907440B94FDF758FA36
:104EC000002818BFFCF772FA42F6EC20C2F200008C
:104ED0006946CDE90044FDF745F9002818BFFCF705
:104EE00065FA0CB010BD000080B542F6343041F2D6
:104EF0000001C2F20000C4F2010100234FF00C0CCB
:104F00004FF4E13280E80E00C0E90333C0E905C385
:104F1000C361FFF733F8002808BF80BDBDE88040BB
:104F2000FCF744BA80B542F6783044F20041C2F250
:104F30000000C4F2000100234FF00C0C4FF4E132EA
:104F400080E80E00C0E90333C0E905C3C361FFF781
:104F500015F8002808BF80BDBDE88040FCF726BAE0
:104F600080B542F6BC3044F60001C2F20000C4F243
:104F7000000100234FF00C0C4FF4E13280E80E00EA
:104F8000C0E90333C0E905C3C361FEF7F7FF00289A
:104F900008BF80BDBDE88040FCF708BAFEE700000E
:104FA000FEE700007047000010B500F0E1FC40F2A1
:104FB0003004C2F20004B4F90C10B4F90E2003B2AC
:104FC000591A4943C2EB204000FB0010FBF760FB7D
:104FD00041EC100B00F082FF51EC100BFBF795FB3E
:104FE00000EE100AB2EE001AB4EE410AF1EE10FA29
:104FF0001ADAA078032832D100F0B2FC40F6B931B9
:1050000088422BDB40F248100021C2F2000040F23F
:1050100068120161C2F2000236A0A1701161BDE800
:10502000104000F05FBE00BFB4F90C00B4F90E10E0
:1050300000EE100A40F24810B8EEC00AC2F20000BA
:1050400080ED070A00EE101A40F26810B8EEC00AB0
:10505000C2F2000080ED070A10BD00BFA078022850
:1050600020D0012818BF10BD40F248110020C2F224
:105070000001086140F26811C2F20001B4F90A208F
:10508000086140F23871A070C2EBC200C2F20001A8
:1050900001EB8001012212A00A75BDE8104000F06A
:1050A00021BE00BF40F248100021C2F2000040F2D1
:1050B0006812A1700161C2F2000203A01161BDE893
:1050C000104000F00FBE00BF4465705F746F5F4416
:1050D000657320636F6D706C657465640A00000011
:1050E000546F5F44657020636F6D706C65746564A8
:1050F0000A00000063686172676520636F6D706C01
:10510000657465640A00000070470000FCF790BCFD
:10511000B0B592B0002443F64000CDE90A44CDE991
:1051200008440594CDE90344CDE901440094C4F258
:1051300002000168022541F080510160006800F022
:1051400080500090009847F200000094C4F20000E4
:10515000016841F4804101600068A82100F48040AA
:1051600000900098012006904FF4803007904FF493
:1051700080000D9004200E90119006A80C95CDE9AA
:105180000F15FCF719FE28B1EFF3108072B600BFBF
:10519000FEE700BF0F20CDE901054FF4A0500490B9
:1051A0004FF48050059001A805210394FCF7F6FC0C
:1051B00020B1EFF3108072B6FEE700BF12B0B0BDB1
:1051C0004EF68850CEF20000016841F47001016093
:1051D0007047000042F6A420C2F20000FDF78CBA2E
:1051E00010B540F6FF3E0368C4F2000E40F2004CDA
:1051F0007045C4F2010C27DCB0F1804F31D040F291
:105200000042C4F2000290422BD040F60002C4F2E9
:105210000002904225D041F6FF72C4F20002904293
:1052200029DC70453CDCB0F1804F5FD040F2004299
:10523000C4F20002904259D040F60002C4F20002CB
:10524000904253D056E000BF40F60042C4F2000244
:10525000904206D0604504D00022C4F20102904280
:10526000D9D14A6823F07003134341F6FF72C4F2A8
:1052700000029042D5DD43F6FF72C4F20102904273
:1052800022DC42F20002C4F2000290422ED0002240
:10529000C4F20102904229D0604527D02AE000BF25
:1052A00040F60042C4F2000290421FD041F60002D4
:1052B000C4F20002904219D041F60042C4F200024A
:1052C000904213D016E000BF44F20002C4F2010283
:1052D00090420BD044F60002C4F20102904205D085
:1052E00044F20042C4F20102904203D1CA6823F49E
:1052F0004073134323F080024B69D1F800E08C68BF
:105300001A430260C46240F48062C0F828E062453B
:1053100004BF096901630121416110BD806B002157
:10532000C185C184FEF764BB806B01684A6990F84F
:105330003D30212B2ED112F080022BD00022C284CE
:1053400051E8031F026821F0C00142E80313EBB1EA
:10535000016851E8031F026821F0C00142E803130D
:10536000A3B1016851E8031F026821F0C00142E8BF
:1053700003135BB1016851E8031F026821F0C0010B
:1053800042E8031313B10168DAE700BF202180F877
:105390003D1001684A6990F83E30222B7CD112F012
:1053A000400279D00022C28551E8031F026821F42F
:1053B000907142E80313C3B3016851E8031F026808
:1053C00021F4907142E803137BB3016851E8031F95
:1053D000026821F4907142E8031333B3016851E885
:1053E000031F026821F4907142E80313EBB10168D6
:1053F000DAE700BF016851E8051F026821F00101EA
:1054000042E80513DBB1016851E8051F026821F08D
:10541000010142E8051393B1016851E8051F0268D4
:1054200021F0010142E805134BB1016851E8051F65
:10543000026821F0010142E80513002BDAD1016B6B
:10544000012924D1016851E8031F026821F01001ED
:1054500042E80313DBB1016851E8031F026821F041
:10546000100142E8031393B1016851E8031F026879
:1054700021F0100142E803134BB1016851E8031F0A
:10548000026821F0100142E80313002BDAD1202139
:1054900080F83E1000210163016C41F010010164AD
:1054A000FEF7A6BA0168806B0968C90500F19F8004
:1054B0000021C185016851E8031F026821F4807151
:1054C00042E80313E3B1016851E8031F026821F4C5
:1054D000807142E803139BB1016851E8031F026821
:1054E00021F4807142E8031353B1016851E8031FAE
:1054F000026821F4807142E80313002BDAD100BF67
:10550000016851E8051F026821F0010142E8051316
:10551000BBB3016851E8051F026821F0010142E8B0
:10552000051373B3016851E8051F026821F00101FA
:1055300042E805132BB3016851E8051F026821F00A
:10554000010142E80513002BDAD11AE0016851E8A5
:10555000051F026821F0400142E80513DBB1016834
:1055600051E8051F026821F0400142E8051393B19C
:10557000016851E8051F026821F0400142E8051367
:105580004BB1016851E8051F026821F0400142E873
:105590000513002BDAD1202180F83E10016B012980
:1055A00025D100BF016851E8031F026821F01001F6
:1055B00042E80313DBB1016851E8031F026821F0E0
:1055C000100142E8031393B1016851E8031F026818
:1055D00021F0100142E803134BB1016851E8031FA9
:1055E000026821F0100142E80313002BDAD1016BAD
:1055F000012918BFFEF7E2BD818DFDF7C1BF000094
:10560000806B016B012918BFFEF7DABD818D490857
:10561000FDF7B6BF81B090F83E10222920D18368F3
:10562000B3F5805F08D10169002965D000F1280138
:105630000A6803685B680AE0014651F8282F13B92D
:105640000369002BF5D003685B6803F07F031370D8
:105650000A6801320A60C18D01390A04C18501D08E
:1056600001B070470168CA6822F02002CA60CA68A7
:1056700022F48072CA604A6922F001024A61202243
:1056800080F83E20026B012A40D10022026300BF55
:1056900051E8031F026821F0100142E8031301687A
:1056A000DBB151E8031F026821F0100142E8031347
:1056B000016893B151E8031F026821F0100142E82C
:1056C000031301684BB151E8031F026821F0100178
:1056D00042E803130168002BDAD10A68D20606D526
:1056E000002200920A680092496800910099818D19
:1056F00001B0FDF745BF00BF0168826A49686FF3DA
:105700005F2122F8021B8262A5E700BF01B0FEF70D
:1057100055BD000010B504460068D4E902C22369F3
:10572000016921F4405111430161626943EA0C01AE
:10573000E3691143C268194349F20C639A43114368
:10574000C1604169A26921F4407141F200431143F3
:1057500040F48062C4F201039A42416102D1FCF735
:10576000E1FA01E0FCF7CAFAE16963681922B1F5D0
:10577000004FA0FB02011FD15A00DB0FFAF720FDFA
:1057800048F21F51C5F2EB11A0FB01235A096FF03B
:10579000630302FB0300322303EBC000A0FB010103
:1057A0004FF4F87000EA111000EB0210C1F342113F
:1057B00008442168886010BD9A009B0FFAF700FD2D
:1057C00048F21F51C5F2EB11A0FB01235A096FF0FB
:1057D000630302FB0300322303EB0010A0FB010173
:1057E000F02000EA511000EB0210C1F3431108440D
:1057F0002168886010BD000042F67830C2F20000D7
:10580000FEF710B942F6BC30C2F20000FEF70AB94A
:10581000FEE70000B0B540F2140CC2F2000CBCF878
:10582000003040F6E06403EB430EC2F2000424F8BB
:105830001E1042F2F821C2F2000104EB4E0531F8CD
:1058400010406A805A1CAC80ACF8002021F810305F
:10585000B0BD000080B540F21400C2F2000001218A
:10586000018042F2F820C2F200004FF4FA71FAF718
:105870003FFD80BDB0F90000B1F90010401A70473B
:1058800040F25800C2F20000007A704742F2A010C5
:10589000C2F200000078B0FA80F0400970470000C2
:1058A00042F2A010C2F20000D0F8010070470000E0
:1058B00080B542F2A011C2F200014A7D02EBC202A1
:1058C00001EB4201D1F81220D1F81630D1F81AC0FC
:1058D000D1F81EE0498C80E80C10C0F810E08181FE
:1058E00080BD000040F25802C2F2000202EBC1018A
:1058F000D1F80A20D1F80E10026041607047000014
:1059000080B542F2A01201EBC101C2F2000202EB2B
:105910004101D1F81220D1F81630D1F81AC0D1F8CF
:105920001EE0498C80E80C10C0F810E0818180BD39
:1059300040F25801C2F2000101EB8000D0F83700BC
:105940007047000042F2A010C2F20000407C704795
:1059500040F25800C2F2000090F836007047000094
:1059600042F2A010C2F20000D0F80D007047000013
:1059700042F2A010C2F20000D0F809007047000007
:1059800042F6EC50C2F20000006840F21C01C2F284
:10599000000103224FF0FF33FEF714BC42F6EC5136
:1059A000C2F200010860704782B0FCF74FF8FFF7C1
:1059B000AFFBFFF785F8FFF75FF8FFF713F9FFF785
:1059C00043F9FFF775F9FFF7A7F9FFF78DFAFFF72E
:1059D000A9FAFFF7C5FAFFF725FAFFF74DFAFFF727
:1059E000CBF842F65C24C2F20004204600210027D6
:1059F000FDF79AF820460421FDF796F82046082185
:105A0000FDF792F820460C21FDF78EF842F684103F
:105A1000C2F200003C21FCF70FFE42F6CC10C2F2AD
:105A200000003C21FCF708FE42F63C10C2F20000E8
:105A30003C21FCF701FE42F6EC20C2F200003C21C2
:105A4000FCF7FAFD42F6A420C2F20000FCF73AFC93
:105A500042F6BC34C2F2000442F62151C2F2000107
:105A60002046C822FDF790FC40F21F05C2F2000557
:105A7000012028702046FFF791FF4FF4FA70FBF7E2
:105A8000D9FEFFF77DFF4FF4FA70FBF7D3FE43F228
:105A9000F8649FED549A9FED54AAC2F20004B0EE50
:105AA000008A2046B0EE480AF0EE490AB0EE4A1AE3
:105AB0002F7000F0EFF804F12000B0EE480AF0EE8D
:105AC000490AB0EE4A1A00F0E5F804F14000B0EEE1
:105AD000480AF0EE490AB0EE4A1A00F0DBF804F189
