:020000040800F2
:10000000D04700209D010008815100089946000852
:100010007D510008550E00089158000800000000AE
:1000200000000000000000000000000089510008EE
:10003000710E000800000000855100088D51000875
:10004000B7010008B7010008B7010008B7010008B0
:10005000B7010008B7010008B7010008B7010008A0
:10006000B7010008B7010008B7010008B701000890
:10007000590E0008B7010008B7010008B7010008D1
:10008000650E0008B7010008B7010008B7010008B5
:10009000B7010008B7010008B7010008B701000860
:1000A000B7010008B7010008B7010008B701000850
:1000B000B7010008B7010008B7010008B701000840
:1000C000B7010008B7010008B7010008B701000830
:1000D000B7010008B70100087958000885580008E2
:1000E000B7010008B7010008B7010008B701000810
:1000F000B7010008B7010008B7010008B701000800
:10010000B7010008B7010008B7010008B7010008EF
:10011000B7010008B7010008B701000855520008F0
:10012000B7010008B7010008B7010008B7010008CF
:10013000B7010008B7010008B7010008B7010008BF
:10014000B7010008B7010008B7010008B7010008AF
:10015000B7010008B7010008B7010008B70100089F
:10016000B7010008B7010008B7010008B70100088F
:10017000B7010008B7010008B7010008000000003F
:10018000B7010008B7010008DFF80CD000F05AFCF6
:100190000048004755590008D047002006488047CE
:1001A00006480047FEE7FEE7FEE7FEE7FEE7FEE75C
:1001B000FEE7FEE7FEE7FEE741520008890100087E
:1001C0002DE9F05F0546002092469B46884606468C
:1001D000814640241BE0284641464746224600F01F
:1001E000E2FA53465A46C01A914110D311461846B6
:1001F000224600F0C9FA2D1A67EB01084F46224645
:100200000120002100F0C0FA17EB00094E41201E2A
:10021000A4F10104DFDC484631462A464346BDE8E6
:10022000F09F2DE9FE43994615468846074601ACE6
:10023000022942D3002D40D000200290A8F10100F5
:100240004FF0FF36009022E000FB057201FB0570C5
:1002500011464A469047002805DC54F826003044F1
:1002600044F8260013E060682A4600FB057154F844
:10027000040C00FB057007E00B7890F800C001F853
:1002800001CB00F8013B521E002AF5D1764254F80A
:10029000040C61688842D7DC4B462A463846FFF793
:1002A000C0FF54F8040C4B46A8EB0001401C00FBB7
:1002B00005702A46491EFFF7B4FFBDE8FE8340EAF9
:1002C00001039B0703D009E008C9121F08C0042AD4
:1002D000FAD203E011F8013B00F8013B521EF9D2BB
:1002E0007047D2B201E000F8012B491EFBD27047E3
:1002F0000022F6E710B513460A4604461946FFF7F2
:10030000F0FF204610BD421C10F8011B0029FBD154
:10031000801A70472DE9FE4F804681EA0300C00F26
:100320000C46009021F0004123F00045B8EB02009C
:10033000A94105D24046214690461C460B4602463E
:1003400023F00040104347D0270DC7F30A00C3F342
:100350000A510290401A019040286BDAC3F313004F
:1003600040F4801B0098924620B10023D2EB030A90
:1003700063EB0B0B01985946C0F14002504600F068
:1003800003FA06460D4650465946019A00F01BFAFC
:1003900010EB08006141002487EA115284EAE773F8
:1003A0001A4340D0009A62B3019A012A4FEA0752D9
:1003B00015DC001B61EB02014FF0004202EA07521C
:1003C000CDE90042001C41F5801132462B4600F079
:1003D00052FA03B0BDE8F08F40462146F9E7001B12
:1003E00061EB0201001C41F5801300185B412018ED
:1003F000A2F5001747EB030140EAD570B6196D412D
:1004000011E06D084FEA360645EAC0754FEA07521B
:10041000001B61EB0201001C41F5801149084FEA05
:1004200030000019514132462B4603B0BDE8F04F71
:1004300000F012BA0098012240000023D0EB020223
:1004400063EBE073009821464FEAE074B8EB0000DC
:1004500061EB0401E9E783F000435BE781F00041D1
:1004600058E72DE9FE4F81EA030404F0004421F02F
:10047000004100944FF0000B23F0004350EA0104C8
:100480005ED052EA03045BD0C3F30A54C1F30A55A9
:100490002C44A4F2F3340194A0FB0254C1F31301E1
:1004A00041F48011C3F3130343F4801301FB0244AE
:1004B00000FB034E840A970A44EA815447EA8357B3
:1004C000A4FB076802958D0A05FB07854FEA932C6C
:1004D00004FB0C542705029D4FEA065847EA1637DD
:1004E000B5EB08056EEB070C870E920E47EA8117F5
:1004F00042EA8312A7FB0201B6EB0B0164EB000496
:100500002B0D43EA0C335E1844EB1C50DA4651467F
:10051000E7FB0201C5F313044FEA0B3343EA14531C
:100520004FEA0432019C43EA0603A4F10C0402944E
:10053000009CCDE900B400F09EF903B0BDE8F08F57
:1005400000200146F9E72DE9F04D81EA030404F0AB
:10055000004B21F0004514464FF0000A23F0004103
:1005600050EA050220D054EA01021DD0C5F30A5713
:100570000246C5F31303C1F31300C1F30A5640F456
:10058000801543F48013A7EB0608101BD64608F22B
:10059000FD3873EB050002D308F1010801E0921861
:1005A0005B41B8F1000F03DA00200146BDE8F08D91
:1005B00000204FF48011064684460EE0171B73EBB3
:1005C000050705D3121B63EB050306434CEA010C38
:1005D00049084FEA300092185B4150EA0107EDD11B
:1005E00052EA030012D082EA040083EA05010843BC
:1005F00005D0101BAB4106D20122002306E00022E9
:100600004FF0004302E06FF0010253101AEB0600B6
:100610004CEB085110EB0A0041EB0B01BDE8F04D2B
:1006200000F01AB930B5041E71F1000404DB4FF07C
:100630000044404264EB0101141E73F1000405DB29
:100640001C464FF00043524263EB0403101A8B41E7
:1006500001D2012030BD002030BD30B5041E71F143
:10066000000404DB4FF00044404264EB0101141E1F
:1006700073F1000405DB1C464FF00043524263EB6C
:100680000403101A8B4101D3012030BD002030BD7E
:100690000EB5C10F80EAE0700844CA07002140F29D
:1006A00033438DE80E000A460B4600F0E4F803B031
:1006B00000BD0EB540F2334102910021CDE9001199
:1006C0000A460B4600F0D7F803B000BDC1F30A524A
:1006D00010B5C1F3130140F2FF3341F480119A4287
:1006E00001DA002010BD40F233439A42A2F23342B5
:1006F00003DC524200F057F810BD904010BD00F0EE
:10070000004230F000400AD0C10D01F56071C0F325
:10071000160042EA0151C208400711437047002009
:100720000146704701F0004330B421F0004150EA27
:10073000010206D00A0DA2F56072C1F31301002A6E
:1007400002DC30BC00207047440F44EAC104C10001
:10075000E01830BC00EBC25000F047B830B50B4693
:10076000014600202022012409E021FA02F59D42E1
:1007700005D303FA02F5491B04FA02F52844151EB5
:10078000A2F10102F1DC30BD202A04DB203A00FA9C
:1007900002F1002070479140C2F1200320FA03F3D8
:1007A000194390407047202A04DB203A21FA02F0D6
:1007B0000021704721FA02F3D040C2F1200291409B
:1007C000084319467047202A06DBCB17203A41FA26
:1007D00002F043EAE07306E041FA02F3D040C2F1CE
:1007E000200291400843194670470029A8BF70476E
:1007F000401C490008BF20F00100704710B4B0FA57
:1008000080FC00FA0CF050EA010404BF10BC7047F1
:1008100049B1CCF1200421FA04F411FA0CF118BF0B
:10082000012121430843A3EB0C01CB1D4FEA0061DA
:100830004FEA102042BF002010BC704700EBC350AD
:1008400010440029A4BF10BC7047401C490008BFD9
:1008500020F0010010BC704710B5141E73F10004A5
:1008600008DA401C41F1000192185B411A4301D1A2
:1008700020F0010010BD2DE9F04D92469B4611B1CC
:10088000B1FA81F202E0B0FA80F220329046FFF72E
:100890007BFF04460F4640EA0A0041EA0B0153463B
:1008A0005A46084313D0114653EA010019D0C8F143
:1008B00040025046FFF777FF05460E465046594620
:1008C0004246FFF761FF084305D0012004E02046BF
:1008D0003946BDE8F08D0020054346EAE0762C431A
:1008E00037430A986305E40AA0EB08000022FD0ADA
:1008F00044EA47540A3002D500200146E9E70105E1
:1009000010196941DDE9084500196941BDE8F04D5C
:10091000A2E72DE9F04D00231A461B1A8A4103DB9A
:1009200000200146BDE8F08DC1F30A52C1F3130166
:1009300041F480154FF0000BD10702D100186D4132
:10094000521E0027044640F2FF11384601EB620AAE
:100950003E468046024600204FF48011FFF723FFF9
:10096000C2197141BB1846EB0100B4EB030C75EBE7
:10097000000C04D3E41A65EB000517460E46241953
:1009800008F101006D4180463428E3DDF91946EB9A
:100990000600091BA84103D24FF0FF32134601E0C5
:1009A000002213461BEB070046EB0A51BDE8F04D51
:1009B000FFF752BFC1F30A52C1F3130140F2FF33F4
:1009C00041F480119A4202DA00200146704740F259
:1009D00033439A42A2F2334202DC5242FFF7E3BEB3
:1009E000FFF7D2BE30B5041E71F1000404DB4FF0F6
:1009F0000044404264EB0101141E73F1000405DB66
:100A00001C464FF00043524263EB04038B4208BF85
:100A1000824230BD30B5041E71F1000404DB4FF09A
:100A20000044404264EB0101141E73F1000405DB35
:100A30001C464FF00043524263EB0403994208BF47
:100A4000904230BD064C074D06E0E06840F00103DF
:100A500094E8070098471034AC42F6D3FFF798FBB0
:100A6000D46F0008F46F00082DE9F04F8BB040F20E
:100A70008060C2F20000262128269325D824C0F2E7
:100A8000D6016B224FF026136B27C0F26B06C0F223
:100A90002605C0F2280400F1280CC0F2D802C0F2EA
:100AA00028078CE88E00C0E90E36C0E91054D62124
:100AB000932626252824C0F22601D822D6234FF0DB
:100AC000D817C0F2D606C0F29305C0F2D80400F1E0
:100AD000480CC0F26B02C0F293038CE88E00C0E9B0
:100AE0001667C0E9185403F0D9FD04F0F3FE40F294
:100AF000B001C2F20001B1F9024040F22012B1F996
:100B000000B0C2F200020120022C1080C0F2088165
:100B1000BBF1020FC0F28280601E0590ABF10100B4
:100B2000049044F2E220C2F20000018843F21C600B
:100B3000C2F20000871C40F2B000C2F20000B0F820
:100B40004C2043F23825039200224FF0010AC2F2F2
:100B500000054E300A94CDF804B002900AE000BFC0
:100B6000069D0598079A099F08990135824207F169
:100B700008074DD044F2E2200132C2F2000030F901
:100B80001200DDF808B000FA81F180B2089001EBA4
:100B9000D1704FEA6009049C039807920997069563
:100BA00026E000BF40F2201240F254134FEA6800E2
:100BB0001FFA8AF10AF1010AC2F20002C2F200032E
:100BC000A2F800A0C7F8021003EB810223F821006D
:100BD000012127F8020CA7F80090A2F80290B0B209
:100BE00005F8111B013C0BF1020B07F18807B7D088
:100BF000BBF900600FFA89F106FA80F000EBD078BB
:100C000048F34F0003F074FF0028CBD10021E6E742
:100C10000A9CDDF804B0022CC0F2828043F21C6E04
:100C20004FF0000AC2F2000E00210CE040F2B000CA
:100C3000C2F2000044880999013120B21FFA81FAFA
:100C4000013850456CDD0FFA8BF00328F4DB099175
:100C50000021002607E000BF01360FFA8BF0B1B289
:100C600002388842E2DD01EB01130EEBC30232F9D8
:100C70003A0087B2002FEFD002EBCA08B8F9022081
:100C8000002AE9D0013101EB01140EEBC40535F95E
:100C90003A101FFA81F9B9F1000FDDD005EBCA0552
:100CA000B5F902C0BCF1000FD6D00A9543F2382541
:100CB000C2F200052B4413F80A30002BCCD02B19BC
:100CC00013F80A30002BC7D008440CEB020100EBEC
:100CD000D07001EBD17140F34F0041F34F017446E6
:100CE00003F006FFA6460028B6D00A9DB8F8040017
:100CF000A988A9EB070292B204F0CCFD2A88B8F8C3
:100D00000030A888B8F80410D21A92B204F0C2FDDC
:100D100040F2B000C2F20000B0F800B0A6469BE777
:100D20000FFA8BF00228C0F2918043F21C6C00266F
:100D3000C2F2000C00210DE040F2B000C2F200004F
:100D4000B0F800B0059901310FFA8BF08EB201387E
:100D5000B0427BDD20B20328F5DB002000250591A1
:100D6000099607E0DDE90964013521B2A8B202392C
:100D70008142E1DD06EB06130CEBC30737F93010B7
:100D80000029F1D007EBC008C3463BF9022F1FFA38
:100D900082F9B9F1000FE7D0461C37F936E00A9422
:100DA000BEF1000FDED007EBC6073C4634F902CF98
:100DB0001FFA8CFABAF1000F0794CDF820A03DD0AD
:100DC000069743F23827C2F200073B44185CA8B3E9
:100DD000985D98B30EEB01000CEB020100EBD070B4
:100DE00001EBD17140F34F0041F34F0103F080FE5E
:100DF0000A9C43F21C6C099E0028C2F2000CB3D07E
:100E0000069F089AB8F80400B988A2EB090292B2CA
:100E100004F040FD0799BBF800300A88B888B8F89C
:100E20000410D21A92B204F035FD40F2B000C2F2C2
:100E3000000043F21C6C448804E000BF0A9C43F2AB
:100E40001C6C099EC2F2000C8EE700BF0BB0BDE81F
:100E5000F08F0000FEE7000042F61810C2F200001A
:100E600000F0D0BC42F6B800C2F2000000F0CABCEC
:100E7000704700002DE9F04F83B040F22013C2F21A
:100E80000003B3F8008040F6DC0A40F2E86B44F25D
:100E9000E816C2F2000A0122B8F1000FC2F2000BFC
:100EA000C2F20006AAF8802CCDE9011000F0CC8037
:100EB00001230027012200BF14B2651C4545F754E9
:100EC0000DDCA31C4345775509DCD51C2DB24545E7
:100ED000F75404DC043213B243457755ECDDB8F126
:100EE000000F00F0B18043F228470125C2F200074D
:100EF000002201235C1C24B2444527F8152011DC94
:100F00009D1C2DB2454527F814200BDCDC1C24B2B7
:100F1000444527F8152005DC04331DB2454527F864
:100F20001420E7DDB8F1000F00F08E8040F22017AA
:100F30004FF0010C4FF0000E47F2305947F2315696
:100F400001210122C2F200070AE000BFBAF8800CBA
:100F500000F1010C013211B24145AAF880CC79DCD4
:100F60001FFA8CF402980AEB8405814225F8022BC3
:100F700032D191B2012CA5F800E02BF811C032D08B
:100F8000CCF34E010AEB810535F8024F002CDDD081
:100F90001FFA8CF45AF824305AF821004AF821300C
:100FA0004AF8240080B28C463AF821103BF8103001
:100FB0003BF811402BF811301FFA8CF101292BF866
:100FC0001040C3D0CCF34E0128880AEB810535F8D8
:100FD000023F9842DCD3B9E790B2012CA5F800900B
:100FE0002BF810C002D14FF0020CB3E7CCF34E0146
:100FF0000AEB810535F8020FB042A7D31FFA8CF037
:101000005AF820305AF821404AF821304AF8204056
:101010008C463AF82100A1B23BF811303BF8104061
:101020002BF810301FFA8CF001282BF811403FF4F8
:101030008DAFCCF34E0128880AEB810535F8023FCD
:101040009842DBD382E700BF40F220174FF0010C3B
:10105000C2F2000702981FFA8CF33BF8101000222E
:101060000AEB8101022B4A80C0F0AB80B8F1000F7F
:1010700000F0A78041F25E5843F2284E002447F268
:101080003055C2F20008C2F2000E0AE0B646BAF8C5
:1010900080CCBCF1020FC0F094803888844280F28A
:1010A0009080BAF80600A84200F08B80ACF10100F5
:1010B000AAF8800C80B25AF82010DAF80420BAF8A6
:1010C0000490CAF804104AF82020BAF8040091B23B
:1010D0003BF811203BF810302BF810202BF8113082
:1010E00050460121764604F099FD44F2E811C2F21F
:1010F000000111F809000028C8D142F67810C2F2A8
:10110000000030F81900013400284FF0010201F806
:101110000920BBD0A446B64605E000BF2EF81190CA
:101120008088002840D03BF8191000B20AEB8101FA
:1011300000EB40004B8838F8101008EB40003BF8FB
:10114000114045880AEB840232F8027F1D44BD42FB
:10115000E6D2012C1580E1D062080AEB820333F855
:10116000027FADB2AF42D9D95AF824705AF8225052
:101170004AF822704AF8245014463AF82220AFB2B6
:101180003BF817503BF81260012C2BF812502BF84B
:101190001760C3D062081F880AEB820333F8026F1E
:1011A000B742E1D3BAE700BF40F22017C2F200070E
:1011B000644647F23055BAF880CCBCF1020FBFF458
:1011C0006CAF019C43F6E47C0022C2F2000CCCB36D
:1011D000029827B2B84236D043F228430021C2F227
:1011E000000333F9175041F00102AEB28FB2002E66
:1011F0002CF8174018BFA84225D033F9154041F00C
:101200000207A5B292B22CF812604DB3A0423A4642
:1012100019D033F9144041F00302A6B2BFB2002E38
:101220002CF8175018BFA0420DD033F914700431B8
:10123000BCB292B22CF81260A4B1B8420A46D0D126
:1012400001E000BF029840F22013511CC2F20003DB
:10125000598091B22CF8110003B0BDE8F08F00BFA7
:101260003A46F0E70A46EEE740F23000C2F20000EC
:101270000021C0E90311018070470000EFF31080E6
:1012800072B600BFFEE700002DE9F04F81B02DEDF2
:10129000028B88B040F2300AC2F2000A05469AF882
:1012A00001000E460021C4F2A0110228CAF80C1059
:1012B00000F0B080012800F0D180002840F0A48028
:1012C0000020A946AAF8020004F028FB9FED848ABA
:1012D00040F2541540F2201807B24FEA204B4FF06D
:1012E000010AC2F20005C2F2000800BF1FFA8AF02C
:1012F00005EB800135F92000B1F90210C01B404315
:10130000A1EB0B0101FB0100FFF7C2F941EC100B4F
:1013100005F07AF851EC100BFFF704FA00EE100A12
:10132000B4EE408AF1EE10FAC4BF5446B0EE408AE3
:101330000AF1010AB8F800001FFA8AF18142D5D9F2
:101340009FED678A0FFA89FA36B24FF001090797C5
:101350001FFA89F005EB800135F92000B1F9021080
:10136000A0EB0A004043891B01FB0100FFF790F945
:1013700041EC100B05F048F851EC100BFFF7D2F9D7
:1013800000EE100AB4EE408AF1EE10FAC4BF4F46E8
:10139000B0EE408A09F10109B8F800001FFA89F19E
:1013A0008142D5D9A0B2B9B2FFF764FD0799E2A096
:1013B0005A4604F0A7FC40F22218C2F20008B8F81E
:1013C0000000013806B2002E17D443F6E479C2F2C9
:1013D0000009DCA4B7B239F8170005EB800235F933
:1013E0002010B2F90220204604F08CFC002FA6F158
:1013F0000106EFD1B8F80000461E40F23001C2F2FB
:101400000001012048704E8008B0BDEC028B01B095
:10141000BDE8F08F04F082FA074631B20FFA80F986
:1014200028B2C1EB2741A9EB0000494300FB0010A3
:10143000FFF72EF941EC100B04F0E6FF51EC100B16
:10144000FFF770F99FEDB80A01EE100AB4EE401AEA
:10145000F1EE10FA46DA0020C1E000BF04F05EFAB7
:10146000BAF80210002900F0B980054643F6E4708E
:10147000C2F2000030F8110040F25411C2F2000133
:1014800031F9202001EB8000B0F902102CB2A01A33
:10149000AAF804204043C1EB254202FB0200AAF84F
:1014A0000610FFF7F5F841EC100B04F0ADFF51EC1E
:1014B000100BFFF737F99FED9C0A01EE100AB4EE0E
:1014C000401AF1EE10FA80F29380BAF80200013867
:1014D000AAF8020008B0BDEC028B01B0BDE8F08FA5
:1014E0000050C3474FEA27484046FFF7D1F8074668
:1014F00030460C46FFF7DDF802460B4638462146DB
:10150000FEF7A9FF41EC180B2846FFF7D2F8044676
:1015100048460D46FFF7BCF802460B4620462946D2
:10152000FEF799FF41EC110BB0EE480AF0EE680AA5
:1015300004F06AFE51EC100B9FED750B53EC102B71
:10154000FEF78FFF9FED740B53EC102BFEF7FBFFA4
:101550009FED730B53EC102BFEF7DCFEFFF7E2F868
:101560000446CAF8100040F27060C2F200008068C1
:10157000BAF80450BAF80660FFF7C1F841EC180B4E
:101580002046FFF7BCF841EC100B46F69870C0F609
:101590000000494642462B468DED028B00968DEDAC
:1015A000040B04F0AFFB9AED040A9FED611A9FED66
:1015B0005F2AB4EE410AF1EE10FA30EE022AC8BFFB
:1015C000B0EE420A00F390809FED5A2AB4EE420A30
:1015D000F1EE10FABFF618AF86E000BF02208AF8DD
:1015E000010008B0BDEC028B01B0BDE8F08F00BF78
:1015F000280C00B24FEA2548FFF74AF80646BAF829
:1016000006000F46FFF755F802460B4630463946AE
:10161000FEF721FF41EC180BBAF80400FFF749F878
:10162000064620460F46FFF733F802460B46304683
:101630003946FEF710FF41EC110BB0EE480AF0EE10
:10164000680A04F0E1FD51EC100B9FED310B53ECF7
:10165000102BFEF706FF9FED300B53EC102BFEF71F
:1016600072FF9FED2F0B53EC102BFEF753FEFFF78D
:1016700059F80646CAF8100040F27060C2F2000045
:101680008068BAF80470BAF80650FFF738F841ECF1
:10169000180B3046FFF733F841EC100B46F6987004
:1016A000C0F60000214642463B468DED028B009578
:1016B0008DED040B04F026FB9AED040A9FED1C1A35
:1016C0009FED1A2AB4EE410AF1EE10FA30EE022A2A
:1016D000C8BFB0EE420A07DC9FED162AB4EE420AFC
:1016E000F1EE10FABFF690AE9FED122A30EE011A1D
:1016F000B4EE420AF1EE10FAB8BFB0EE410A8AED3C
:10170000040A08B0BDEC028B01B0BDE8F08F00BF49
:1017100000000000008066404AD8124DFB210940BD
:1017200000000000008056C000000C420000B4C35E
:1017300000003443000034C361616125642C2564DA
:101740000A00000025642C25640A000070B5866D2F
:10175000044600F031FB94F8351002292ED10546DD
:101760002068216C026822F016020260426922F0B1
:101770008002426109B9A16C19B1016821F0080128
:101780000160016821F0010101600068C00708D014
:1017900000F012FB401B052818D820680068C0071D
:1017A000F6D1E06D3F2101FA00F0B060012084F82D
:1017B00035000020002184F8341070BD8020606561
:1017C0000120002184F8341070BD00BF2020606526
:1017D000032084F83500002184F8341070BD000027
:1017E00090F83510022909D1052180F835100068DC
:1017F000016821F0010101600020704780214165EE
:1018000001207047F0B581B004460020009040F2FE
:101810000C00C2F200000268D4E9166048F2B51369
:1018200037680821C1F64E3381403942A2FB0325B7
:101830000CD0226813685B0708D5136823F00403F3
:101840001360B160616D41F001016165012181406A
:10185000394208D022685269120604D5B160616D20
:1018600041F00201616504218140394208D02268BB
:101870001268920704D5B160616D41F004016165A1
:1018800010218140394217D020680268120713D511
:10189000B16002680168520308D4C90508D4016820
:1018A00021F008010160216C21B905E008033FD453
:1018B000216C09B120468847E16D202000FA01F231
:1018C0003A4241D020680368DB063DD5B26094F807
:1018D00035300268052B1BD122F0160202604269E6
:1018E00022F080024261226C0AB9A26C1AB102682D
:1018F00022F0080202603F208840B060012084F896
:101900003500216D0020002984F8340052D157E0C1
:101910000168520310D4C90512D4016821F01001E6
:101920000160012084F83500002084F8340007E0CD
:10193000A16C0029BED1BFE7080301D4616C00E0AF
:10194000E16B09B120468847606DC8B3606DC00780
:101950002ED0052084F835002068A90A026822F0FC
:1019600001020260009A01328A4200921AD802688B
:10197000D20717D0009A01328A42009212D8026828
:10198000D2070FD0009A01328A4200920AD8026828
:10199000D20707D0009A01328A42009202D8026828
:1019A000D207DFD1012084F83500002084F834000C
:1019B000E16C29B1204601B0BDE8F040084700BF06
:1019C00001B0F0BD2DE9F041044600F0F5F9002C1E
:1019D0004ED00546022084F835000020216884F8A6
:1019E0003400086820F0010008600868C00708D0CB
:1019F00000F0E2F9401B05286CD821680868C00790
:101A0000F6D1086848F23F02CFF21002D4E901355E
:101A1000024004F10C0E9EE8C1511A432A431043C0
:101A20003043384340EA0800626A40EA0C00042A66
:101A300040EA0E0320D1D4E90A5E206B4EEA03028D
:101A4000104308604869BEF1000F20F0030040EA2F
:101A5000050040F0040C15D0B8F5005F42D0B8F195
:101A6000000F51D1022D52D0012D47D055B94EE073
:101A70000120BDE8F08100BF0B60486920F007003D
:101A800040EA020C6FF00F004AF6AB2250FA81F0E8
:101A9000CAF6AA22A0FB02231A0946F69073C0F6E2
:101AA00000039A5C40F2FF335F284FF03F00C1F81B
:101AB00014C021EA030100FA02F088BF0431C4E92E
:101AC00016128860002301220020636584F8352007
:101AD000BDE8F081032220230320636584F83520CC
:101AE000BDE8F081032DCDD8012240230120DFE89D
:101AF00005F0030E030500BFE7E700BFAEF1C070BD
:101B0000B0FA80F0400904E0032D04D3BAD1CEF33B
:101B100000600028B6D0012240230120636584F8CC
:101B20003520BDE8F081000070B590F834C0BCF1FC
:101B3000010F46D04FF0010C80F834C0D0F858E0C7
:101B400090F835C0BCF1010F38D14FF0020C80F88D
:101B500035C04FF0000CC0F854C0D0F800C0846805
:101B6000056CC06DDCF80060402C26F48026CCF8B3
:101B70000060CCF804300B4604BF13460A463F21F0
:101B800001FA00F0CCF80830CCF80C20CEF80800B0
:101B9000DCF8000040F01600CCF800002DB1DCF8B5
:101BA000000040F00800CCF80000DCF8000040F035
:101BB0000100CCF80000002070BD00BF002180F8BB
:101BC0003410022070BD0000B0B5044600F0F4F8F7
:101BD000054640F20400C2F200000078611C18BF04
:101BE000044400BF00F0E8F8401BA042FAD3B0BDA7
:101BF0002DE9F04F82B000F13E4241F6004502F17E
:101C0000FF77C4F2020508224FEAB726A84208BFB0
:101C10000722072E38BF4FEAB7224FF0010A0024EF
:101C200000274FF00008009208E000BF023708F1DB
:101C30000108202F04F1040400F0B4800E680AFAB1
:101C400008F916EA090FF1D0D1F804A00AF0030B45
:101C5000ABF10106012E17D80322866802FA07FEAF
:101C6000CA6826EA0E06BA40324382604268CAF366
:101C7000001522EA090205FA08F54FEA480C6FEA56
:101C80000E062A4342600BE00322BA40D643BBF162
:101C9000030FBC4604D1BC464FF0030B22E000BF4B
:101CA000C2688D68324005FA0CF52A43BBF1020F79
:101CB000C26017D16FF0030202EA5802024404F036
:101CC0001C030F25D2F820E005FA03FA0D692EEA6D
:101CD0000A0E05FA03F343EA0E031362D1F804A0D7
:101CE0000AF0030B02680BFA0CF332401A431AF4A1
:101CF000403F4FF0010A026098D0002243F64403AF
:101D00000192C4F202031A6843F6004E42F4804284
:101D10001A601A68C4F2010E02F480420192019A1C
:101D200028F003024FF6084C7244CFF6FF7C52F8BD
:101D30000C3004F00C060F25B540AB43009D05FAAE
:101D400006F6334342F80C30DEF808204B6842EACE
:101D5000090643F60C4CDD0258BF22EA0906CEF80C
:101D60000860C4F2010CDCF800209D0242EA09067A
:101D700058BF22EA0906CCF80060DEF804209D0373
:101D800042EA090658BF22EA0906CEF80460DEF8E6
:101D90000020DB0342EA090658BF22EA0906CEF812
:101DA000006043E702B0BDE8F08F0000002A08BFE2
:101DB000090481617047000044F2D810C2F20000AB
:101DC0000068704740F2040044F2D811C2F20000EB
:101DD000C2F2000100780A681044086070470000F1
:101DE00080B543F60040C4F20200016841F400717E
:101DF0000160016841F480610160016841F4807113
:101E00000160032000F084F80F2000F005F800F0D6
:101E100027F8002080BD000070B540F20406C2F231
:101E2000000640F20C013278C2F200014FF47A73DE
:101E30000968B3FBF2F20446B1FBF2F1084600F088
:101E400041FB0F2C4FF0010508D838B94FF0FF3097
:101E500021460022002500F02FF87460284670BD4E
:101E600082B0002043F640010190C4F202014A68AA
:101E700042F480424A604A6802F480420192019A28
:101E80000090086840F080500860086800F08050BA
:101E90000090009802B07047002848BF704700F0DB
:101EA0001F01012202FA01F14EF200124009CEF2A6
:101EB000000242F82010704710B54EF60C5CCEF2CE
:101EC000000CDCF80030C3F3022E8EF00704042C63
:101ED00028BF0424BEF103034FF0FF3E0EFA04F4C2
:101EE00038BF0023A14399400EFA03F39A431143EC
:101EF00000F00F02043A624409010C3200F1604321
:101F0000B0F1FF3FC8BF03F56442117010BD00007F
:101F10004EF60C51CEF200010A684FF6FF031A404C
:101F200060F30A2242F0806040F0FD700860704764
:101F30002DE9F041002800F08B8043F60808C4F238
:101F400002080446D8F8F8030D4600F0070088425E
:101F500007D288F8F853D8F8F80300F00700A84231
:101F600076D12068810717D5410705D5D8F800102C
:101F700041F4E051C8F80010010705D5D8F8001069
:101F800041F46041C8F80010D8F80010A26821F0B0
:101F9000F0011143C8F80010C0073FD1D8F8F8038A
:101FA00000F00700A84207D988F8F853D8F8F803DA
:101FB00000F00700A8424BD12068410707D5D8F8A8
:101FC0000010E26821F4E0511143C8F80010000746
:101FD00008D5D8F80000216920F4604040EAC1002B
:101FE000C8F8000000F07CF8D8F8001046F67872C7
:101FF000C1F30311C0F60002515C40F20C0220FA5A
:1020000001F140F20800C2F200000068C2F20002D2
:102010001160FFF701FF0020BDE8F0816068811EBC
:10202000022907D258F8081C89015CBF0120BDE8CD
:10203000F08111E0012807D158F8081C89035CBF22
:102040000120BDE8F08107E058F8081C890703D497
:102050000120BDE8F08100BFD8F8001021F0030195
:102060000843C8F80000FFF7A7FE064641F288378C
:10207000D8F80000616800F00C00B0EB810F8DD043
:10208000FFF79AFE801BB842F2D90320BDE8F08129
:1020900040F20C0043F60801C2F20000C4F2020153
:1020A0000068096846F68872C1F38221C0F6000212
:1020B000515CC8407047000040F20C0043F6080134
:1020C000C2F20000C4F202010068096846F6887294
:1020D000C1F34231C0F60002515CC84070470000B5
:1020E00010B543F60404C4F20204606800F00C0169
:1020F00042F200400829C0F2F40007D0042918BFBA
:1021000010BD41F20020C0F27A0010BD216801F03C
:102110003F02216823684902C3F3881106D4A1FB5A
:1021200000010023FEF74CF807E000BF41F2002059
:10213000C0F27A004843B0FBF2F021680222C1F3FA
:10214000014102EB4101B0FBF1F010BD2DE9F0417E
:1021500082B000286AD00446007843F60006C00723
:10216000C4F202060BD0B06800F00C00042840F066
:10217000A1803068800302D56068002856D020789E
:1021800080071AD5B06810F00C0F09D0B06800F0C5
:102190000C00082840F0A8807068400200F1A4807C
:1021A0003068800702D5E06801283FD13068216996
:1021B00020F0F80040EAC10030602078000739D4F0
:1021C000207840074ED4A5695DB3B06800F00C00DC
:1021D000082840F0BD80012D28D07068E16900F426
:1021E00080028A4222D1216A00F03F028A421DD138
:1021F00047F6C071626A0140B1EB821F16D1A26A34
:102200000023CFF6FF7303EBC23200F440316FF3CB
:102210000F0291420AD1E16A00F07060B0EB016FE9
:1022200004D1002002B0BDE8F08100BF012002B05F
:10223000BDE8F0816069002840F20000C4F2472048
:1022400076D00121C0F8801EFFF7B6FD054600BF1D
:10225000706F8007B4D4FFF7AFFD401B0228F7D999
:10226000DDE000BF306C10F080580AD100200190F2
:10227000306C40F080503064306C00F08050019041
:10228000019847F20007C4F200073868C00541D43E
:10229000386840F480703860FFF78EFD054600BF57
:1022A0003868C00536D4FFF787FD401B0228F7D9F0
:1022B000B5E000BFB06800F00C00082803D17068DA
:1022C00040023FF556AF6068B0F5803F07D0B0F5EB
:1022D000A02F40F08D80306840F48020306030685E
:1022E00040F4803030608DE0E068002852D000205B
:1022F000C4F2472001210160FFF75EFD054600BFE3
:10230000306880073FF552AFFFF756FD401B0228AB
:10231000F6D984E0A068012805D005284ED1306F99
:1023200040F004003067306F40F0010030674FE04C
:102330000021C0F8801EFFF73FFD0546706F800743
:102340007FF53EAFFFF738FD401B0228F6D966E067
:102350000027C4F2472700203866FFF72DFD022D25
:1023600005460BD1306880015ED5FFF725FD401B87
:1023700002284FF00300F5D954E700BF3068800110
:102380007FF54FAFFFF718FD401B02284FF0030009
:10239000F4D947E70020C4F2472000210160FFF78D
:1023A0000BFD0546306880077FF507AFFFF704FD9A
:1023B000401B02284FF00300F4D933E7316F0028A7
:1023C00021F001013167316F21F0040131674DD0F7
:1023D000FFF7F2FC054641F2883700BF306F8007F7
:1023E00056D4FFF7E9FC401BB842F7D917E000BF0D
:1023F0003168002821F480313160316821F4802176
:1024000031604FD0FFF7D8FC054600BF306880032D
:102410003FF5B5AEFFF7D0FC401B6428F6D903208A
:1024200002B0BDE8F08100BF04F11C052FCD0843C8
:102430000021CFF6FF7140EA821001EBC3316FF348
:102440000F0140EA05600843706001203866FFF71D
:10245000B3FC0446306880013FF5E3AEFFF7ACFC07
:10246000001B02284FF00300F4D9DBE6FFF7A4FCC1
:10247000054641F2883700BF306F800708D5FFF767
:102480009BFC401BB8424FF00300F5D9CAE600BFE1
:10249000B8F1000F7FF497AE306C20F080503064BC
:1024A00091E600BFFFF788FC054600BF3068800357
:1024B0007FF565AEFFF780FC401B64284FF00300FA
:1024C000F4D9AFE6411E0020B0EB116F1CBF012014
:1024D00070474EF21002CEF2000251604EF62351C8
:1024E000CEF20001F0230B7007219060116070475D
:1024F000704700007047000010B590F83C20012A9A
:102500004FF0020251D080F83D200268D2F804E07A
:10251000D2F808C00C682EF07003234341F2FF7418
:10252000C4F20004A24253600EDC40F2FF73C4F216
:1025300000039A4216DCB2F1804F2BD040F20043E8
:10254000C4F2000324E000BF40F2FF33C4F20103F1
:102550009A4213DC41F60003C4F200039A4219D0F8
:10256000002313E040F60003C4F200039A4211D0A6
:1025700040F60043C4F200030AE000BF44F2000347
:10258000C4F201039A4205D040F20043C4F20103B1
:102590009A4204D149682CF08003194391600121CB
:1025A000002280F83D1080F83C20104610BD00004D
:1025B000002804BF0120704710B5044690F83D0084
:1025C00028B9002084F83C00204600F01FF80220C3
:1025D00084F83D002068211D02F042FE012084F8AD
:1025E000460084F83E0084F83F0084F8400084F8F8
:1025F000410084F8420084F8430084F8440084F8E1
:10260000450084F83D00002010BD000080B582B078
:10261000006841F20041C4F2000188421CBF02B0D0
:1026200080BD0020019043F64000C4F20200016822
:10263000002241F0200101600068002100F020002C
:10264000019001983720FFF737FC372002B0BDE832
:102650008040FFF721BC000090F83D1001291CBF0D
:1026600001207047022180F83D10006841F2FF729E
:10267000C168C4F20002904241F00101C1600DDC6A
:1026800040F2FF71C4F20001884215DCB0F1804FC6
:102690002AD040F20041C4F2000123E040F2FF31B1
:1026A000C4F20101884213DC41F60001C4F20001CA
:1026B000884219D0002113E040F60001C4F2000165
:1026C000884211D040F60041C4F200010AE000BF88
:1026D00044F20001C4F20101884205D040F20041F9
:1026E000C4F20101884206D1816801F00701062980
:1026F00004BF00207047016841F001010160002023
:1027000070470000002804BF012070472DE9F04702
:10271000044690F83D000D4628B9002084F83C009E
:10272000204600F049F8022084F83D00206844F279
:102730000702816891438160211D02F091FD2068AC
:102740004FF6FF7881688269D0F820C0D5E9003E55
:10275000D5E9026A43EA0109AB6922EA080246EABE
:1027600003234FF6FC46B343D5E9076742EA0A0262
:1027700029691A4342EA062242EA01112CF0AA0210
:102780006B6942EA0E0241EA073142EA0312C0F8DD
:10279000089081610262012084F8460084F83E00BE
:1027A00084F83F0084F8420084F8430084F83D0038
:1027B0000020BDE8F0870000F0B587B0006840F267
:1027C000FF71C4F2000188424FF000010691CDE98B
:1027D0000411CDE902112DDCB0F1804F5ED040F242
:1027E0000041C4F20001884240F0BD80002043F661
:1027F00030010190C4F202010A6942F002020A614A
:102800000A6902F002020192019A01900A6842F0FC
:1028100001020A60096801F0010101910199C021DA
:1028200002910221CDE90310CDE905010020C4F297
:10283000020095E040F60001C4F20001884269D030
:102840000021C4F20101884240F08D80002043F64F
:1028500030010190C4F202014A6942F001024A616A
:102860004A6902F001020192019A01900A6842F05D
:1028700010020A60096801F01001019101994FF4FA
:10288000206102910221CDE90310059001200690FC
:102890000020C4F2020000F5805061E0002543F6FC
:1028A00030000195C4F202000169002441F00101E9
:1028B00001610169C4F2020401F001010191019971
:1028C00001950168022641F00101016001680127BC
:1028D00001F00101019101990195016841F00201A6
:1028E0000160006802A900F0020001900198202018
:1028F00002902046CDE9036505950697FFF778F924
:102900000820CDE90206CDE90455069704F580605C
:1029100026E000BF002043F630010190C4F202011E
:102920000A6942F004020A610A6902F00402019293
:10293000019A01900A6842F008020A60096801F0F1
:102940000801019101994FF4405102910221CDE912
:102950000310CDE905010020C4F2020000F540603B
:1029600002A9FFF745F907B0F0BD000080B590F867
:102970003E2090F83F3090F842E090F843C00429A0
:102980000AD0B9B9012A4FF0010208BFBEF1010F08
:1029900034D0104680BD00BF012B4FF0010208BFAC
:1029A000BCF1010FF5D1022180F83F1080F84310EF
:1029B00000681EE0012A4FF0010208BF012BE8D198
:1029C000BEF1010FE5D1BCF1010FE2D1022280F886
:1029D0003E2080F83F2080F8422080F8432091B1CB
:1029E0000068016A21F001010162016A41F0010100
:1029F000016210216FF0100209E000BF022180F88F
:102A00003E1080F84210006801216FF00102036A55
:102A10001A400262026A114301620168002241F019
:102A200001010160104680BD7047000010B50168CB
:102A300004460869800744BFC8685FEA807039D4DB
:102A40000869400744BFC8685FEA40703ED408691F
:102A5000000744BFC8685FEA007045D40869C00633
:102A600044BFC8685FEAC0604AD40869C0071CBF99
:102A7000C8685FEAC07051D10869000644BFC868E1
:102A80005FEA006052D40869400644BFC8685FEA44
:102A9000406053D40869800646BFC8685FEA80601A
:102AA00010BD6FF0200220460A61BDE81040FFF71C
:102AB00021BD00BF6FF00200086101202077886906
:102AC000800743D02046FFF7AFFF45E06FF00400DA
:102AD000086102202077886910F4407F40D02046AA
:102AE000FFF7A2FF42E000BF6FF00800086104207A
:102AF0002077C86980073DD02046FFF795FF3FE06B
:102B00006FF01000086108202077C86910F4407F3A
:102B10003AD02046FFF788FF3CE000BF6FF001008D
:102B20000861204600F024FA2168A5E76FF08000D4
:102B300008612046FFF7DCFC2168A4E76FF0400045
:102B40000861204600F046FD2168A3E7204600F01A
:102B500025F8204600F080F92168002020776FE7F3
:102B6000204600F01BF8204600F076F9216800208E
:102B700020776CE7204600F011F8204600F06CF951
:102B800021680020207769E7204600F007F82046FA
:102B900000F062F921680020207766E770470000A6
:102BA0002DE9F04190F83C30012B04BF0220BDE834
:102BB000F0814FEAB202032A00F2FC80DFE802F063
:102BC000023E7EBE036840F200471A6A43F4806505
:102BD00022F001021A621C6A1A46D3F804E052F885
:102BE00018CF8E6824F00204C4F20107BD4244EA03
:102BF000060405D1CE6824F00C0426F00406344304
:102C00000E68BD4207D1D1E905572EF4407E45EA52
:102C10000E0545EA070E2CF073073743C3F804E0AE
:102C20009F614F6809695F631C629F6947F00807ED
:102C30009F619F6927F004079F61B1E0036840F23C
:102C400000481A6A43F4806522F010021A621C6A76
:102C50001A46D3F804E052F818CF8F6824F0200405
:102C6000C4F20108454544EA071407D1CF686FF064
:102C7000400624F0C00406EA071634430F684545B1
:102C800007D1D1E905562EF4406E4EEA850545EA96
:102C9000860E2CF4E64646EA0727C3F804E09F6157
:102CA0004F6809699F631C629F6947F400679F61D1
:102CB0009F6927F480679F6171E000BF036840F25D
:102CC00000481A6A43F4806522F480721A621C6A12
:102CD0001A46D3F804E052F81CCF8F6824F400742D
:102CE000C4F20108454544EA072408D1CF6840F200
:102CF000FF463F0224F4406427EA060634430F6887
:102D0000454507D1D1E905562EF4405E4EEA05153A
:102D100045EA061E2CF073063743C3F804E0DF6172
:102D20004F680969DF631C62DF6947F00807DF61EC
:102D3000DF6927F00407DF6132E000BF036840F27B
:102D400000451A6A43F4806722F480521A621A46D8
:102D5000D3F820C05C6852F81CEFD1F800808E6870
:102D6000C4F20105AF4204D14D6924F4804444EA21
:102D700085142CF4005747EA06372EF4E64646EA57
:102D800008265C60DE614E6809691E641F62DF69A7
:102D900047F40067DF61DF6927F48067DF610902BC
:102DA0001368194311600021002280F83C20084676
:102DB000BDE8F0810121002280F83C200846BDE8F2
:102DC000F0810000002804BF0120704710B50446C0
:102DD00090F83D0028B9002084F83C00204600F01F
:102DE0001FF8022084F83D002068211D02F038FA07
:102DF000012084F8460084F83E0084F83F0084F8FF
:102E0000400084F8410084F8420084F8430084F8CC
:102E1000440084F8450084F83D00002010BD000007
:102E200081B0006840F60041C4F20001884201D040
:102E300001B070470020009043F64000C4F2020049
:102E4000016841F008010160006800F0080000908E
:102E5000009801B0704700007047000041B1082998
:102E600010D0042914BF00F1410200F13F020BE031
:102E700090F83E20012A1CBF01207047022280F8F2
:102E80003E2013E000F140021278012A1CBF01200D
:102E900070470222082907D0042914BF80F8412076
:102EA00080F83F2002E000BF80F84020006801F079
:102EB0001F010122036A02FA01F123EA0102026200
:102EC000026A114341F2FF72C4F2000290420162B1
:102ED0000CDC40F2FF71C4F20001884214DCB0F156
:102EE000804F37D040F2004116E000BF40F2FF3182
:102EF000C4F20101884215DC41F60001C4F2000170
:102F0000884227D0002115E040F60001C4F20001FC
:102F100088421FD040F60041C4F20001884219D017
:102F20001FE000BF44F20001C4F20101884211D049
:102F300040F20041C4F20101884212D1416C40F2DA
:102F4000004340F48062C4F2010341F400419A421C
:102F5000416406D1816801F00701062904BF002001
:102F60007047016841F001010160002070470000D6
:102F70002DE9F04F81B02DED0A8B8EB040F60001A7
:102F8000C4F202010068A1F5FA31884214D00EB0F3
:102F9000BDEC0A8B01B0BDE8F08F00BF000034C368
:102FA000000034430000B4C30000B44300002042DA
:102FB00000000000000044C040F24000C2F20000E7
:102FC00090ED000A1FED0B1A1FED0B2AB4EE410A1B
:102FD00040F27062F1EE10FAB8BFB0EE420AB4EE01
:102FE000420AC2F20002F1EE10FAC8BFB0EE410A86
:102FF00092ED023A40F224191FED164A33EE403AA0
:1030000040F23C01C2F20009B4EE423A1FED1A2A26
:10301000C2F2000189ED0B0A33EE044AF1EE10FA18
:10302000C8BFB0EE443AB4EE413A09F1100033EEB5
:10303000022AF1EE10FAB8BFB0EE423AD1F80080A1
:1030400030EE030A02F0A4FD1FED281AB4EE410A87
:10305000F1EE10FAB8BFB0EE401A11EE100AFDF70B
:103060004EFB1FED2D0B064654EC107B3A462346D3
:103070000D46FDF7D7FA002840461CBF25463E46C0
:10308000FDF73DFB07460C46304629463A462346A7
:10309000FDF740F9FDF746FB43F62478C2F200083D
:1030A000C8F85C00C8F87C003846214632462B46FA
:1030B000FDF7D1F9FDF736FB42F6BC71C2F2000113
:1030C0000968C8F81C00C8F83C00486A40F21002C1
:1030D000C2F20002B0F5004FA8BFA0F5803092ED1B
:1030E000001A99ED003A00EE100AB7EE002AB8EE89
:1030F000C00A32EE412AB8EEC33A22EE033A21EE7C
:10310000000A43F2040030EE030AC2F20000BDEEF2
:10311000C00A006889ED000A99ED014A99ED025A4A
:10312000426AB8EEC44AB2F5004FA8BFA2F5803299
:1031300003EE102AB8EEC33A22EE044A21EE033A17
:1031400043F24C0233EE043AC2F20002BDEEC33A3F
:10315000126889ED013A536A10EE107AB3F5004F08
:10316000A8BFA3F5803300EE103AB8EEC00AB8EE5F
:10317000C54A22EE044A21EE000A43F2940330EEDF
:10318000040AC2F20003BDEEC00A1B6889ED020A00
:103190005D6A13EE106AB5F5004FA8BFA5F580353E
:1031A00099ED034A03EE105AB8EEC33AB8EEC44A9A
:1031B00022EE042A21EE031A31EE021ABDEEC11AE4
:1031C000B7F5004F89ED031AA4BFA7F58037C9F8FA
:1031D0000070B6F5004F10EE107AA4BFA6F5803649
:1031E000C9F80460B7F5004F11EE106AA4BFA7F547
:1031F0008037C9F80870B6F5004FA4BFA6F5803631
:10320000C9F80C6000EE107A0026B8EEC00A4E62D3
:103210004662B1EE400A404656625E6202F0B8FC79
:1032200099ED011AB0EE40BAB8EEC10A08F12000DB
:1032300002F0AEFC99ED031AB0EE40AAB8EEC10A56
:1032400008F1400002F0A4FC99ED001AB0EE409A9B
:10325000B8EEC10AB1EE400A08F1600002F098FC35
:103260009FEDDBCAB0EE408AB4EE4CBAB0EE4C0A29
:10327000F1EE10FAB8BFB0EE4B0A10EE100AFDF7EF
:103280003EFA9FEDCB0B044655EC106B32462B46B5
:103290000F46CDE90065FDF7C5F99FEDC70B002886
:1032A0005BEC108B1CBF2F46344620463946424605
:1032B0005B4647EC1B4BFDF7B5F905462046394602
:1032C00042465B46FDF7C9F90646002818BF0126AD
:1032D0008DED06BB9DF81F00394680F080008DF80B
:1032E0001F00DDE906A9204642465B46002D18BFB7
:1032F0000125FDF797F9002804BFA246B94640F61C
:103300000004C4F20204204604212A46FEF74EFDC2
:10331000204608213246FEF749FD9FEDA90B504695
:1033200053EC102B4946CDE90423FDF79AF89FEDA5
:10333000A60B53EC102BCDE90223FDF704F9FDF7A2
:10334000C5F943F2DC01C2F200010968B4EE4CAAEF
:10335000B0EE4C0A4863F1EE10FAB8BFB0EE4A0A7C
:1033600010EE100AFDF7CBF9009E019D32462B4668
:1033700004460F46FDF756F900281CBF2F46344679
:103380002046394642465B4647EC1A4BFDF74AF960
:1033900005462046394642465B46FDF75EF906463D
:1033A000002818BF01268DED08AB9DF8270039468F
:1033B00080F080008DF82700DDE908A9204642460C
:1033C0005B46002D18BF0125FDF72CF9002804BF2E
:1033D000A246B94640F60004C4F202042046012188
:1033E0002A46FEF7E3FC204602213246FEF7DEFCC9
:1033F000DDE9042350464946FDF733F8DDE90223B1
:10340000FDF7A1F8FDF762F943F2DC01C2F2000119
:103410000968B4EE4C9AB0EE4C0A8863F1EE10FAEB
:10342000B8BFB0EE490A10EE100AFDF768F9009D2A
:10343000019E2A46334604460F46FDF7F3F800285E
:103440001CBF37462C462046394642465B4647EC71
:10345000194BFDF702F905462046394642465B46C0
:10346000FDF7E0F80646002818BF01268DED0A9BFF
:103470009DF82F00394680F080008DF82F00DDE99F
:103480000AA9204642465B46002D18BF0125FDF7DC
:10349000C9F8002804BFA246B94640F60004C4F2A9
:1034A000020420464FF480712A46FEF77FFC204636
:1034B0004FF400713246FEF779FCDDE904235046F3
:1034C0004946FCF7CEFFDDE90223FDF73CF8FDF7A6
:1034D000FDF843F2DC01C2F200010968B4EE4C8A47
:1034E000C863F1EE10FAB8BFB0EE48CA1CEE100A7D
:1034F000FDF705F9009D019E2A46334604460F4616
:10350000FDF790F800281CBF37462C462046394668
:1035100042465B4647EC184BFDF79FF805462046B0
:10352000394642465B46FDF77DF80646002818BF3F
:1035300001268DED0C8B9DF83700394680F0800018
:103540008DF83700DDE90CA9204642465B46002D88
:1035500018BF0125FDF766F8002804BFA246B9464A
:1035600040F60004C4F2020420464FF400612A46EB
:10357000FEF71CFC20464FF480513246FEF716FC45
:10358000DDE9042350464946FCF76BFFDDE90223E1
:10359000FCF7D9FFFDF79AF843F2DC01C2F2000113
:1035A000096808640EB0BDEC0A8B01B0BDE8F08F6D
:1035B00000000000008051C000000000000000007A
:1035C0000000000000409F40000000000000594043
:1035D00000008C427047000070B582B0044690F83D
:1035E0003E0020280ED113460A4600294FF0010064
:1035F00018BF002B02D102B070BD00BF94F83C0090
:10360000012803D1022002B070BD00BF012084F860
:103610003C00206300262220A262A385266484F851
:103620003E002168A06B45F2255C45F2816E45F2B3
:10363000A935C0F6000CC0F6000EC0F60005043136
:10364000C0E90FCEC0E91356FEF76EFA0196206866
:1036500001680191416801910199216984F83C60F8
:1036600031B300BF50E8030F216840F4807041E897
:103670000302EAB1206850E8030F216840F480702B
:1036800041E80302A2B1206850E8030F216840F42A
:10369000807041E803025AB1206850E8030F2168A6
:1036A00040F4807041E8030212B12068DAE700BFFD
:1036B000206850E8050F216840F0010041E805024C
:1036C000E2B1206850E8050F216840F0010041E8B0
:1036D00005029AB1206850E8050F216840F001000A
:1036E00041E8050252B1206850E8050F216840F01A
:1036F000010041E80502002ADAD100BF206850E845
:10370000050F216840F0400041E80502DAB1206869
:1037100050E8050F216840F0400041E8050292B1F1
:10372000206850E8050F216840F0400041E805029C
:103730004AB1206850E8050F216840F0400041E898
:103740000502002ADAD1206B012839D1002000902F
:1037500021680A6800924A680092009A51E8031FA3
:10376000226841F0100142E80313002B3FF443AFFD
:10377000206850E8030F216840F0100041E8030280
:1037800012B3206850E8030F216840F0100041E8B0
:103790000302CAB1206850E8030F216840F010000E
:1037A00041E8030282B1206850E8030F216840F02D
:1037B000100041E80302002A4FF00000D8D11AE7B8
:1037C000012002B070BD00BF002002B070BD00003B
:1037D0002DE9F04F81B02DED108B86B0006844F2DA
:1037E0000042C4F200029042059100F01D8244F6AE
:1037F0000001C4F20001884240F01C8205980028B4
:1038000000F0188243F259399FEDE18B9FEDE29B66
:103810009FEDE3BA9FEDE4CB9FEDE5DA9FEDE5EA9E
:103820009FEDE5FBDFEDE6AADFEDE6BA0024C2F28C
:103830000009B3EE00AA0BE043F2F410C2F200005C
:103840004946C822FFF7C8FE0598844280F2F281FB
:1038500019F80400A346552804F10104F8D10BEB34
:10386000090519F80420A878E97895F80480131858
:1038700095F805A00B44434495F806C0534495F8C9
:1038800007E0634403EB0E072B7A6E7A1F4437443C
:103890005537AD7AFFB2AF42CED1513A052A13D88F
:1038A000DFE812F01A00AA0006011200120006005A
:1038B000180440EA066040EA0E2042F6B8716044FF
:1038C000C2F20001086000BF43F259390BF10B044A
:1038D000C2F20009B0E700BF40EA012000EE100A82
:1038E000B8EEC00A10EE100ACDE903ECFCF707FFB2
:1038F00059EC182B4B460292FCF7B3FD064640F2FA
:103900001800C2F20000D0ED00DA0C461DEE900A5D
:10391000FCF7F5FE0F460246304621463B4614466C
:10392000FCF79FFD56EC192B33460192FCF799FDED
:10393000FCF7F8FE40F26465C2F200050EEE900A54
:10394000286048EA0A2000EE100AB8EEC00A10EE1D
:10395000100AFCF7D4FE029D4B462A46FCF781FD77
:1039600022463B46FCF77DFDDDF8048033464246A7
:10397000FCF777FDFCF7D6FE824640F26460C2F2A7
:103980000000C0F804A0DDE9031040EA012000EEC9
:10399000100AB8EEC00A10EE100AFCF7B0FE2A4674
:1039A0004B46FCF75EFD22463B46FCF75AFD42467D
:1039B0003346FCF756FDFCF7B5FE2DEE8A0AB4EE51
:1039C0006E0A40F26461F1EE10FAC2F20001886002
:1039D00040F3FA8001EE10AAB4EE410AF1EE10FABB
:1039E00040F3048101EE100AB4EE410AF1EE10FA40
:1039F0003FF76AAF0CE100BF40EA012000EE100A79
:103A0000B8EEC00A10EE100ACDE903ECFCF777FE21
:103A100059EC1C6B32464B46FCF723FD57EC194B17
:103A200022463B46FCF71DFDFCF77CFE44F2DC150C
:103A3000C2F20005286048EA0A2000EE100AB8EE3B
:103A4000C00A10EE100AFCF75AFE32464B46FCF74D
:103A500008FD22463B46FCF704FDFCF763FE686068
:103A6000DDE9031040EA012000EE100AB8EEC00ABA
:103A700010EE100AFCF743FE32464B46FCF7F1FC11
:103A800022463B46FCF7EDFCFCF74CFE00EE100A2C
:103A9000B4EE4D0AF1EE10FAA8607FF715AF44F2CC
:103AA000DC1030EE0E0AC2F2000080ED020A0BE7D5
:103AB00040EA012000EE100AB8EEC00A10EE100A2B
:103AC000CDF810C07746FCF71AFE55EC1F6B324656
:103AD0002B46FCF7C6FC59EC194B22464B46FCF72B
:103AE000C0FCFCF71FFE0DEE900A48EA0A2000EE2B
:103AF000100AB8EEC00A10EE100AFCF700FE3246BB
:103B00002B46FCF7AEFC22464B46FCF7AAFCFCF722
:103B100009FE0EEE900A049840EA072000EE100A13
:103B2000B8EEC00A10EE100AFCF7E9FD32462B464B
:103B3000FCF797FC22464B46FCF793FCFCF7F2FDA2
:103B4000F4EE6BDA00EE100A3DEEAA1AF1EE10FA6E
:103B5000F4EE6BEA40F27060C8BFF0EE41DA3EEE80
:103B6000AA1AF1EE10FAB4EE6B0AC2F20000C8BF56
:103B7000F0EE41EA30EE2A1AF1EE10FAC8BFB0EECC
:103B8000410AC0ED00DAC0ED01EA80ED020A9BE6D1
:103B90000000000000003040000000000000003F76
:103BA000000000C200BF00BF0000000000409F40B6
:103BB0000000FA4400007AC5000000000080664062
:103BC0000000B4C3000034432DEE8B1A40F2646150
:103BD00031EE2E1AC2F2000181ED001A01EE10AA98
:103BE000B4EE410AF1EE10FA3FF7FCAE2DEE8B2A4F
:103BF00040F2646132EE011AC2F2000181ED011A55
:103C000001EE100AB4EE410AF1EE10FA3FF75CAE95
:103C10002DEE8B0A40F2646030EE010AC2F2000021
:103C200080ED020A50E600BF40F24400C2F20000FC
:103C30000121017006B0BDEC108B01B0BDE8F08F22
:103C4000006844F20041C4F20001884218BF704786
:103C500040F2440CC2F2000CDCF8040044F20831DB
:103C60000023C2F20001C82280F83C308CF80030FA
:103C7000FFF7B2BCB0B582B0044600680168C36803
:103C8000426901F02F05202D03F0200506D12DB14A
:103C9000204602B0BDE8B04001F0FCBC5FEA017C08
:103CA0001EBF02F0010E03F4907212EB0E0255D10A
:103CB000226B012A05D111F0100218BF13F0100277
:103CC00036D10A0622D513F080021FD094F83D1099
:103CD000212941D1A168B1F5805F03D12169002973
:103CE00000F06C82216A4A1C226209784160E18CF2
:103CF00001390A04E1842FD1C16821F08001C1603B
:103D0000C16841F04001C16002B0B0BD490623D591
:103D100013F0400120D0C16821F04001C160202192
:103D2000204684F83D1002B0BDE8B04000F0B2BCBF
:103D30000021019101680191416801910199416956
:103D4000490600F18B80A18DE28DE38D002B1CBF15
:103D5000891A5FEA01420CD102B0B0BDCA0718BF90
:103D600013F4807240F032814A0700F135813AE164
:103D7000206850E8030F226820F4907042E80303A3
:103D8000DBB1206850E8030F226820F4907042E80D
:103D9000030393B1206850E8030F226820F4907069
:103DA00042E803034BB1206850E8030F226820F477
:103DB000907042E80303002BDAD1206850E8050F29
:103DC000226820F0010042E80503DBB1206850E8DA
:103DD000050F226820F0010042E8050393B1206836
:103DE00050E8050F226820F0010042E805034BB1BE
:103DF000206850E8050F226820F0010042E8050322
:103E0000002BDAD1202084F83E00002020632068B7
:103E100050E8030F226820F0100042E80303DBB1F2
:103E2000206850E8030F226820F0100042E80303E6
:103E300093B1206850E8030F226820F0100042E898
:103E400003034BB1206850E8030F226820F01000F4
:103E500042E80303002BDAD189B2B0E0A26B11680B
:103E60004B689DB2002D3FF477AFA18D8D42BFF41A
:103E700073AFE385D269B2F5807F00F09D8050E892
:103E8000030F216820F4807041E80302E2B120684A
:103E900050E8030F216820F4807041E803029AB1D2
:103EA000206850E8030F216820F4807041E8030285
:103EB00052B1206850E8030F216820F4807041E877
:103EC00003020AB12068DAE7206850E8050F21688C
:103ED00020F0010041E80502DAB1206850E8050F42
:103EE000216820F0010041E8050292B1206850E805
:103EF000050F216820F0010041E805024AB1206861
:103F000050E8050F216820F0010041E80502002A71
:103F1000DAD1206850E8050F216820F0400041E820
:103F20000502DAB1206850E8050F216820F0400052
:103F300041E8050292B1206850E8050F216820F0A1
:103F4000400041E805024AB1206850E8050F2168A9
:103F500020F0400041E80502002ADAD1202084F850
:103F60003E0000202063206850E8030F216820F005
:103F7000100041E80302DAB1206850E8030F21681D
:103F800020F0100041E8030292B1206850E8030FCE
:103F9000216820F0100041E803024AB1206850E88F
:103FA000030F216820F0100041E80302002ADAD153
:103FB000A06BFDF7CBFBA18DE08D081A81B22046E6
:103FC00002B0BDE8B040FFF703BC00BF226C42F076
:103FD000010222644A0706D5BEF1000F03D0226C0D
:103FE00042F0020222648A0706D5BEF1000F03D018
:103FF000226C42F004022264BCF1000F06D555EA9F
:104000000E0203D0226C42F008022264226C002AC5
:104010003FF4A2AE11F0200118BF002D03D02046BE
:1040200001F038FB20684169226C01F0400102F088
:104030000802891800F0A28050E8030F216820F4DC
:10404000907041E80302C2B3206850E8030F216872
:1040500020F4907041E803027AB3206850E8030F1F
:10406000216820F4907041E8030232B3206850E8E0
:10407000030F216820F4907041E80302EAB1206840
:10408000DAE700BF206850E8050F216820F0010042
:1040900041E80502DAB1206850E8050F216820F0F8
:1040A000010041E8050292B1206850E8050F21683F
:1040B00020F0010041E805024AB1206850E8050FF0
:1040C000216820F0010041E80502002ADAD1206BC6
:1040D000012824D1206850E8030F216820F0100047
:1040E00041E80302DAB1206850E8030F216820F0AC
:1040F000100041E8030292B1206850E8030F2168E4
:1041000020F0100041E803024AB1206850E8030F94
:10411000216820F0100041E80302002ADAD12020B3
:1041200084F83E00002020632068416949063FD59D
:1041300050E8050F216820F0400041E805022AB34D
:10414000206850E8050F216820F0400041E8050292
:10415000E2B1206850E8050F216820F0400041E8F6
:1041600005029AB1206850E8050F216820F0400050
:1041700041E8050252B12068DAE700BF2046FFF7A8
:104180005FFD0020206402B0B0BD00BFA06B78B11D
:1041900045F29D31C0F600010165FDF721FB0028C5
:1041A0003FF4DAADA06B016D02B0BDE8B040084746
:1041B000204602B0BDE8B040FFF742BD216A31F8A9
:1041C000022B6FF35F224260216290E5002804BF5A
:1041D0000120704710B5044690F83D0028B9002032
:1041E00084F83C00204600F021F8242084F83D00AB
:1041F0002068C16821F40051C160204601F0CAFA6C
:104200002068016921F490410161416921F02A018E
:104210004161C16841F40051C16000202021206447
:1042200084F83D1084F83E1010BD000070B586B0D3
:104230000446006844F20041C4F2000100268842AE
:10424000CDE90466CDE90266019639D044F6000155
:10425000C4F20001884200F0858041F20001C4F2FE
:104260000101884240F0CF80002043F630010090E9
:10427000C4F202014A6942F010024A614A6902F03E
:1042800010020092009A00900A6842F001020A604F
:10429000096801F00101009100994FF4C06101919A
:1042A0000221CDE902100320049007200590002090
:1042B000C4F2020001A9FDF79BFC06B070BD00BF6F
:1042C00043F630000096C4F20200016941F4003167
:1042D0000161016901F400310091009900960168C3
:1042E00041F008010160006801A900F00800009099
:1042F0000098602001900220CDE90206032004907E
:10430000072005900020C4F2020000F54060FDF790
:104310006FFC46F22800C4F2020042F6B805603095
:10432000C2F200054FF000614FF4806285E843005F
:104330002846C5E90362C5E90566C5E907666E62F8
:10434000FDF740FB002818BFFCF798FF262000214E
:104350000022A563AC63FDF7AFFD2620FDF79CFDB1
:1043600006B070BD002643F630000096C4F202008D
:10437000016941F480210161016901F4802100910A
:1043800000990096016841F002010160006801A9EE
:1043900000F00200009000984FF44060019002206D
:1043A000CDE9020603200490072005900020C4F206
:1043B000020000F58060FDF71BFC42F6181546F27E
:1043C0002800C2F20005C4F202004FF000614FF471
:1043D000806285E843002846C5E90362C5E90566B1
:1043E000C5E907666E62FDF7EDFA002818BFFCF715
:1043F00045FF272000210022A563AC63FDF75CFD8B
:104400002720FDF749FD06B070BD00007047000091
:10441000704700002DE9F04381B0044690F83D005C
:1044200020280DD10F4600294FF0010000F0DD805B
:104430001646002A00F0D98094F83C00012803D1E8
:10444000022001B0BDE8F083012084F83C004FF069
:10445000000921201D46C4F8409084F83D00FDF776
:10446000ABFCA684E684A1680646B1F5805F07D15F
:10447000206900281CBF38464F46B846074601E071
:104480004FF0000884F83C90E18C2068002900F08F
:104490008B8005F101090AE047B317F8011B416061
:1044A000E18C0139E184E18C002900F07D80016814
:1044B0000906F1D4B9F1000F0AD0EDB1FDF77CFC8B
:1044C000801BA84218D8206801680906F6D5E3E7E2
:1044D00001680906E0D4016809065CBF01685FEA6B
:1044E0000161D9D401680906F2D5D5E738F8021B75
:1044F00000276FF35F21D2E7206850E8030F21689F
:1045000020F4D07041E80302BAB3206850E8030FEA
:10451000216820F4D07041E8030272B3206850E8AB
:10452000030F216820F4D07041E803022AB3206809
:1045300050E8030F216820F4D07041E80302002AFC
:10454000DAD11AE0206850E8050F216820F0010058
:1045500041E80502DAB1206850E8050F216820F033
:10456000010041E8050292B1206850E8050F21687A
:1045700020F0010041E805024AB1206850E8050F2B
:10458000216820F0010041E80502002ADAD120204C
:1045900084F83D0084F83E00002084F83C000320AD
:1045A00001B0BDE8F08300BF0168490619D4FDB130
:1045B000691C0DD10168490613D4016849065CBF26
:1045C00001685FEA41610CD401684906F2D508E050
:1045D000FDF7F2FB801BA8420AD82068006840065D
:1045E000F6D5202084F83D00002001B0BDE8F0831E
:1045F000206850E8030F216820F4D07041E80302DE
:10460000E2B3206850E8030F216820F4D07041E83D
:1046100003029AB3206850E8030F216820F4D07099
:1046200041E8030252B3206850E8030F216820F4E8
:10463000D07041E80302002ADAD11FE0206850E878
:10464000050F216820F0010041E80502002A9ED0F4
:10465000206850E8050F216820F0010041E80502BC
:10466000002A3FF494AF206850E8050F216820F03D
:10467000010041E80502002A3FF489AF206850E8B4
:10468000050F216820F0010041E80502002AD5D17C
:104690007DE7000070470000FEE700002DE9F041D3
:1046A00082B06C462046002101F02AF9DDE90001C4
:1046B00040F28066C2F20006C6E9000120460121F0
:1046C00001F01EF9DDE90001C6E9020120460221E0
:1046D00001F016F9DDE90001C6E9040120460321D5
:1046E00001F00EF9DDE90001C6E9060120460421CA
:1046F00001F006F940F2B007C2F200070122C0F251
:1047000026023C4644F8042F2822A2806B22C0F2E5
:104710009302D623C4F81A20C0F2D803C4F83E206E
:10472000FE22C4F81E30C4F84230A4F84620328875
:10473000B388E28023813289B3896281A381328A7E
:10474000B38AE2812382328BB38B6282A382728826
:10475000F3886285A3857289F389DDE90001E2852A
:104760002386728AF38AFE25C6E90801C0F2010594
:104770006286A386728BF38B45F6F506C4F8225049
:104780002625E0822183090C000CC0F60006C0F249
:104790002805E28623876087A1872046122102220E
:1047A000334604F12408C4F82650FBF73AFD40468E
:1047B000122102223346FBF734FD23883BB1B7F9BF
:1047C000000007EB40010130A1F84C303880398DF2
:1047D00044F2E220C2F2000029B1B7F9022020F829
:1047E000121001327A80FE88B7F90050002EAAB26A
:1047F00018BF9E4205D007EB45030132A3F84C6079
:104800003A803B89002B18BFB34206D016B207EBA3
:1048100046060132A6F84C303A807E89002E18BF39
:104820009E4206D013B207EB43030132A3F84C605B
:104830003A80BB89002B18BFB34206D016B207EBF3
:1048400046060132A6F84C303A80FE89002E18BF89
:104850009E4206D013B207EB43030132A3F84C602B
:104860003A803B8A002B18BFB34206D016B207EB42
:1048700046060132A6F84C303A807E8A002E18BFD8
:104880009E4206D013B207EB43030132A3F84C60FB
:104890003A80BB8A002B18BFB34206D016B207EB92
:1048A00046060132A6F84C303A80FE8A002E18BF28
:1048B0009E4206D013B207EB43030132A3F84C60CB
:1048C0003A803B8B002B18BFB34206D016B207EBE1
:1048D00046060132A6F84C303A807E8B002E18BF77
:1048E0009E4206D013B207EB43030132A3F84C609B
:1048F0003A80BB8B002B18BFB34206D016B207EB31
:1049000046060132A6F84C303A80FE8B002E18BFC6
:104910009E4206D013B207EB43030132A3F84C606A
:104920003A803B8C002B18BFB34206D016B207EB7F
:1049300046060132A6F84C303A807E8C002E18BF15
:104940009E4206D013B207EB43030132A3F84C603A
:104950003A80BB8C002B18BFB34206D016B207EBCF
:1049600046060132A6F84C303A80FE8C002E18BF65
:104970009E4206D013B207EB43030132A3F84C600A
:104980003A807B8DB7F90260002BB2B21FBF8B4219
:1049900020F8163001327A80B98D002918BF99426B
:1049A00004D013B2013220F813107A80FB8D002B53
:1049B00018BF8B4204D011B2013220F811307A8036
:1049C000398E002918BF994204D013B2013220F861
:1049D00013107A807B8E002B18BF8B4204D011B24B
:1049E000013220F811307A80B98E002918BF99421F
:1049F00004D013B2013220F813107A80FB8E002B02
:104A000018BF8B4204D011B2013220F811307A80E5
:104A1000398F002918BF994204D013B2013220F80F
:104A200013107A807B8F002B18BF8B4204D011B2F9
:104A3000013220F811307A80B98F002918BF9942CD
:104A400004D013B2013220F813107A80FB8F002BB0
:104A500018BF8B4204D011B2013220F811307A8095
:104A6000B7F84010002918BF994204D013B20132A0
:104A700020F813107A80B7F84230002B18BF8B4211
:104A800004D011B2013220F811307A80B7F8441006
:104A9000002918BF994204D013B2013220F8131034
:104AA0007A80B7F84630002B18BF8B4204D011B281
:104AB000013220F811307A80B7F84810002918BF69
:104AC000994204D013B2013220F813107A80B7F85B
:104AD0004A30002B18BF8B4202D102B0BDE8F081F2
:104AE00011B220F81130501C788002B0BDE8F0817E
:104AF00010B540F2806CC2F2000CBCF9002082427A
:104B00000CDABCF90420824208DDBCF902208A429A
:104B100004DABCF906208A4200F3A280BCF908201E
:104B200082420CDABCF90C20824208DDBCF90A2072
:104B30008A4204DABCF90E208A4200F39180BCF963
:104B4000102082420CDABCF91420824208DDBCF944
:104B500012208A4204DABCF916208A4200F38080CF
:104B6000BCF9182082420BDABCF91C20824207DD16
:104B7000BCF91A208A4203DABCF91E208A426FDC93
:104B8000BCF9202082420BDABCF92420824207DDE6
:104B9000BCF922208A4203DABCF926208A425FDC73
:104BA000BCF9282082420BDABCF92C20824207DDB6
:104BB000BCF92A208A4203DABCF92E208A424FDC53
:104BC000BCF9302082420BDABCF93420824207DD86
:104BD000BCF932208A4203DABCF936208A423FDC33
:104BE000BCF9382082420BDABCF93C20824207DD56
:104BF000BCF93A208A4203DABCF93E208A422FDC13
:104C0000BCF9402082420BDABCF94420824207DD25
:104C1000BCF942208A4203DABCF946208A421FDCF2
:104C2000BCF9482082420BDABCF94C20824207DDF5
:104C3000BCF94A208A4203DABCF94E208A420FDCD2
:104C4000BCF9502082420DDABCF95420824209DDC1
:104C5000BCF952208A4205DABCF956208A4201DDAD
:104C6000002010BDBCF9582082424FF000020BDA40
:104C7000BCF95C30834207DDBCF95A308B4203DA61
:104C8000BCF95E308B421CDCBCF96030BCF964407E
:104C900083424FF00003BCF962E0BCF966C0A8BFD4
:104CA000012384424FF00000D8BF012018438E45F5
:104CB0004FF00003A8BF012318438C45D8BF012241
:104CC0000243104610BD000080B582B00020019064
:104CD00043F63000C4F202000168002241F40011E2
:104CE00001600068002100F40010019001980C2080
:104CF000FDF7E2F80C20FDF7CFF81020002100228C
:104D0000FDF7DAF8102002B0BDE88040FDF7C4B826
:104D100070B586B0002543F6300005950095C4F2C5
:104D20000200016840F6000441F080010160016862
:104D3000C4F2020401F0800100910099009501681D
:104D4000002241F004010160016841F60F3601F0D4
:104D50000401009100990095016841F00101016092
:104D6000016801F00101009100990095016841F08E
:104D700010010160016801F0100100910099009597
:104D8000016841F002010160016801F00201009137
:104D900000990095016841F008010160006841F642
:104DA0000F3100F00800009000982046FCF7FEFF4D
:104DB0001120CDE9020501A9204601960495FCF7D2
:104DC00017FF06B070BD000010B58CB042F6BC7085
:104DD00000210024C2F20000C4F20101C0E9001465
:104DE0000321CDE9031401214FF6FF72CDE905142B
:104DF000CDE9091403A9CDE90044C0E90242C0E9A4
:104E000004448461CDE907440B94FDF77BFC002842
:104E100018BFFCF733FA42F6BC70C2F200006946D4
:104E2000CDE90044FDF768FB002818BFFCF726FA1F
:104E30000CB010BD80B58CB043F204000021C2F26A
:104E400000004FF08042C0E9002103224FF6FF73BB
:104E5000CDE903210122CDE90011C0E9021301616E
:104E60008161CDE90521CDE90711CDE909210B913A
:104E700003A9FDF747FC002818BFFCF7FFF943F230
:104E80000400C2F200006946FDF736FB002818BF97
:104E9000FCF7F4F90CB080BD80B58CB043F24C0047
:104EA00040F200420021C2F20000C4F20002C0E958
:104EB000002103224FF6FF73CDE903210122CDE942
:104EC0000011C0E9021301618161CDE90521CDE93D
:104ED0000711CDE909210B9103A9FDF713FC002867
:104EE00018BFFCF7CBF943F24C00C2F20000694650
:104EF000FDF702FB002818BFFCF7C0F90CB080BD1D
:104F000080B58CB043F2940040F600020021C2F25A
:104F10000000C4F20002C0E9002103224FF6FF7333
:104F2000CDE903210122CDE90011C0E9021301619D
:104F30008161CDE90521CDE90711CDE909210B9169
:104F400003A9FDF7DFFB002818BFFCF797F943F230
:104F50009400C2F200006946FDF7CEFA002818BF9F
:104F6000FCF78CF90CB080BDB0B590B043F2DC001A
:104F700040F600450021C2F200004FF4FA63C4F28B
:104F80000005CDE90811CDE90611CDE90411012292
:104F9000C0E9021301618021C0E900528161FDF77F
:104FA00011FF002818BFFCF769F943F2DC00C2F2D8
:104FB000000008A9FDF7A0FA002818BFFCF75EF969
:104FC000602001900020CDE90200059043F2DC0052
:104FD000C2F2000001A90022FDF7E2FD002818BF7F
:104FE000FCF74CF943F2DC00C2F2000001A90422F4
:104FF000FDF7D6FD002818BFFCF740F943F2DC00AE
:10500000C2F2000001A90822FDF7CAFD002818BF5E
:10501000FCF734F943F2DC04C2F2000401A9204693
:105020000C22FDF7BDFD002818BFFCF727F920680A
:10503000A84201D010B0B0BD002043F630010B9063
:10504000C4F202010A6842F001020A60096801F034
:1050500001010B910B990F210B910221CDE90C104D
:10506000CDE90E0105F5FA300BA9FCF7C1FD10B032
:10507000B0BD000080B582B043F224100021C2F21E
:10508000000041F200424FF0C80CCDE90011C4F21B
:10509000000242F2D003C0E9021C8021C0E90023D3
:1050A0008161FDF785FA002818BFFCF7E7F843F2A5
:1050B0002410C2F200006946FDF71EFA002818BF4E
:1050C000FCF7DCF802B080BD80B543F26C1041F211
:1050D0000001C2F20000C4F2010100234FF00C0CE9
:1050E0004FF4E13280E80E00C0E90333C0E905C3A4
:1050F000C361FFF76BF8002808BF80BDBDE88040A2
:10510000FCF7BCB880B543F2B01044F20041C2F2E3
:105110000000C4F2000100234FF00C0C4FF4E13208
:1051200080E80E00C0E90333C0E905C3C361FFF79F
:105130004DF8002808BF80BDBDE88040FCF79EB850
:1051400080B543F2F41044F60001C2F20000C4F24C
:10515000000100234FF00C0C4FF4E13280E80E0008
:10516000C0E90333C0E905C3C361FFF72FF8002886
:1051700008BF80BDBDE88040FCF780B8FEE70000B6
:10518000FEE700007047000070470000FCF71ABE01
:10519000B0B592B0002443F64000CDE90A44CDE911
:1051A00008440594CDE90344CDE901440094C4F2D8
:1051B00002000168022541F080510160006800F0A2
:1051C00080500090009847F200000094C4F2000064
:1051D000016841F4804101600068A82100F480402A
:1051E00000900098012006904FF4803007904FF413
:1051F00080000D9004200E90119006A80C95CDE92A
:105200000F15FCF7A3FF28B1EFF3108072B600BFB3
:10521000FEE700BF0F20CDE901054FF4A050049038
:105220004FF48050059001A805210394FCF780FEFF
:1052300020B1EFF3108072B6FEE700BF12B0B0BD30
:105240004EF68850CEF20000016841F47001016012
:105250007047000043F22410C2F20000FDF7E6BBE5
:1052600010B540F6FF3E0368C4F2000E40F2004C59
:105270007045C4F2010C27DCB0F1804F31D040F210
:105280000042C4F2000290422BD040F60002C4F269
:105290000002904225D041F6FF72C4F20002904213
:1052A00029DC70453CDCB0F1804F5FD040F2004219
:1052B000C4F20002904259D040F60002C4F200024B
:1052C000904253D056E000BF40F60042C4F20002C4
:1052D000904206D0604504D00022C4F20102904200
:1052E000D9D14A6823F07003134341F6FF72C4F228
:1052F00000029042D5DD43F6FF72C4F201029042F3
:1053000022DC42F20002C4F2000290422ED00022BF
:10531000C4F20102904229D0604527D02AE000BFA4
:1053200040F60042C4F2000290421FD041F6000253
:10533000C4F20002904219D041F60042C4F20002C9
:10534000904213D016E000BF44F20002C4F2010202
:1053500090420BD044F60002C4F20102904205D004
:1053600044F20042C4F20102904203D1CA6823F41D
:105370004073134323F080024B69D1F800E08C683E
:105380001A430260C46240F48062C0F828E06245BB
:1053900004BF096901630121416110BD806B0021D7
:1053A000C185C184FEF74CBC806B01684A6990F8E6
:1053B0003D30212B2ED112F080022BD00022C2844E
:1053C00051E8031F026821F0C00142E80313EBB16A
:1053D000016851E8031F026821F0C00142E803138D
:1053E000A3B1016851E8031F026821F0C00142E83F
:1053F00003135BB1016851E8031F026821F0C0018B
:1054000042E8031313B10168DAE700BF202180F8F6
:105410003D1001684A6990F83E30222B7CD112F091
:10542000400279D00022C28551E8031F026821F4AE
:10543000907142E80313C3B3016851E8031F026887
:1054400021F4907142E803137BB3016851E8031F14
:10545000026821F4907142E8031333B3016851E804
:10546000031F026821F4907142E80313EBB1016855
:10547000DAE700BF016851E8051F026821F0010169
:1054800042E80513DBB1016851E8051F026821F00D
:10549000010142E8051393B1016851E8051F026854
:1054A00021F0010142E805134BB1016851E8051FE5
:1054B000026821F0010142E80513002BDAD1016BEB
:1054C000012924D1016851E8031F026821F010016D
:1054D00042E80313DBB1016851E8031F026821F0C1
:1054E000100142E8031393B1016851E8031F0268F9
:1054F00021F0100142E803134BB1016851E8031F8A
:10550000026821F0100142E80313002BDAD12021B8
:1055100080F83E1000210163016C41F0100101642C
:10552000FEF78EBB0168806B0968C90500F19F809A
:105530000021C185016851E8031F026821F48071D0
:1055400042E80313E3B1016851E8031F026821F444
:10555000807142E803139BB1016851E8031F0268A0
:1055600021F4807142E8031353B1016851E8031F2D
:10557000026821F4807142E80313002BDAD100BFE6
:10558000016851E8051F026821F0010142E8051396
:10559000BBB3016851E8051F026821F0010142E830
:1055A000051373B3016851E8051F026821F001017A
:1055B00042E805132BB3016851E8051F026821F08A
:1055C000010142E80513002BDAD11AE0016851E825
:1055D000051F026821F0400142E80513DBB10168B4
:1055E00051E8051F026821F0400142E8051393B11C
:1055F000016851E8051F026821F0400142E80513E7
:105600004BB1016851E8051F026821F0400142E8F2
:105610000513002BDAD1202180F83E10016B0129FF
:1056200025D100BF016851E8031F026821F0100175
:1056300042E80313DBB1016851E8031F026821F05F
:10564000100142E8031393B1016851E8031F026897
:1056500021F0100142E803134BB1016851E8031F28
:10566000026821F0100142E80313002BDAD1016B2C
:10567000012918BFFEF7CABE818DFEF7A9B8000048
:10568000806B016B012918BFFEF7C2BE818D4908EE
:10569000FEF79EB881B090F83E10222920D1836891
:1056A000B3F5805F08D10169002965D000F12801B8
:1056B0000A6803685B680AE0014651F8282F13B9AD
:1056C0000369002BF5D003685B6803F07F03137058
:1056D0000A6801320A60C18D01390A04C18501D00E
:1056E00001B070470168CA6822F02002CA60CA6827
:1056F00022F48072CA604A6922F001024A612022C3
:1057000080F83E20026B012A40D10022026300BFD4
:1057100051E8031F026821F0100142E803130168F9
:10572000DBB151E8031F026821F0100142E80313C6
:10573000016893B151E8031F026821F0100142E8AB
:10574000031301684BB151E8031F026821F01001F7
:1057500042E803130168002BDAD10A68D20606D5A5
:10576000002200920A680092496800910099818D98
:1057700001B0FEF72DB800BF0168826A49686FF377
:105780005F2122F8021B8262A5E700BF01B0FEF78D
:105790003DBE000010B504460068D4E902C223698A
:1057A000016921F4405111430161626943EA0C012E
:1057B000E3691143C268194349F20C639A431143E8
:1057C000C1604169A26921F4407141F20043114373
:1057D00040F48062C4F201039A42416102D1FCF7B5
:1057E0006BFC01E0FCF754FCE16963681922B1F538
:1057F000004FA0FB02011FD15A00DB0FFAF7E0FCBB
:1058000048F21F51C5F2EB11A0FB01235A096FF0BA
:10581000630302FB0300322303EBC000A0FB010182
:105820004FF4F87000EA111000EB0210C1F34211BE
:1058300008442168886010BD9A009B0FFAF7C0FCED
:1058400048F21F51C5F2EB11A0FB01235A096FF07A
:10585000630302FB0300322303EB0010A0FB0101F2
:10586000F02000EA511000EB0210C1F3431108448C
:105870002168886010BD000043F2B010C2F2000041
:10588000FEF7F8B943F2F410C2F20000FEF7F2B9E5
:10589000FEE70000B0B540F2140CC2F2000CBCF8F8
:1058A000003041F25E5403EB430EC2F2000424F8D0
:1058B0001E1042F67811C2F2000104EB4E0531F8D9
:1058C00010406A805A1CAC80ACF8002021F81030DF
:1058D000B0BD000080B540F21400C2F2000001210A
:1058E000018042F67810C2F200004FF4FA71FAF724
:1058F000FFFC80BDB0F90000B1F90010401A7047FC
:1059000040F24402C2F2000202EBC101D1F80A20C7
:10591000D1F80E10026041607047000042F620008E
:10592000C2F20000D0F809007047000043F22440A2
:10593000C2F20000006840F21C01C2F20001032222
:105940004FF0FF33FEF766BD43F22441C2F200017F
:105950000860704782B0FCF743FAFFF719FCFFF7C5
:10596000D7F9FFF7B1F9FFF72FFAFFF763FAFFF75F
:1059700093FAFFF7C5FAFFF7F7FAFFF7A5FBFFF772
:10598000C1FBFFF7DDFBFFF775FB43F2DC04C2F25E
:105990000004204600210027FDF760FA204604217C
:1059A000FDF75CFA20460821FDF758FA20460C2145
:1059B000FDF754FA43F20400C2F200003C21FCF768
:1059C000D5FF43F24C00C2F200003C21FCF7CEFFB1
:1059D00043F29400C2F200003C21FCF7C7FF42F6FC
:1059E000BC70C2F200003C21FCF7C0FF43F224105F
:1059F000C2F20000FCF730FE43F2F414C2F20004DD
:105A000043F25931C2F200012046C822FDF7E4FDFD
:105A100040F21F05C2F20005012028702046FFF762
:105A200093FF4FF4FA70FCF7CFF8FFF77FFF4FF4C6
:105A3000FA70FCF7C9F843F624749FED4A9A9FED7B
:105A40004AAAC2F20004B7EE008A2046B0EE480A25
:105A5000F0EE490AB0EE4A1A2F7000F0D5F804F1C2
:105A60002000B0EE480AF0EE490AB0EE4A1A00F003
:105A7000CBF804F14000B0EE480AF0EE490AB0EE6F
:105A80004A1A00F0C1F804F16000B0EE480AF0EEE6
:105A9000490AB0EE4A1A00F0B7F840F22414C2F2F4
:105AA00000049FED320ADFED320A9FED321A04F155
:105AB000100000F0A9F830A0E76200F023F943F2EB
:105AC000B010C2F2000000F0E3F9FBF7CDFB40F2AA
:105AD0004405C2F200056C460FF2A40806E000BFC0
